:020000040800F2
:10000000F8D50020D1020008F989000847750008DA
:10001000F5890008651E0008898E000800000000B0
:10002000000000000000000000000000390200088D
:10003000911E0008000000007D020008258A0008CB
:10004000EB020008EB020008EB020008EB020008DC
:10005000EB020008EB020008EB020008EB020008CC
:10006000EB020008EB020008EB020008EB020008BC
:10007000EB020008EB020008EB020008EB020008AC
:10008000EB020008EB020008EB020008EB0200089C
:10009000EB020008EB020008EB020008EB0200088C
:1000A000EB020008EB020008EB020008EB0200087C
:1000B000EB020008EB020008EB020008EB0200086C
:1000C000EB020008EB020008EB020008EB0200085C
:1000D000EB020008658E0008EB020008EB02000846
:1000E000EB020008EB020008EB020008EB0200083C
:1000F000EB020008EB020008EB020008EB0200082C
:10010000EB020008EB020008EB020008EB0200081B
:10011000EB020008EB020008EB020008EB0200080B
:10012000EB020008EB020008EB020008EB020008FB
:1001300000F002F800F070F80AA090E8000C824489
:100140008344AAF10107DA4501D100F065F8AFF266
:10015000090EBAE80F0013F0010F18BFFB1A43F0A5
:10016000010318470C2A02002C2A02000A444FF00F
:10017000000C10F8013B13F0070408BF10F8014B06
:100180001D1108BF10F8015B641E05D010F8016B4B
:10019000641E01F8016BF9D113F0080F1EBF10F8AF
:1001A000014BAD1C0C1B09D16D1E58BF01F801CBD2
:1001B000FAD505E014F8016B01F8016B6D1EF9D555
:1001C0009142D6D37047000000230024002500266A
:1001D000103A28BF78C1FBD8520728BF30C148BFAA
:1001E0000B607047662916F01A85642900F0DC80E0
:1001F000782900F01581732900F0AB860020704744
:100200001FB500F0FBFE04000020002115F0F6FFF2
:10021000E0601FBD10B510BD00F0AEFF1146FFF746
:10022000EFFF12F081FD00F0CCFF03B4FFF7F2FF07
:1002300003BC11F0A2FD0000224B19680868B0E869
:10024000F00F80F30988BFF36F8F4FF0000080F349
:1002500011884EF00D0E704700000000064800683F
:10026000006880F3088862B661B6BFF34F8FBFF3B2
:100270006F8F00DF00BF00BF08ED00E0EFF30980E3
:10028000BFF36F8F0F4B1A6820E9F00F106008B5AD
:100290004FF0500080F31188BFF34F8FBFF36F8F83
:1002A00014F0CAFE4FF0000080F31188BDE808404A
:1002B00019680868B0E8F00F80F30988BFF36F8F02
:1002C000704700BFB4000020EFF3058070470000C6
:1002D0000948804709480047FEE7FEE7FEE7FEE7DA
:1002E000FEE7FEE7FEE7FEE7FEE7FEE70448054916
:1002F000054A064B70470000398A000831010008A2
:10030000F8C30020F8D50020F8C50020F8C500206B
:10031000704700000FB4044910B503AA029800F01A
:100320001DFE10BC5DF814FB2C0000200FB41CB5A2
:10033000074B06AA7B4469460090059800F0DFFD54
:100340000020694600F0EEFD1CBC5DF814FB0000C7
:10035000ED0B000070B50C460546012A05D0287843
:10036000800600D5EA69002302E0012305E05B1C5A
:10037000934202D2E05C0028F9D1A869E618C01ABD
:10038000A861286A184428622846AFF3008004E078
:10039000D5E9012114F8010B9047B442F8D328465F
:1003A000AFF3008070BD00002DE9F0410646002447
:1003B00010687529314616A510D0AFF300800028CB
:1003C00002DA404213A507E031688A0701D512A579
:1003D00002E0490704D511A5012401E0AFF3008034
:1003E00000210A2206F1240709E0B0FBF2FCB0FB71
:1003F000F2F302FB1C00303078541846491C0028E8
:10040000F3D123462A463046BDE8F04100F009BB4F
:10041000000000002D0000002B0000002000000064
:1004200070B504460D4621461068AFF30080218860
:10043000090502D50F4A7A4402E00E4A7A440E3288
:10044000002104F1240305E000F00F060009965D89
:100450005E54491C0028F7D120780023000704D5FA
:10046000702D02D009B1022311322046BDE8704040
:1004700000F0D7BAC22502002DE9F05F8946044694
:100480004FF0000ADFF874B1FB44C0F820A020460A
:10049000E1688847002874D0252806D0D4E90121D6
:1004A0009047206A401C2062F1E700265F46204604
:1004B000E16888472028054607DB312D05D27819E9
:1004C00010F8200C08B10643F1E7B00701D526F07B
:1004D0000406C4F81CA00027C4F818A02A2D09D0CF
:1004E000284611F043FC38B304EB8708303DC8F8C8
:1004F000185019E059F8041B204604EB870291615B
:10050000E1688847012F054618D1E069002820DA04
:1005100026F020061DE0D8F8180000EB800005EB5F
:1005200040003038C8F818002046E1688847054682
:1005300011F01CFC0028EED1012F0AD02E2D08D17D
:100540002046E16888477F1C0546022F46F02006BA
:10055000C4DBA069002803DA404246F00106A0612E
:10056000F00701D026F010066C2D0BD0682D09D0B5
:100570004C2D39D06A2D35D0742D35D07A2D33D00D
:1005800016E038E0E1682F4620468847B842054625
:1005900009D16C2F26D04FF48060E16806432046D5
:1005A0008847054604E06C2F1AD04FF4807006434C
:1005B0000DB3A5F14100192802D8203546F4006694
:1005C0004A462946204626604E46FFF70BFE80B17C
:1005D00001280BD0F61D26F0070000F1080956E7A8
:1005E0004020E4E78020D8E70020D6E706F10409A0
:1005F0004DE7284652E7206ABDE8F09F98250200A3
:1006000040EA010310B59B070FD1042A0DD310C88F
:1006100008C9121F9C42F8D020BA19BA884201D9E1
:10062000012010BD4FF0FF3010BD1AB1D30703D029
:10063000521C07E0002010BD10F8013B11F8014BDF
:100640001B1B07D110F8013B11F8014B1B1B01D1FB
:10065000921EF1D1184610BD40EA0103024630B5A2
:100660009B0710D14FF0013400E008C208C91D1BE0
:100670009D4315EAC41FF8D013F0FF0102F8011BD7
:100680000DD01B0AF8E711F8013B002B02F8013BE3
:1006900005D011F8013B002B02F8013BF3D130BD2E
:1006A00010B5431C02E010F8011B71B18107FAD1AB
:1006B0004FF0013202C88C1A8C4314EAC211F9D0EF
:1006C000C01A0A0603D0C01E10BDC01A10BD0A040D
:1006D00001D0801E10BD0902FCD0401E10BD032AAF
:1006E00040F2308010F0030C00F0158011F8013B4F
:1006F000BCF1020F624498BF11F801CB00F8013B36
:1007000038BF11F8013BA2F1040298BF00F801CBF9
:1007100038BF00F8013B11F0030300F06B80083A8A
:10072000C0F0088051F8043B083A51F804CBA0E827
:100730000810F5E7121D5CBF51F8043B40F8043B7C
:10074000AFF30080D20724BF11F8013B11F801CBB1
:1007500048BF11F8012B24BF00F8013B00F801CB82
:1007600048BF00F8012B7047431A28BF9A427FF612
:10077000B6AF032A1044114440F2268010F0030F54
:100780001EBF11F8013D521E00F8013D10F0030F8D
:100790007FF4F6AF11F0030300F00584083AC0F0CF
:1007A0000B8051F8043D083A51F804CD40F8043D5F
:1007B00040F804CDFFF7F3BF121D5CBF51F8043DB4
:1007C00040F8043DAFF30080D20724BF11F8013D8B
:1007D00011F801CD48BF11F8012C24BF00F8013DEC
:1007E00000F801CD48BF00F8012C704701B5FFF7B4
:1007F00076FF01BD10B5203AC0F00B80B1E818506B
:10080000203AA0E81850B1E81850A0E81850BFF4FA
:10081000F5AF5FEA027C24BFB1E81850A0E8185099
:1008200044BF18C918C0BDE810405FEA827C24BFED
:1008300051F8043B40F8043B08BF7047D20728BF7B
:1008400031F8023B48BF11F8012B28BF20F8023BCA
:1008500048BF00F8012B704701F0FF03114601B5B6
:1008600043EA032242EA024200F00BF801BD02F023
:10087000FF0343EA032242EA024200F002B84FF0CB
:1008800000020429C0F0128010F0030C00F01B805D
:10089000CCF1040CBCF1020F18BF00F8012BA8BF6B
:1008A00020F8022BA1EB0C0100F00DB85FEAC17C2F
:1008B00024BF00F8012B00F8012B48BF00F8012BE2
:1008C00070474FF0000200B5134694469646203913
:1008D00022BFA0E80C50A0E80C50B1F12001BFF4F9
:1008E000F7AF090728BFA0E80C5048BF0CC05DF85F
:1008F00004EB890028BF40F8042B08BF704748BFAD
:1009000020F8022B11F0804F18BF00F8012B704720
:100910004FF0013C50F8042B51F8043B9A4221D18E
:10092000A2EB0C03934313EACC1317D150F8042B1A
:1009300051F8043B9A4215D1A2EB0C03934313EAFE
:10094000CC130BD150F8042B51F8043B9A4209D137
:10095000A2EB0C03934313EACC13DBD04FF000005F
:10096000704700BFD01A01BAB1FA81F101F0180145
:1009700022FA01F0CB40C1F12001DBB2C0B2C01AB3
:100980002CFA01F3D11A914311EAC311E6D1704751
:10099000704770477047704730B5B0F10A024FEAB0
:1009A000900E71F100034EEA817EB0EB0E0061EB18
:1009B00091014FEA101E4EEA017E10EB0E0041EB52
:1009C00011114FEA102E4EEA016E10EB0E0041EBB2
:1009D00011214FEA104E4EEA014E10EB0E0041EB92
:1009E0001141401841F100014FEAD00040EA417046
:1009F0004FEAD10110EB80054FEA810444EA90747C
:100A000044EB01046D1944EB0404521BA3414FF065
:100A1000000348BF0A3200D530BD401C41F100013F
:100A200030BD2DE9F0470D4699469246044600F147
:100A300024080168880604D5E06921F010012160CE
:100A400000E00120A84201DD471B00E00027A1696A
:100A50007A1902EB0900081AA0612078C00602D4B6
:100A60002046AFF30080002608E0D4E901211AF8FF
:100A700006009047206A401C761C20624E45F4DB3D
:100A80002078C0060AD52046AFF3008006E0D4E9FE
:100A9000012130209047206A401C2062381EA7F1B7
:100AA0000107F4DC07E0D4E9012118F805009047BC
:100AB000206A401C2062281EA5F10105F3DC2046B7
:100AC000AFF300802078000602D50220BDE8F08751
:100AD0000120FBE770472DE9FF4F0C461E464FF003
:100AE000FF378BB0D2E90001DDF860800A908A46BA
:100AF000C1F30A5505B93D46002108464FF00000F4
:100B0000BAF1000F00F4400005DA00EB80004FF46A
:100B1000400101EA50004FEA9059B9F1010F00DDA0
:100B2000B9460A9850EA4A000ED044F61050A5F291
:100B3000FF3545432F14B8F1000F1ED07542291E12
:100B40001EDDC9F100021CE0B8F1010F4FF00000FA
:100B500001D0302103E0F24305E02154401CB042B3
:100B6000FBDB30460022002121540B99C1F808809C
:100B7000C1E900200FB0BDE8F08FBD1B6D1CDEE7A2
:100B80004A4600DA694206A800F07CFA06AB93E810
:100B9000070003AB83E8070050460A9900F01AFBF0
:100BA0008DE80700A0F500501F3800900398002D35
:100BB0000ADD42F21F014A460844002303A90390BC
:100BC000684600F083FD09E0A0F500504A461F3852
:100BD000002303A90390684600F08DFD8DE807000F
:100BE0000004000C03D04FF0FF30410800E0104635
:100BF000B8F1000F03D00022009215461EE0751ECA
:100C000005D4FFF7C9FE303262556D1EF9D5B346E3
:100C10000122084302D000227F1C04E02078302803
:100C200001D100227F1E002A099784D01DE0112DDA
:100C300007DAFFF7B1FE303262556D1C50EA01024F
:100C4000F5D1084302D00098C8B10EE00021681E1B
:100C500005E0235C625C63542254401E491C8142BF
:100C6000F7DBAB46A81B401E0990002004F80B00E0
:100C70000B98099AC0F80880C0E9002B7AE7112682
:100C80004FF0000857E72DE9F04F88460446D21D83
:100C900022F0070191B0D1E90001CDE90A0110F07D
:100CA00043FF02460B98C00F01D02D2007E02068BB
:100CB000810701D52B2002E0202101EAC000032A90
:100CC000099001D0072A05DB03464146204600F083
:100CD00099F90BE12078800601D5E06900E0062053
:100CE000B8F1650F814606D0B8F1660F18D0B8F19B
:100CF000670F70D131E00020B9F1110F009001DBD6
:100D0000112301E009F101030AAA01A90CA8FFF7C8
:100D1000E2FEDDE90C70002609F10105834647E09B
:100D200001204B4600904FF000470AAA01A90CA8E9
:100D3000FFF7D1FEDDE90DB00C995D46002610B934
:100D400009F101000D18B9EB050003D4C0F1FF361D
:100D500009F10105A5EB09002BE0B9F1010F01DA5A
:100D60004FF001090020B9F1110F0090484601DD54
:100D7000112300E003460AAA01A90CA8FFF7ABFE65
:100D8000DDE90C704D4600268346207800070AD422
:100D9000AB4500DA5D4601A8012D04DD411911F8CB
:100DA000011C302907D04F4502DA17F1040F04DA8D
:100DB000012082460FE06D1EEEE7002F02DCED1BE6
:100DC0003E4403E0781CA84200DD7D1CB81B00F106
:100DD000010A4FF000472078000703D4AA4501DB41
:100DE0004FF0FF3A0021B7F1004F0DF143088DF8A5
:100DF000431024D002202B23002F01DA7F422D2321
:100E00000A21021EA0F1010000DC5FB197FBF1FC9A
:100E100097FBF1F201FB1C7C17460CF1300C08F833
:100E200001CDEEE7A8F1010003702188090501D585
:100E3000452100E06521A0F1010800F8011C099896
:100E40000FA9A1EB0807FF1D00B10120411901EB1B
:100E5000EA70A1693844081A401EA0612078C006D3
:100E600002D42046AFF30080099828B1D4E90121CB
:100E70009047206A401C20622078C00622D5204678
:100E8000AFF300801EE0002E04DBB34502DD01A8B5
:100E9000805D00E03020D4E901219047206A401CA9
:100EA0002062761CAAF101005FEA000A0AD100F074
:100EB000A5F8C0680168405CD4E901219047206A28
:100EC000401C2062281EA5F10105DCDC07E0D4E906
:100ED000012118F8010B9047206A401C2062381E3F
:100EE000A7F10107F3DC2046AFF30080032011B027
:100EF00041E6000001694A1C02610878704700B5AC
:100F00008FB0CDE901310021059105497944CDE942
:100F1000031011466846FFF7AFFA0FB000BD00009E
:100F2000E5FFFFFF0A6802F8010B0A60704710B581
:100F3000436913B1AFF3008001E0FFF70BFA012022
:100F400010BD127800F124010A7000224A700122BB
:100F5000EDE711684FF0FF32E9E70000074B70B58D
:100F60000D467B44FFF7CBFF0446284600F0FCF813
:100F700010B14FF0FF3070BD204670BDCB0F0100A7
:100F8000431A28BF9A427FF635AC104410F0030F85
:100F900011441EBF11F8013D521E00F8013D10F032
:100FA000030F7FF4F6AF103AC0F00A8010B531E9B4
:100FB0001850103A20E91850BFF4F9AFBDE81040BE
:100FC000530724BF31E9081020E9081044BF51F845
:100FD000043D40F8043D12F0030F08BF7047D207EC
:100FE00028BF31F8023D48BF11F8012C28BF20F876
:100FF000023D48BF00F8012C7047000000487047D0
:10100000B8C300202DE9F0411F46044603260168BD
:10101000072A01F4006004DB08B116A505E016A557
:1010200003E008B115A500E015A521F0100020602F
:10103000A069C01EA0610FB1401EA0612046AFF3A1
:1010400000804FB1D4E9012138469047206A401C06
:101050002062C01C206206E0206AFAE7D4E9012180
:1010600015F8010B9047761EF8D22046AFF30080AA
:10107000BDE8F0814E414E006E616E00494E460063
:10108000696E66002DE9F047814616468AB03548FC
:1010900078440DC88DE80D0032487844801C03ACBC
:1010A0000DC884E80D0041F69B300844372190FBC1
:1010B000F1F290FBF1F5A5F1800501FB12041B3C58
:1010C00002D56442012000E00020DFF898A08046AD
:1010D0000027FA44AAF1BE0A0EE0E0070AD0324621
:1010E000684607EB470101230AEB810100F003FB8F
:1010F0008DE8070064107F1C002CEED1194F7F444F
:10110000AE3F19E0E80715D007EB04100DF1180AFF
:1011100090E80E008AE80E00C068F04201D19819EC
:1011200008903246012306A903A800F0E4FA03ABB5
:1011300083E807006D10641C002DE3D14FF001031C
:1011400032466946B8F1000F03A802D000F0BEFA9B
:1011500001E000F0D0FAC9E90001C9F808200AB09E
:10116000BDE8F087201A0200007B00F08000704785
:101170000048704798C300207546FFF7F9FFAE4658
:1011800005006946534620F00700854618B020B593
:10119000FFF7ACF8BDE820404FF000064FF0000725
:1011A0004FF000084FF0000B21F00701AC46ACE80F
:1011B000C009ACE8C009ACE8C009ACE8C0098D467C
:1011C000704710B50446AFF300802046BDE81040DC
:1011D000FFF72BB85FEA400C08BF91F0000F4FEA11
:1011E0008C234FEAC12243EA51514FEA1C5018BFE9
:1011F00000F5F0404FEA300018BF41F000415FEACF
:101200006C5C00F02980BCF1FF3F08BF40F08040DB
:101210007047130C06BF12044FF0100C4FF0000C77
:10122000130E04BF12020CF1080C130F04BF1201BD
:101230000CF1040C930F04BF92000CF1020CD30FBD
:1012400004BF52000CF1010C11464FF00002A0F156
:101250001F00A0EB0C00704711F0004F08BF704753
:1012600031F000413FF4D5AF0B0C06BF09044FF03D
:10127000100C4FF0000C0B0E04BF09020CF1080C0F
:101280000B0F04BF09010CF1040C8B0F04BF890084
:101290000CF1020CCB0F04BF49000CF1010CCCF196
:1012A0002003A0EB0C0022FA03F302FA0CF241EA4D
:1012B000030100F10100704720F07F4C80EA030039
:1012C00023F07F47ACEB070303F57C5300F00040AD
:1012D00003F1FF032DE980494FEA154B09B44FEAAA
:1012E000144325EA0B4E24EA03480FF2042606EBCA
:1012F000132749083E785FEA320203FB0667C7F509
:10130000000707FB06F64FEA54374FEAD64606F1C8
:10131000020607FB066CCCF1005C4FEA1C472CEA86
:10132000074C07FB06F40CFB06F504EB15464FEAE9
:10133000961634BF00204FF000404FEAD13706FB2D
:1013400007FC4FEA1C4C0CFB0BF7D21B03FB0CF702
:1013500061EB07010CFB0EF7B0EB074072EB174295
:101360000CFB08F734BFA2EB0742B2EB074261EB7C
:1013700017414FEA0C444FEA910706FB07FC4FEA7E
:101380001C4C0CFB0BF7B0EBC74072EB573203FB66
:101390000CF734BFA2EBC742B2EBC74261EB573147
:1013A0000CFB0EF7B0EBC70072EB57720CFB08F7A3
:1013B00034BFA2EBC702B2EBC70261EB5771039FC8
:1013C0004FEA816141EA921104EBCC044FEAD13734
:1013D0004FEA826206FB07FC42EA90124FEA806005
:1013E0004FEA1C4C0CFB0BF7D21B03FB0CF761EB19
:1013F00007010CFB0EF7B0EB074072EB17420CFB3A
:1014000008F734BFA2EB0742B2EB074261EB17418A
:101410004FEA8C554FEA910704EB9C2406FB07FC2E
:101420004FEA1C4C0CFB0BF7B0EBC74072EB57328A
:1014300003FB0CF734BFA2EBC742B2EBC74261EB30
:1014400057310CFB0EF7B0EBC70072EB57720CFB79
:1014500008F734BFA2EBC702B2EBC70261EB5771CA
:1014600015EB4C254FEA816141EA92114FEA826205
:101470004FEAD13742EA901206FB07FC44F1000420
:101480004FEA80604FEA1C4C0CFB0BF7D21B03FBAE
:101490000CF761EB07010CFB0EF7B0EB074072EBAA
:1014A00017420CFB08F734BFA2EB0742B2EB07422E
:1014B00061EB174115EB1C154FEA813141EA92416E
:1014C0004FEA823242EA90424FEA80304FEA0C768D
:1014D00044F1000448EA03434EEA0B484FF0000E83
:1014E000B2EB080C71EB030724BF624639464EEBA2
:1014F0000E0E4FF0000B0018524149414BEB0B0B05
:10150000B2EB080C71EB03077BF1000B24BF6246C2
:1015100039464EEB0E0E4FF0000B00185241494178
:101520004BEB0B0BB2EB080C71EB03077BF1000BE1
:1015300024BF624639464EEB0E0E51EA020718BF31
:1015400046F0010616EB0E7655F1000254F100014B
:1015500003D5BDE88901BDE80088BDE88901BDE883
:101560000048B619524141EB0101A3F10103704754
:1015700080807F7E7D7C7B7A7978777676757473D0
:10158000727171706F6E6E6D6C6C6B6A6A6968688F
:10159000676666656464636362616160605F5F5E25
:1015A0005E5D5D5C5C5B5B5A5A595958585757569B
:1015B0005655555554545353525252515150505000
:1015C0004F4F4F4E4E4D4D4D4C4C4C4B4B4B4A4A52
:1015D0004A49494948484847474747464646454596
:1015E00045444444444343434342424242414141CF
:1015F000002B9C4630D477002BD01CB54FEA370720
:1016000003B44FF010004FF01001BAF1000F06D0F4
:10161000BCF1000FDCBF40F0080040F008014FF0C3
:1016200000000FBCBDE810400BF1010BBBF1010F36
:1016300008BF5FEA170722BF12F1010211F1010191
:101640004FF0004143F1000300F0004043EA000086
:101650007047F9D35708D0E746EA064613F1400F22
:101660004FEA16461FDD13F1200FDFBF16430A466F
:10167000002120335B42BED0C3F1200746EA064674
:1016800002FA07F74FEA164646EA0706C3F12007B3
:1016900022FA03F201FA07F721FA03F14FF00003EF
:1016A00042EA0702A7E746EA020646EA06464FEA8A
:1016B000164646EA0106BCBF46EA0646360C4FF01F
:1016C00000034FF000024FF0000194E72DE9804C39
:1016D0009A46934670B491E8380007C831EA400C46
:1016E00048BF34EA430C03D5FFF7E6FDFFF780FF60
:1016F000F0BCBDE8008C2DE9804C9A46934670B44E
:1017000091E8380007C810F0804F08BF13F0804FF1
:1017100003D100F005F8FFF76BFFF0BCBDE8008CCB
:1017200020F07F4780EA030023F07F4C07EB0C0397
:10173000A3F57C5300F00040A3F1FE0392F0000FEC
:1017400000F0B38095F0000F00F077802DE901499B
:101750004FEA11404FEA144621EA004800FB06FC1C
:1017600024EA064708FB06F607FB08F800FB07F724
:1017700018EB06484CEB164C4FEA124B18EB074897
:101780004FEA15464CEB174022EA0B4E0BFB06FCCA
:1017900025EA06470EFB06F607FB0EFE0BFB07F7D6
:1017A0001EEB064E4CEB164C4FF000061EEB074EA0
:1017B0004CEB174B18EB0B0840F1000018EB0E0B2D
:1017C00058EB000840F100008F1A4FF000013CBFB9
:1017D000C943661B14BFB5EB040C00213CBFC943D1
:1017E000F61B4FEA17444EEA8E0E27EA04454FEAED
:1017F0001C4704FB07622CEA074C05FB07F70CFBB0
:1018000005F604FB0CFC16EB074642EB174216EB01
:101810000C4642EB1C421BEB060658EB0202414110
:1018200046EA9E0601D5BDE80189B619524141EB51
:101830000101A3F10103BDE801894FEA14454FEA14
:10184000114724EA054621EA074C05FB07F406FB8D
:1018500007F70CFB06F105FB0CFC11EB074144EB11
:1018600017444FEA124711EB0C4144EB1C4422EAA7
:10187000074C05FB07F206FB07F70CFB06F605FB1A
:101880000CFC16EB074642EB174216EB0C4642EBFC
:101890001C456A1854F1000148BF7047B6195241FF
:1018A00041EB0101A3F10103704795F0000F37D020
:1018B0004FEA11424FEA144721EA024624EA074C54
:1018C00002FB07F106FB07F70CFB06F402FB0CFC1E
:1018D00014EB074441EB17414FEA154714EB0C4456
:1018E00041EB1C4125EA074C02FB07F506FB07F715
:1018F0000CFB06F602FB0CFC16EB074645EB174506
:1019000016EB0C4645EB1C42121951F1000148BF81
:101910007047B619524141EB0101A3F10103704731
:101920004FEA14454FEA114724EA054621EA074CDD
:1019300005FB07F106FB07F70CFB06F24FF000066C
:1019400005FB0CFC12EB074241EB174112EB0C427A
:1019500051EB1C4148BF7047921841EB0101A3F1C4
:1019600001037047FEB5456804460146284607F066
:10197000A6FA002817D02068364A11280DD006DCB8
:101980000B2823D00E2831D00F285ED110E0282854
:1019900055D0B0F5107F58D106E09268002A02D0E9
:1019A000214628469047FEBD214628465268F9E761
:1019B000284600F027FE0290406E046802A800F05E
:1019C00051FE002CEFD02846A047FEBD284600F06F
:1019D00019FE0090683000F06BFD009803216C3018
:1019E00000F074FD684600F03DFE2EE0E06841C85E
:1019F0000D2802D0202822D105E0002E1FDD284628
:101A00000EF0C2F916E0284600F0FCFD0190408E71
:101A100000F4007401A800F025FE2CB1002ED4DDE6
:101A2000284600F0E1F9FEBD002E03DD28460EF049
:101A3000ABF9FEBD022128460EF0BCF9FEBDE06800
:101A400018B90021284600F099F9204607F034FD26
:101A5000FEBD000014020020F0B5044685B0806988
:101A6000B4F90850668A0027CDE90265CDE9001770
:101A70000490B4F90C00B4F91060C118B4F90A006C
:101A8000B4F90E50104433462A4600F007F80546D4
:101A9000616800F07CF905B02846F0BD2DE9F04FF3
:101AA00085B01F46DDE911B4DDE90E569046894642
:101AB000824601F099FE16484C34CDE90204CDE986
:101AC00000563B4642464946504607F03DFC04005E
:101AD00018D000F097FD10225946049007F0C0FA84
:101AE000049830220B493430FEF784FE094D0499E6
:101AF0000C3D2868486604A800F0B4FD28684168D9
:101B00002046884703F0EEF905B02046BDE8F08F87
:101B10006519000820020020F0B5044680688B4952
:101B200089B051F82050606800287DD0052804D085
:101B300006287AD0122879D1AEE0E86900284FD083
:101B400095E80E008DE80F0004F110010FC903F0B5
:101B50004DFF002655F8260002F0CFFBA169E86989
:101B60000A1A216901446069304401F0E3FBA1696C
:101B7000E8690A1A21690144E069801B01F0DAFB77
:101B8000E169E8690A1A616901442069304401F099
:101B900059FCE169E8690A1A61690144A069801B7E
:101BA00001F050FC761C022ED4DBA86802F0A5FBE5
:101BB000E069E9696669431A206942183144801C6A
:101BC000521E01F0A1FCE169E869A2690B1A616982
:101BD0000144101A401C921E01F096FCEE6913E0BD
:101BE0005FF0000655F8260002F087FBE069831BD2
:101BF000A069821B606981192069304401F0C6FB2D
:101C0000761C022EEEDB0226D5E90301CDE90001A8
:101C10006169E06908444310A069891C821B20693E
:101C2000304401F04BFB02E089E012E08AE0D5E9A4
:101C30000501CDE90001E36960690121184401EB68
:101C40006001A0699B1E821B2069304401F036FBB5
:101C500078E0206800F0D6FC0490206808F072FE5E
:101C600040B1A06808B1002008E00498006F28B1D6
:101C7000012003E00498406F00B10220049901EBB9
:101C80008000C56E04A800F0EDFC00231A4628462B
:101C9000216801F003F855E0206800F0B3FC0490DF
:101CA000866EEEB3B0F95C70A168D1B3032942D05F
:101CB0005FF0000100EB8101406D0C6C02F03AFB1B
:101CC000204602F01AFB05A801F0D6FCBDF814105E
:101CD000A88B0144ADF81410BDF81810081AADF81F
:101CE0001800BDF81600801CADF81600BDF81A00EB
:101CF000801EADF81A000498B0F96020B0F95E10AB
:101D000005A802F0CCF904A800F0ACFC022002F017
:101D10007DFB304600F076FC3A4605A9079001E0CD
:101D20000BE006E001F008F80DF11C0000F09AFC51
:101D300008E00121BEE70221BCE704A8F6E720681D
:101D400008F0AEFA09B00020F0BD0000DC1F020868
:101D500008B50023009300F001F808BD70B51646E1
:101D60000C46054619463046049A00F077FF0246B5
:101D700021462846BDE8704000F055B84FF4807207
:101D80000029114601D007F02FB907F07FB82DE9DF
:101D9000FF410E4605004FF0010421D001F024FD63
:101DA000284600F02FFC0190876E01A8009700F0F4
:101DB00059FC3146684604F05DF978B1009800247A
:101DC000B84208D0284600F01DFC019000998166B9
:101DD00001A800F047FC284608F012F803F082F84A
:101DE00004B02046BDE8F08138B505464FF0FF3419
:101DF00001F0FAFC284600F005FC009078B1408E16
:101E0000C00504D428460DF0BFFF012404E00221E0
:101E100028460DF0CFFF0024684600F023FC03F0B5
:101E200061F8204638BDF8B515460C46060018D0B6
:101E300001F0DAFC304600F0E5FB0090032C0BD2F9
:101E400000EB84006C3000F033FB009800EB840062
:101E5000C566304607F0D4FF684600F003FC03F087
:101E600041F8F8BD00BFFEE77CB507F05BFC054616
:101E7000002000902B46044A04210190034800F002
:101E8000D3FD044620467CBD6D1C0108309E010830
:101E90007047000070B50446B3F5804F13D1D1E907
:101EA000000540EA05108D6840EA05208D69284349
:101EB0008D8940EA054054F82250064E35402843AB
:101EC00044F8220003E06FF0704044F82200002044
:101ED00070BD00000000F0CF70B50246086852F8EF
:101EE000200020F001000E6842F8260088680828CB
:101EF00001D1402300E00023486818438E68304336
:101F0000CE6830430E6930434E693043CE6930436A
:101F10000E6A30434E6A30438E6A3043CE6A304395
:101F20000E6B40EA060488690443486B0443074D7E
:101F300045F4806545F4E025086852F82000A84380
:101F400020430E6842F82600002070BD7FFB080089
:101F500010B50346D1E9000440EA04108C6840EA59
:101F600004208C8940EA0444088A401E44EA005454
:101F7000087D801E44EA00608C692043541C53F89D
:101F8000244004F040442043541C43F82400002023
:101F900010BD00002DE9F0430446C56887B09046A7
:101FA0008946002002F0BAF9064625B1287910B119
:101FB00046F0020001E026F0020002F0AFF92069CD
:101FC000012558B1D4E902128DE8260003956388F3
:101FD0002288046841464846A0471EE0124F134B32
:101FE000214638681B68427CE068984730B9E08831
:101FF000012801D0002001E03868806BA288E388C6
:10200000A1680095CDE90410CDE9023201956388FD
:1020100022884146484605F0B7FC07B03046BDE887
:10202000F04302F07BB90000600100205001002065
:10203000104810B5006802F055F90F48006802F02A
:102040005CF9012002F0C4F9002002F0CFF9002071
:1020500002F0DCF90021084601F078FB002002F0D4
:102060005DF90648006802F065F9BDE810400020FF
:1020700002F080B95C0100205801002054010020CA
:102080002DE9F04FDFF828B191B04FF0FF35DBF8C4
:102090000030B3F922100691DE69B3F924A0F46987
:1020A000A189814206D8E289824203D3471AD4F833
:1020B000008012E0D4E90181002970D00A888242B0
:1020C0006DD84D8885426AD3801A82B2486800EB89
:1020D0008200B0F90070B0F90250781C5FD0307EF9
:1020E000A27C014600FB02F9207CCDE90710B3F980
:1020F0002A60304606F04EF9C0B20E90DBF80010B0
:1021000007FB0980A37C8A6B0127CDE90402CDE996
:102110000273C869089AC17E807ECDE90001DDE9BD
:102120000603514605F030FC681C18D046F002004A
:1021300006F030F9DBF80000A37C05FB0981826B17
:10214000CDE90273CDE90412C069089AC17E807E90
:10215000CDE90001DDE90603514605F015FCDBF889
:1021600000005D46C069417E007E814214D9022E86
:1021700012D086F0040006F00DF92868C069027ECE
:10218000C37E857E02FB03A1437E089A06985344D2
:1021900002FB050205F084FD0E9806F0FBF8DBF863
:1021A0000000627C418C1144418411B0BDE8F08F85
:1021B0006001002004480068C069C06909B1027C60
:1021C0000A60407C70470000600100200220088007
:1021D0007047C06982898A4202D8C2898A4210D275
:1021E000806880B102888A420DD843888B420AD326
:1021F000406800EB8100A0EB8200B0F900000028ED
:1022000001DB012070470020704700002DE9F043FA
:10221000324C034687B020681946B0F92A80C0695D
:10222000C06900F08CF8002851D041680088181A65
:1022300001EBC0054046AE7806F0ACF88146206858
:102240006A680123816BCDE90236CDE90421C169B9
:10225000CB7E8A7ECDE900230B7EB0F924102A784C
:10226000B0F9220005F090FB2068C069477E067E29
:10227000B7421DD9C07E47434643B8F1020F17D07D
:1022800001F0FFF9804601F0C5F902F036F8216847
:102290002A78CB69B1F92200B1F92410DB7E02FB68
:1022A0000302CB19314405F0FBFC404602F025F84F
:1022B000484606F06FF820686A78C369B0F92210C2
:1022C0009B7E02FB0311418407B0BDE8F08307B099
:1022D0004046BDE8F04303F083BB000060010020EE
:1022E00070B5104C05460B4620682946C069C06988
:1022F00000F025F888B14168008824682A1A012076
:10230000E46900EBC200085CA47E6043002B03D0AC
:1023100011F832106143196070BDBDE8704003F0E0
:10232000D5BC00006001002001200880704700B586
:10233000C06900F004F8002800D0012000BD06E0CC
:1023400002888A4202D842888A4202D280680028E3
:10235000F6D170472DE9F0410025144E144C17E0DA
:102360002069C5EB051700EBC7007022001D31681E
:10237000FEF740FA2069002140F8371000EBC70053
:1023800000F10C018161011DC163091D6D1C016417
:10239000A0688542E4DB0CF0FBFF2169C0EB001074
:1023A00001EBC000001D3060BDE8F081600100203D
:1023B0004803002070B510490E480860084603F035
:1023C00051FE0D4C143CA068C0EB0010C50028461F
:1023D00000F08AF8094B20612A461B6800219847C3
:1023E0004FF0FF30206002F0D5FDBDE870400CF0EA
:1023F000CFBF0000B1FE00085C03002000030020F6
:1024000010B5040009D001F0EFF9204608F0C0FD36
:10241000044602F067FD204610BD002010BD0000FC
:1024200038B5054601F0E0F92846FFF7E9FF04005A
:102430000AD000F0E7F8064B00902A461B680021FE
:102440009847684600F00EF902F04CFD204638BD72
:1024500000030020024A106021F003005060704722
:102460000CC1002010B5040011D001F0BDF90848DE
:10247000042101EBC401406B4158486808F040FD5D
:1024800020460DF059FFBDE8104002F02BBD10BDF5
:102490004CC00020002808D00449CA6B026000220A
:1024A0004260026802B15060C86370474CC00020AF
:1024B00010B5044601F098F92068FFF7D3FF00201B
:1024C0002060BDE8104002F00DBD000070B50D4663
:1024D0000646002405E000BF06EB8400FFF7E8FF96
:1024E000641CAC42F8DB70BD2DE9F04104460DF0F0
:1024F000C9F82848E41C24F00305016C2D1DA942ED
:1025000000D90D46C46B13E054F8042CAA420ED136
:1025100084B1216809B162684A60616809B12268C2
:102520000A60C26BA24231D12168C1632EE02468E7
:10253000002CE9D18046816BC0680F1857F8040C55
:102540003E1A306838B100200DF07AFF57F8040CBD
:102550003E1A3068D0B97068A84217DB3044441B7B
:102560003046241D0DF024FFD8F80C10491BC8F884
:102570000C10D8F814102944C8F814107068401BC7
:1025800002D0314608F0BCFC44F8045C2046BDE8AB
:10259000F08100004CC0002010B500240DF072F84E
:1025A0000C490F2001EBC002526C1AB101EBC000C4
:1025B000406C08E0401EF5D508E04168A14200D912
:1025C0000C46806810B180680028F6D1A4F10C0098
:1025D00010BD00004CC00020002138B10449042285
:1025E00002EBC000496B085841680C390846704737
:1025F0004CC0002002488169491C8161704700007D
:102600004CC000200549CA69521CCA61496B01EBE4
:10261000C0010A78521C0A7000F03CB84CC000207F
:1026200010B501F0E1F8FFF7B7FF64220849B0F5F3
:10263000800F04D990FBF2F4086A444303E0096A6E
:102640004143B1FBF2F402F04DFC204610BD000006
:102650004CC0002002488169491E8161704700001A
:102660004CC000200A4902684B6B52F8082C03EB5F
:10267000C2021378022B03D3CB690BB15B1ECB6173
:102680001178491E11700021016008467047000052
:102690004CC000200349042202EBC000496B0858DB
:1026A000083070474CC00020524203F0CEBC0000FE
:1026B00008B513460A4600906946024800F004F83F
:1026C00008BD00005B2700083EB51446029100904B
:1026D0006A461946204608F023FF3EBD08B5694604
:1026E0000090024800F004F808BD00005B270008D5
:1026F0001FB50123039101906A461A2101A800F039
:10270000BBF810B1002004B010BD0098123000904A
:10271000684603F088FCF6E708B569460090024871
:1027200000F004F808BD00005B2700081FB5012376
:10273000039101906A461A2101A800F09DF810B19A
:10274000002004B010BD009816300090684603F0D9
:102750006AFC0028F5DA4042F3E700681844086094
:10276000104670472DE9FC5F9A46DDE90C47934619
:102770000E46054601236A46362100F07DF8002802
:1027800075D1684603F045FC019000980830009030
:10279000684603F048FC8146684603F044FC8046E6
:1027A000684603F040FC3060684603F03CFCCBF820
:1027B00000000098801C0090684603F02AFCAAF8EC
:1027C0000000684603F02FFC386000980C30009041
:1027D000684603F028FC0646BAF800004FF4807AF9
:1027E000082812D005DC78B3012809D004283ED18E
:1027F00008E0102819D0182817D0202837D114E065
:10280000022000E01020206001E0C4F800A006B122
:102810002660386803280BD02068304315D06968DB
:10282000A8F128000844686011E000202060F0E76B
:102830000022114628460DF00BF82068304304D0E2
:10284000A8F138006968EDE711E0C5F80490206848
:1028500050450CDC0198A0F59A41423907D13868FF
:1028600040B1012806D0022804D0032802D001205C
:10287000BDE8FC9F0020FBE72DE9F04117460D461F
:1028800004460BB100206060D4E901300A46266896
:102890003946B047A84202D00120BDE8F081606807
:1028A000284460600020F8E7F8B50D46074600248C
:1028B0000E4E16E000236A4604213846FFF7DCFF7F
:1028C00008B10120F8BD009802784178837810049F
:1028D00040EA0120184305F017F8316841F8240058
:1028E000641CAC42E6DB0020F8BD0000B003002011
:1028F00070B514460D46064600F076FF204600F0FF
:10290000CDFE0300174804EB840109D050F82100E4
:1029100041688068711A2A1A184601F01BFD1CE0F4
:1029200000EB8104A268B24201D0012200E0002243
:10293000E368AB4201D0012300E000231A430CD02E
:10294000236943B150F82100816840686A1A311A3E
:10295000184601F083FCC4E90265BDE8704002F04E
:10296000C1BA0000C8C2002010B5C2B2CBB2D21AA0
:1029700000D5524293B25B43C0F30722C1F3072450
:10298000121B00D55242000C92B2A0EB114002FB88
:10299000023200B2002801DA404200B280B200FBED
:1029A000002010BD10B50021084600F0CFFE43F610
:1029B000FF725042BDE8104013460146AFF300805D
:1029C0002DE9FC411C4615460E46074600F00CFF5B
:1029D000042005F0DFFC804612484069816CC06C21
:1029E0000F4406440D440444ADF80070ADF80450A3
:1029F000ADF80260ADF80640684607F02BFE07E030
:102A000023462A463146384605F04AF907F0D6FDF6
:102A10000028F5D1404605F0BDFC02F063FABDE8A0
:102A2000FC8100004C0100202DE9F8431C00DDE989
:102A3000089816460F46054602D106F073FE044676
:102A400000962E6843464A4621462846B047061E51
:102A500039D006F05CFE8146698A304606F0C4FA39
:102A6000304607F075FC484607F072FC4FF000084E
:102A70000CE000BFCDF8008055F81CCF00231A46AB
:102A800049462846E04700B307F062FC7F1E002F4E
:102A9000F0DC1D21484607F02EFB601C12D000F030
:102AA000A3FE06F08BFE30B1FFF7F4FD8469B4425B
:102AB00001D02000F8D1B44202D0304607F098FB94
:102AC00002F010FA3046BDE8F883304606F02EFDDD
:102AD0000020F8E72DE9F0411C4616460D46074652
:102AE000022B02DB0020BDE8F0811C20FFF7FCFC7C
:102AF0000028F8D00DB105610AE0094A52F8241007
:102B000009B905E011460A68002AFBD1096901618B
:102B100084618682002101604160C0E90217E2E71A
:102B20009801002070B51D46FFF7D4FF040009D0BE
:102B300000F00EF8E068006820B90348006800EB78
:102B400085004465204670BD60010020FFF7A2BCEF
:102B500070B5C0B38269022A36DA2149531C0C7859
:102B60009C4200DA0B701F4C54F8221019B944F83B
:102B7000220032E019464B68002BFBD106E0CB68FF
:102B8000C5681B682D68AB4203DD09680029F6D1D2
:102B90001AE0C1B1CB68C6681B683668B3420CD175
:102BA000838A012B05D008E01946DB681B68AB421D
:102BB00003DB0B68002BF7D129B14B6833B11860E8
:102BC0004A68426004E0FFE7012070BD44F822003B
:102BD0004860884200D100210160002070BD0000E3
:102BE000BE0100209801002010B503E00468FFF743
:102BF000AFFF20460028F9D110BD000010B50C4BE6
:102C00008269002153F82240844205D1046843F8C8
:102C10002240026802B1516042680AB10368136041
:102C200002680AB1436853600160416010BD000052
:102C30009801002000207047022801DB0020704727
:102C4000054951F8200004E0C16809680029F6D060
:102C500000680028F8D1704798010020F8B51646A2
:102C60000F4605004FF0000414D00C20FFF7D8FBEE
:102C700004000FD000F0B8FD2046FFF7C3FC064962
:102C80000090C0E90015078146816846FFF7EAFC1D
:102C900002F028F92046F8BDEC1F02082DE9F843A0
:102CA0001D461646884604000CD0FFF7ABFC00908A
:102CB000006807686846FFF7D5FC2B463246414658
:102CC0002046B847BDE8F8832DE9F041044602F0FC
:102CD00046F90619164F1FE000F0EEFB38688442F3
:102CE00000DD0446A04600F07FFD12480568FFF7AE
:102CF00081FC2C0017D000BF02F0F4F8641EFBD159
:102D0000404602F01DF91DB100F06EFD6D1EFBD1B5
:102D1000FFF7A0FC02F0E6F802F021F9341A002CCB
:102D2000DADCBDE8F081404602F00AF9F0E7000085
:102D3000C80100205403002047F6FF7300F044B898
:102D40002DE9FF471F460C9E90460D46814696B3DF
:102D500000240094019400F047FDADB12868009074
:102D60006868019017480099016001994160284600
:102D700007F0DEFA040007D00246294602A802F056
:102D8000F3FF02A807F0D4FA30460EF017F8054614
:102D90007168684688473B4642466946484602F0A5
:102DA0000FFB204607F0C4FA28460EF007F802F0A1
:102DB00099F8BDE8FF87FFE704B0BDE8F04700F0F1
:102DC00003B80000B80400202DE9FC411F469046DE
:102DD0000D4606004FF000041AD000F005FD65B165
:102DE000284607F0A5FA040007D00246294668469F
:102DF00002F0BAFF684607F09BFA3B464246294676
:102E0000304602F0DDFA204607F092FA02F06AF846
:102E1000BDE8FC812DE9FF4F87B006004FF00000B0
:102E200091460C46029003907ED000F0DDFC2568B0
:102E3000676829B238B2401A401CB346019000F0CE
:102E400045FC804619F00C0F1ED030460A9A0199B5
:102E500002F052F809F00C01042904D0082902D02C
:102E60000C2911D104E03A1400FB1820401C09E0A1
:102E70002914C1EB274300FB1830401C00EBD07035
:102E800001EB600060F31F45204607F051FA009007
:102E900048B1CDE904570246214604A802F064FF78
:102EA00004A807F045FAA8F1010A30460A9A0199E8
:102EB00003F05EF906900AEB254060F31F47CDE969
:102EC00002573046069902F0B7FE19F003010FD001
:102ED000012978D002290ED1B4F90420B4F90010E8
:102EE000521A101A401C00EBD07001EB600000E099
:102EF0002088ADF8080002AA3046069902F008FAC8
:102F00003348007888B33348006890F82A00800777
:102F10002BD45E450ED1BDF90A30B4F902108B42B4
:102F200008DDB4F9042000E049E0B4F900005B1EBC
:102F3000FFF746FDBDF90820B4F90000824206DD26
:102F4000BDF90E30BDF90A10521EFFF739FD2148B8
:102F5000B4F904200068B0F92200904205DCBDF904
:102F60000E30BDF90A10FFF72BFD30460A9A019981
:102F700003F0F4F8064408EB254060F31F45307871
:102F8000002892D112480078A0B11248006890F849
:102F90002A0080070ED45E450CD0BDF90E10B4F99E
:102FA0000630994206DAB4F90420B4F90000491C4D
:102FB000FFF706FD009807F0BBF901F093FF0BB097
:102FC000BDE8F08FFFE7A188081A401C91E70000D8
:102FD0002C030020600100202DE9FF4F87B09346AD
:102FE000149E07000FD056B100F0FEFB089804684D
:102FF00045689948864209D128B221B208E00A9B67
:103000000899FFF707FF0BB0BDE8F08F28142114D3
:10301000401A401C039000F059FB804638460A9A3B
:10302000039901F069FF8D494FF0000A00FB08F099
:10303000D1468E4223D11BF00C0102D00C290ED1B7
:1030400002E0291A491C08E029B222B2891A091A99
:10305000491C01EBD17102EB610161F30F04401EC9
:10306000204460F30F05CDE90145BDF80810C8F113
:103070000009A1EB0800401CADF804004AE07849C3
:103080008E421FD10BF00C01042904D0082902D074
:103090000C290ED102E0281A401C08E02AB221B205
:1030A000521A101A401C00EBD07001EB600060F364
:1030B0000F04A8F10100204460F30F05C146CDE9DB
:1030C000014527E064498E4224D11BF00C0102D057
:1030D0000C290FD103E0C0EB2541491C08E0221464
:1030E000C2EB2541091A491C01EBD17102EB6101C8
:1030F00061F31F44401E00EB244060F31F45CDE9FF
:103100000145BDF80A10C8F1000AA1EB0800401CF7
:10311000ADF80600089807F00BF95FEA000809D03F
:103120000246CDE9044504A8089902F01DFE04A852
:1031300007F0FEF8494C38460A9A039903F018F84C
:1031400005460146384602F077FDA64211D11BF034
:10315000030116D0012924D0022903D114E000BFB5
:10316000ADF80610BDF80610401E0844ADF80A0080
:103170003FE03B498E4219D11BF0030111D00129D8
:10318000EAD108994988EBE70899B1F90630B1F915
:103190000220991A091A491C01EBD17102EB610155
:1031A000DEE70899C988091A491CD9E72A498E42DD
:1031B0001FD11BF0030110D0012949D0022912D1DF
:1031C0000899B1F90420B1F90010521A121A521CD0
:1031D00002EBD27201EB620103E008998988091AB7
:1031E000491CADF80410BDF80410401E0844ADF8A9
:1031F00008002B465A4601A938460096FFF7A0FD65
:1032000038460A9A039902F0A9FFBDF80410074452
:1032100001EB0900BDF80810ADF8040001EB09004E
:10322000BDF80610ADF8080001EB0A00BDF80A1061
:10323000ADF8060001EB0A00ADF80A003878002866
:103240007FF479AF404607F073F801F04BFEDAE601
:1032500008990988C5E70000F0040020080500204F
:10326000FC0400207CB514460D46064600F0BCFA6E
:1032700011480068816CC06C0D4404443188681E9C
:103280000844ADF80400ADF800507188601E084491
:10329000ADF80600ADF80240684607F0DBF906E03D
:1032A000224629463046FEF775FE07F087F90028CA
:1032B000F6D101F017FE7CBD600100202DE9F04F32
:1032C00087B09B46DDE9109892460C46054600F013
:1032D0008BFA16480168886CC96C47190E1900EB07
:1032E0000A0501EB0B04ADF81070ADF81450ADF801
:1032F0001260ADF8164004A807F0ACF988B1DFF809
:1033000030B04FF0010ACDE90098CDE902BA23466A
:103310002A46314638460AF069FD07F04FF9002881
:10332000F1D101F0DFFD07B0BDE8F08F60010020B2
:103330008D7B00082DE9FC4114460D46064600F041
:1033400053FA114F3968886CC96C054404440E4423
:10335000ADF80050ADF80440ADF80260ADF806607D
:10336000684607F077F908E0386822463146006E73
:1033700003682846984707F021F90028F4D101F0A6
:10338000B1FDBDE8FC810000600100202DE9FF4F88
:1033900083B0984615460E46074600F025FA284C9D
:1033A0002268916C107ECB190393D26C01EB050A55
:1033B000401E191AADF800100AEB000102EB060BD3
:1033C000ADF80410ABEB000102EB08094844ADF87E
:1033D0000600ADF80210684607F03CF929E01848ED
:1033E0000068047E012C1CD9601E00EBD07003998C
:1033F000ABEB6007A1EB60080AEB600609EB600528
:103400002B463246394640460AF083FE08F1010851
:10341000641EA5F10105A6F1010607F10107EFD130
:1034200005E04B465246594603980AF072FE07F0F3
:10343000C5F80028D3D101F055FD07B0BDE8F08FE5
:10344000600100207CB514460D46064600F0CCF91C
:103450000F480068816CC06C0E4405440444ADF80C
:103460000060ADF80460ADF80250ADF80640684663
:1034700007F0F0F806E022462946304604F0E6FB65
:1034800007F09CF80028F6D101F02CFD7CBD00006F
:103490006001002070B50C46054600F009F910B136
:1034A0000121C0E9001400F09FF9284607F008F850
:1034B000BDE8704001F016BD10B5002400E0012405
:1034C00000F004F80028FAD1204610BD0B4810B5D2
:1034D0000068002410B1804700B1012406F09EF876
:1034E00000B101240648006810B1804700B10124F2
:1034F0000448006800B18047204610BD6C010020E0
:10350000A4010020640100202DE9FC411C46154661
:103510000E46074600F068F910480068816CC06CE0
:103520000F4406440D440444ADF80070ADF8045057
:10353000ADF80260ADF80640684607F08BF807E08A
:1035400023462A463146384604F0AAFB07F036F8EF
:103550000028F5D101F0C6FCBDE8FC816001002027
:1035600008B50B46002805D0009281888268C08883
:1035700000F001F808BD10B50828029C30D008DC26
:1035800004FB01F401280AD0022813D0042804D136
:103590001CE0102828D020282CD0002010BD04EBDF
:1035A000D30003F00701105CC1F10701C84000F02F
:1035B000010010BD04EB93000621105C01EA4301F9
:1035C000C1F10601C84000F0030010BD04EB530038
:1035D000D907105C02D000F00F0010BD000910BD2B
:1035E00004FB0130105C10BD481004FB003032F8C1
:1035F000100010BD881004FB003052F8200010BDF0
:10360000034951F82000C1688A6A08211047000068
:103610009801002010B500F0E7F804F071FB04F009
:103620007BFC044601F05EFC204610BD10B504464C
:1036300000F0DAF8054800210068C06942682046B9
:103640009047044601F04EFC204610BD600100206A
:1036500070B50C46054600F0C7F8064821460068DC
:10366000C069426828469047044601F03BFC20466A
:1036700070BD000060010020002801D006F024B8D1
:10368000704710B500F0B0F804F042FB04F044FCC1
:10369000044601F027FC204610BD0000002102284E
:1036A00002D2024951F8201008467047400300201A
:1036B0001FB500210191029103912A2100916946D1
:1036C00006F00AFD039804B010BD000010B500F02C
:1036D0008BF804480068C069447E01F003FC204672
:1036E00010BD00006001002070B515460E4604466E
:1036F00000F07AF82A463146204604F08DFB04009B
:1037000002D000203060286001F0ECFB204670BD44
:1037100070B50C46054600F067F82146284602F0D1
:10372000DBFABDE8704001F0DDBB0000024951F852
:10373000200000690068704798010020024951F894
:1037400020000069406870479801002070B50C4661
:10375000054600F049F8044800684584848401F077
:10376000C1FB002070BD00006001002070B501F0B9
:10377000F9FC1B4C2E20207001F0F6FB19480BF0D1
:1037800027FF04F017FC054604F06EFBC0B10026CD
:1037900004F07EFBB0B10020064307D004F081FBAB
:1037A000064604F06AFB314604F0EEFD00210846AF
:1037B00000F0EEFD06F076FAFEF7CCFD606B09E056
:1037C0000126E5E70120E7E7006800B18047606B6C
:1037D000406860630028F7D10120A070284670BDC2
:1037E0004C01002018C1002070B5184CE06820B1D1
:1037F00001F0B1FB6168884204D001F0E7FB01F001
:10380000AAFB6060E068401CE06001281CD10BF05E
:10381000BFFD05462068854216D0002813DBFFF760
:1038200009FA01462068C0EB0012206900EBC202D1
:103830005167C5EB0511064A00EBC100011D11607F
:10384000406FFFF7D1F9256070BD000048030020EC
:10385000600100201CB5040004D10E480068C46D4E
:10386000002C16D0FFF7C0FF2046FEF7CBFE0090DD
:1038700044696846FEF7F6FE4CB12046FEF7C2FEEC
:10388000019081688968884701A8FEF7EBFE01F086
:1038900029FB1CBD6001002001490A4600F002B866
:1038A00001F0FFFF2DE9F04387B015460C465FEAB3
:1038B000000846D0FFF798FF002000F02FFD81465A
:1038C00021480068C66D4046FEF79CFE00900068E7
:1038D000806900F0EBFC074640F6FF70C44204D15B
:1038E0000098B0F90440B0F906500098611E0289B2
:1038F000ADF804401144ADF808104189681E084431
:10390000ADF80650ADF80A0005F0A2FC6846FEF7D7
:10391000A9FE01A806F09EFE06E02A462146404682
:1039200000F072FB06F04AFE0028F6D1384600F09F
:10393000BDFC304600F032FA484600F0EFFC01F0E2
:10394000D1FA07B0BDE8F0836001002038B500244B
:10395000009400F001F838BD2DE9FE4F98469146DD
:103960008A46834600270C9EFFF73EFF18481949F8
:103970000068407C51F82040E1680968042903D0C0
:103980002468002CF8D100E01CB9FFF755F9041E9B
:103990001BD0E0680121C26A20469047050011D083
:1039A0002469A0688047401C02D10B4C46F00106F8
:1039B0000096CDE9015443464A465146584600F028
:1039C00081FA074601F08EFA3846BDE8FE8F000006
:1039D0006001002098010020D01502082DE9FE4F5B
:1039E0009846DDE90D650C9F91468A468346002482
:1039F0006DB1FFF7F9FE0097CDE9016543464A46F0
:103A00005146584600F05EFA044601F06BFA204633
:103A1000BDE8FE8FFEB51C4615460E460746FFF76D
:103A2000E3FE084A084901208DE8070023462A469C
:103A30003146384600F046FA044601F053FA204673
:103A4000FEBD0000D0150208A01F020838B5040012
:103A50001CD0FFF7C9FE0E480068C06DA04201D11E
:103A600000F016FC2046FEF7CDFD0090406908B13D
:103A700001F021FA00980068FFF768F86846FEF741
:103A8000F1FD2046FEF7EEFC01F02CFA38BD0000F7
:103A9000600100202DE9FF4F83B09A468B46074610
:103AA000FFF7A2FEDFF83891D9F80000447C4D48BA
:103AB00000570128204606DD04F0DCF905462046C3
:103AC00004F0ECF905E004F0BDF90546204604F0E9
:103AD000BFF904461FB302A901A8FFF719FEB7F901
:103AE0000000002800DA0020B7F902608046002EAE
:103AF00000DA002601984119B7F90400491E0BF0BD
:103B0000DBFE054602980119B7F90600491E0BF0C5
:103B1000D3FEA5EB0802841B521C641C03E04FF08B
:103B2000000846462A46BAF1000F01D1C4F1000A46
:103B3000002A51DD002C4FDD10980090534631468D
:103B40004046FFF709FF5FEA000A10D000F0C4F812
:103B50000746A04206D0D9F80000406C10B13221CF
:103B600007F00CF9504600F019F9002523E05946FA
:103B70000598884701F0B6F9012007B0BDE8F08F3D
:103B8000611BB94202DA504600F0D0F83DB172191B
:103B90004146504600F02AF95046FFF75BFE594671
:103BA000059888471048016809B1002088475046A9
:103BB000FFF772FE3D44A542E2DB5046FFF746FFA9
:103BC000002000F0EBF8A74206D0D9F80000406CC6
:103BD00010B1332107F0D2F801F084F90020CCE7CE
:103BE00060010020BC010020BC030020FEB515468A
:103BF0000E460446FFF7F8FD6088CDE90006029501
:103C0000002223882146104607F062FDBDE8FE40F1
:103C100001F068B938B505004FF0000411D0FFF786
:103C2000E3FD2846FEF7EEFC00900068006980681E
:103C3000804704F0A3FE04466846FEF713FD01F03A
:103C400051F9204638BD38B504000ED0FFF7CCFD41
:103C50002046FEF7D7FC00F1180400906846FEF7F6
:103C600001FD01F03FF9204638BD002038BD0000BD
:103C700038B504460025FFF7B7FD1CB908480068B1
:103C8000C46D44B12046FEF7BDFC0090B0F904506D
:103C90006846FEF7E7FC01F025F9284638BD00002C
:103CA0006001002038B504460025FFF79DFD1CB9D2
:103CB00008480068C46D44B12046FEF7A3FC00909C
:103CC000B0F906506846FEF7CDFC01F00BF9284626
:103CD00038BD00006001002038B504460025FFF71C
:103CE00083FD1CB908480068C46D44B12046FEF746
:103CF00089FC0090B0F90A506846FEF7B3FC01F069
:103D0000F1F8284638BD00006001002070B5054676
:103D10000024284607F0EEFA641C18B1BDE8704094
:103D200000F096B8052CF4DB70BD000038B50C46E9
:103D3000050004D10A480068C56D002D0FD0FFF7BB
:103D400053FD2846FEF75EFC0090B0F90A10A14230
:103D500000DD44816846FEF785FC01F0C3F838BDFC
:103D6000600100202DE9FC471E46DDE90A54174694
:103D700088468146FFF738FD4146484607F066F918
:103D800038B9CDE9005433463A46414648460CF02E
:103D9000A7FBBDE8FC4701F0A5B80000F8B5054653
:103DA000FFF722FD104E3068C46DCDB10CB100F0AC
:103DB0006FFA05F071FB2846FEF724FC009031688D
:103DC000CD650068FEF7C4FE6846FEF74BFC04F0C4
:103DD0005BFC04F0B9FA00BF01F084F82046F8BD9E
:103DE00000F056FAF8E70000600100207CB51546A7
:103DF0000E46040004D115480068C46D002C24D080
:103E0000FFF7F2FC2046FEF7FDFB2DB20090C580C7
:103E100034B2848004F098FA0098406980B1FEF7CB
:103E2000F1FB009A0190B2F908108180B2F90A20E2
:103E3000C28011B10AB10480458001A8FEF712FCCE
:103E40006846FEF70FFC01F04DF87CBD60010020D4
:103E500001490A4600F002B801F0FFFF7FB51546A0
:103E60000C4606002DD0FFF7BFFC3046FEF7CAFB1C
:103E700040F6FF710190CC4203D1B0F90440B0F993
:103E800006500289611E1144ADF80840ADF80C10CF
:103E90004189681E0844ADF80E00ADF80A5001A82B
:103EA000FEF7E0FB02A806F0D5FB06E02A46214615
:103EB000304600F091F806F081FB0028F6D101F0C1
:103EC00011F87FBD2DE9FF4FDFF8E8B083B01C4645
:103ED000DBF80010DDE9106092464FF000084B7CE3
:103EE00042461299FEF7F6FD050060D02869806809
:103EF000804704F043FD81460AFB09F1C91DCF0844
:103F0000FEF78EFBF10705D1C11700EB9170801011
:103F100000EB4000002C09DC1FB11838B0FBF7F0B3
:103F200000E000206442A04200DC0446F00707D114
:103F30000090DDE903012346524600F041FF804630
:103F4000002C03DC2846FEF701FE30E004FB07F0FE
:103F50001830F10702D0FEF753FA01E0FEF760FADD
:103F600006001CD0FEF74EFB01900560039981808E
:103F70000499C180A0F808A04481C0F81480C0E969
:103F8000037901A8FEF76EFB1298AE602861DBF89A
:103F90000000407CA861304607B0BDE8F08F28469D
:103FA000FEF7D4FDB8F1000001D0FEF75BFA002067
:103FB000F2E7000060010020054B30B41B68054C9F
:103FC0005B7C54F823301B6930BC0DF0F7B800005F
:103FD0006001002098010020F8B515460E460746FE
:103FE000FEF710FB009000681621C068426A0020AE
:103FF000904704466846FEF735FB002C03D02A465E
:1040000031463846A047F8BDF8B516460F460500BC
:1040100012D0FEF7F7FA009044696846FEF722FBDB
:104020002846FFF7F7FD0346082800DD2CB132468D
:10403000394628460DF08CF9F8BD324639462846F7
:104040000DF026FBF8BD10B5002821D009B30AB346
:10405000B1F90040B2F900309C4200DA23460380F7
:10406000B1F90240B2F902309C4200DA23464380A3
:10407000B1F90440B2F904309C4200DD234683804C
:10408000B1F90610B2F90620914200DC1146C18058
:1040900010BD11460A6802604968416010BD0028E1
:1040A0000BD003880B4403808388194481804188A6
:1040B00011444180C1881144C180704770B50E4DD4
:1040C0000446D5E90001884209D10C49884201D152
:1040D0003C3000E00C3807C884E8070006E090E8B0
:1040E0000E0084E80E000BF0BDF92860207A00284D
:1040F00000D0012070BD0000C004002008C30020D3
:104100000448D0E90010814201D10120704700200D
:1041100070470000C004002010B509490446086833
:1041200020B908480860084601F09CFF0749064886
:10413000086020460CF0D2FEBDE8104000F076B9D1
:10414000D004002005FF0008E5980008A801002021
:1041500070B50025FFF748FB094CD4E900208242E6
:104160000AD0D2E9005610460BF086F9206031469D
:10417000284605F0D1FE012500F0B4FE284670BDAA
:104180003003002070B50A4C05462678FFF72CFB5B
:104190001DB101202070801E03E0002020706FF010
:1041A0007F4003F0A9FB00F09DFE304670BD00008B
:1041B0004D0100202DE9FC41154DDDE908742D6805
:1041C000B5F90860864200DD3046B5F90C609642CC
:1041D00000DA3246824219DBB5F90A608E4200DD10
:1041E0003146B5F90E509D4200DA2B468B420DDB6D
:1041F00000E02C46E5682D6825B1042D02D0256825
:10420000002DF6D1CDE9007403F088FFBDE8FC81F4
:1042100060010020B0F90220B1F906309A4213DCA7
:10422000B1F90220B0F906309A420DDCB0F9002055
:10423000B1F904309A4207DCB1F90010B0F904007A
:10424000814201DC0120704700207047014602488E
:1042500070220068FCF7CEBA6001002070B51546E8
:104260000E4604000AD0FFF7BFFA2A463146204620
:104270000CF072FBBDE8704000F034BE70BD000071
:10428000024970220968FCF7B5BA000060010020FD
:1042900010B5FFF7A9FA04F00DF804F0F5F904F0F1
:1042A000D7FFBDE8104000F01DBE000070B50B4DFB
:1042B00004462868467CFFF797FA022C09D220466C
:1042C000FEF7BAFC28B128684474FFF7E1FF044800
:1042D000046000F007FE304670BD00006001002061
:1042E0008802002010B50446FFF77EFA204604F04D
:1042F00001F8BDE8104000F0F5BD10B50446FFF729
:1043000073FA204604F02EF8BDE8104000F0EABD34
:1043100001498860704700004C01002010B5044638
:10432000FFF762FA204604F035F8044600F0DAFDA3
:10433000204610BD70B50446FFF756FA04480068E1
:10434000C56904B1C46100F0CDFD284670BD000010
:104350006001002070B514460D460646FFF744FA8A
:1043600022462946304604F04DF9044600F0BAFDD5
:10437000204670BD70B50546FFF736FA0348006861
:10438000847E857600F0AEFD204670BD6001002081
:1043900070B50C460546FFF727FA09482246058006
:1043A0000848048008480068417C084850F821000B
:1043B000C1680B6A29469847BDE8704000F092BD7D
:1043C000C4010020C60100206001002098010020E7
:1043D00070B50546FFF708FA03480068047E0576C5
:1043E00000F080FD204670BD6001002070B50446DD
:1043F000FFF7FAF904480068B0F92C50848500F002
:1044000071FD284670BD00006001002070B50446B3
:10441000FFF7EAF904480068B0F92A50448500F033
:1044200061FD284670BD0000600100200248006860
:10443000002800D000477047980300200249CA684E
:1044400002B9C860FFF7F2BF3003002010B50400C6
:104450000ED0FFF7C9F920460BF0C4FF20460CF040
:1044600069FE2046FDF7FEFFBDE8104000F03ABDB2
:1044700010BD38B50C46050011D0FFF7B5F9284638
:10448000FEF7C0F800908089204201D0012400E0AE
:1044900000246846FEF7E6F800F024FD00E0012461
:1044A000204638BD38B50546002028600648046817
:1044B00044B12046FEF7A6F80090006928606846DF
:1044C000FEF7D0F8204638BD6403002038B504005C
:1044D0004FF000000D46086011D02046FEF792F81C
:1044E0000090846844B16846FEF7BCF82046FEF7A9
:1044F00089F80090006928606846FEF7B3F8204606
:1045000038BD00002DE9F04F97B01D46164689468C
:1045100004464FF00008FE49DDF888B0DDF880A0C1
:10452000C1F80080CDF8408002282AD06A4605AB49
:104530000BAF0DF1200C032C7DDB57D14FF00008A1
:104540004FEA0C0755F8280012F010FA4DF8280031
:104550005AF8280012F00AFA05A941F8280059F87B
:10456000280012F003FA0BA941F8280056F8280099
:1045700012F0FCF947F8280008F10108A045E1DB3A
:10458000E6E068681D68401B12F0F0F90446D9E9BE
:104590000001081A12F0EAF9214612F0E9F8DD4CA0
:1045A0000746C4E90008284612F0E0F9394612F03F
:1045B000F5F980F00040C4E90208DAE90071C81B8F
:1045C00012F0D4F90546D6E90010401A12F0CEF9DF
:1045D000294612F0CDF805462061384612F0C6F99A
:1045E000294612F0DBF980F00040B3E1002041469B
:1045F0004CF8201047F8201043F8201042F8201003
:10460000401C0328F4DB002760E000BF55F82700BA
:1046100012F0ACF91190029912F048F802905AF891
:10462000270012F0A3F98046079912F03FF807908F
:1046300059F8270000E0C1E112F098F913900D99A4
:1046400012F034F80D9056F8270012F08FF91290FE
:104650000A9912F02BF80A901198014612F09EF96F
:10466000009912F023F800904146119812F096F943
:10467000019912F01BF8019005904146404612F056
:104680008DF9069912F012F806901399119812F00C
:1046900085F90B9912F00AF80B904046139912F025
:1046A0007DF90C9912F002F80C90DDE9110112F07D
:1046B00075F9089911F0FAFF08904046129912F026
:1046C0006DF9099911F0F2FF7F1C0990A7429DDB5B
:1046D0000299009812F04CF800900799019812F096
:1046E00047F801900299059812F042F80590DDE92B
:1046F000060112F03DF8069002990B9812F038F876
:104700000B9007990C9812F033F80C9002990898C6
:1047100012F02EF808900799099812F029F80990DC
:10472000204612F023F904462146029812F020F8A0
:1047300002902146079812F01BF8079021460D9829
:1047400012F016F80D9021460A9812F011F80A900E
:104750000799059812F0EEF90646DDE901013446A5
:1047600012F0E8F9214612F019F90446DDE90601D4
:1047700012F0E0F905460299009812F0DBF929469B
:1047800012F00CF9214612F0D5F9054610F1FF4F51
:1047900002D2B5F5000F7DDBDDE90C01B0464446E1
:1047A00012F0C8F98146214612F0F8F80746DDE913
:1047B000060112F0BFF9824654460D990B9812F08B
:1047C000B9F90646214612F0E9F8394612F0B2F975
:1047D000294611F0CDFF4F4C2060DDE9010112F0B8
:1047E000A9F901461490304612F0D8F8064602990D
:1047F000009812F09FF901461590484612F0CEF845
:10480000314612F097F9294611F0B2FF60600C9919
:10481000009812F0C3F806460B99019812F0BEF802
:10482000314612F087F9079912F0B8F807460B994C
:10483000029812F0B3F806460D99009812F0AEF8FF
:10484000314612F077F9069912F0A8F806460D994C
:10485000019812F0A3F881460C99029812F09EF884
:10486000494612F067F9059912F098F8314611F0AF
:104870001DFF394611F01AFF294611F079FFA0609B
:10488000DDE90901464612F055F98046314612F03D
:1048900085F800E063E00646D1460A99089812F0D0
:1048A00049F90746494612F079F8314612F042F9C3
:1048B000294611F05DFFE0603846149912F06EF859
:1048C00006464046159912F069F8314612F032F961
:1048D000294611F04DFF20610999009812F05EF809
:1048E00006460899019812F059F8314612F022F95B
:1048F000079912F053F807460899029812F04EF8FB
:1049000006460A99009812F049F8314604E0000082
:104910007C0300205CC2002012F00CF9069912F012
:104920003DF806460A99019812F038F88046099930
:10493000029812F033F8414612F0FCF8059912F093
:104940002DF8314611F0B2FE394611F0AFFE29467E
:1049500011F00EFF1A4960610120086001E0109813
:1049600060B3174C21980021C4E9010B08460AF0F6
:1049700017FF0021E06008460AF03EFF2061219801
:10498000ABF10101401E0AF00BFF60612198ABF111
:104990000101401E0AF030FFA0616269E1689142A6
:1049A00001DDE26061612169814201DDA161206177
:1049B000206818B1002017B0BDE8F08F0120FAE799
:1049C0007C0300202DE9FE43DFF8B89005000A9E25
:1049D000D9F814C04FF00000CCF3410709F13004BE
:1049E00039D0012D02D00120BDE8FE83DFF894808C
:1049F00008F12008C8E90012052131EA0C013ED077
:104A0000012F3CD0C4E90036012199F80030A940BB
:104A10004A46194201D00023137013781943C9B2D2
:104A200089F800100329DFD1174E3068407C03F06D
:104A300021FA05463068407C03F030FA114B0094AF
:104A4000CDE901502833A3F10802A2F108010220A8
:104A5000FFF758FDC8E7DFF82C80032F08F118088E
:104A6000C8E9001208F1100106D00CF00502012A75
:104A700002D0C1E90036C7E7C1E90063C4E7C4E971
:104A80000063C1E7CC0100206001002070B50C4636
:104A9000054600F097F8296800290BDB2268002AF8
:104AA00008DB054B5C68A14204DA99688A4201DAA6
:104AB000002800D0012070BD7C03002070B5254C7B
:104AC00086B06078F8B100F0C5F8E06000F0C0F89A
:104AD000E06803902069049000F03EF88DF809002A
:104AE00004A903A8FFF7D2FF0025B0B1A07870B3E6
:104AF00060680090A06801908DF80850684600F04A
:104B000037F8A57023E000F0B7F8206100F0A1F8B5
:104B10006078401C607006B070BD039A6068111A1E
:104B200000D54942049BA068181A00D54042A678D7
:104B300016B1084402280ADD62600092A3600126D3
:104B400001938DF80860684600F012F8A670657051
:104B5000E1E70000CC0100200148407A70470000E6
:104B600074C200200149486170470000CC01002058
:104B70003EB504460C221149FBF742FD002813D034
:104B80000F480E4D026882B194E80B008DE80B00CF
:104B9000684601A990479DE80E0085E80E000028B0
:104BA00002D16846FFF7B8FA3EBD2046FFF7B4FAD7
:104BB00094E8070085E807003EBD000050C20020D1
:104BC000780300202DE9F04705461F480E4600688F
:104BD000B8B3D5F80080306811F0C8FE1B4C814690
:104BE000616811F0DBFE0746404611F0BFFE8046CB
:104BF000216811F0D3FE394611F058FDA16811F07B
:104C000055FD4FF07C57394611F050FD11F072FE02
:104C100028604846216911F0C1FE05464046E1681A
:104C200011F0BCFE294611F041FD616911F03EFD15
:104C3000394611F03BFD11F05DFE30600020BDE80B
:104C4000F087FFE70120FAE77C0300205CC2002028
:104C5000704770471CB5694601A80FF07FFC0548F6
:104C6000416800208847BDF8040040F6FF71081A2B
:104C70001CBD0000500000201CB5694601A80FF0C3
:104C80006DFC0348416800208847BDF800001CBD4A
:104C9000500000202DE9F041084E044605683068B8
:104CA0000168284688470746306841682846884793
:104CB000284420603846BDE8F081000068010020EB
:104CC0002DE9F0410C4606460025064F05E0386800
:104CD00041683046884706440544641EF7D228469A
:104CE000BDE8F081680100202DE9F0411E46069CD8
:104CF0001746884605463A46A8687F1C3346D0F8D2
:104D000004C041462846E047641EF4D1BDE8F08166
:104D100070B5B0F90040091BB0F904408C422CDD9D
:104D200000F11404B0F902500069521B02FB00406C
:104D3000CA1800EBE104521ED010B0EBE10501F0FF
:104D400007034FF0FF0102F0070221FA03F0C2F15E
:104D5000070201FA02F1CEB221780FD001436D1E95
:104D600004F8011B002D05DDFF2229462046FBF734
:104D70007EFD2C4420783043207070BD30400143CC
:104D8000217070BD10B5B0F90030B0F90240C91AF9
:104D900000F114030069121B02FB003000EBE1007C
:104DA00001F0070302788021D9400A43027010BD48
:104DB000B0F90610026951431430FBF782BD0000C0
:104DC0002DE9F843804602F10F000011470003FB74
:104DD00007F01C46154689461430FDF721FB0600F6
:104DE00018D0FEF701FD3046FDF70CFC0090A0F84E
:104DF0000080A0F802908580C4800749816001216D
:104E0000818107616846FDF72DFC00F06BF83046A4
:104E1000BDE8F8830020FBE7C829020870B5B0F9A7
:104E20000660B0F904400B6800F1140596421BDDE2
:104E30000069A34202FB005000EBE30214DA641E97
:104E4000E010A0EBE30512F8010B03F00704A0400B
:104E5000C4B206E045B1083312F8014B23F0070352
:104E60006D1E002CF6D004E0002070BD6006040E1C
:104E70005B1C2006FAD5FF2C07D0184602E064061A
:104E8000240E401C6606FAD400E0D81DC443640713
:104E900005D006E012F8014BFF2C09D108306D1E39
:104EA000F8D5C01A401C0B6070BD6206140E401C81
:104EB0002206FAD4F5E738B50546FEF795FC2846F4
:104EC000FDF7A0FB00908189491E0CB284816846E1
:104ED000FDF7C8FB14B92846FDF7C4FA00F002F844
:104EE00038BD00000348C168491EC16001D100F00F
:104EF00077B87047480300202DE9F04116460F4669
:104F000005460024FEF770FC32463946284601F07B
:104F100025F9054408B1641CF6E7FFF7E3FF2046D6
:104F2000BDE8F08110B54FF4C8410348FDF792FA8F
:104F30000248FFF7EDF910BD4C5C0020F8F30108C2
:104F400010B5044620460FF013FE10BD10B5012029
:104F5000FFF7F6FF10BD10B510F08CFD10BD10B5B9
:104F600010F09EFD10BD000010B5032200210120AD
:104F700010F090F9064908600846006830B1002337
:104F80001A4619460248006810F04AFA10BD00009F
:104F90003C01002010B5012010F06AF909490860B1
:104FA00003220021012010F075F907490860084626
:104FB000006830B100231A4619460348006810F013
:104FC0002FFA10BD340100203801002010B54FF039
:104FD000FF310248006810F0D5FB10BD34010020FD
:104FE00010B500231A4619460248006810F018FA56
:104FF00010BD0000340100200EB508B102AA00E087
:105000000022002301A9684600F0C8FD0EBD000083
:10501000074910B50C7818B101200870801E03E014
:10502000002008706FF07F4002F066FC204610BD43
:105030004D01002010B5082A0EDC0346012A18D0C5
:10504000022A56D0042A76D010F8042B03F8012B3C
:10505000491EF9D1012010BD102A08DC4FEA0002D8
:1050600030F8043B22F8023B491EF9D1F2E7002058
:1050700010BD10F8042BD207120E491E34D010F8C0
:10508000044B491E04F0010442EA84122CD010F8AB
:10509000044B491E04F0010442EA441224D010F8E3
:1050A000044B491E04F0010442EA04121CD010F81B
:1050B000044B491E04F0010442EAC40214D010F863
:1050C000044B491E04F0010442EA84020CD010F89B
:1050D000044B491E04F0010442EA440204D010F8D3
:1050E000044B04F00104224303F8012B0029C0D132
:1050F000B0E710F8042B9207120E491E15D010F8D5
:10510000044B491E04F0030442EA04120DD010F8C7
:10511000044B491E04F0030442EA840205D010F84F
:10512000044B04F003042243491E03F8012B002919
:10513000DFD18FE7FFE710F8042B1207120E491E8C
:1051400005D010F8044B04F00F042243491E03F865
:10515000012B0029EFD17DE738B50024009400F041
:105160001DF838BD0B4810B5816B002910D1012105
:105170008163FFF7D7FEFDF71DF903F0A7FA054994
:1051800005483C310860BDE81040084600F06ABFA1
:1051900010BD00004C010020F1FD00082DE9F04198
:1051A0000D460699044601B901461F68082A09DC24
:1051B0000E46012A1AD0022A5BD0042A7DD0082A82
:1051C00013D18DE0102A07DCD3F810C00E46BCF1D5
:1051D000000F04D0022389E00020BDE8F08101CC5B
:1051E000B84726F8020B6D1EF9D189E001CCB8470B
:1051F000C0074FEA10686D1E36D001CCB84748EAA8
:10520000801000F0FF086D1E2ED001CCB84748EA90
:10521000401000F0FF086D1E26D001CCB84748EAC8
:10522000001000F0FF086D1E1ED001CCB84748EA00
:10523000C00000F0FF086D1E16D001CCB84748EA48
:10524000800000F0FF086D1E0ED001CCB84748EA80
:10525000400000F0FF086D1E06D001CCB84740EAC0
:10526000080000F0FF086D1E06F8018B002DBDD16F
:1052700046E001CCB84780074FEA10686D1E16D093
:1052800001CCB84748EA001000F0FF086D1E0ED0B0
:1052900001CCB84748EA800000F0FF086D1E06D038
:1052A00001CCB84740EA080000F0FF086D1E06F880
:1052B000018B002DDDD123E0FFE701CCB8470007CB
:1052C0004FEA10686D1E06D001CCB84740EA0800CE
:1052D00000F0FF086D1E06F8018B002DEDD10FE0E8
:1052E000D3F810C0BCF1000F04D001232A46204699
:1052F000E04705E001CCB84706F8010B6D1EF9D177
:1053000001206AE70149084400F0EEBE905F010009
:105310007CB5064628480D46006868B1002005F0B7
:1053200099F906E06A462946304606F0AFF805F0DE
:1053300045F90028F6D17CBD106800901F4C5068DC
:1053400001902268BDF8000032F8481F0844ADF80B
:105350000000BDF8020091880844ADF80200BDF8D5
:10536000040011880844ADF80400BDF806009188D7
:105370000844ADF80600684605F06CF90EE000BF81
:105380002068BDF800106A464184BDF8021081848F
:105390002946304606F07AF805F010F90028EFD1DA
:1053A000206830F8221FC28C891A01804188428D02
:1053B000891A41807CBD0000C001002060010020EE
:1053C0002DE9FF4F85B000209B4691460D46029087
:1053D0000390FEF77BF94FF0000ADDF814800646D3
:1053E000544625B1286800906868019002E068463C
:1053F000FEF742F919F00C0F02D05D46002713E0CA
:10540000BDF902402DE029467F1C059800F042FCC2
:1054100001466D1A0598FFF753FC0599084405905D
:1054200005A800F073FC08B9002DECD109F00C00C0
:10543000042804D0082802D00C2812D105E0BDF9B8
:10544000060007FB1604641C0BE0BDF90600BDF95D
:105450000210401A07FB1600401C00EBD07001EB55
:1054600060045D46DFF838B14E4FCDF8148079E026
:105470002946059800F00EFC2D1A01460490059867
:1054800000F0DAFB19F003010ED0012965D00229E2
:105490000DD1BDF90420BDF90010521A121A02EB09
:1054A000D27201EB620101E0BDF900108A463A6850
:1054B000401E5044A2F822A09484ADF80C00A0191C
:1054C000401EADF80E00DDE90410ADF808A0ADF8FF
:1054D0000A4002AAFFF71CFF9BF8000070B338686F
:1054E00090F82A00800729D4059941450CD1BDF9CF
:1054F0000A30BDF902108B4206DDBDF90420BDF96A
:1055000000005B1EFDF75CFABDF90820BDF9000044
:10551000824206DDBDF90E30BDF90A10521EFDF7BC
:105520004FFABDF90C00BDF90420904206DABDF92E
:105530000E30BDF90A10401CFDF742FADDE90410F7
:10554000FFF7BEFB059908440590FEF7BFF8044439
:1055500005A800F0DBFB28B106E0BDF90410091A2C
:10556000491CA3E7002D83D19BF80000002814D02C
:10557000386890F82A0080070FD4059941450CD06F
:10558000BDF90E10BDF90630994206DABDF90420C6
:10559000BDF90000491CFDF713FA09B0BDE8F08F12
:1055A0002C0300206001002049B1002802DAA0EBA2
:1055B000610001E000EB610090FBF1F0704700201A
:1055C000704700002DE9FF4F8DB00020DDF86C9092
:1055D000164600901D4604460246C9F8000008AB76
:1055E00003A902A800F0DAFA18B1002011B0BDE852
:1055F000F08F0898854200DD0546604F0B956049A5
:105600003868407C51F82010049109690691FDF733
:10561000F7FF05903868407CFEF790F859498346BB
:10562000884201D0012000E000200A9001CE1A99A2
:1056300088478246000E079077D0009870BB0D987F
:1056400000EB04084D480068B0F90800404503DD50
:10565000A0EB0807804600E000270299049801EBC0
:10566000840101EB8701CDE900100B990D984218D8
:1056700009920E9B40461946521EFEF79BFD0120E3
:105680000090059818280ADA0298DDE9052300EB56
:10569000840000EB8700E91B00F0DEF912E00A98B5
:1056A00080B1029800EB840000EB87070998A0EB1B
:1056B000080859463868884701C7A8F101005FEA21
:1056C0000008F6D1304BD86980B3DDE9020700EB62
:1056D000840007EB8402CDE902022B4C361F2B46D7
:1056E000E46930460299A047FF203168B0EB116FA2
:1056F00002D10299096804E0029A1268B0EB126FB5
:1057000001D1039A1160029906F10406091D029164
:105710000399091D03916D1EE7D10397D9F8000085
:1057200040F00100C9F8000021E022E0FFE70798FF
:10573000FF2812D0C0F1FF0202981B6850F8241015
:105740002AF07F409847039941F82400D9F80000D7
:1057500040F00101C9F8001005E00298039950F8E3
:10576000240041F82400641C6D1E7FF45FAF039891
:105770003CE7039941F824A0E8E70000600100201D
:1057800098010020617F0008700400202DE9F04F8F
:105790008FB01D4616460F468146DDF87480189C72
:1057A000FDF76FFF0A9002F0B3FA0190DDE91A01EC
:1057B00008434FEA460B012803D04FF0000A059733
:1057C000F5E07E480068407CFDF7B8FF1C99002397
:1057D000884211D101200090CDE904430DF1040865
:1057E000102188E803082B4632463946484602F025
:1057F000CBF80FB0BDE8F08F7819401E039009EB8D
:105800000600A0F1010A6D480268B2F90AC0BC4561
:1058100008DDACEB0701674601FB0BFC2CF0010C2B
:1058200064446D1AB2F90EC00399A1EB0C01002972
:1058300000DD6D1A002DDCDDB2F90CC0AAEB0C0105
:10584000002900DD761AB2F90800484505DDA0EB15
:105850000900361A04EB40048144002EC9DD002003
:1058600007930990B8F1000F09D0D8F814000990F7
:1058700028B100231A46194607A800F08FF902F054
:105880004FFA80464D480068407CFDF74FFF04907A
:10589000D8F800C0524639464846039BE0470028E6
:1058A00048D1079840BB40E0099F0223324620467A
:1058B0000799B847079800278246814607E000BF4E
:1058C000049959F8040B88474AF8040B7F1CB74227
:1058D000F6DB0027DDF81C9006E000BFD8F80410C6
:1058E00059F8040B88477F1CB742F7DBD8F808004B
:1058F00080472BF0010004446D1ED5D217E0A1466D
:10590000002709E01C9939F8020B88470499884759
:10591000D8F8041088477F1CB742F3DB3DB1D8F8B4
:10592000080080472BF0010004446D1EE7D2D8F830
:105930000C0080473DE01B99059808440D90401EDF
:1059400003901E4801680398B1F90A20824225DCC1
:10595000B1F90E100598814220DBA0460027CDF852
:10596000189019E038F8020B0090DDE90001884238
:1059700005D01C99884702F0F5FC00980190069923
:105980001A98039B0A180092DDE90510521E02F0D6
:1059900087F9009A7F1C0692B742E3DB0BEBDB70C2
:1059A00020F0010004440D980AF1010A0590AA456F
:1059B000C1DB0A98FEF7A1FC1BE700006001002094
:1059C00010B50846FFF766F9044604480068C06948
:1059D000016820468847204610BD00006001002075
:1059E0000149096849680847B00400202DE9FF4FC4
:1059F00087B00C46DDE91698DDE914BA0546FDF7D7
:105A0000F3FE1448099A0168886CC96C4719851817
:105A10000E190A98ADF810700C18ADF81450ADF8C6
:105A20001260ADF8164004A804F014FE0BE0CDE9B6
:105A30000298CDE900BA23462A463146384608F096
:105A400081FB04F0BBFD0028F1D1FFF74BFA0BB04E
:105A5000BDE8F08F600100202DE9F05F0C1E16DD1F
:105A60005E68014600EB8405082A12DC611E012AEB
:105A700026D0022A47D0042A6AD0082A07D107195B
:105A800017F8010DB04745F8040D641EF8D1BDE8C4
:105A9000F09F102AFBDC5F693FB12246BC46BDE89F
:105AA000F04F02235DF804EB604701EB440700BFB1
:105AB00037F8020DB04745F8040D641EF8D1E6E74B
:105AC00000EBE10001F0070710F801A981468020F2
:105AD00020FA07F8B5F104050AEA0800C7F1070142
