:020000040800F2
:100000001034002079020008F91D00084F1D000877
:10001000F51D0008C5070008C12000080000000009
:10002000000000000000000000000000E1010008E6
:10003000C90700080000000025020008251E00086E
:10004000930200089302000893020008930200083C
:10005000930200089302000893020008930200082C
:10006000930200089302000893020008930200081C
:10007000930200089302000893020008930200080C
:1000800093020008930200089302000893020008FC
:1000900093020008930200089302000893020008EC
:1000A00093020008930200089302000893020008DC
:1000B00093020008930200089302000893020008CC
:1000C00093020008930200089302000893020008BC
:1000D000930200089D200008930200089302000884
:1000E000930200089302000893020008930200089C
:1000F000930200089302000893020008930200088C
:10010000930200089302000893020008930200087B
:1001100093020008930200083D1E000893020008A5
:10012000930200089302000893020008930200085B
:1001300000F002F800F045F80AA090E8000C8244B4
:100140008344AAF10107DA4501D100F03AF8AFF291
:10015000090EBAE80F0013F0010F18BFFB1A43F0A5
:1001600001031847447C0000647C0000103A24BF5F
:1001700078C878C1FAD8520724BF30C830C144BF0C
:1001800004680C607047000000230024002500264E
:10019000103A28BF78C1FBD8520728BF30C148BFEA
:1001A0000B607047642900F0BF80782900F0F88068
:1001B000732900F06782002070471FB51FBD10B57E
:1001C00010BD00F0CDFA1146FFF7F7FF02F076FC04
:1001D00000F0EBFA03B4FFF7F2FF03BC01F08EFF6F
:1001E000224B19680868B0E8F00F80F30988BFF364
:1001F0006F8F4FF0000080F311884EF00D0E7047A6
:100200000000000006480068006880F3088862B6B5
:1002100061B6BFF34F8FBFF36F8F00DF00BF00BF2A
:1002200008ED00E0EFF30980BFF36F8F0F4B1A6802
:1002300020E9F00F106008B54FF0500080F31188EE
:10024000BFF34F8FBFF36F8F03F044FF4FF00000F9
:1002500080F31188BDE8084019680868B0E8F00F1D
:1002600080F30988BFF36F8F704700BF4C000020F8
:10027000EFF30580704700000948804709480047B0
:10028000FEE7FEE7FEE7FEE7FEE7FEE7FEE7FEE746
:10029000FEE7FEE704480549054A064B70470000A3
:1002A000391E000831010008102E002010340020F3
:1002B0001030002010300020704700000FB40449B7
:1002C00010B503AA029800F0E1F910BC5DF814FB28
:1002D0002800002070B50C460546012A05D0287874
:1002E000800600D5EA69002302E0012305E05B1CDB
:1002F000934202D2E05C0028F9D1A869E618C01A3E
:10030000A861286A184428622846AFF3008004E0F8
:10031000D5E9012114F8010B9047B442F8D32846DF
:10032000AFF3008070BD00002DE9F04106460024C7
:1003300010687529314616A510D0AFF3008000284B
:1003400002DA404213A507E031688A0701D512A5F9
:1003500002E0490704D511A5012401E0AFF30080B4
:1003600000210A2206F1240709E0B0FBF2FCB0FBF1
:10037000F2F302FB1C00303078541846491C002868
:10038000F3D123462A463046BDE8F04100F0F6B8E6
:10039000000000002D0000002B00000020000000E5
:1003A00070B504460D4621461068AFF300802188E1
:1003B000090502D50F4A7A4402E00E4A7A440E3209
:1003C000002104F1240305E000F00F060009965D0A
:1003D0005E54491C0028F7D120780023000704D57B
:1003E000702D02D009B1022311322046BDE87040C1
:1003F00000F0C4B8B27900002DE9F0410F46044680
:100400000020DFF88480F84420622046E1688847B5
:1004100090B3252806D0D4E901219047206A401CDA
:100420002062F2E700252046E1688847202806463A
:1004300008DB312E06D208EB060010F8200C08B1BC
:100440000543F0E7A80701D525F00405A6B1A6F1FC
:100450004100192802D8203645F400653A46314655
:1004600020462560FFF79EFE48B1012805D0FF1DFC
:1004700027F007070837C8E703E03F1DC5E7304608
:10048000C9E7206ABDE8F0818A790000032A40F2BA
:10049000308010F0030C00F0158011F8013BBCF126
:1004A000020F624498BF11F801CB00F8013B38BF3E
:1004B00011F8013BA2F1040298BF00F801CB38BF4C
:1004C00000F8013B11F0030300F0F280083AC0F09D
:1004D000088051F8043B083A51F804CBA0E8081012
:1004E000F5E7121D5CBF51F8043B40F8043BAFF345
:1004F0000080D20724BF11F8013B11F801CB48BF9F
:1005000011F8012B24BF00F8013B00F801CB48BFD4
:1005100000F8012B704702F0FF0343EA032242EA8E
:10052000024200F0F9B84FF0000200B513469446BD
:100530009646203922BFA0E80C50A0E80C50B1F13B
:100540002001BFF4F7AF090728BFA0E80C5048BF4F
:100550000CC05DF804EB890028BF40F8042B08BFED
:10056000704748BF20F8022B11F0804F18BF00F8E9
:10057000012B704770477047704770472DE9F0476F
:100580000D4699469246044600F124080168880603
:1005900004D5E06921F01001216000E00120A842AB
:1005A00001DD471B00E00027A1697A1902EB090071
:1005B000081AA0612078C00602D42046AFF300805C
:1005C000002608E0D4E901211AF806009047206AC5
:1005D000401C761C20624E45F4DB2078C0060AD50C
:1005E0002046AFF3008006E0D4E901213020904797
:1005F000206A401C2062381EA7F10107F4DC07E0E6
:10060000D4E9012118F805009047206A401C2062B7
:10061000281EA5F10105F3DC2046AFF30080207809
:10062000000602D50220BDE8F0870120FBE70000AC
:1006300001694A1C02610878704700B58FB0CDE9A6
:1006400001310021059105497944CDE90310114696
:100650006846FFF7D1FE0FB000BD0000E5FFFFFFC9
:1006600010B5436913B1AFF3008001E0FFF732FE2C
:10067000012010BD127800F124010A7000224A7096
:100680000122EDE711684FF0FF32E9E7074B70B543
:100690000D467B44FFF7D1FF0446284600F05CF886
:1006A00010B14FF0FF3070BD204670BD1B1B000025
:1006B00010B5203AC0F00B80B1E81850203AA0E8FD
:1006C0001850B1E81850A0E81850BFF4F5AF5FEA31
:1006D000027C24BFB1E81850A0E8185044BF18C9E4
:1006E00018C0BDE810405FEA827C24BF51F8043B8B
:1006F00040F8043B08BF7047D20728BF31F8023BDF
:1007000048BF11F8012B28BF20F8023B48BF00F872
:10071000012B70474FF000020429C0F0128010F046
:10072000030C3FF402AFCCF1040CBCF1020F18BF74
:1007300000F8012BA8BF20F8022BA1EB0C01FFF75A
:10074000F4BE5FEAC17C24BF00F8012B00F8012B46
:1007500048BF00F8012B7047007B00F08000704715
:10076000754600F02BF8AE4605006946534620F06A
:100770000700854618B020B5FFF78CFDBDE8204086
:100780004FF000064FF000074FF000084FF0000B4D
:1007900021F00701AC46ACE8C009ACE8C009ACE800
:1007A000C009ACE8C0098D46704710B50446AFF3E8
:1007B00000802046BDE81040FFF70CBD00487047A0
:1007C000B02D002000BFFEE77047000070B5044662
:1007D000B3F5804F13D1D1E9000540EA05108D68CB
:1007E00040EA05208D6928438D8940EA054054F888
:1007F0002250064E3540284344F8220003E06FF0B3
:10080000704044F82200002070BD00000000F0CFCE
:1008100070B50246086852F8200020F001000E680A
:1008200042F826008868082801D1402300E0002310
:10083000486818438E683043CE6830430E693043B1
:100840004E693043CE6930430E6A30434E6A3043BE
:100850008E6A3043CE6A30430E6B40EA06048869E4
:100860000443486B0443074D45F4806545F4E02597
:10087000086852F82000A84320430E6842F826007A
:10088000002070BD7FFB080010B50346D1E90004CD
:1008900040EA04108C6840EA04208C8940EA044451
:1008A000088A401E44EA0054087D801E44EA006025
:1008B0008C692043541C53F8244004F040442043E6
:1008C000541C43F82400002010BD000070B50446FD
:1008D000002594F82100022803D00420A0630125FC
:1008E000C1E02068006820F00E00216808602068E0
:1008F000006820F00100216808605C492068884297
:1009000052D95A4978392068884201D1012047E0FC
:10091000564964392068884201D1102040E053498B
:1009200050392068884201D1801539E04F493C395F
:100930002068884201D1801432E04C49283920686F
:10094000884202D14FF480302AE0484914392068A7
:10095000884202D14FF4801022E044492068884246
:1009600001D140041CE042492068884201D10120A5
:1009700016E03F4914312068884201D110200FE071
:100980003B4928312068884201D1801508E0384968
:100990003C312068884201D1801401E04FF480305E
:1009A0003349091F086051E030497839206888428E
:1009B00001D1012047E02D4964392068884201D1E6
:1009C000102040E0294950392068884201D1801523
:1009D00039E026493C392068884201D1801432E050
:1009E000224928392068884202D14FF480302AE019
:1009F0001E4914392068884202D14FF4801022E049
:100A00001A492068884201D140041CE01849206836
:100A1000884201D1012016E015491431206888422E
:100A200001D110200FE0124928312068884201D1FD
:100A3000801508E00E493C312068884201D18014BD
:100A400001E04FF48030094980394860012084F882
:100A5000210000BF002084F8200000BF606B10B1AF
:100A60002046616B8847284670BD00008000024028
:100A7000080402402DE9F847024600239C467BE12A
:100A80004FF0010808FA03F4D1F8008008EA0400E6
:100A9000A0427DD1DFF8F4A2D1F80480A8EB0A09C6
:100AA000D0453AD014DCB8F1030F50D009DCB8F1CE
:100AB000000F31D0B8F1010F1CD0B8F1020F49D1AD
:100AC00020E0B8F1110F18D0B8F1120F42D11EE09A
:100AD000B9F5881F25D006DCB9F5803F20D0B9F5DF
:100AE000801F37D11AE0B9F5001F18D0B9F5041FDF
:100AF00030D117E0D1F80CC02DE0D1F80C8008F10E
:100B0000040C28E0D1F80C8008F1080C23E0D1F89F
:100B10000C8008F10C0C1EE000BF00BF00BF00BF3E
:100B200000BF00BFD1F80880B8F1000F02D14FF02C
:100B3000040C0BE0D1F80880B8F1010F03D14FF09D
:100B4000080C146102E04FF0080C546103E04FF010
:100B5000000C00E000BF00BFFF2801D8904601E074
:100B600002F104084646FF2802D84FEA830803E052
:100B7000A3F108084FEA88084746D6F800804FF0EE
:100B80000F0909FA07F928EA09080CFA07F900E041
:100B90007AE048EA0908C6F80080D1F8048008F035
:100BA0008058B8F1805F6FD100BFDFF8E481D8F8DA
:100BB000188048F00108DFF8D891C9F81880C846B5
:100BC000D8F8188008F00108CDF8008000BF00BFF9
:100BD0004FEAB9384FEA930958F829504FEA837819
:100BE0004FEA18794FF00F0808FA09F825EA0805C6
:100BF000DFF8A081424502D14FF0000824E0DFF881
:100C00009881424502D14FF001081DE0DFF88C8148
:100C1000424502D14FF0020816E0DFF884814245D8
:100C200002D14FF003080FE0DFF87881424502D18E
:100C30004FF0040808E0DFF87081424502D14FF020
:100C4000050801E04FF006084FEA83794FEA197969
:100C500008FA09F848EA0505DFF850814FEA9309D8
:100C600048F82950D1F8048008F48038B8F5803F5E
:100C70000BD1DFF83C81D8F8008048EA0008DFF8A3
:100C80003091C9F800800AE075E0DFF82481D8F8D7
:100C9000008028EA0008DFF81891C9F80080D1F830
:100CA000048008F40038B8F5003F0ED1DFF8008169
:100CB00008F10408D8F8008048EA0008DFF8F0904E
:100CC00009F10409C9F800800DE0DFF8E48008F1BB
:100CD0000408D8F8008028EA0008DFF8D49009F169
:100CE0000409C9F80080D1F8048008F48018B8F528
:100CF000801F0ED1DFF8B88008F10808D8F800800E
:100D000048EA0008DFF8A89009F10809C9F800804E
:100D10000DE0DFF89C8008F10808D8F8008028EA88
:100D20000008DFF88C9009F10809C9F80080D1F8B3
:100D3000048008F40018B8F5001F0ED1DFF87080A9
:100D400008F10C08D8F8008048EA0008DFF8609045
:100D500009F10C09C9F800800DE0DFF8548008F1B2
:100D60000C08D8F8008028EA0008DFF8449009F160
:100D70000C09C9F800805B1CD1F8008028FA03F840
:100D8000B8F1000F7FF47CAEBDE8F88700001110C9
:100D90000010024000080140000C0140001001401A
:100DA0000014014000180140001C014008000140EF
:100DB0000004014010B5C26821EA020302EA0104FE
:100DC00043EA0443036110BD0AB1016101E00B0471
:100DD0000361704701480068704700003000002040
:100DE00003480068034909780844014908607047CE
:100DF000300000203800002010B50848006840F09E
:100E0000100006490860052000F080F80F2000F06F
:100E100007F800F02BF8002010BD00000020024071
:100E200070B504460E4800784FF47A71B1FBF0F0CB
:100E30000C490968B1FBF0F5284600F0CFFC08B179
:100E4000012070BD102C07D200222146501E00F058
:100E50001EF80548046001E00120F2E70020F0E7F9
:100E600038000020000000203400002070470146B8
:100E70000846002809DB00F01F0301229A404309BD
:100E80009B0003F1E023C3F8002100BF70472DE968
:100E9000F05F80460D461646002701F013F907461D
:100EA00039462A46334601F00700C0F1070ABAF175
:100EB000040F02D94FF0040A01E0C0F1070AD1463D
:100EC00000F1040ABAF1070F02D24FF0000A01E064
:100ED000A0F1030AD4464FF0010A0AFA09FAAAF16E
:100EE000010A0AEA020A0AFA0CFA4FF0010B0BFA9D
:100EF0000CFBABF1010B0BEA030B4AEA0B04214696
:100F0000404601F0E7F8BDE8F09F000000BF00F0A8
:100F10000702064B19684FF6FF031940044B0B43B9
:100F200043EA0221014B196000BF70470CED00E05D
:100F30000000FA0570B504460D460CB9012070BDDD
:100F40005A48006800F00700A8420ED257480068CF
:100F500020F007002843554908600846006800F063
:100F60000700A84201D00120E9E7207800F0020044
:100F700002281DD1207800F00400042805D14C4837
:100F8000406840F4E0604A494860207800F008007A
:100F9000082805D14648406840F4605044494860FC
:100FA0004348406820F0F000A16808434049486089
:100FB000207800F0010078B36068012806D13C4831
:100FC000006800F4003090B90120B8E7606802289A
:100FD00006D13748006800F0007040B90120AEE744
:100FE0003348006800F0020008B90120A7E7304844
:100FF000406820F00300616808432D494860FFF70E
:10100000E9FE064609E0FFF7E5FE801B41F2883164
:10101000884202D9032092E707E02548406800F0A3
:101020000C006168B0EB810FEDD12048006800F042
:101030000700A8420ED91D48006820F00700284389
:101040001A4908600846006800F00700A84201D06D
:10105000012074E7207800F00400042807D1144828
:10106000406820F4E060E168084311494860207856
:1010700000F00800082808D10D48406820F46050AE
:10108000216940EAC1000A49486000F03FF8084978
:101090004968C1F30311074A515CC840064908601A
:1010A00006480068FFF7BCFE002048E70020024029
:1010B00000100240D44D0008000000203400002041
:1010C00001480068704700000000002000B5FFF7ED
:1010D000F7FF04494968C1F30221034A515CC84043
:1010E00000BD000000100240E44D000800B5FFF70D
:1010F000E7FF04494968C1F3C221034A515CC84073
:1011000000BD000000100240E44D0008F0B585B0BD
:101110000FF26C0C9CE8E01001A8A0E8E0101CA500
:101120002D68009500210022002300240020194D85
:10113000696801F00C05F5B1042D02D0082D19D114
:1011400001E0154819E001ADC1F38346AC5D01F43F
:10115000803555B10F4D6D68C5F340451DF805202C
:101160000D4D6543B5FBF2F302E00C4D04FB05F3B6
:10117000184602E000BF084800BF00BF05B0F0BD40
:1011800002030405060708090A0B0C0D0E0F1010C8
:10119000010200000010024000127A0000093D0028
:1011A000F8B504460CB90120F8BD207800F0010024
:1011B000002878D0F848406800F00C0004280CD0D3
:1011C000F548406800F00C00082811D1F24840684A
:1011D00000F48030B0F5803F0AD1EF48006800F499
:1011E000003000285FD0606800285CD10120DBE778
:1011F00000BF6068B0F5803F06D1E748006840F462
:101200008030E549086028E0606858B9E248006825
:1012100020F48030E04908600846006820F480200F
:1012200008601AE06068B0F5A02F0BD1DA480068BA
:1012300040F48020D84908600846006840F48030B7
:1012400008600AE0D448006820F48030D249086081
:101250000846006820F48020086000BF606888B1FC
:10126000FFF7B8FD054606E0FFF7B4FD401B642814
:1012700001D9032098E7C848006800F4003000282E
:10128000F2D010E0FFF7A6FD054606E0FFF7A2FD4D
:10129000401B642801D9032086E7BF48006800F49A
:1012A00000300028F2D1207800F00200022857D147
:1012B000B948406800F00C0050B1B748406800F0F1
:1012C0000C00082818D1B448406800F4803098B960
:1012D000B148006800F0020020B12069012801D067
:1012E000012061E7AC48006820F0F800616940EA3D
:1012F000C100A949086033E02069E8B10120A7498D
:101300000860FFF767FD054606E0FFF763FD401B39
:10131000022801D9032047E79F48006800F0020037
:101320000028F2D09C48006820F0F800616940EA8B
:10133000C1009949086013E0002098490860FFF750
:1013400049FD054606E0FFF745FD401B022801D98F
:10135000032029E79048006800F002000028F2D13D
:10136000207800F0080008282DD1A069B8B101202C
:101370008B490860FFF72EFD054606E0FFF72AFDC2
:10138000401B022801D903200EE78348406A00F081
:1013900002000028F2D0012000F030FD13E0002010
:1013A0007F490860FFF716FD054606E0FFF712FDCE
:1013B000401B022801D90320F6E67748406A00F076
:1013C00002000028F2D1207800F00400042873D134
:1013D00000277148C06900F0805070B900BF6E48A6
:1013E000C06940F080506C49C8610846C06900F08F
:1013F0008050009000BF00BF01276A48006800F4D9
:101400008070B0B96748006840F480706549086032
:10141000FFF7E0FC054606E0FFF7DCFC401B642814
:1014200001D90320C0E65F48006800F480700028FE
:10143000F2D000BFE068012806D15748006A40F0AA
:1014400001005549086227E0E06858B95248006A2F
:1014500020F00100504908620846006A20F00400AC
:10146000086219E0E06805280BD14B48006A40F09B
:101470000400494908620846006A40F00100086219
:101480000AE04548006A20F0010043490862084626
:10149000006A20F00400086200BFE068A0B1FFF716
:1014A00099FC054609E0FFF795FC401B41F28831A5
:1014B000884202D9032077E622E03748006A00F02C
:1014C00002000028EFD012E0FFF784FC054608E098
:1014D000FFF780FC401B41F28831884201D903208C
:1014E00062E62D48006A00F002000028F0D1012FCA
:1014F00005D12948C06920F080502749C86100BF44
:10150000E069C8B32448406800F00C00082860D0A7
:10151000E069022848D1002020490866FFF75AFCFC
:10152000054606E0FFF756FC401B022801D90320C0
:101530003AE61948006800F000700028F2D1206AED
:10154000B0F5803F07D11448406820F40030A1680E
:10155000084311494860D4E9080108430E49496825
:1015600021F4741108430C49486001200B490866B6
:10157000FFF730FC054607E03DE0FFF72BFC401B82
:10158000022801D903200FE60348006800F000702C
:101590000028F2D02FE0000000100240000042427C
:1015A0008004424200700040002014490866FFF7A2
:1015B00011FC054606E0FFF70DFC401B022801D98F
:1015C0000320F1E50E48006800F000700028F2D119
:1015D00011E0E069012800D1E6E50948466806F413
:1015E0008031206A814204D106F47011606A814220
:1015F00001D00120D8E50020D6E5000000004242DD
:101600000010024070B504460E4615461CB1A06994
:10161000B0F5807F01D1012070BD94F8410028B958
:10162000002084F84000204600F020F804F1080172
:101630002068FFF7EDF83146A2682068FFF724F92B
:101640002946236BD4E90102FFF7C0F8A16820689E
:1016500050F8210040F00100A268216841F8220002
:10166000012084F841000020D6E7000010B586B0C4
:10167000044600BF4B48406940F4807049494861C6
:101680000846406900F48070019000BF00BF00BFB1
:101690000846806940F0200088610846806900F0B3
:1016A0002000019000BF00BF00BF0846806940F0E5
:1016B000400088610846806900F04000019000BF4A
:1016C00000BF00BF00BF0846806940F0200088616D
:1016D0000846806900F02000019000BF00BF00BFF5
:1016E00000BF00BF0846806940F0200088610846BE
:1016F000806900F02000019000BF00BF00BF00BF64
:1017000000BF0846806940F480708861084680699F
:1017100000F48070019000BF00BF00BF00BF00BF99
:101720000846806940F4807088610846806900F44A
:101730008070019000BF00BF00BF8814029002209B
:101740000390012004900320059002A91648FFF79A
:1017500091F92020029002A91448FFF78BF910207C
:10176000029002A91148FFF785F90120029002A911
:101770000D48FFF77FF94CF20370029002200390AE
:10178000012004900320059002A90848FFF772F990
:101790004FF68070029002A90548FFF76BF906B07A
:1017A00010BD000000100240002001400014014064
:1017B00000180140042808D14FF0E021096941F0E8
:1017C00004014FF0E022116107E04FF0E0210969C8
:1017D00021F004014FF0E0221161704770B504461A
:1017E0002546681EB0F1807F01D301200FE0681EFE
:1017F0004FF0E02148610F214FF0FF3000F06AFC0C
:1018000000204FF0E021886107200861002070BDB2
:1018100070477047704710B5044620680069C0F3F0
:101820004000D8B12068C068C0F34000B0B16FF08C
:10183000020021680861012020772068806900F09B
:10184000030018B12046FFF7E5FF05E0204600F051
:10185000ADF8204600F0ABF8002020772068006942
:10186000C0F38000D8B12068C068C0F38000B0B178
:101870006FF00400216808610220207720688069E9
:1018800000F4407018B12046FFF7C4FF05E0204681
:1018900000F08CF8204600F08AF8002020772068BD
:1018A0000069C0F3C000D8B12068C068C0F3C000B0
:1018B000B0B16FF00800216808610420207720682B
:1018C000C06900F0030018B12046FFF7A3FF05E050
:1018D000204600F06BF8204600F069F800202077E1
:1018E00020680069C0F30010D8B12068C068C0F358
:1018F0000010B0B16FF01000216808610820207757
:101900002068C06900F4407018B12046FFF782FFDC
:1019100005E0204600F04AF8204600F048F8002094
:1019200020772068006900F0010058B12068C06885
:1019300000F0010030B16FF001002168086120461D
:1019400000F036F820680069C0F3C01058B1206874
:10195000C068C0F3C01030B16FF08000216808612A
:101960002046FFF755FF20680069C0F3801058B18A
:101970002068C068C0F3801030B16FF0400021686B
:101980000861204600F026F820680069C0F3401086
:1019900058B12068C068C0F3401030B16FF020002B
:1019A000216808612046FFF734FF10BD704770477B
:1019B00010B5044605492068884205D100BF0221C0
:1019C0000348FFF7F7F900BF10BD0000001000400A
:1019D00000100140704770472DE9F0470446206829
:1019E00005682068C668206847694FF00008C1464E
:1019F00005F00F08B8F1000F0AD105F0200038B14A
:101A000006F0200020B1204600F04AFABDE8F08739
:101A1000B8F1000F71D007F0010018B906F490700A
:101A200000286AD005F0010030B106F4807018B1CA
:101A3000E06B40F00100E06305F0040030B107F016
:101A4000010018B1E06B40F00200E06305F0020015
:101A500030B107F0010018B1E06B40F00400E06322
:101A600005F0080048B106F0200010B907F00100A9
:101A700018B1E06B40F00800E063E06B68B305F07C
:101A8000200028B106F0200010B1204600F008FA2E
:101A900020684069C0F38019E06B00F0080010B9BD
:101AA000B9F1000F22D0204600F0DAF92068406931
:101AB00000F04000B0B12068406920F0400021688B
:101AC0004861606B50B11848616B4863606BFEF70A
:101AD000FDFE10B1606B416B88470CE02046FFF7BC
:101AE0007AFF08E02046FFF776FF04E02046FFF784
:101AF00072FF0020E06389E7FFE705F0800030B166
:101B000006F0800018B1204600F098FA7EE705F054
:101B1000400030B106F0400018B1204600F0B0F9A6
:101B200074E700BF72E700004D1E000810B50446C0
:101B30000CB9012010BDA06900B100E000BF94F80D
:101B4000390028B9002084F83800204600F028F831
:101B5000242084F839002068C06820F400502168EF
:101B6000C860204600F0ECF92068006920F490403D
:101B7000216808612068406920F02A0021684861D6
:101B80002068C06840F400502168C8600020E0630D
:101B9000202084F8390084F83A000020CAE70000C9
:101BA00010B586B004462849206888424AD100BF53
:101BB00000BF2648806940F0040024498861084637
:101BC000806900F00400019000BF00BF00BF00BFAB
:101BD00000BF0846806940F00400886108468069BB
:101BE00000F00400019000BF00BF00BF00BF00BFB5
:101BF0000846806940F4804088610846806900F4A6
:101C00008040019000BF00BF00BF48150290022035
:101C10000390012004900320059002A90C48FEF7D0
:101C200029FF4FF4806002900020039002A9084829
:101C3000FEF720FF2520FFF71AF903221146252081
:101C4000FFF725F906B010BD003801400010024032
:101C50000008014010B5034693F83A0020282FD120
:101C600001B10AB9012010BD00BF93F83800012866
:101C700001D10220F7E7012083F8380000BF996204
:101C80009A85DA850020D863222083F83A0000BFC5
:101C9000002083F8380000BF1868C06840F48070E6
:101CA0001C68E0601868406940F001001C686061D1
:101CB0001868C06840F020001C68E0600020D2E78F
:101CC0000220D0E71D4A0168914236D11C4909889B
:101CD00001F4004189BB1A49098801F4804171B1BE
:101CE000184909780A2903D00021154A118024E0F7
:101CF0001349098841F40041114A11801DE011493E
:101D000009780D2906D10E49098841F480410C4A11
:101D1000118012E00B490978094A1288C2F30D02BA
:101D2000094B995406490988491C054A11801146F6
:101D30000988C72901DD0021118070470038014062
:101D40002C0000202E000020CC000020704700BF97
:101D5000FEE7000000B50246A2B9012000F068FECF
:101D60004FF4807000F054FE032000F061FE41F259
:101D7000300000F04DFE4FF4C8700E494880F0204E
:101D8000088015E0012000F053FE4FF4807000F051
:101D90003FFE032000F04CFE41F2380000F038FE18
:101DA000F020044948804FF4C870088001208871F1
:101DB00000BD00004400002010B501460023CA0AFF
:101DC000C1F3451401F01F03500340EA841040EAB8
:101DD000430010BD30B5054600242846FFF7ECFF50
:101DE0000446C4F34F20024908800C8030BD000037
:101DF0000008006C00BFFEE77047000008B5084906
:101E00000968C9084FF47A72B1FBF2F141430091BD
:101E100000BF00BF00994A1E00920029F9D108BDF9
:101E20000000002010B5FEF7DBFF02F08BFC01285C
:101E300001D002F051FA10BD7047000010B5024801
:101E4000FFF7E9FC10BD00001C02002070B505463C
:101E50006C6A0020E085E0842046FFF7BCFD70BD81
:101E60000168C96821F490710268D160016849690C
:101E700021F0010102685161202180F83A10704779
:101E800010B504462068C06820F040002168C86092
:101E9000202084F839002046FFF758FF002010BDAD
:101EA00070B5044694F83A00222847D1A068B0F5EE
:101EB000805F0CD1206950B90025A66A206840686F
:101EC000C0F308003080A06A801CA06215E0A56AFB
:101ED0000026A068B0F5805F03D0A06828B920690B
:101EE00018B920684068287004E02068406800F055
:101EF0007F002870A06A401CA062E08D401E80B266
:101F0000E085C8B92068C06820F020002168C8605A
:101F10002068C06820F480702168C860206840692B
:101F200020F0010021684861202084F83A00204612
:101F3000FFF7C8FE002070BD0020FCE70220FAE792
:101F400070B504462168096921F44051E2681143E3
:101F5000226811612269A1681143626941EA0205A0
:101F60002168C96841F20C62914329432268D1601B
:101F70002168496921F44071A269114322685161C5
:101F80002D4A2168914202D1FFF7B0F801E0FFF736
:101F90009DF800EBC00101EB001162689200B1FBFB
:101FA000F2F100EBC00202EB001263689B00B2FB8F
:101FB000F3F26423B2FBF3F202EBC20303EB02126F
:101FC000A1EB8201322202EB01116422B1FBF2F19A
:101FD00001F0F00100EBC00202EB001263689B000D
:101FE000B2FBF3F26423B2FBF3F201EB021200EB5B
:101FF000C00101EB001163689B00B1FBF3F100EB42
:10200000C00303EB00136668B600B3FBF6F3642667
:10201000B3FBF6F303EBC30606EB0313A1EB83015B
:10202000322303EB01116423B1FBF3F101F00F0143
:1020300011442268916070BD00380140014691F85A
:102040003900212828D18868B0F5805F0BD1086954
:1020500048B90A6A1088C0F308000B685860086A1B
:10206000801C086205E00B6A581C086218780B682F
:102070005860C88C401E80B2C88458B90868C068CF
:1020800020F080000B68D8600868C06840F040000D
:102090000B68D860002070470220FCE710B50648A6
:1020A000FFF79AFC00BF012204490348FFF7D2FD65
:1020B0000028F8D110BD0000940100202E0000205F
:1020C00000BFFEE702480068C0F30220704700002E
:1020D0000CED00E010B5002804DB0A07130E054ADA
:1020E000135406E00A07140E034A00F00F031B1FE7
:1020F000D45410BD00E400E018ED00E000BF7047CC
:1021000070B5044600204FF0E0210861FFF752FB54
:10211000E11704EB5171C1F3CF010C4A1180E117B3
:1021200004EB5171CD104FF47A7045434FF0E0202D
:10213000006940F002004FF0E02108610846456167
:10214000006940F00100086170BD00002600002019
:1021500030B50446002504E04FF47A7000F004F82E
:102160006D1CA542F8D330BD70B5034600224FF078
:10217000E02675690D4E368803FB06F44FF0E02625
:10218000B16910E04FF0E026B06988420BD0884278
:1021900002D20E1A324402E02E1A0E443244014694
:1021A000A24200D300E0EDE700BF70BD2600002092
:1021B00000BF054A126802F04002002AF9D0C2B2FC
:1021C000014B1B1D1A607047003801400EB54FF4DB
:1021D000784019A120221346CDE900210290DC228B
:1021E0000A21084600F0DEFB4FF4784014A11822C3
:1021F0001346CDE900210290DC222F210A2000F0B5
:10220000D1FB4FF4784013A110221346CDE90021F1
:102210000290DC224C210A2000F0C4FB114801216D
:1022200000238022CDE900100FA1124802F05AFAD3
:1022300001F0E6FE0EBD000053544D3332000000A5
:102240004672656552544F5320506F7274696E67C1
:102250000000000041544F4D40414C49454E54450B
:102260004B0000000400002073746172745F74619D
:10227000736B0000ED37000800B585B000BF00BFEC
:102280003648806940F00400344988610846806916
:1022900000F00400009000BF00BF00BF00BF00BFFF
:1022A0000846806940F0400088610846806900F077
:1022B0004000009000BF00BF00BF00BF00BF084645
:1022C000806940F0400088610846806900F0400065
:1022D000009000BF00BF00BF00BF00BF084680697C
:1022E00040F0400088610846806900F0400000909E
:1022F00000BF00BF00BF012001900020029002201B
:1023000003900320049001A91548FEF7B3FB0420B5
:10231000019000200290012003900320049001A965
:102320001048FEF7A7FB0820019000200290012032
:1023300003900320049001A90A48FEF79BFB10209C
:10234000019000200290012003900320049001A935
:102350000448FEF78FFB05B000BD000000100240EE
:10236000000801400018014070B506460F4840883B
:10237000401E83B20D480088401E82B200210846EC
:1023800000F00CFA00240CE0002504E03046FFF7D2
:1023900021FD681C85B205484088A842F6DC601C17
:1023A00084B202480088A042EEDC70BD44000020E8
:1023B00070B504460D4616462B4622462946204651
:1023C00000F0ECF9B0B2FFF705FD70BD00B58FB0BD
:1023D0004FF02040E2490860E248486006208860EB
:1023E0000021DF48C160016110214161002181614C
:1023F000C16141624FF4805181620021C1624FF49A
:102400008041016300214163816300200E9001201F
:102410000890002009900F200A90002007900F20BC
:10242000019002900520039001AA08A9CC48FFF76B
:10243000E9F83220FFF78CFE002000F0F9FA00F0F6
:102440009FF9C949888008468188C8A0FDF736FFF2
:10245000002000F0EDFA002000F0EAFA0A20FFF771
:1024600077FE002000F0E4FA002000F0E1FA0020FE
:1024700000F0DEFA002000F0DBFAA42000F0D8FA29
:10248000012000F0C5FA0A20FFF762FE602000F08C
:10249000CFFA4FF41C5000F0BBFA082000F0C8FA45
:1024A00040F6080000F0B4FA4FF4407000F0C0FAB3
:1024B00040F2091000F0ACFA40F2013000F0B8FA36
:1024C00047F60A6000F0A4FA40F2023000F0B0FAD9
:1024D00040F2047000F09CFA40F2033000F0A8FAD9
:1024E00040F6111000F094FA4FF4417000F0A0FA99
:1024F0004FF4045000F08CFA40F2053000F098FAE6
:1025000041F2091000F084FA40F2063000F090FA2F
:1025100047F2074000F07CFA40F2073000F088FAFA
:1025200040F60E2000F074FA4FF4427000F080FA8A
:1025300040F6011000F06CFA40F2093000F078FA31
:10254000212000F065FA102000F072FA102000F04F
:102550005FFA112000F06CFA40F2022000F058FA05
:10256000122000F065FA4FF4407000F051FA132089
:1025700000F05EFA072000F04BFA0A20FFF7E8FDB2
:102580004FF4807000F054FA002000F041FA40F25D
:10259000011000F04DFA072000F03AFA4FF4817074
:1025A00000F046FA002000F033FA40F2031000F089
:1025B0003FFA002000F02CFA4FF4207000F038FAB7
:1025C000002000F025FAC820FFF7C2FD4FF480700C
:1025D00000F02EFA4FF44C7000F01AFA40F201109D
:1025E00000F026FA40F2472000F012FA3220FFF7FE
:1025F000AFFD4FF4817000F01BFA4DF2B01000F007
:1026000007FA3220FFF7A4FD40F2031000F010FAA1
:102610004FF4805000F0FCF94FF4207000F008FAFD
:102620004FF4464000F0F4F9C820FFF791FD012077
:1026300000F0FEF94FF4807000F0EAF9022000F09B
:10264000F7F94FF4007000F0E3F9032000F0F0F91F
:1026500041F2300000F0DCF9092000F0E9F9012036
:1026600000F0D6F90A2000F0E3F9082000F0D0F9D4
:102670000C2000F0DDF9002000F0CAF90D2000F078
:10268000D7F9002000F0C4F90E2000F0D1F9302075
:1026900000F0BEF9202000F0CBF9002000F0B8F9DE
:1026A000212000F0C5F9002000F0B2F9292000F047
:1026B000BFF9522000F0ACF9502000F0B9F9002029
:1026C00000F0A6F9512000F0B3F9EF2000F0A0F9D6
:1026D000522000F0ADF9002000F09AF9532000F0EC
:1026E000A7F940F23F1000F093F9612000F0A0F943
:1026F000002000F08DF96A2000F09AF9002000F027
:1027000087F9802000F094F9002000F081F9812001
:1027100000F08EF9002000F07BF9822000F088F9AB
:102720005F2000F075F9932000F082F940F2075025
:1027300000F06EF9072000F07BF94FF4807000F094
:1027400067F93220FFF704FD222000F071F9002024
:10275000FFF700FB4FF6FF70FFF706FE0FB000BD5E
:10276000D4010020040100A0440000206C636464D4
:1027700065765F6964313A252378200D0A000000F0
:102780000549098848104FF6FF7101EA0020024907
:10279000098840EA610070470008006C70B5064681
:1027A0000C461D462E48807950BB4FF4047000F053
:1027B0003FF9304600F02CF940F2112000F038F9D2
:1027C000104600F025F940F2122000F031F92046C1
:1027D00000F01EF940F2132000F02AF9284600F01C
:1027E00017F94FF4007000F023F9304600F010F9AB
:1027F00040F2012000F01CF9204600F009F929E020
:1028000040F2122000F014F9304600F001F940F2D5
:10281000132000F00DF9104600F0FAF84FF40470A0
:1028200000F006F9204600F0F3F840F2112000F025
:10283000FFF8284600F0ECF840F2012000F0F8F82C
:10284000304600F0E5F84FF4007000F0F1F8204653
:1028500000F0DEF840F2022000F0EAF870BD00005F
:10286000440000202DE9FC4F80460E4615461C46CC
:10287000B3460020019000902046E31704EB537309
:10288000DB1021464FEAE47C04EB5C7C4FEAEC0C65
:10289000A4EBCC0CBCF1000F02D04FF0010C01E016
:1028A0004FF0000C6344224604EBD27C4FEA6C0CE0
:1028B00003FB0CF3DBB20193A5F12000C5B20C2C95
:1028C00006D0102C0BD0182C0ED0202C18D112E0D2
:1028D00005EB45002D4901EB8000009012E02C48EB
:1028E00000EB051000900DE005EBC500294901EB58
:1028F0008000009006E0284800EB8510009001E081
:10290000BDE8FC8F00BF00273AE0009810F8079060
:102910004FF0000A2EE009F0800028B13146404611
:102920000C9AFFF745FD07E00B9828B91B48314684
:1029300002684046FFF73CFD4FEA49604FEA1069E4
:10294000701C86B216484088B04200DCD8E7A6EB7F
:102950000B00A0420AD15E4608F101001FFA80F880
:102960000F480088404500DCCAE706E00AF1010094
:1029700000F0FF0ABAF1080FCDDB00BF781CC7B228
:1029800001988742C1DB00BFBAE70000EC4D0008A8
:102990006052000850580008AC6500084000002054
:1029A000440000202DE9FC4F04460D469046994610
:1029B000DDE90C7A0B9E04F0FF0B08EB04001FFA14
:1029C00080F809EB05001FFA80F917E0444502DBA7
:1029D0005C46A81985B24D4500DB15E00020CDE925
:1029E000000A3A78334629462046FFF73BFF304637
:1029F00006EBD07104EB61018CB27F1C38787E2825
:102A000002DC38782028E1DA00BFBDE8FC8F000046
:102A100001B5BDF800000012400004490880BDF86F
:102A200000000006C00D088008BD00000008006C12
:102A300001B5BDF800000012400004490880BDF84F
:102A400000000006C00D088008BD0000FE07006CF5
:102A500000B585B000BF00BF1648806940F0100087
:102A6000144988610846806900F01000009000BF9A
:102A700000BF00BF0120019002900390032004904A
:102A800001A90D48FDF7F6FF0220019001A90A48AF
:102A9000FDF7F0FF00BF012211460748FEF794F949
:102AA00000BF00BF012202210348FEF78DF900BFDD
:102AB00005B000BD00100240001001402DE9F041BA
:102AC0000024002500260027FEF796F94FF4E010B9
:102AD00000F0BEFE4820FFF713FB4FF4E13000F09A
:102AE00055FFFFF7B5FFFFF771FCFFF7C5FBFFF7D9
:102AF0006DFB0020BDE8F0812DE9F04105460E4652
:102B00002948076800202949096881F859002748A1
:102B10000068001D00F056FF50B92448006890F886
:102B20002C10012088402249096881432048016017
:102B3000681CD8B9D6B11F4948681C490968886023
:102B40001A4982680968CA6018490968091D8268BB
:102B5000516016490968091D8160164A13490968C0
:102B60004A6111460968491C11601AE07C190F4836
:102B700000684460BC4207D20C480168091D0E4839
:102B8000006800F043FF0CE008480168091D0B488D
:102B9000006800F03BFF0A480068844201D2084800
:102BA0000460BDE8F0810000600000204C000020BF
:102BB0006400002074050020540000205000002014
:102BC0007C00002010B5044600F046FF3148006844
:102BD000401C304908603048006840B92E48046005
:102BE0000846006801280DD100F016FA0AE02B48CB
:102BF000006838B928480068C06AE16A884201D88C
:102C00002548046026480068401C2549086008469D
:102C10000068606494F82C100120884021490968FC
:102C2000084320490860E16A01EB81011E4A02EB7A
:102C300081014868A0608268E260211D826851605D
:102C40008160E16A01EB8101174A02EB8102626156
:102C5000E16A01EB8101144A52F82110491CE26A31
:102C600002EB8202104B43F8221000F03FFF0B48AA
:102C7000006868B108480068C06AE16A884207D203
:102C80004FF0805009490860BFF34F8FBFF36F8F3B
:102C900010BD00005C0000204C00002068000020F7
:102CA0007800002064000020A402002004ED00E071
:102CB00010B500F0D1FE10480068D0B90F4800F000
:102CC00095FE0F4800F092FE0C480E4908600C4833
:102CD0000D49086000221021052001F017FB06496C
:102CE00008600846006820B108A10348006800F0A9
:102CF000BDFF00F0FBFE10BD940000208805002001
:102D00009C0500208C00002090000020546D725122
:102D10000000000010B516E000F09EFE0C48C068F0
:102D2000C468201D00F04EFE0A480068401E094994
:102D3000086009480068401E0749086000F0D6FE98
:102D4000204600F05FF8044800680028E4D110BD78
:102D5000600500205C0000205800002070B504468B
:102D60000D46206C70B1216CE0680144E160D4E94B
:102D70000210884201D32168E1602846226CE16894
:102D8000FDF784FB70BD2DE9F04104460F46154662
:102D90004FF00008A66B206C48B9206800282CD1A1
:102DA000A06801F0D9FD80460020A06025E07DB933
:102DB0003946226C6068FDF769FB216C6068084445
:102DC0006060D4E90101884217D32068606014E094
:102DD0003946226CE068FDF759FB216CE068411A26
:102DE000E1602168E068884203D2216CA068411A42
:102DF000E160022D01D106B1761E701CA063404631
:102E0000BDE8F08110B50446206B00F0ADFE204611
:102E100000F0AAFE10BD00000146084A12681268C0
:102E20000AB9012200E000220A600A6822B9034AB6
:102E30001268D268106800E0002070478C00002003
:102E400030B54FF42053174800F007042CB1C01DD3
:102E500020F00700134C041B1B1B0246124C22607F
:102E60000024114D6C60D018083820F007000F4C7A
:102E7000206000240D4D2D686C600C4D2D682C6079
:102E80001146441A4C60094C24680C60084D4C688B
:102E90002C60084D4C682C604FF00044064D2C60AF
:102EA00030BD0000B0050020A0000020A8000020D8
:102EB000B0000020AC000020BC00002000BFFFF7E5
:102EC00029FF064800680128F9D94FF080500449CD
:102ED0000860BFF34F8FBFF36F8FF0E7A4020020AD
:102EE00004ED00E02DE9F04106460D4617469846F0
:102EF000069C0DB9246000E02760E663256401218B
:102F0000204601F04BFA84F850800020A064BDE810
:102F1000F08100002DE9F05F82460F4690469B4607
:102F20000A9E0C9C4FEA8801A522206BFDF7F3FA5C
:102F3000A8F10100216B01EB800929F0070909F0D4
:102F4000070008B9012000E0002028B94FF45872AA
:102F500024A12DA0FDF7B2F987B1002507E0795D26
:102F600004F134004155785D00B902E06D1C102D6C
:102F7000F5D300BF00214320015502E0002084F872
:102F80003400202E01D2012000E0002028B940F2B8
:102F9000973214A11CA0FDF791F9202E00D31F2613
:102FA000E662E66400202065201D00F02CFD04F19F
:102FB000180000F028FD2461C6F12000A0616462C1
:102FC0000020606584F8580084F859005A4651463C
:102FD000484600F0F9FB20600B9808B10B9804609C
:102FE000BDE8F09F2E2E5C2E2E5C4D6964646C65EE
:102FF00077617265735C4672656552544F535C74B9
:1030000061736B732E6300004572726F723A2025F4
:10301000732C2025640D0A0010B5002407E004EB92
:1030200084010F4A02EB810000F0E0FC641C202CBC
:10303000F5D30C4800F0DAFC0B4800F0D7FC0B4845
:1030400000F0D4FC0A4800F0D1FC0A4800F0CEFCA5
:1030500004480949086004480849086010BD000098
:10306000A402002024050020380500204C05002083
:10307000600500207405002050000020540000204E
:1030800010B50146164800E0006803688B42FBD388
:103090000246436813448B4204D143684C6823447E
:1030A000436001460A464B6813440468A34211D1A9
:1030B0000C4C03682468A34208D04B680468646819
:1030C00023444B6003681B680B6005E0054B1B68DD
:1030D0000B6001E003680B60884200D0016010BD06
:1030E000A0000020A80000202DE9F04104460D4674
:1030F00016461F464FF0000865602461B5420CD8A3
:10310000F01BA169884202D34FF0010811E0211D94
:103110000948006800F07AFC0BE0BE4204D2BD42D0
:1031200002D34FF0010804E0211D0448006800F0BC
:103130006DFC4046BDE8F081900000208C0000202E
:1031400070B5054600F088FCA86B08B9012400E0C2
:10315000002400F0CBFC204670BD0000F1B50098C3
:10316000846C00262CB940F6D53220A128A0FDF7AA
:10317000A5F8A06BE16B884201D2012000E000209D
:1031800028B940F6D63219A121A0FDF797F8A06B17
:10319000E16B884227D294F94550002269462046C7
:1031A000FFF7F1FD0646681C60B9606A08B90120A6
:1031B00000E00020B0B904F1240001F055FC88B112
:1031C00001260FE07F2D01D0012000E0002028B96A
:1031D00040F6F63205A10EA0FDF770F8681C40B26B
:1031E00084F8450000BF3046F8BD00002E2E5C2E4E
:1031F0002E5C4D6964646C6577617265735C4672C0
:10320000656552544F535C71756575652E6300009A
:103210004572726F723A2025732C2025640D0A00C6
:1032200070B505460E460E480068C068C468201D8B
:1032300000F0C8FB94F8280000F0040028B13246E2
:103240002946204600F0FEF805E094F8280000F03A
:10325000FE0084F828002046216A884770BD0000DF
:103260008C00002070B586B08AE0029800280CDA45
:1032700003AE2EB940F2063247A150A0FDF71EF86A
:10328000D6E90020B168904700BF0298002877DB9C
:10329000049C606908B9012000E0002010B9201DDD
:1032A00000F090FB01A800F0F9F8054602980A2802
:1032B00064D2DFE800F06305072E365306082F3787
:1032C00000BF00BF00BF94F8280040F0010084F860
:1032D00028000398A269811803462A462046FFF772
:1032E00003FFA8B194F8280000F0040038B1039857
:1032F000A26981182A46204600F0A4F805E094F857
:10330000280000F0FE0084F828002046216A884743
:1033100035E000BF94F8280000F0FE0084F8280093
:103320002DE000BF94F8280040F0010084F8280048
:103330000398A061A06908B1012000E0002028B92D
:1033400040F2593214A11DA0FCF7B8FFA069411941
:103350002B462A462046FFF7C7FE10E094F82800C7
:1033600000F0020018B9204600F0FEFB05E094F8DA
:10337000280000F0FE0084F8280000E000BF00BF35
:10338000002202A91148006801F086F800287FF4A5
:103390006CAF06B070BD00002E2E5C2E2E5C4D6909
:1033A00064646C6577617265735C467265655254DE
:1033B0004F535C74696D6572732E63004572726F52
:1033C000723A2025732C2025640D0A0094000020F9
:1033D000F8B505460C4600F075FE684600F05EF84C
:1033E0000646009820BB44B9B54206D801F0E2FB7E
:1033F00031462846FFF714FF1CE03CB10E48006838
:10340000006808B9012000E000200446A91B2246FC
:103410000A48006800F070FC01F0CCFB50B94FF096
:10342000805007490860BFF34F8FBFF36F8F01E0F3
:1034300001F0C0FBF8BD00009000002094000020C7
:1034400004ED00E070B504460D46164604E0A069A0
:1034500005442046216A8847A06941192B46324617
:103460002046FFF741FE0028F1D170BD09480068F1
:10347000006808B9012000E0002020B14FF0FF30C3
:103480000549086005E003480068C0680068024913
:1034900008607047500000207C00002070B5044692
:1034A00001F060F9054607480068854204D200F043
:1034B0000BF80120206001E0002020600148056039
:1034C000284670BD9C00002070B508E00D480068DB
:1034D000C06804684FF0FF312046FFF7A1FE09489D
:1034E0000068006808B9012000E000200028EDD045
:1034F00004480568044800680249086002480560FD
:1035000070BD00008C000020900000200B48006877
:10351000401C08B9012000E0002020B9CE2208A1FB
:1035200015A0FCF7CBFE00BF502080F31188BFF33D
:103530004F8FBFF36F8F00BF00BFFEE7C0000020BA
:103540002E2E5C2E2E5C4D6964646C65776172650D
:10355000735C4672656552544F535C706F72746150
:10356000626C655C525644535C41524D5F434D332F
:103570005C706F72742E63004572726F723A202510
:10358000732C2025640D0A0008B500BF6846FFF7BC
:1035900043FC044620460099FFF71AFFFFF762FE3E
:1035A000F4E770B5044600F057FA94F9455019E075
:1035B000A06C30B12046FFF7D1FD88B100F0A2FC2D
:1035C0000EE0606A08B9012000E0002038B904F17B
:1035D000240001F049FA18B100F094FC00E003E087
:1035E000681E45B2002DE3DC00BFFF2084F84500D3
:1035F00000F07CFA00F030FA94F9445010E02069B1
:1036000008B9012000E0002048B904F1100001F0E1
:103610002BFA08B100F076FC681E45B200E001E02C
:10362000002DECDC00BFFF2084F8440000F05EFABF
:1036300070BD00002DE9F04104464FF0000800F095
:1036400041FD4948006808B9FFF7FAFB47480068A0
:103650002040002875D1002C23D004F10800A0429E
:103660001FD9083404F0070000281BD004F007001D
:10367000C0F108002044A04211D904F00700C0F1B5
:103680000800044404F0070008B9012000E000200D
:1036900040B99C2236A144A0FCF710FE02E00024B1
:1036A00000E00024002C4CD043480068844248D8F5
:1036B000424E3046056801E02E462D686868A042FB
:1036C00002D228680028F7D127480068854238D000
:1036D000306800F10808286830606868001B10280E
:1036E00013D92F1907F0070008B9012000E00020C6
:1036F00020B9CF221EA12CA0FCF7E0FD6868001BBA
:1037000078606C603846FFF7BBFC2B496868096835
:10371000081A29490860084600682949096888424A
:1037200003D225480068264908601049686809687E
:10373000084368600020286022480068401C214936
:10374000086001F037FA08F0070008B9012000E02E
:10375000002028B94FF4887205A113A0FCF7AEFD34
:103760004046BDE8F0810000A8000020BC00002019
:103770002E2E5C2E2E5C4D6964646C6577617265DB
:10378000735C4672656552544F535C706F7274611E
:10379000626C655C4D656D4D616E675C68656170FE
:1037A0005F342E63000000004572726F723A20256C
:1037B000732C2025640D0A00AC000020A00000201E
:1037C000B0000020B4000020001F4FF080730360A1
:1037D000001F21F001030360001F034B0360143836
:1037E00002602038704700000D3500081CB5044603
:1037F00000F032F90D48022100238022CDE90010AB
:103800000BA10D4800F06EFF0C480321002380221D
:10381000CDE900100AA10C4800F064FF0B480068D5
:1038200000F0D2FA00F062F91CBD00000800002090
:103830007461736B31000000B93800080C0000207F
:103840007461736B320000007139000804000020BD
:1038500030B58FB005460124282105A8FCF763FE8A
:1038600014216846FCF75FFE0120059000040690D5
:103870000020079002200C90C1030D910E9505A821
:10388000FDF78EFC04460CB100BFFEE70F20009050
:1038900002200190002002904FF4806003900020ED
:1038A000049002216846FDF745FB04460CB100BFB9
:1038B000FEE70FB030BD00000EB500253DE0681CEE
:1038C00005460E21B0FBF1F201FB12001B4931F855
:1038D00010402046FEF748FD4FF4784018A1202202
:1038E0001346CDE900210290DC220A210846FFF7A9
:1038F00059F84FF4784014A118221346CDE900215D
:103900000290DC222F210A20FFF74CF84FF4784078
:1039100012A110221346CDE900210290DC224C2195
:103920000A20FFF73FF800BF01211048FDF742FAD7
:1039300000BF4FF47A7000F005FAC0E710000020D5
:1039400053544D33320000004672656552544F5354
:1039500020506F7274696E670000000041544F4D33
:1039600040414C49454E54454B0000000010014079
:1039700009E000BF02210448FDF71CFA00BF40F631
:10398000B83000F0DFF9F4E70010014010B504464C
:1039900009480A4908600846446000218160C16006
:1039A000016181610C214161FEF7C0F801220449E7
:1039B0000248FEF74FF910BD003801409401002085
:1039C0002E00002001460A69D1E901309860D1E952
:1039D000010358605068884201D188685060002017
:1039E00008611068401E10601068704700F10801FF
:1039F00041604FF0FF31816000F10801C160016159
:103A000000210160704700210161704710B5024636
:103A10000B685C1C0CB9106907E002F1080000E0BB
:103A20004068446824689C42FAD944684C604C68F9
:103A3000A160886041600A611468641C146010BD54
:103A400042684A6093688B6093685960916008612E
:103A500003685B1C0360704710B500BF502080F303
:103A60001188BFF34F8FBFF36F8F00BF0B48006803
:103A7000401C0A4908600846006801280DD1084822
:103A80000068C0B208B9012000E0002028B940F267
:103A9000731204A111A0FCF711FC10BDC00000209E
:103AA00004ED00E02E2E5C2E2E5C4D6964646C6586
:103AB00077617265735C4672656552544F535C70F2
:103AC0006F727461626C655C525644535C41524D36
:103AD0005F434D335C706F72742E63004572726F7A
:103AE000723A2025732C2025640D0A0010B50B486E
:103AF000006828B94FF4BD7209A117A0FCF7DEFBDE
:103B000006480068401E054908600846006820B95C
:103B1000002080F3118800BF00BF10BDC00000204E
:103B20002E2E5C2E2E5C4D6964646C657761726527
:103B3000735C4672656552544F535C706F7274616A
:103B4000626C655C525644535C41524D5F434D3349
:103B50005C706F72742E63004572726F723A20252A
:103B6000732C2025640D0A0070B506463546002EDC
:103B70003AD0083D2C461D4960680968084008B1E4
:103B8000012000E0002028B94FF4927218A126A06D
:103B9000FCF794FB206808B9012000E0002028B958
:103BA00040F2251212A120A0FCF788FB0F496068A3
:103BB00009680840C0B12068B0B90C49606809685C
:103BC0008843606000F07EFA1B4960680968084419
:103BD000194908602046FFF753FA18480068401C4E
:103BE0001649086000F0E6FF70BD0000BC00002030
:103BF0002E2E5C2E2E5C4D6964646C657761726557
:103C0000735C4672656552544F535C706F72746199
:103C1000626C655C4D656D4D616E675C6865617079
:103C20005F342E63000000004572726F723A2025E7
:103C3000732C2025640D0A00AC000020B800002081
:103C400000204FF0E0210861886107480068C00843
:103C50004FF47A71B0FBF1F0401E4FF0E021486163
:103C60000320086170470000000000202DE9F041AA
:103C700006460F462EB940F6C82211A119A0FCF73E
:103C80001DFB0025BFB1002412E01A4800EBC40060
:103C90004068B04203D1174800EBC4050AE035B9CB
:103CA000144850F8340010B9124800EBC405641CE5
:103CB000082CEAD300BF0DB12F606E60BDE8F08123
:103CC0002E2E5C2E2E5C4D6964646C657761726586
:103CD000735C4672656552544F535C7175657565CA
:103CE0002E6300004572726F723A2025732C2025D6
:103CF000640D0A00640200202DE9F04105460E46DD
:103D000017462C46FFF7A8FE94F94400401C10B952
:103D1000002084F8440094F94500401C10B90020AC
:103D200084F84500FFF7E2FEA06B28B93A46314619
:103D300004F1240000F01EF92046FFF732FCBDE834
:103D4000F081000070B504460025ACB10F48006852
:103D500008B9012000E0002028B940F249520CA126
:103D600014A0FCF7ABFA00F0ADF900212046FEF7F5
:103D7000C3FE00F01FFF05463DB94FF080501149CA
:103D80000860BFF34F8FBFF36F8F70BD88000020B6
:103D90002E2E5C2E2E5C4D6964646C6577617265B5
:103DA000735C4672656552544F535C7461736B73F8
:103DB0002E6300004572726F723A2025732C202505
:103DC000640D0A0004ED00E070B50546FFF744FEFF
:103DD00015B92F48006800E028460446201DFFF76B
:103DE000F1FD78B9E06A00EB80002A4951F8200023
:103DF00040B994F82C100120884027490968814374
:103E000025480160A06A18B104F11800FFF7DAFD37
:103E100022480068401C214908601D48006884420F
:103E200009D1211D1E48FFF70BFE1E480068401CEB
:103E30001C49086006E01C480068401E1A490860DA
:103E4000FFF714FBFFF752FE11480068844202D0CE
:103E50002046FEF7D7FF15480068C0B10C4800683F
:103E6000844214D11248006808B9012000E0002003
:103E700028B940F2DC420FA117A0FCF71FFA4FF05F
:103E8000805019490860BFF34F8FBFF36F8F70BD2B
:103E90004C000020A40200206400002078000020D4
:103EA00060050020580000205C0000206800002011
:103EB000880000202E2E5C2E2E5C4D6964646C659B
:103EC00077617265735C4672656552544F535C74DA
:103ED00061736B732E6300004572726F723A202516
:103EE000732C2025640D0A0004ED00E003490968E5
:103EF00001600349096841607047000074000020B8
:103F00006000002001200149086070477000002017
:103F100070B504460D462CB940F61C4207A110A00E
:103F2000FCF7CCF91248016818312046FFF76EFD06
:103F300001212846FEF7E0FD70BD00002E2E5C2E0C
:103F40002E5C4D6964646C6577617265735C467262
:103F5000656552544F535C7461736B732E6300003C
:103F60004572726F723A2025732C2025640D0A0069
:103F70004C00002070B504460E4615462CB940F69C
:103F8000524211A119A0FCF799F960681B49096810
:103F9000C8611A49826809680A62184909681831B3
:103FA00082685160154909681831816013490968B0
:103FB0008C622168491C21600DB14FF0FF36294603
:103FC0003046FEF799FD70BD2E2E5C2E2E5C4D699D
:103FD00064646C6577617265735C467265655254A2
:103FE0004F535C7461736B732E6300004572726F84
:103FF000723A2025732C2025640D0A004C00002005
:104000001CB51B4800210B468022CDE9001019A1E8
:104010001A4800F067FB0446012C02D100F09AFE1A
:104020000446012C15D100BF502080F31188BFF346
:104030004F8FBFF36F8F00BF4FF0FF301049086004
:1040400001201049086000200F49086000F09EF828
:104050000BE0601C08B1012000E0002028B94FF4FB
:1040600004620AA112A0FCF729F9154800681CBDDA
:104070008000002049444C4500000000BD2E00088F
:104080007C00002068000020600000202E2E5C2EA6
:104090002E5C4D6964646C6577617265735C467211
:1040A000656552544F535C7461736B732E630000EB
:1040B0004572726F723A2025732C2025640D0A0018
:1040C0008400002002480068401C014908607047D5
:1040D0008800002010B51B48006818B101201A495B
:1040E00008602DE000201849086018480068B0FA00
:1040F00080F0C0F11F0404EB8400154951F8200042
:1041000008B1012000E0002028B940F6024211A1C8
:1041100019A0FCF7D3F804EB84010D4A02EB8100EF
:1041200041684968416000F1080142688A4202D151
:104130004168496841604168C968134A116000BF1D
:1041400010BD0000880000207000002064000020E6
:10415000A40200202E2E5C2E2E5C4D6964646C65DA
:1041600077617265735C4672656552544F535C7437
:1041700061736B732E6300004572726F723A202573
:10418000732C2025640D0A004C0000201CB53B4C0C
:10419000204600780190FF202146087008460078EC
:1041A00000909DF8000000F0F0009DF8001088429B
:1041B00001D1012000E0002028B940F21F1230A1F7
:1041C0003DA0FCF77BF89DF8000000F050003E4950
:1041D000087007203D49086009E03C480068401E1F
:1041E0003A4908609DF800004006000E00909DF8D6
:1041F000000000F080008028EFD034480068C0F153
:104200000700042801D1012000E0002028B940F275
:1042100033121BA128A0FCF751F82C480068C0F10C
:104220000700042801D1012000E0002028B94FF444
:104230009E7213A120A0FCF741F8244800680002F8
:10424000224908600846008800F4E06008600B49D5
:10425000019808701E48006840F470001C4908600E
:104260000846006840F070400860FFF7E9FC002055
:1042700018490860FBF7C6FF00201CBD00E400E001
:104280002E2E5C2E2E5C4D6964646C6577617265C0
:10429000735C4672656552544F535C706F72746103
:1042A000626C655C525644535C41524D5F434D33E2
:1042B0005C706F72742E63004572726F723A2025C3
:1042C000732C2025640D0A00C4000020C8000020C3
:1042D00020ED00E0C000002010B500BF502080F3AA
:1042E0001188BFF34F8FBFF36F8F00BF00F040FA0C
:1042F00018B14FF080500449086000BF002080F3DF
:10430000118800BF10BD000004ED00E02DE9F84366
:1043100005460E4617460024E5B1601EB0FBF5F0D9
:10432000B04217D305FB06F010F1550F12D805FB6C
:1043300006F909F15400FFF77DF904468CB1A04657
:1043400008F154083B464246314628460094FEF7A1
:10435000C9FD06E02CB94FF4E37203A10BA0FBF7F3
:10436000ADFF2046BDE8F8832E2E5C2E2E5C4D69F5
:1043700064646C6577617265735C467265655254FE
:104380004F535C71756575652E6300004572726FE1
:10439000723A2025732C2025640D0A002DE9F04186
:1043A00005460E4601272C462CB94FF488722CA1E5
:1043B00034A0FBF783FF002C42D0E06B00283FD0F5
:1043C0004FF0FF31E06BB1FBF0F0216C884237D346
:1043D000FFF742FBD4E90F12206801FB0200A06046
:1043E0000020A06320686060E06B401E226C2168A2
:1043F00000FB0211E160FF2084F8440084F84500CE
:104400009EB9206908B9012000E00020A8B904F194
:10441000100000F029FB80B14FF080501D4908606A
:10442000BFF34F8FBFF36F8F07E004F11000FFF76A
:10443000DDFA04F12400FFF7D9FAFFF757FB00E09B
:1044400000270FB1012000E0002028B940F24512FA
:1044500003A10CA0FBF732FF3846BDE8F081000055
:104460002E2E5C2E2E5C4D6964646C6577617265DE
:10447000735C4672656552544F535C717565756522
:104480002E6300004572726F723A2025732C20252E
:10449000640D0A0004ED00E02DE9F74183B0054604
:1044A0000E464FF000082C462CB940F251524CA158
:1044B00054A0FBF703FF0EB9206C08B9012000E0FF
:1044C000002028B940F2555245A14EA0FBF7F6FE58
:1044D00000F038F908B9059808B9012000E000207B
:1044E00028B940F25A523EA146A0FBF7E7FE00BFB2
:1044F000FFF7B2FAA76BF7B131462046FEF72EFC64
:10450000781EA063206908B9012000E0002060B98E
:1045100004F1100000F0A8FA38B14FF080503D4986
:104520000860BFF34F8FBFF36F8FFFF7DFFA0120F3
:1045300006B0BDE8F081059818B9FFF7D7FA00205A
:10454000F6E7B8F1000F04D101A8FFF7CFFC4FF058
:104550000108FFF7CBFAFFF7B5FDFFF77DFA94F9F5
:104560004400401C10B9002084F8440094F9450030
:10457000401C10B9002084F84500FFF7B7FA05A9E0
:1045800001A800F049F8F0B92046FEF7D9FDA0B126
:1045900004F124000599FFF7BBFC2046FFF701F862
:1045A00000F008FB0028A3D14FF0805019490860A3
:1045B000BFF34F8FBFF36F8F9AE72046FEF7F1FFEF
:1045C00000F0F8FA94E72046FEF7EBFF00F0F2FA6D
:1045D0002046FEF7B5FD00288AD00020A8E700009D
:1045E0002E2E5C2E2E5C4D6964646C65776172655D
:1045F000735C4672656552544F535C7175657565A1
:104600002E6300004572726F723A2025732C2025AC
:10461000640D0A0004ED00E070B506460C462EB9A4
:1046200040F6FD421FA128A0FBF748FE2CB940F63A
:10463000FE421CA124A0FBF741FEFFF70DFA26481D
:1046400002687068131A2548006890F8590030B164
:1046500000202249096881F8590001251EE02068E0
:10466000401C08B9002519E01D49306809688842D6
:1046700006D07068904203D80125002020600DE02C
:104680002068984207D92068C01A20603046FFF79A
:104690002DFC002502E0002020600125FFF726FA0E
:1046A000284670BD2E2E5C2E2E5C4D6964646C65B0
:1046B00077617265735C4672656552544F535C74E2
:1046C00061736B732E6300004572726F723A20251E
:1046D000732C2025640D0A00600000204C0000208F
:1046E000740000202DE9FF4F85B0804689461746AB
:1046F000DDE912ABB800FEF79DFF064656B15C201F
:10470000FEF798FF04460CB1266304E03046FFF73D
:104710002BFA00E000247CB10020CDE900ABCDE90C
:1047200002403A4649464046089BFEF7F3FB2046C6
:10473000FEF748FA012501E04FF0FF35284609B0A1
:10474000BDE8F08F0549096809B9012005E0044971
:10475000096809B9022000E00020704768000020C5
:1047600088000020014908687047000060000020B0
:104770002DE9F0414FF000085F48006800287DD126
:104780005E480068451C5D480560002D1DD15C48F1
:104790000068006808B9012000E0002028B940F650
:1047A000C72258A160A0FBF789FD554807686248F9
:1047B0000068534908606048076060480068401C12
:1047C0005E490860FEF752FE00BF5D480068854202
:1047D00077D300BF4A480068006808B9012000E0AC
:1047E000002020B14FF0FF305549086068E0444890
:1047F0000068C068C4686668B54202D25048066066
:104800005EE06069D4E902128A60D4E902214A605C
:10481000211D42688A4201D1E16841600022626143
:104820000168491E0160A06A98B1A06AD4E9071224
:104830008A60D4E907214A6004F1180142688A427B
:1048400001D1216A41600022A2620168491E016013
:1048500000BF94F82C10012088403A4909680843A9
:1048600038490860E16A01EB8101374A02EB8101B6
:104870004868A0608268E260211D00E033E0826841
:1048800051608160E16A01EB81012F4A02EB8102F4
:104890006261E16A01EB81012B4A52F82110491C47
:1048A000E26A02EB8202284B43F822102749E06AB1
:1048B0000968C96A88428DD34FF001088AE700E091
:1048C00000BF22480068C06A00EB80001E4951F812
:1048D0002000012801D94FF001081D48006808B1E7
:1048E0004FF0010804E01B480068401C19490860AB
:1048F0004046BDE8F08100008800002060000020F4
:10490000500000202E2E5C2E2E5C4D6964646C6578
:1049100077617265735C4672656552544F535C747F
:1049200061736B732E6300004572726F723A2025BB
:10493000732C2025640D0A00540000207400002010
:104940007C00002064000020A40200204C00002015
:10495000700000206C00002070B505462C46002633
:10496000002D5ED030480068844201D1012000E073
:10497000002028B941F24F022CA135A0FBF79EFC84
:10498000206D28B941F2500228A131A0FBF796FC16
:10499000206D401E2065E16CE06A884241D0206DA8
:1049A00000283ED1201DFFF70DF840B994F82C10D7
:1049B000012088402A490968814329480160E06C48
:1049C000E062E06AC0F12000A06194F82C100120A0
:1049D000884023490968084321490860E16A01EBDE
:1049E0008101204A02EB81014868A0608268E26090
:1049F000211D826851608160E16A01EB8101194AE1
:104A000002EB81026261E16A01EB8101154A52F811
:104A10002110491CE26A02EB8202124B43F8221079
:104A20000126304670BD00004C0000202E2E5C2E6A
:104A30002E5C4D6964646C6577617265735C467267
:104A4000656552544F535C7461736B732E63000041
:104A50004572726F723A2025732C2025640D0A006E
:104A600064000020A402002070B50646F068C46807
:104A70002CB940F682423CA144A0FBF71FFCA06A7F
:104A8000D4E907128A60D4E907214A6004F11801C9
:104A900042688A4201D1216A41600022A262016813
:104AA000491E01603D48006800283DD16069D4E995
:104AB00002128A60D4E902214A60211D42688A42BA
:104AC00001D1E1684160002262610168491E016014
:104AD00094F82C1001208840314909680843304976
:104AE0000860E16A01EB81012E4A02EB810148680E
:104AF000A0608268E260211D826851608160E16A85
:104B000001EB8101274A02EB81026261E16A01EB5C
:104B10008101244A52F82110491CE26A02EB820208
:104B2000204B43F8221010E01F494868E06182687A
:104B3000226204F118018268516081601A4AA262FF
:104B400011460968491C116000BF1849E06A0968EC
:104B5000C96A884204D9012501201549086000E08E
:104B60000025284670BD00002E2E5C2E2E5C4D695F
:104B700064646C6577617265735C467265655254F6
:104B80004F535C7461736B732E6300004572726FD8
:104B9000723A2025732C2025640D0A00880000201D
:104BA00064000020A40200204C0500204C000020DE
:104BB0007000002070B5002400265048006828B915
:104BC00040F6B3024EA157A0FBF778FBFEF744FF77
:104BD0004A480068401E49490860084600680028A5
:104BE0007ED15448006800287AD05BE05248C06803
:104BF000C468A06AD4E907128A60D4E907214A6030
:104C000004F1180142688A4201D1216A4160002200
:104C1000A2620168491E01606069D4E902128A60DB
:104C2000D4E902214A60211D42688A4201D1E1682B
:104C30004160002262610168491E016094F82C10F5
:104C4000012088403D49096808433C490860E16A01
:104C500001EB81013A4A02EB81014868A060826859
:104C6000E260211D826851608160E16A01EB81018F
:104C7000334A02EB81026261E16A01EB8101304A51
:104C800052F82110491CE26A02EB82022C4B43F8D5
:104C900022102C49E06A0968C96A884202D30120BF
:104CA000294908602448006808B9012000E0002074
:104CB00000289BD00CB1FEF7D9FB2448056865B1EC
:104CC00000BFFFF755FD10B101201F4908606D1EA0
:104CD000002DF6D100201D4908601B48006800E047
:104CE00008E038B10126300719490860BFF34F8F3B
:104CF000BFF36F8FFEF7FAFE304670BD88000020CC
:104D00002E2E5C2E2E5C4D6964646C657761726535
:104D1000735C4672656552544F535C7461736B7378
:104D20002E6300004572726F723A2025732C202585
:104D3000640D0A005C0000204C0500206400002087
:104D4000A40200204C000020700000206C00002015
:104D500004ED00E01CB50024FDF7AAFF0B48006835
:104D600058B10B481F2100234FF48072CDE9001089
:104D700008A10A48FFF7B6FC04462CB940F2191204
:104D800007A110A0FBF79AFA20461CBD9400002052
:104D900098000020546D7220537663008935000816
:104DA0002E2E5C2E2E5C4D6964646C657761726595
:104DB000735C4672656552544F535C74696D6572DD
:104DC000732E63004572726F723A2025732C202572
:104DD000640D0A000000000000000000010203044E
:104DE000060708090000000001020304000000009B
:104DF0000000000000000000000000003F40000034
:104E000000000000000030004000300040000000C2
:104E100009000BC03D000BC03D00090018C0244034
:104E20007FE0224031800000180024C01B000D806C
:104E30003240018003801C4027401C800740004016
:104E400010006000000000000000000000000000F2
:104E500000001F80204040200000402020401F8094
:104E600000000000090006001F8006000900000085
:104E7000040004003F8004000400000000100060F3
:104E80000000000000000000040004000400040012
:104E900004000000000000400000000000000000CE
:104EA000002001C006003800400000001F802040A4
:104EB000204020401F800000000010403FC0004004
:104EC0000000000018C0214022402440184000008B
:104ED00010802040244024401B80000002000D0070
:104EE00011003FC0014000003C8024402440244089
:104EF000238000001F8024402440344003800000B1
:104F00003000200027C03800200000001B80244013
:104F1000244024401B8000001C0022C0224022406C
:104F20001F8000000000000008400000000000009A
:104F30000000000004600000000000000000040009
:104F40000A00110020804040090009000900090002
:104F50000900000000004040208011000A00040009
:104F60001800200023402400180000001F8020406B
:104F7000274029401F400000004007C039000F00B3
:104F800001C0004020403FC0244024401B8000005E
:104F90001F802040204020403080000020403FC043
:104FA000204020401F80000020403FC024402E4071
:104FB00030C0000020403FC024402E0030000000E0
:104FC0000F001080204022403380020020403FC06C
:104FD000040004003FC02040204020403FC020404B
:104FE000204000000060202020203FC02000200042
:104FF00020403FC024400B0030C0204020403FC034
:1050000020400040004000C03FC03C0003C03C00C6
:105010003FC0000020403FC00C4023003FC02000A4
:105020001F802040204020401F80000020403FC0C3
:1050300024402400180000001F802140214020E06F
:105040001FA0000020403FC02440260019C000409F
:1050500018C024402440224031800000300020400D
:105060003FC020403000000020003F800040004052
:105070003F80200020003E0001C0070038002000D3
:10508000380007C03C0007C038000000204039C08D
:10509000060039C0204000002000384007C03840DA
:1050A00020000000304021C02640384020C00000D1
:1050B000000000007FE04020402000000000700061
:1050C0000C000380004000000000402040207FE0F2
:1050D0000000000000002000400020000000000050
:1050E0000010001000100010001000100000000060
:1050F0004000000000000000000002800540054064
:1051000003C0004020003FC0044004400380000072
:1051100000000380044004400640000000000380BB
:10512000044024403FC0004000000380054005408B
:1051300003400000000004401FC024402440200021
:10514000000002E0055005500650042020403FC0FA
:105150000440040003C000400000044027C0004099
:105160000000000000100010041027E00000000004
:1051700020403FC00140070004C0044020402040C0
:105180003FC000400040000007C0040007C004000A
:1051900003C00000044007C00440040003C00040F6
:1051A000000003800440044003800000041007F066
:1051B00004500440038000000000038004400450B9
:1051C00007F00010044007C0024004000400000083
:1051D000000006400540054004C000000000040037
:1051E0001F8004400040000004000780004004408D
:1051F00007C000400400070004C00180060004004E
:10520000060001C0070001C006000000044006C0FF
:10521000010006C0044000000410071004E00180F3
:10522000060004000000044005C0064004400000E1
:105230000000000004007BE04020000000000000AF
:105240000000FFF000000000000040207BE00400B0
:1052500000000000400080004000200020004000CE
:10526000000000000000000000000000000000003E
:105270000000000000001FCC000C00000000000037
:1052800000000800300060000800300060000000EE
:10529000022003FC1E20022003FC1E20022000002E
:1052A00000000E1811043FFF10840C78000000006D
:1052B0000F0010840F3800C00778188400780000B1
:1052C00000780F8410C411240E9800E400840008B4
:1052D00008006800700000000000000000000000EE
:1052E00000000000000007E0181820044002000041
:1052F000000040022004181807E000000000000031
:105300000240024001800FF0018002400240000094
:105310000080008000800FF8008000800080000086
:105320000001000D000E0000000000000000000061
:1053300000000080008000800080008000800080ED
:105340000000000C000C0000000000000000000045
:105350000000000600180060018006001800200010
:10536000000007F0080810041004080807F0000007
:105370000000080408041FFC0004000400000000F2
:1053800000000E0C10141024104411840E0C0000A8
:1053900000000C1810041104110412880C70000095
:1053A000000000E00320042408241FFC0024000067
:1053B00000001F9810841104110410881070000060
:1053C000000007F00888110411041888007000001C
:1053D00000001C00100010FC13001C001000000056
:1053E00000000E3811441084108411440E3800005F
:1053F00000000700088C10441044088807F00000E3
:10540000000000000000030C030C0000000000007E
:105410000000000000010106000000000000000084
:105420000000008001400220041008081004000061
:10543000022002200220022002200220022000007E
:105440000000100408080410022001400080000041
:1054500000000E001200100C106C10800F000000F5
:1054600003E00C1813E4142417C4082807D0000024
:105470000004003C03C41C40074000E4001C00047E
:1054800010041FFC1104110411040E8800700000A8
:1054900003E00C1810041004100410081C10000085
:1054A00010041FFC100410041004080807F000008A
:1054B00010041FFC1104110417C410040818000084
:1054C00010041FFC1104110017C010000800000098
:1054D00003E00C181004100410441C780040000075
:1054E00010041FFC10840080008010841FFC100436
:1054F0000000100410041FFC100410040000000041
:1055000000030001100110011FFE10001000000038
:1055100010041FFC110403801464181C1004000004
:1055200010041FFC1004000400040004000C000020
:1055300010041FFC1F0000FC1F001FFC10040000D3
:1055400010041FFC0C04030000E010181FFC1000E6
:1055500007F00808100410041004080807F0000001
:1055600010041FFC10841080108010800F000000B9
:1055700007F0081810241024101C080A07F2000075
:1055800010041FFC1104110011C011300E0C000496
:1055900000000E1C11041084108410441C380000FC
:1055A0001800100010041FFC100410001800000068
:1055B00010001FF810040004000410041FF810006D
:1055C00010001E0011E0001C007013801C00100071
:1055D0001FC0103C00E01F0000E0103C1FC0000096
:1055E0001004180C163401C001C01634180C100435
:1055F00010001C00130400FC13041C001000000029
:105600000804101C1064108413041C0410180000FB
:105610000000000000007FFE400240024002000047
:10562000000030000C0003800060001C000300003C
:1056300000004002400240027FFE00000000000027
:10564000000000002000400040004000200000005A
:105650000001000100010001000100010001000142
:10566000000040004000200000000000000000009A
:1056700000000098012401440144014400FC00049E
:1056800010001FFC00880104010400880070000065
:10569000000000700088010401040104008800007B
:1056A0000000007000880104010411081FFC0004C0
:1056B000000000F8014401440144014400C8000016
:1056C0000000010401040FFC110411041100180072
:1056D000000000D601290129012901C901060000A5
:1056E00010041FFC008401000100010400FC000400
:1056F00000000104190419FC00040004000000006B
:105700000000000300010101190119FE0000000062
:1057100010041FFC0024004001B4010C010400002F
:105720000000100410041FFC00040004000000002E
:10573000010401FC0104010001FC0104010000FC62
:10574000010401FC008401000100010400FC0004CC
:10575000000000F8010401040104010400F8000045
:10576000010101FF008501040104008800700000B0
:1057700000000070008801040104010501FF000120
:105780000104010401FC0084010401000180000007
:10579000000000CC01240124012401240198000010
:1057A00000000100010007F80104010400000000EE
:1057B000010001F8000400040004010801FC0004D9
:1057C000010001800170000C0010016001800100E7
:1057D00001F0010C003001C00030010C01F00100AB
:1057E00000000104018C00740170018C01040000B0
:1057F000010101810171000E0018016001800100AA
:1058000000000184010C013401440184010C0000FA
:10581000000000000000000001003EFC40024002C9
:105820000000000000000000FFFF0000000000007A
:105830000000400240023EFC0100000000000000A9
:105840000000600080008000400040002000200038
:105850000000000000000000000000000000000048
:105860000000000000000000000000000000000038
:105870000000000000000000000000000000000028
:105880000000000F80380FFE380F80380000000045
:105890000000000000000000000000000000010007
:1058A000000600000C000038000031000006000077
:1058B0000C00003800003000000000000000000074
:1058C00061800067F807F9800061800061800061F5
:1058D000800061800067F807F980006180000000A7
:1058E00000000000000001C0E003E0F00630080402
:1058F00018081FFFFE040E080787F00381E0000070
:105900000000000001F000060C00040408060C7002
:1059100001F9C0000E00003BE000EC180708080485
:105920000C180003E00000000001E00007F003F89D
:1059300018041C0804170807E1D003C0E00023B0D6
:10594000003C0800200800001000000000000001DA
:1059500000003100003200001C00000000000000C8
:105960000000000000000000000000000000000037
:105970000000000000000000000000000000000027
:105980007F0001FFC00780F00C0018100004200009
:10599000020000000000002000021000040C0018AB
:1059A0000780F001FFC0007F000000000000000041
:1059B000000000000000000000000000420000663F
:1059C00000006600003C0000180003FFC000180043
:1059D000003C00006600006600004200000000007D
:1059E000080000080000080000080000080001FF8F
:1059F000C0000800000800000800000800000800BF
:105A000000000000000100003100003200001C0016
:105A10000000000000000000000000000000000086
:105A2000000000000000000008000008000008005E
:105A3000000800000800000800000800000800003E
:105A40000800000800000000000000000000000046
:105A5000380000380000380000000000000000009E
:105A60000000000000000000000000000000000036
:105A7000000600001C000070000180000E000038CD
:105A80000000C0000700001C000030000000000003
:105A9000000000007F8001FFE00380700600180412
:105AA000000804000806001803807001FFE0007F72
:105AB0008000000000000000000001000801000854
:105AC00001000803FFF807FFF800000800000800C5
:105AD000000800000000000000000001C03802C003
