:020000040800F2
:10000000D8070020D50100083D1E0008DB180008B5
:10001000391E0008E50400089D24000800000000C7
:10002000000000000000000000000000691E000841
:10003000E9040008000000003F1E00086B1E0008D5
:10004000EF010008EF010008EF010008EF010008D0
:10005000EF010008EF010008EF010008EF010008C0
:10006000EF010008EF010008EF010008EF010008B0
:10007000EF010008EF010008EF010008EF010008A0
:10008000EF010008EF010008EF010008EF01000890
:10009000EF010008EF010008EF010008EF01000880
:1000A000EF010008EF010008EF010008EF01000870
:1000B000EF010008EF010008EF010008EF01000860
:1000C000EF010008EF010008EF010008EF01000850
:1000D000EF01000879240008EF010008EF01000893
:1000E000EF010008EF010008EF010008EF01000830
:1000F000EF010008EF010008EF010008EF01000820
:10010000EF010008EF010008EF010008EF0100080F
:10011000EF010008EF010008EF010008EF010008FF
:10012000EF010008EF010008EF010008EF010008EF
:1001300000F002F800F03FF80AA090E8000C8244BA
:100140008344AAF10107DA4501D100F034F8AFF297
:10015000090EBAE80F0013F0010F18BFFB1A43F0A5
:1001600001031847B0420000D0420000103A24BFFB
:1001700078C878C1FAD8520724BF30C830C144BF0C
:1001800004680C607047000000230024002500264E
:10019000103A28BF78C1FBD8520728BF30C148BFEA
:1001A0000B607047782900F04380002070471FB52E
:1001B0001FBD10B510BD00F063F91146FFF7F7FF42
:1001C00002F026FA00F081F903B4FFF7F2FF03BC56
:1001D00002F082F90948804709480047FEE7FEE738
:1001E000FEE7FEE7FEE7FEE7FEE7FEE7FEE7FEE7E7
:1001F00004480549054A064B70470000731E000875
:1002000031010008D8010020D8070020D8030020C1
:10021000D8030020704700000FB4044910B503AAAA
:10022000029800F0FFF810BC5DF814FB08000020F5
:1002300070B504460D4621461068AFF30080218852
:10024000090502D50F4A7A4402E00E4A7A440E327A
:10025000002104F1240305E000F00F060009965D7B
:100260005E54491C0028F7D120780023000704D5EC
:10027000702D02D009B1022311322046BDE8704032
:1002800000F077B8904100002DE9F0410F46044698
:100290000020DFF88480F84420622046E168884727
:1002A00090B3252806D0D4E901219047206A401C4C
:1002B0002062F2E700252046E168884720280646AC
:1002C00008DB312E06D208EB060010F8200C08B12E
:1002D0000543F0E7A80701D525F00405A6B1A6F16E
:1002E0004100192802D8203645F400653A463146C7
:1002F00020462560FFF756FF48B1012805D0FF1DB5
:1003000027F007070837C8E703E03F1DC5E7304679
:10031000C9E7206ABDE8F081684100004FF00002A3
:1003200000B5134694469646203922BFA0E80C50EB
:10033000A0E80C50B1F12001BFF4F7AF090728BFC6
:10034000A0E80C5048BF0CC05DF804EB890028BF42
:1003500040F8042B08BF704748BF20F8022B11F06B
:10036000804F18BF00F8012B7047704770477047E7
:1003700070472DE9F0470D4699469246044600F134
:1003800024080168880604D5E06921F01001216085
:1003900000E00120A84201DD471B00E00027A16921
:1003A0007A1902EB0900081AA0612078C00602D46D
:1003B0002046AFF30080002608E0D4E901211AF8B6
:1003C00006009047206A401C761C20624E45F4DBF4
:1003D0002078C0060AD52046AFF3008006E0D4E9B5
:1003E000012130209047206A401C2062381EA7F16E
:1003F0000107F4DC07E0D4E9012118F80500904773
:10040000206A401C2062281EA5F10105F3DC20466D
:10041000AFF300802078000602D50220BDE8F08707
:100420000120FBE7074B70B50D467B4400F011F847
:100430000446284600F020F810B14FF0FF3070BDA0
:10044000204670BD5B21000001694A1C02610878EA
:10045000704700B58FB0CDE9013100210591054904
:100460007944CDE9031011466846FFF70DFF0FB040
:1004700000BD0000E5FFFFFF007B00F0800070473B
:10048000754600F02BF8AE4605006946534620F04D
:100490000700854618B020B5FFF7AAFEBDE820404A
:1004A0004FF000064FF000074FF000084FF0000B30
:1004B00021F00701AC46ACE8C009ACE8C009ACE8E3
:1004C000C009ACE8C0098D46704710B50446AFF3CB
:1004D00000802046BDE81040FFF776BE0048704718
:1004E0007801002000BFFEE77047000070B50446A9
:1004F000B3F5804F13D1D1E9000540EA05108D68AE
:1005000040EA05208D6928438D8940EA054054F86A
:100510002250064E3540284344F8220003E06FF095
:10052000704044F82200002070BD00000000F0CFB1
:1005300070B50246086852F8200020F001000E68ED
:1005400042F826008868082801D1402300E00023F3
:10055000486818438E683043CE6830430E69304394
:100560004E693043CE6930430E6A30434E6A3043A1
:100570008E6A3043CE6A30430E6B40EA06048869C7
:100580000443486B0443074D45F4806545F4E0257A
:10059000086852F82000A84320430E6842F826005D
:1005A000002070BD7FFB080010B50346D1E90004B0
:1005B00040EA04108C6840EA04208C8940EA044434
:1005C000088A401E44EA0054087D801E44EA006008
:1005D0008C692043541C53F8244004F040442043C9
:1005E000541C43F82400002010BD000070B50446E0
:1005F000002594F82100022803D00420A0630125DF
:10060000C1E02068006820F00E00216808602068C2
:10061000006820F00100216808605C492068884279
:1006200052D95A4978392068884201D1012047E0DF
:10063000564964392068884201D1102040E053496E
:1006400050392068884201D1801539E04F493C3942
:100650002068884201D1801432E04C492839206852
:10066000884202D14FF480302AE04849143920688A
:10067000884202D14FF4801022E044492068884229
:1006800001D140041CE042492068884201D1012088
:1006900016E03F4914312068884201D110200FE054
:1006A0003B4928312068884201D1801508E038494B
:1006B0003C312068884201D1801401E04FF4803041
:1006C0003349091F086051E0304978392068884271
:1006D00001D1012047E02D4964392068884201D1C9
:1006E000102040E0294950392068884201D1801506
:1006F00039E026493C392068884201D1801432E033
:10070000224928392068884202D14FF480302AE0FB
:100710001E4914392068884202D14FF4801022E02B
:100720001A492068884201D140041CE01849206819
:10073000884201D1012016E0154914312068884211
:1007400001D110200FE0124928312068884201D1E0
:10075000801508E00E493C312068884201D18014A0
:1007600001E04FF48030094980394860012084F865
:10077000210000BF002084F8200000BF606B10B192
:100780002046616B8847284670BD0000800002400B
:10079000080402402DE9F847024600239C467BE10D
:1007A0004FF0010808FA03F4D1F8008008EA0400C9
:1007B000A0427DD1DFF8F4A2D1F80480A8EB0A09A9
:1007C000D0453AD014DCB8F1030F50D009DCB8F1B1
:1007D000000F31D0B8F1010F1CD0B8F1020F49D190
:1007E00020E0B8F1110F18D0B8F1120F42D11EE07D
:1007F000B9F5881F25D006DCB9F5803F20D0B9F5C2
:10080000801F37D11AE0B9F5001F18D0B9F5041FC1
:1008100030D117E0D1F80CC02DE0D1F80C8008F1F0
:10082000040C28E0D1F80C8008F1080C23E0D1F882
:100830000C8008F10C0C1EE000BF00BF00BF00BF21
:1008400000BF00BFD1F80880B8F1000F02D14FF00F
:10085000040C0BE0D1F80880B8F1010F03D14FF080
:10086000080C146102E04FF0080C546103E04FF0F3
:10087000000C00E000BF00BFFF2801D8904601E057
:1008800002F104084646FF2802D84FEA830803E035
:10089000A3F108084FEA88084746D6F800804FF0D1
:1008A0000F0909FA07F928EA09080CFA07F900E024
:1008B0007AE048EA0908C6F80080D1F8048008F018
:1008C0008058B8F1805F6FD100BFDFF8E481D8F8BD
:1008D000188048F00108DFF8D891C9F81880C84698
:1008E000D8F8188008F00108CDF8008000BF00BFDC
:1008F0004FEAB9384FEA930958F829504FEA8378FC
:100900004FEA18794FF00F0808FA09F825EA0805A8
:10091000DFF8A081424502D14FF0000824E0DFF863
:100920009881424502D14FF001081DE0DFF88C812B
:10093000424502D14FF0020816E0DFF884814245BB
:1009400002D14FF003080FE0DFF87881424502D171
:100950004FF0040808E0DFF87081424502D14FF003
:10096000050801E04FF006084FEA83794FEA19794C
:1009700008FA09F848EA0505DFF850814FEA9309BB
:1009800048F82950D1F8048008F48038B8F5803F41
:100990000BD1DFF83C81D8F8008048EA0008DFF886
:1009A0003091C9F800800AE075E0DFF82481D8F8BA
:1009B000008028EA0008DFF81891C9F80080D1F813
:1009C000048008F40038B8F5003F0ED1DFF800814C
:1009D00008F10408D8F8008048EA0008DFF8F09031
:1009E00009F10409C9F800800DE0DFF8E48008F19E
:1009F0000408D8F8008028EA0008DFF8D49009F14C
:100A00000409C9F80080D1F8048008F48018B8F50A
:100A1000801F0ED1DFF8B88008F10808D8F80080F0
:100A200048EA0008DFF8A89009F10809C9F8008031
:100A30000DE0DFF89C8008F10808D8F8008028EA6B
:100A40000008DFF88C9009F10809C9F80080D1F896
:100A5000048008F40018B8F5001F0ED1DFF870808C
:100A600008F10C08D8F8008048EA0008DFF8609028
:100A700009F10C09C9F800800DE0DFF8548008F195
:100A80000C08D8F8008028EA0008DFF8449009F143
:100A90000C09C9F800805B1CD1F8008028FA03F823
:100AA000B8F1000F7FF47CAEBDE8F88700001110AC
:100AB0000010024000080140000C014000100140FD
:100AC0000014014000180140001C014008000140D2
:100AD0000004014010B5C26821EA020302EA0104E1
:100AE00043EA0443036110BD0AB1016101E00B0454
:100AF0000361704701480068704700001000002043
:100B000003480068034909780844014908607047B0
:100B1000100000201800002010B50848006840F0C0
:100B2000100006490860052000F080F80F2000F052
:100B300007F800F02BF8002010BD00000020024054
:100B400070B504460E4800784FF47A71B1FBF0F0AE
:100B50000C490968B1FBF0F5284600F0E7FC08B144
:100B6000012070BD102C07D200222146501E00F03B
:100B70001EF80548046001E00120F2E70020F0E7DC
:100B800018000020000000201400002070470146DB
:100B90000846002809DB00F01F0301229A404309A0
:100BA0009B0003F1E023C3F8002100BF70472DE94B
:100BB000F05F80460D461646002701F071FC07469F
:100BC00039462A46334601F00700C0F1070ABAF158
:100BD000040F02D94FF0040A01E0C0F1070AD14620
:100BE00000F1040ABAF1070F02D24FF0000A01E047
:100BF000A0F1030AD4464FF0010A0AFA09FAAAF151
:100C0000010A0AEA020A0AFA0CFA4FF0010B0BFA7F
:100C10000CFBABF1010B0BEA030B4AEA0B04214678
:100C2000404601F045FCBDE8F09F000000BF00F029
:100C30000702064B19684FF6FF031940044B0B439C
:100C400043EA0221014B196000BF70470CED00E040
:100C50000000FA0570B504460D460CB9012070BDC0
:100C60005A48006800F00700A8420ED257480068B2
:100C700020F007002843554908600846006800F046
:100C80000700A84201D00120E9E7207800F0020027
:100C900002281DD1207800F00400042805D14C481A
:100CA000406840F4E0604A494860207800F008005D
:100CB000082805D14648406840F4605044494860DF
:100CC0004348406820F0F000A1680843404948606C
:100CD000207800F0010078B36068012806D13C4814
:100CE000006800F4003090B90120B8E7606802287D
:100CF00006D13748006800F0007040B90120AEE727
:100D00003348006800F0020008B90120A7E7304826
:100D1000406820F00300616808432D494860FFF7F0
:100D2000E9FE064609E0FFF7E5FE801B41F2883147
:100D3000884202D9032092E707E02548406800F086
:100D40000C006168B0EB810FEDD12048006800F025
:100D50000700A8420ED91D48006820F0070028436C
:100D60001A4908600846006800F00700A84201D050
:100D7000012074E7207800F00400042807D114480B
:100D8000406820F4E060E168084311494860207839
:100D900000F00800082808D10D48406820F4605091
:100DA000216940EAC1000A49486000F03FF808495B
:100DB0004968C1F30311074A515CC84006490860FD
:100DC00006480068FFF7BCFE002048E7002002400C
:100DD00000100240DC270008000000201400002062
:100DE00001480068704700000000002000B5FFF7D0
:100DF000F7FF04494968C1F30221034A515CC84026
:100E000000BD000000100240EC27000800B5FFF70D
:100E1000E7FF04494968C1F3C221034A515CC84055
:100E200000BD000000100240EC270008F0B585B0BE
:100E30000FF26C0C9CE8E01001A8A0E8E0101CA5E3
:100E40002D68009500210022002300240020194D68
:100E5000696801F00C05F5B1042D02D0082D19D1F7
:100E600001E0154819E001ADC1F38346AC5D01F422
:100E7000803555B10F4D6D68C5F340451DF805200F
:100E80000D4D6543B5FBF2F302E00C4D04FB05F399
:100E9000184602E000BF084800BF00BF05B0F0BD23
:100EA00002030405060708090A0B0C0D0E0F1010AB
:100EB000010200000010024000127A0000093D000B
:100EC000F8B504460CB90120F8BD207800F0010007
:100ED000002878D0F848406800F00C0004280CD0B6
:100EE000F548406800F00C00082811D1F24840682D
:100EF00000F48030B0F5803F0AD1EF48006800F47C
:100F0000003000285FD0606800285CD10120DBE75A
:100F100000BF6068B0F5803F06D1E748006840F444
:100F20008030E549086028E0606858B9E248006808
:100F300020F48030E04908600846006820F48020F2
:100F400008601AE06068B0F5A02F0BD1DA4800689D
:100F500040F48020D84908600846006840F480309A
:100F600008600AE0D448006820F48030D249086064
:100F70000846006820F48020086000BF606888B1DF
:100F8000FFF7B8FD054606E0FFF7B4FD401B6428F7
:100F900001D9032098E7C848006800F40030002811
:100FA000F2D010E0FFF7A6FD054606E0FFF7A2FD30
:100FB000401B642801D9032086E7BF48006800F47D
:100FC00000300028F2D1207800F00200022857D12A
:100FD000B948406800F00C0050B1B748406800F0D4
:100FE0000C00082818D1B448406800F4803098B943
:100FF000B148006800F0020020B12069012801D04A
:10100000012061E7AC48006820F0F800616940EA1F
:10101000C100A949086033E02069E8B10120A7496F
:101020000860FFF767FD054606E0FFF763FD401B1C
:10103000022801D9032047E79F48006800F002001A
:101040000028F2D09C48006820F0F800616940EA6E
:10105000C1009949086013E0002098490860FFF733
:1010600049FD054606E0FFF745FD401B022801D972
:10107000032029E79048006800F002000028F2D120
:10108000207800F0080008282DD1A069B8B101200F
:101090008B490860FFF72EFD054606E0FFF72AFDA5
:1010A000401B022801D903200EE78348406A00F064
:1010B00002000028F2D0012000F0C2FE13E0002060
:1010C0007F490860FFF716FD054606E0FFF712FDB1
:1010D000401B022801D90320F6E67748406A00F059
:1010E00002000028F2D1207800F00400042873D117
:1010F00000277148C06900F0805070B900BF6E4889
:10110000C06940F080506C49C8610846C06900F071
:101110008050009000BF00BF01276A48006800F4BB
:101120008070B0B96748006840F480706549086015
:10113000FFF7E0FC054606E0FFF7DCFC401B6428F7
:1011400001D90320C0E65F48006800F480700028E1
:10115000F2D000BFE068012806D15748006A40F08D
:1011600001005549086227E0E06858B95248006A12
:1011700020F00100504908620846006A20F004008F
:10118000086219E0E06805280BD14B48006A40F07E
:101190000400494908620846006A40F001000862FC
:1011A0000AE04548006A20F0010043490862084609
:1011B000006A20F00400086200BFE068A0B1FFF7F9
:1011C00099FC054609E0FFF795FC401B41F2883188
:1011D000884202D9032077E622E03748006A00F00F
:1011E00002000028EFD012E0FFF784FC054608E07B
:1011F000FFF780FC401B41F28831884201D903206F
:1012000062E62D48006A00F002000028F0D1012FAC
:1012100005D12948C06920F080502749C86100BF26
:10122000E069C8B32448406800F00C00082860D08A
:10123000E069022848D1002020490866FFF75AFCDF
:10124000054606E0FFF756FC401B022801D90320A3
:101250003AE61948006800F000700028F2D1206AD0
:10126000B0F5803F07D11448406820F40030A168F1
:10127000084311494860D4E9080108430E49496808
:1012800021F4741108430C49486001200B49086699
:10129000FFF730FC054607E03DE0FFF72BFC401B65
:1012A000022801D903200FE60348006800F000700F
:1012B0000028F2D02FE0000000100240000042425F
:1012C0008004424200700040002014490866FFF785
:1012D00011FC054606E0FFF70DFC401B022801D972
:1012E0000320F1E50E48006800F000700028F2D1FC
:1012F00011E0E069012800D1E6E50948466806F4F6
:101300008031206A814204D106F47011606A814202
:1013100001D00120D8E50020D6E5000000004242BF
:101320000010024070B504460E4615461CB1A06977
:10133000B0F5807F01D1012070BD94F8410028B93B
:10134000002084F84000204600F020F804F1080155
:101350002068FFF7EDF83146A2682068FFF724F90E
:101360002946236BD4E90102FFF7C0F8A168206881
:1013700050F8210040F00100A268216841F82200E5
:10138000012084F841000020D6E7000010B586B0A7
:10139000044600BF5648406940F480705449486193
:1013A0000846406900F48070019000BF00BF00BF94
:1013B0000846806940F0200088610846806900F096
:1013C0002000019000BF00BF00BF0846806940F0C8
:1013D000400088610846806900F04000019000BF2D
:1013E00000BF00BF00BF0846806940F02000886150
:1013F0000846806900F02000019000BF00BF00BFD8
:1014000000BF00BF0846806940F0200088610846A0
:10141000806900F02000019000BF00BF00BF00BF46
:1014200000BF0846806940F008008861084680696E
:1014300000F00800019000BF00BF00BF00BF00BF68
:101440000846806940F4807088610846806900F42D
:101450008070019000BF00BF00BF00BF00BF084602
:10146000806940F4807088610846806900F480706B
:10147000019000BF00BF00BF8814029002200390BB
:10148000012004900320059002A91A48FFF782F971
:101490002020029002A91848FFF77CF91020029042
:1014A00002A91548FFF776F90120029002A9114818
:1014B000FFF770F901200290039002A90F48FFF78F
:1014C00069F94CF20370029002200390012004900D
:1014D0000320059002A90848FFF75CF94FF68070D9
:1014E000029002A90648FFF755F906B010BD0000AA
:1014F000001002400020014000140140000C014097
:1015000000180140042808D14FF0E021096941F09A
:1015100004014FF0E022116107E04FF0E02109697A
:1015200021F004014FF0E0221161704770B50446CC
:101530002546681EB0F1807F01D301200FE0681EB0
:101540004FF0E02148610F214FF0FF3000F0B0FF75
:1015500000204FF0E021886107200861002070BD65
:10156000704700002DE9F0470446206805682068B0
:10157000C668206847694FF00008C14605F00F08AB
:10158000B8F1000F0AD105F0200038B106F02000B4
:1015900020B1204600F072FEBDE8F087B8F1000FE0
:1015A00071D007F0010018B906F4907000286AD0D5
:1015B00005F0010030B106F4807018B1E06B40F026
:1015C0000100E06305F0040030B107F0010018B13C
:1015D000E06B40F00200E06305F0020030B107F07C
:1015E000010018B1E06B40F00400E06305F0080072
:1015F00048B106F0200010B907F0010018B1E06B07
:1016000040F00800E063E06B68B305F0200028B10B
:1016100006F0200010B1204600F030FE206840693E
:10162000C0F38019E06B00F0080010B9B9F1000FA9
:1016300022D0204600F002FE2068406900F0400001
:10164000B0B12068406920F0400021684861606BBB
:1016500050B11848616B4863606BFEF7C7FF10B16B
:10166000606B416B88470CE02046FFF779FF08E08C
:101670002046FFF775FF04E02046FFF771FF0020CA
:10168000E06389E7FFE705F0800030B106F08000F5
:1016900018B1204600F0C0FE7EE705F0400030B1F2
:1016A00006F0400018B1204600F0D8FD74E700BFF6
:1016B00072E700002922000810B504460CB9012089
:1016C00010BDA06900B100E000BF94F8390028B94E
:1016D000002084F83800204600F028F8242084F800
:1016E00039002068C06820F400502168C860204696
:1016F00000F014FE2068006920F490402168086121
:101700002068406920F02A00216848612068C0688C
:1017100040F400502168C8600020E063202084F875
:10172000390084F83A000020CAE7000010B586B0FE
:1017300004462849206888424AD100BF00BF264895
:10174000806940F00400244988610846806900F0FF
:101750000400019000BF00BF00BF00BF00BF0846EB
:10176000806940F0040088610846806900F0040048
:10177000019000BF00BF00BF00BF00BF08468069E6
:1017800040F4804088610846806900F48040019000
:1017900000BF00BF00BF4815029002200390012047
:1017A00004900320059002A90C48FEF7F3FF4FF4C4
:1017B000806002900020039002A90848FEF7EAFF2B
:1017C0002520FFF7E4F9032211462520FFF7EFF962
:1017D00006B010BD00380140001002400008014072
:1017E00010B5034693F83A0020282FD101B10AB969
:1017F000012010BD00BF93F83800012801D102205C
:10180000F7E7012083F8380000BF99629A85DA85EE
:101810000020D863222083F83A0000BF002083F81C
:10182000380000BF1868C06840F480701C68E06031
:101830001868406940F001001C6860611868C06861
:1018400040F020001C68E0600020D2E70220D0E7D2
:101850001D4A0168914236D11C49098801F40041B2
:1018600089BB1A49098801F4804171B11849097886
:101870000A2903D00021154A118024E01349098860
:1018800041F40041114A11801DE0114909780D29E8
:1018900006D10E49098841F480410C4A118012E0BA
:1018A0000B490978094A1288C2F30D02094B995471
:1018B00006490988491C054A118011460988C7292B
:1018C00001DD002111807047003801400C0000202C
:1018D0000E00002028000020704700BFFEE7000037
:1018E00070B506460F484088401E83B20D480088F8
:1018F000401E82B20021084600F0DAF800240CE015
:10190000002504E0304600F087FA681C85B20548DF
:101910004088A842F6DC601C84B202480088A042DD
:10192000EEDC70BD1E00002000B50346A3B9012007
:1019300000F05EFA4FF4807000F064FA032000F0CB
:1019400057FA41F2300000F05DFA4FF4C8700E49CA
:101950004880F020088015E0012000F049FA4FF49B
:10196000807000F04FFA032000F042FA41F2380094
:1019700000F048FAF020044948804FF4C87008800D
:101980000120887100BD00001E00002070B50446D3
:101990000D4616462B4622462946204600F088F87A
:1019A000304600F039FA70BD2DE9F04304460D468B
:1019B00016461F46DDF81C80B44201DCBD4201DD45
:1019C000BDE8F0833B4632462946204600F070F8D9
:1019D000301B401C84B2781B401C85B20BE0A9462A
:1019E00002E0404600F018FAB9F10000A9F1010147
:1019F0001FFA81F9F5D1201EA4F101018CB2EED1BC
:101A000000BFDDE710B501460023CA0AC1F3451443
:101A100001F01F03500340EA841040EA430010BD68
:101A20000549098848104FF6FF7101EA0020024974
:101A3000098840EA610070470008006C2DE9F84F02
:101A400005460E464FF0000AD34600200090164887
:101A50000088A84203DD14484088B04202DC002020
:101A6000BDE8F88F33462A463146284600F020F874
:101A700040F2022000F0BCF90C480488640200889F
:101A800004430A480488640200880443670BC4F3D3
:101A90008518C4F34409F80240EA481040EA0900F6
:101AA0001FFA80FA5046DBE71E0000200008006C99
:101AB00070B506460C4615462E48807950BB4FF44B
:101AC000047000F095F9304600F09CF940F21120C6
:101AD00000F08EF9284600F095F940F2122000F04F
:101AE00087F9204600F08EF940F2132000F080F9CB
:101AF000184600F087F94FF4007000F079F930468D
:101B000000F080F940F2012000F072F9204600F068
:101B100079F929E040F2122000F06AF9304600F02D
:101B200071F940F2132000F063F9284600F06AF9D9
:101B30004FF4047000F05CF9204600F063F940F2C5
:101B4000112000F055F9184600F05CF940F2012030
:101B500000F04EF9304600F055F94FF4007000F0F7
:101B600047F9204600F04EF940F2022000F040F91B
:101B700070BD00001E0000202DE9F84F80460E4683
:101B800017461C46B3462046E31704EB5373DB109D
:101B900021464FEAE47C04EB5C7C4FEAEC0CA4EBBE
:101BA000CC0CBCF1000F02D04FF0010C01E04FF063
:101BB000000C6344224604EBD27C4FEA6C0C03FB1E
:101BC0000CF3DBB20093A7F12000C7B2002556E06A
:101BD0000C2C07D107EB47002B4901EB800010F8D4
:101BE000059013E0102C05D1284800EB071010F8E1
:101BF00005900BE0182C07D107EBC700244901EB37
:101C0000800010F8059001E0BDE8F88F4FF0000A61
:101C10002FE009F0800030B11E480288314640466E
:101C2000FFF7B4FE07E00A9828B91B48028831463E
:101C30004046FFF7ABFE4FEA49604FEA1069701C5F
:101C400086B216484088B04200DCDDE7A6EB0B0008
:101C5000A0420AD15E4608F101001FFA80F80F4841
:101C60000088404500DCCFE706E00AF1010000F003
:101C7000FF0ABAF1080FCCDB00BF681CC5B20098A0
:101C80008542A5DB00BFBFE7F4270008682C0008E9
:101C9000583200081A0000201C0000201E000020FE
:101CA0002DE9F84F04460F461546A346009760E01D
:101CB000002657E006EB8600C0EB86102F4911F88E
:101CC0001000297888424BD106EB8600C0EB8610C5
:101CD0002A4901EB400040786978884240D14FF0B2
:101CE00000083AE006EB8600C0EB8610234901EBC2
:101CF0004000801C10F808A04FF0000926E00AF010
:101D00008000802806D11E48028839462046FFF709
:101D10003DFE05E01B48028839462046FFF736FEA7
:101D20004FF6FF7000EA4A0A601C84B2A4EB0B0075
:101D3000202807D15C46781C87B20098381A1D28E5
:101D400000D1009F09F1010000F0FF09B9F1080F6F
:101D5000D5DB08F1010000F0FF08B8F1740FC1DB1A
:101D6000701CC6B2142EA5DBAD1C04F1200084B299
:101D7000A346287800289BD1BDE8F88FB43F00081F
:101D80001A0000201C0000202DE9F84704460D46EB
:101D900090469946DDE9096704F0FF0A08EB040064
:101DA0001FFA80F809EB05001FFA80F916E0444598
:101DB00002DB5446A81985B24D4500DB14E0002033
:101DC00000903A78334629462046FFF7D5FE304644
:101DD00006EBD07104EB61018CB27F1C38787E2851
:101DE00002DC38782028E2DA00BFBDE8F88700007E
:101DF00001124900024A11800106C90D1180704785
:101E0000FE07006C01124900024A11800106C90D4B
:101E1000118070470008006C30B505460024284644
:101E2000FFF7F0FD0446C4F34F20024908800C8000
:101E300030BD00000008006C00BFFEE7704770472F
:101E400008B508490968C9084FF47A72B1FBF2F184
:101E50004143009100BF00BF00994A1E0092002933
:101E6000F9D108BD00000020704710B5FEF748FE0C
:101E700010BD704700B58FB04FF02040E2490860B8
:101E8000E2484860062088600021DF48C1600161A7
:101E90001021416100218161C16141624FF4805193
:101EA00081620021C1624FF48041016300214163DE
:101EB000816300200E9001200890002009900F20DF
:101EC0000A90002007900F200190029005200390B7
:101ED00001AA08A9CC48FFF725FA322000F012FB2E
:101EE0000020FFF785FFFFF79BFDC9498880084662
:101EF0008188C8A0FEF790F90020FFF779FF002045
:101F0000FFF776FF0A2000F0FDFA0020FFF770FFD0
:101F10000020FFF76DFF0020FFF76AFF0020FFF7AA
:101F200067FFA420FFF764FF0120FFF76BFF0A2083
:101F300000F0E8FA6020FFF75BFF4FF41C50FFF75A
:101F400061FF0820FFF754FF40F60800FFF75AFF33
:101F50004FF44070FFF74CFF40F20910FFF752FFBB
:101F600040F20130FFF744FF47F60A60FFF74AFFEF
:101F700040F20230FFF73CFF40F20470FFF742FFEF
:101F800040F20330FFF734FF40F61110FFF73AFF3D
:101F90004FF44170FFF72CFF4FF40450FFF732FF6E
:101FA00040F20530FFF724FF41F20910FFF72AFF46
:101FB00040F20630FFF71CFF47F20740FFF722FF11
:101FC00040F20730FFF714FF40F60E20FFF71AFF2C
:101FD0004FF44270FFF70CFF40F60110FFF712FFBD
:101FE00040F20930FFF704FF2120FFF70BFF10201C
:101FF000FFF7FEFE1020FFF705FF1120FFF7F8FEA8
:1020000040F20220FFF7FEFE1220FFF7F1FE4FF430
:102010004070FFF7F7FE1320FFF7EAFE0720FFF7F7
:10202000F1FE0A2000F06EFA4FF48070FFF7E0FE38
:102030000020FFF7E7FE40F20110FFF7D9FE07206E
:10204000FFF7E0FE4FF48170FFF7D2FE0020FFF7AC
:10205000D9FE40F20310FFF7CBFE0020FFF7D2FEBF
:102060004FF42070FFF7C4FE0020FFF7CBFEC8201E
:1020700000F048FA4FF48070FFF7BAFE4FF44C704E
:10208000FFF7C0FE40F20110FFF7B2FE40F247201A
:10209000FFF7B8FE322000F035FA4FF48170FFF7F9
:1020A000A7FE4DF2B010FFF7ADFE322000F02AFA85
:1020B00040F20310FFF79CFE4FF48050FFF7A2FEA2
:1020C0004FF42070FFF794FE4FF44640FFF79AFE5E
:1020D000C82000F017FA0120FFF78AFE4FF4807045
:1020E000FFF790FE0220FFF783FE4FF40070FFF72A
:1020F00089FE0320FFF77CFE41F23000FFF782FEED
:102100000920FFF775FE0120FFF77CFE0A20FFF78C
:102110006FFE0820FFF776FE0C20FFF769FE002017
:10212000FFF770FE0D20FFF763FE0020FFF76AFE49
:102130000E20FFF75DFE3020FFF764FE2020FFF742
:1021400057FE0020FFF75EFE2120FFF751FE002022
:10215000FFF758FE2920FFF74BFE5220FFF752FEF3
:102160005020FFF745FE0020FFF74CFE5120FFF7FF
:102170003FFEEF20FFF746FE5220FFF739FE00201A
:10218000FFF740FE5320FFF733FE40F23F10FFF70A
:1021900039FE6120FFF72CFE0020FFF733FE6A2096
:1021A000FFF726FE0020FFF72DFE8020FFF720FE20
:1021B0000020FFF727FE8120FFF71AFE0020FFF71F
:1021C00021FE8220FFF714FE5F20FFF71BFE932005
:1021D000FFF70EFE40F20750FFF714FE0720FFF74F
:1021E00007FE4FF48070FFF70DFE322000F08AF9F1
:1021F0002220FFF7FDFD0020FFF796FB4FF6FF7052
:10220000FFF76EFB0FB000BD30010020040100A0FD
:102210001E0000206C63646465765F6964313A2552
:102220002378200D0A00000070B505466C6A002076
:10223000E085E0842046FFF793F970BD0168C96826
:1022400021F490710268D1600168496921F00101AF
:1022500002685161202180F83A10704710B5044699
:102260002068C06820F040002168C860202084F801
:1022700039002046FFF730FB002010BD70B5044642
:1022800094F83A00222847D1A068B0F5805F0CD1BD
:10229000206950B90025A66A20684068C0F308008C
:1022A0003080A06A801CA06215E0A56A0026A068A4
:1022B000B0F5805F03D0A06828B9206918B92068FC
:1022C0004068287004E02068406800F07F002870B3
:1022D000A06A401CA062E08D401E80B2E085C8B9B3
:1022E0002068C06820F020002168C8602068C068AD
:1022F00020F480702168C8602068406920F00100E7
:1023000021684861202084F83A002046FFF7A0FAAF
:10231000002070BD0020FCE70220FAE770B50446FB
:102320002168096921F44051E26811432268116172
:102330002269A1681143626941EA02052168C968FE
:1023400041F20C62914329432268D16021684969B6
:1023500021F44071A2691143226851612D4A21681C
:10236000914202D1FEF752FD01E0FEF73FFD00EB86
:10237000C00101EB001162689200B1FBF2F100EBC9
:10238000C00202EB001263689B00B2FBF3F264230D
:10239000B2FBF3F202EBC20303EB0212A1EB8201E8
:1023A000322202EB01116422B1FBF2F101F0F001E3
:1023B00000EBC00202EB001263689B00B2FBF3F279
:1023C0006423B2FBF3F201EB021200EBC00101EB5C
:1023D000001163689B00B1FBF3F100EBC00303EB5A
:1023E00000136668B600B3FBF6F36426B3FBF6F39E
:1023F00003EBC30606EB0313A1EB8301322303EBCC
:1024000001116423B1FBF3F101F00F0111442268C3
:10241000916070BD00380140014691F839002128D3
:1024200028D18868B0F5805F0BD1086948B90A6A7D
:102430001088C0F308000B685860086A801C0862A6
:1024400005E00B6A581C086218780B685860C88C45
:10245000401E80B2C88458B90868C06820F0800067
:102460000B68D8600868C06840F040000B68D8600E
:10247000002070470220FCE710B50648FFF772F80D
:1024800000BF012204490348FFF7AAF90028F8D148
:1024900010BD0000F00000200E00002000BFFEE78D
:1024A00002480068C0F30220704700000CED00E015
:1024B00010B5002804DB0A07130E054A135406E082
:1024C0000A07140E034A00F00F031B1FD45410BD5B
:1024D00000E400E018ED00E000BF704710B50446CE
:1024E00000204FF0E0210861FFF70CF82046E117CB
:1024F00004EB5171C1F3CF01014A118010BD0000FE
:102500000400002070B504464FF47A7094FBF0F597
:1025100094FBF0F100FB114603E0074800F00EF8D1
:102520006D1E002DF9D12EB14FF47A7106FB01F02A
:1025300000F004F870BD000040420F000146114A4F
:1025400012884A434FF0E0235A6100229A611A46EA
:10255000126942F001021A6100BF4FF0E0221069D7
:1025600000F001021AB100F48032002AF5D04FF0D9
:10257000E022126922F001024FF0E0231A610022EA
:102580009A6170470400002000BF054A126802F0FB
:102590004002002AF9D0C2B2014B1B1D1A607047DD
:1025A0000038014000B585B000BF00BF1648806903
:1025B00040F01000144988610846806900F010005E
:1025C000009000BF00BF00BF012001900290039067
:1025D0000320049001A90D48FEF7DCF802200190C9
:1025E00001A90A48FEF7D6F800BF012211460748A4
:1025F000FEF77AFA00BF00BF012202210348FEF76E
:1026000073FA00BF05B000BD001002400010014089
:102610001CB500240025FEF77FFA4FF4E01000F00F
:102620008DF84820FFF75AFF4FF4E13000F0BAF878
:10263000FFF7B8FFFFF71EFC00202F4908802FA0EE
:102640000C21CDE900103148438802880A21084650
:10265000FFF79AFB29A01021CDE900102B484388F1
:1026600002881E210A20FFF78FFB24A01821CDE944
:10267000001026484388028832210A20FFF784FB95
:1026800023A250210A20FFF70BFB24A01821CDE93B
:1026900000101E484388028878210A20FFF774FB47
:1026A0001F20B4233C22962100900A20FFF77CF9DA
:1026B000A0211420FFF7C2F90546B4239622114643
:1026C00064200095FFF770F9294618A0FDF7A4FDD6
:1026D00010E0601CC4B2142094FBF0F100FB114028
:1026E00028B900BF01211448FEF7F4F900BF0A2001
:1026F000FFF708FFEDE700001A00002048656C6C4A
:102700006F20576F726C6421000000001E000020D3
:10271000C6D5D6D0BFC6BCBC000000007777772EE8
:102720007072656368696E2E636E0000636F6C6F14
:10273000723D25780D0A00000010014030B58FB0C1
:1027400005460124282105A8FDF7E8FD1421684667
:10275000FDF7E4FD0120059000040690002007909D
:1027600002200C90C1030D910E9505A8FEF7A8FB61
:1027700004460CB100BFFEE70F200090022001903C
:10278000002002904FF4806003900020049002210A
:102790006846FEF75FFA04460CB100BFFEE70FB0D3
:1027A00030BD000010B5044609480A4908600846D3
:1027B000446000218160C160016181610C2141613F
:1027C000FEF77AFF012204490248FFF709F810BD1D
:1027D00000380140F00000200E0000200000000042
:1027E00000000000010203040607080900000000C1
:1027F00001020304000000000000000000000000CF
:10280000000000003F400000000000000000300019
:10281000400030004000000009000BC03D000BC02C
:102820003D00090018C024407FE0224031800000B4
:10283000180024C01B000D803240018003801C4022
:1028400027401C800740004010006000000000008E
:10285000000000000000000000001F802040402019
:102860000000402020401F800000000009000600FA
:102870001F80060009000000040004003F800400DF
:1028800004000000001000600000000000000000D4
:1028900004000400040004000400000000000040E4
:1028A0000000000000000000002001C00600380009
:1028B000400000001F802040204020401F8000007A
:1028C000000010403FC000400000000018C0214040
:1028D0002240244018400000108020402440244022
:1028E0001B80000002000D0011003FC001400000ED
:1028F0003C80244024402440238000001F8024404A
:1029000024403440038000003000200027C03800FD
:10291000200000001B802440244024401B80000035
:102920001C0022C0224022401F8000000000000046
:1029300008400000000000000000000004600000EB
:1029400000000000000004000A0011002080404048
:1029500009000900090009000900000000004040CA
:10296000208011000A0004001800200023402400E9
:10297000180000001F802040274029401F40000011
:10298000004007C039000F0001C0004020403FC098
:10299000244024401B8000001F8020402040204015
:1029A0003080000020403FC0204020401F800000B9
:1029B00020403FC024402E4030C0000020403FC097
:1029C00024402E00300000000F00108020402240E4
:1029D0003380020020403FC0040004003FC020407C
:1029E000204020403FC020402040000000602020C8
:1029F00020203FC02000200020403FC024400B008A
:102A000030C0204020403FC020400040004000C077
:102A10003FC03C0003C03C003FC0000020403FC01E
:102A20000C4023003FC020001F8020402040204059
:102A30001F80000020403FC02440240018000000F8
:102A40001F802140214020E01FA0000020403FC007
:102A50002440260019C0004018C0244024402240D1
:102A600031800000300020403FC020403000000096
:102A700020003F80004000403F80200020003E00BA
:102A800001C0070038002000380007C03C0007C024
:102A900038000000204039C0060039C02040000046
:102AA0002000384007C0384020000000304021C0DE
:102AB0002640384020C00000000000007FE0402099
:102AC00040200000000070000C0003800040000067
:102AD0000000402040207FE00000000000002000B7
:102AE0004000200000000000001000100010001046
:102AF0000010001000000000400000000000000076
:102B0000000002800540054003C0004020003FC097
:102B1000044004400380000000000380044004409F
:102B20000640000000000380044024403FC00040F5
:102B30000000038005400540034000000000044001
:102B40001FC0244024402000000002E00550055032
:102B50000650042020403FC00440040003C0004051
:102B60000000044027C000400000000000100010DA
:102B7000041027E00000000020403FC00140070093
:102B800004C00440204020403FC0004000400000FE
:102B900007C0040007C0040003C00000044007C0D1
:102BA0000440040003C000400000038004400440CF
:102BB00003800000041007F004500440038000006C
:102BC000000003800440045007F00010044007C0D8
:102BD00002400400040000000000064005400540DB
:102BE00004C00000000004001F80044000400000FA
:102BF000040007800040044007C0004004000700B4
:102C000004C0018006000400060001C0070001C0E6
:102C100006000000044006C0010006C00440000099
:102C20000410071004E001800600040000000440C6
:102C300005C00640044000000000000004007BE0E6
:102C400040200000000000000000FFF00000000035
:102C5000000040207BE004000000000040008000F5
:102C600040002000200040000000000000000000A4
:102C700000000000000000000000000000001FCC69
:102C8000000C0000000000000000080030006000A0
:102C90000800300060000000022003FC1E2002201B
:102CA00003FC1E200220000000000E1811043FFF4C
:102CB00010840C78000000000F0010840F3800C052
:102CC000077818840078000000780F8410C411245D
:102CD0000E9800E4008400080800680070000000FE
:102CE000000000000000000000000000000007E0FD
:102CF00018182004400200000000400220041818A8
:102D000007E00000000000000240024001800FF0D8
:102D100001800240024000000080008000800FF827
:102D200000800080008000000001000D000E000007
:102D30000000000000000000000000800080008013
:102D400000800080008000800000000C000C00006B
:102D500000000000000000000000000600180060F5
:102D60000180060018002000000007F00808100489
:102D70001004080807F000000000080408041FFC05
:102D8000000400040000000000000E0C10141024C9
:102D9000104411840E0C000000000C1810041104E3
:102DA000110412880C700000000000E003200424CD
:102DB00008241FFC0024000000001F981084110448
:102DC0001104108810700000000007F0088811043A
:102DD000110418880070000000001C00100010FC96
:102DE00013001C001000000000000E381144108475
:102DF000108411440E38000000000700088C1044B5
:102E00001044088807F00000000000000000030CD8
:102E1000030C00000000000000000000000101069B
:102E200000000000000000000000008001400220BF
:102E300004100808100400000220022002200220D2
:102E400002200220022000000000100408080410E4
:102E5000022001400080000000000E001200100C53
:102E6000106C10800F00000003E00C1813E4142411
:102E700017C4082807D000000004003C03C41C400D
:102E8000074000E4001C000410041FFC110411049E
:102E900011040E880070000003E00C1810041004E8
:102EA000100410081C10000010041FFC1004100473
:102EB0001004080807F0000010041FFC110411049E
:102EC00017C410040818000010041FFC110411009E
:102ED00017C010000800000003E00C1810041004D4
:102EE00010441C780040000010041FFC1084008077
:102EF000008010841FFC10040000100410041FFC4C
:102F00001004100400000000000300011001100173
:102F10001FFE10001000000010041FFC11040380AD
:102F20001464181C1004000010041FFC100400049A
:102F300000040004000C000010041FFC1F0000FC33
:102F40001F001FFC1004000010041FFC0C040300F1
:102F500000E010181FFC100007F00808100410040F
:102F60001004080807F0000010041FFC10841080F3
:102F7000108010800F00000007F0081810241024A3
:102F8000101C080A07F2000010041FFC11041100B5
:102F900011C011300E0C000400000E1C110410842E
:102FA000108410441C3800001800100010041FFC8E
:102FB000100410001800000010001FF81004000496
:102FC000000410041FF8100010001E0011E0001C87
:102FD000007013801C0010001FC0103C00E01F0098
:102FE00000E0103C1FC000001004180C163401C093
:102FF00001C01634180C100410001C00130400FC4F
:1030000013041C00100000000804101C106410843D
:1030100013041C04101800000000000000007FFED4
:103020004002400240020000000030000C0003801B
:103030000060001C0003000000004002400240024B
:103040007FFE0000000000000000000020004000A3
:1030500040004000200000000001000100010001CC
:1030600000010001000100010000400040002000BC
:10307000000000000000000000000098012401444E
:103080000144014400FC000410001FFC00880104FE
:103090000104008800700000000000700088010436
:1030A0000104010400880000000000700088010491
:1030B000010411081FFC0004000000F80144014451
:1030C0000144014400C800000000010401040FFC99
:1030D0001104110411001800000000D60129012973
:1030E000012901C90106000010041FFC0084010031
:1030F0000100010400FC000400000104190419FC93
:1031000000040004000000000000000300010101B1
:10311000190119FE0000000010041FFC00240040EB
:1031200001B4010C010400000000100410041FFC95
:103130000004000400000000010401FC010401007F
:1031400001FC0104010000FC010401FC00840100F9
:103150000100010400FC0004000000F80104010467
:103160000104010400F80000010101FF00850104D1
:103170000104008800700000000000700088010455
:103180000104010501FF00010104010401FC0084A8
:103190000104010001800000000000CC0124012492
:1031A000012401240198000000000100010007F83B
:1031B0000104010400000000010001F80004000403
:1031C0000004010801FC0004010001800170000CF2
:1031D000001001600180010001F0010C003001C00D
:1031E0000030010C01F0010000000104018C0074AA
:1031F0000170018C01040000010101810171000EC8
:10320000001801600180010000000184010C0134FC
:1032100001440184010C00000000000000000000D7
:1032200001003EFC400240020000000000000000DF
:10323000FFFF0000000000000000400240023EFCD2
:10324000010000000000000000006000800080001D
:1032500040004000200020000000000000000000AE
:10326000000000000000000000000000000000005E
:10327000000000000000000000000000000000004E
:1032800000000000000000000000000F80380FFE6A
:10329000380F80380000000000000000000000002F
:1032A0000000000000000100000600000C000038D3
:1032B00000003100000600000C0000380000300063
:1032C000000000000000000061800067F807F9803E
:1032D0000061800061800061800061800067F80704
:1032E000F98000618000000000000000000001C0C3
:1032F000E003E0F00630080418081FFFFE040E0883
:103300000787F00381E000000000000001F00006E4
:103310000C00040408060C7001F9C0000E00003B0C
:10332000E000EC18070808040C180003E000000097
:103330000001E00007F003F818041C080417080750
:10334000E1D003C0E00023B0003C080020080000EA
:1033500010000000000000010000310000320000F9
:103360001C00000000000000000000000000000041
:10337000000000000000000000000000000000004D
:1033800000000000000000007F0001FFC00780F087
:103390000C001810000420000200000000000020B3
:1033A00000021000040C00180780F001FFC0007F2D
:1033B000000000000000000000000000000000000D
:1033C000000000004200006600006600003C0000B3
:1033D000180003FFC0001800003C000066000066F3
:1033E0000000420000000000080000080000080083
:1033F00000080000080001FFC000080000080000ED
:1034000008000008000008000000000000010000A3
:103410003100003200001C0000000000000000002D
:10342000000000000000000000000000000000009C
:10343000080000080000080000080000080000085C
:10344000000008000008000008000008000000005C
:1034500000000000000000003800003800003800C4
:10346000000000000000000000000000000000005C
:103470000000000000000000000600001C000070BA
:10348000000180000E0000380000C0000700001C92
:103490000000300000000000000000007F8001FFFD
:1034A000E0038070060018040008040008060018F5
:1034B00003807001FFE0007F80000000000000003A
:1034C000000001000801000801000803FFF807FFE1
:1034D000F8000008000008000008000000000000DC
:1034E00000000001C03802C058040098040118040C
:1034F0000218040418061C1803F81801E0F800006C
:103500000000000000000001C0E003C0F00400085B
:1035100004080804080806180803F41801E7F00076
:1035200001E0000000000000000000000300000DAA
:103530000000110000610000810803010807FFF886
:103540000FFFF80001080001080000000000000063
:1035500000E007FCD0060808061008061008061050
:1035600008061838060FF00607C00000000000002B
:10357000000000003F8001FFE003843002081804CF
:103580001008041008041008071810030FF00007B3
:10359000C000000000000000000003C000070000A1
:1035A0000600000600F80607F806180006E0000707
:1035B000000006000000000000000001E1E003F749
:1035C000F0063410041808041808040C08040C0849
:1035D00006161803F3F001C1E0000000000000002F
:1035E000F80003FC30030638040208040208040251
:1035F000080404100308F001FFC0007F0000000071
:1036000000000000000000000000000000000000BA
:1036100070380070380070380000000000000000B2
:10362000000000000000000000000000000000009A
:1036300000000000301A00301C00000000000000F4
:103640000000000000000000000000000000000872
:1036500000001400002200004100008080010040B2
:103660000200200400100800080000000000000014
:103670002100002100002100002100002100002184
:1036800000002100002100002100002100000000B6
:1036900000000000000008000804001002002001E3
:1036A000004000808000410000220000140000085B
:1036B0000000000000000003C00004C0000400007F
:1036C000080038080F380808380810000C300007C8
:1036D000E00003C000000000000000003F8000FF89
:1036E000E0038070020F1006708804C0880483080D
:1036F000047F8802C09003012000FE400000080003
:1037000000180001F8003E0801C20007020007E2AD
:103710000000FE00001FC80001F80000380000088B
:1037200004000807FFF807FFF80408080408080465
:10373000080804080806180803F41801E7F0000157
:10374000E0000000000000003F8001FFE003807007
:103750000200180400080400080400080400100611
:1037600000200780C000000004000807FFF807FFE2
:10377000F8040008040008040008040018020010FF
:1037800003807001FFE0007F800000000400080754
:10379000FFF807FFF80408080408080408080408EC
:1037A00008043E080400080600180100600000003C
:1037B00004000807FFF807FFF804080804080004DD
:1037C0000800040800043E00060000060000018016
:1037D00000000000000000003F8001FFE003807057
:1037E0000600180400080402080402080203F00797
:1037F00083F000020000020004000807FFF807FF42
:10380000F80408080008000008000008000008008C
:1038100004080807FFF807FFF8040008000000008C
:10382000000004000804000804000807FFF807FF70
:10383000F80400080400080400080000000000006C
:103840000000000000060000070000010400010461
:10385000000104000307FFFE07FFFC040000040052
:103860000004000004000807FFF807FFF8040C0834
:10387000001800003E0004C7800503C80600F804D5
:10388000003804001800000804000807FFF807FFCC
:10389000F804000800000800000800000800000804
:1038A0000000080000180000600000000400080785
:1038B000FFF807800807FC00007FC00003F800073E
:1038C000C000780007800807FFF807FFF804000829
:1038D00004000807FFF807000803C00000E000002C
:1038E0003800001E000007000001C00400F007FFC0
:1038F000F8040000000000007F8001FFE0038070FA
:10390000060018040008040008060018030030012F
:10391000FFE0007F8000000004000807FFF807FFB9
:10392000F80404080404000404000404000404006F
:10393000060C0003F80001F0000000000000000089
:103940007F8001FFE0038070060088040088040087
:10395000C806003C03003E01FFE6007F8400000033
:1039600004000807FFF807FFF8040808040800042B
:103970000C00040F00040BC00610F003F03801E047
:103980000800000800000001E0F803F030063010E5
:10399000041808041808040C08040C08020618028D
:1039A00007F00781E000000001800006000004002D
:1039B0000004000004000807FFF807FFF8040008EF
:1039C000040000040000060000018000040000075D
:1039D000FFE007FFF00400180000080000080000E6
:1039E0000800000800000804001007FFE0040000C1
:1039F00004000006000007E00007FE00041FE000CE
:103A000001F80000380001E0043E0007C000060095
:103A10000004000004000007E00007FFC0041FF8D6
:103A20000007C007F80007FF80043FF80007C00444
:103A3000F800070000040000000000040008060071
:103A40001807C07805F1C8003E00001F800463E835
:103A50000780F806001804000800000004000006B3
:103A6000000007800007E008047C08001FF800073A
:103A7000F800180804E00807000006000004000031
:103A80000000000100080600380400F80403E80400
:103A90000F08047C0805F00807C008070018040098
:103AA00060000000000000000000000000000000B6
:103AB0000000003FFFFE2000022000022000022044
:103AC00000022000020000000000000000000800CA
:103AD0000007000000C0000038000006000001C020
:103AE00000003000000E0000010000000000000097
:103AF000000020000220000220000220000220001E
:103B0000023FFFFE00000000000000000000000077
:103B1000000000000000000000080000100000305D
:103B2000000020000030000010000008000000002D
:103B30000000000000000100000100000100000181
:103B40000000010000010000010000010000010070
:103B50000001000001000001000000000000000062
:103B600000200000200000100000100000000000F5
:103B70000000000000000000000000000000000045
:103B800000F00019F8001B18002208002608002485
:103B900008002410003FF8001FF80000080000187B
:103BA00000000004000007FFF80FFFF000181800E5
:103BB0001008002008002008003018001FF0000F37
:103BC000C00000000000000007C0001FF000183017
:103BD000002008002008002008003C08001C1000FD
:103BE00000600000000000000000000007C0001F8F
:103BF000F0003818002008002008002008041010E9
:103C000007FFF80FFFF000001000000000000000A8
:103C100000000007C0001FF0001230002218002230
:103C200008002208003208001E10000E20000000CC
:103C300000000000200000200800200801FFF80319
:103C4000FFF80620080420080420080720000300CD
:103C50000000000000000000000E000E6E001FF3C8
:103C60000031B10020B10020B1003191001F1300DC
:103C70002E1E00200E00300000000004000807FF88
:103C8000F80FFFF8001008002000002000002008B6
:103C9000003FF8001FF800000800000000000000CE
:103CA0000000002008002008002008063FF8063F1A
:103CB000F8000008000008000008000000000000F4
:103CC00000000000000000000300000300200100CD
:103CD0002001002003063FFE063FFC00000000001C
:103CE0000000000000000004000807FFF80FFFF8C4
:103CF000000188000300002FC00038F800203800C1
:103D0000200800000800000000000000000004007F
:103D10000804000804000807FFF80FFFF800000877
:103D2000000008000008000000000000002008005B
:103D30003FF8003FF8001008002000003FF8003F67
:103D4000F8001008002000003FF8003FF8000008CD
:103D5000000000002008003FF8003FF800100800B5
:103D60001000002000002008003FF8001FF80000AD
:103D7000080000000000000007C0000FF00018302D
:103D8000003008002008002008003008001830002B
:103D90000FF00007C0000000000000002001003FFD
:103DA000FF003FFF0010110020090020080020083C
:103DB000003038001FF0000FC000000000000000BD
:103DC00007C0001FF000381800200800200800205D
:103DD00009001011001FFF003FFF0000010000005C
:103DE000002008002008002008003FF8003FF800ED
:103DF00008080010080020080020000030000030F3
:103E000000000000000000000000000C78001E18F8
:103E100000330800230800210800218800219800B1
:103E200030F000386000000000000000200000209A
:103E30000000200000FFF003FFF800200800200829
:103E4000002008000030000000000000000000001A
:103E50002000003FF0007FF800001800000800007C
:103E600008002010003FF8007FF000001000000064
:103E7000000000002000003000003C00003F8000F7
:103E800023F0000078000070002380003C00003028
:103E900000002000002000003C00003FE00023F86C
:103EA0000000E0002700003E00003FE00021F80095
:103EB00001E0003E0000200000000000200800207B
:103EC00008003838003E680027800003C8002CF83E
:103ED0000038380020180020080000000000000012
:103EE0002000003003003C01003F830023EC000071
:103EF00070002380003C0000200000200000000033
:103F00000000000000000038080020380020F80001
:103F100023E8002F88003E08003808002018000021
:103F20007000000000000000000000000000000021
:103F30000000000008000014001FF7FC30000620FD
:103F4000000200000000000000000000000000006F
:103F500000000000000000000000FFFFFF00000064
:103F60000000000000000000000000000000000051
:103F700000002000023000061FF7FC0014000008BB
:103F80000000000000000000000000000000000031
:103F90000000001800006000004000004000002009
:103FA00000001000000800000400000400000C00E5
:103FB00000100000C6D50000000000E038000078C6
:103FC0003C00003C7800003C70C0001CE1E01FFF9A
:103FD000FFF0001CE3000E1CE7C0079CE78003DC39
:103FE000EF0003DCEE0001DCFC60009CF9F07FFFD9
:103FF000FFF80000000001C00E0001FFFF0001C03B
:104000000E0001C00E0001C00E0001FFFE0001C045
:104010000E0001C00E0001C00E0001FFFE0001C035
:104020000E0001C00E0000000000D6D0000000000D
:1040300000070000000780000007000000070000E4
:1040400000070000000701801FFFFFE01FFFFFE0E7
:104050001E0701C01E0701C01E0701C01E0701C0C8
:104060001E0701C01E0701C01FFFFFC01FFFFFC0CA
:104070001E0701C01C0701800007000000070000A8
:104080000007000000070000000700000007000014
:10409000000700000007000000070000000000000B
:1040A000BFC60000000000000780003C07C001FC04
:1040B00007803FE0078039C1C78001C0E78001C0A9
:1040C000F78001C0778001DE77807FFE078001C026
:1040D000078003C3C78003E1E78003F8F78007FC8C
:1040E000E7F00FDE67F80FDC07F81FC0FF801DDF69
:1040F000E78039CC078071C0078061C0078001C0AC
:10410000078001C0078001E0078001E0078001C04F
:10411000070000000000BCBC00000000038030006D
:1041200003C03C0003C03C0003C0380003C038009B
:1041300003C0386003F838F07FFFFFF003C0380099
:1041400003C0380003C0380003DC39C003FFFFE0C0
:1041500007E383C03FC183C07FC1C3803BC1C78029
:1041600003C0EF0003C0EF0003C07E0003C07C006B
:1041700003C07C0003C0FE003BC3EF803F8787F88D
:104180000FBF03F8077800E000000000C4EA000059
:10419000000000C0000001F0000001E0000003C0CA
:1041A00000C003C001E007FFFFF00703C0000E03DB
:1041B000C0001E03C0003C03C3007303C78063FF3D
:1041C000FFC00383C0000383C0000383C0000383D8
:1041D000C0000383C0600383C0F07FFFFFF80003CB
:1041E000C0000003C0000003C0000003C0000003C3
:1041F000C0000003C0000003C0000003C0000000B6
:104200000000D4C2000000000000000000E0070031
:1042100000FFFF8000F0078000F0070000F00700BB
:1042200000F0070000F0070000FFFF0000FFFF00A4
:1042300000F0070000F0070000F0070000F00700A2
:1042400000E0070000FFFF0000E0070000E00700BB
:1042500000E0070001E0070001C0070001C00700FF
:10426000038007000780F7000F007F001E001F007B
:1042700038001C0000000000C8D50000000000004D
:1042800000000300030003FFFF8003FFFF800380A3
:1042900007000380070003800700038007000380F6
:1042A000070003800700038007000380070003FF67
:1042B000FF000380070003800700038007000380DE
:1042C00007000380070003800700038007000380C6
:1042D00007000380070003FFFF000380070003803F
:1042E0000700038007000300000000000000D0C7A3
:1042F00000000000000000000380070003FFFF80B3
:1043000003800700038007000380070003FFFF000E
:10431000038007000380070003FFFF0003FFFF0087
:10432000038707000387C00003C7810003C783809A
:1043300007FFFFC0070780000F0780001E078600E9
:104340001C078F003BFFFF80700780000007800084
:10435000000780E0000781F07FFFFFF80000000009
:1043600000000000C6DA0000000006000000079E02
:104370000000079E7FF0079E7FF0079FF8F03FFF49
:10438000F8F01F9E78F0079E78F0079E78F007FE01
:104390007FF0079E78F0079E78F0079E70F007FE8A
:1043A00070F0079E70F0079E7FF0079FFFF03FFFC1
:1043B000F0F0119070F003DCF0F003DEE0F0078F16
:1043C000E0F00F0FE0F00E07C0F01C038FF0380F85
:1043D00003E0201C01C000000000303132333435CE
:1043E0003637383941424344454640305800303131
:1043F000323334353637383961626364656640304C
:104400007800040000080000000000000002000125
:1044100000001000344400080000002028000000C4
:104420006C0100085C44000828000020B007000070
:10443000880100080024F4000000000000000000D3
:10444000000000000000000010000000010000005B
:0C445000FFFF0000000000000000000062
:0400000508000131BD
:00000001FF
