:020000040800F2
:1000000020B600202D020008412400089723000894
:100010003D24000875070008213100080000000099
:10002000000000000000000000000000C12D0008DA
:10003000790700080000000043240008C32D0008D1
:10004000470200084702000847020008470200086C
:10005000470200084702000847020008470200085C
:10006000470200084702000847020008470200084C
:10007000470200084702000847020008470200083C
:10008000470200084702000847020008470200082C
:10009000470200084702000847020008470200081C
:1000A000470200084702000847020008470200080C
:1000B0004702000847020008CD2D0008470200084B
:1000C00047020008470200084702000847020008EC
:1000D00047020008FD3000084702000847020008F8
:1000E00047020008470200084702000847020008CC
:1000F00047020008470200084702000847020008BC
:1001000047020008470200084702000847020008AB
:10011000470200084702000847020008470200089B
:10012000470200084702000847020008470200088B
:1001300000F002F800F06BF80AA090E8000C82448E
:100140008344AAF10107DA4501D100F060F8AFF26B
:10015000090EBAE80F0013F0010F18BFFB1A43F0A5
:100160000103184788840000A88400000A444FF067
:10017000000C10F8013B13F0070408BF10F8014B06
:100180001D1108BF10F8015B641E05D010F8016B4B
:10019000641E01F8016BF9D113F0080F1EBF10F8AF
:1001A000014BAD1C0C1B09D16D1E58BF01F801CBD2
:1001B000FAD505E014F8016B01F8016B6D1EF9D555
:1001C0009142D6D37047000000230024002500266A
:1001D000103A28BF78C1FBD8520728BF30C148BFAA
:1001E0000B607047642900F09F80752900F09C80A7
:1001F000782900F0D580632900F05082732900F03F
:100200005582002070471FB51FBD10B510BD00F00E
:100210007FFA1146FFF7F7FF03F002FD00F09DFAA9
:1002200003B4FFF7F2FF03BC02F09FFF09488047C9
:1002300009480047FEE7FEE7FEE7FEE7FEE7FEE7C8
:10024000FEE7FEE7FEE7FEE704480549054A064BE0
:1002500070470000CB2D00083101000820B00020BD
:1002600020B6002020B2002020B2002070470000FD
:100270000FB4044910B503AA029800F01BFA10BC91
:100280005DF814FB0800002070B50446856900681D
:10029000C10601D5302600E02026C00707D070BD7A
:1002A000D4E9012130469047206A401C20626D1E2F
:1002B000F6D570BD70B5044685690078C00707D1D2
:1002C00070BDD4E9012120209047206A401C2062A3
:1002D0006D1EF6D570BD70B50C460546012A05D0D9
:1002E0002878800600D5EA69002302E0012305E0B2
:1002F0005B1C934202D2E05C0028F9D1A869E618A1
:10030000C01AA861286A184428622846FFF7BCFF73
:1003100004E0D5E9012114F8010B9047B442F8D369
:100320002846FFF7C7FF70BD2DE9F04106460024BF
:1003300010687529314616A510D0AFF3008000284B
:1003400002DA404213A507E031688A0701D512A5F9
:1003500002E0490704D511A5012401E0AFF30080B4
:1003600000210A2206F1240709E0B0FBF2FCB0FBF1
:10037000F2F302FB1C00303078541846491C002868
:10038000F3D123462A463046BDE8F04100F023B9B8
:10039000000000002D0000002B00000020000000E5
:1003A00070B504460D4621461068AFF300802188E1
:1003B000090502D50F4A7A4402E00E4A7A440E3209
:1003C000002104F1240305E000F00F060009965D0A
:1003D0005E54491C0028F7D120780023000704D57B
:1003E000702D02D009B1022311322046BDE87040C1
:1003F00000F0F1B8468100002DE9F05F894604461F
:100400004FF0000ADFF874B1FB44C0F820A020468A
:10041000E1688847002874D0252806D0D4E9012156
:100420009047206A401C2062F1E700265F46204684
:10043000E16888472028054607DB312D05D2781969
:1004400010F8200C08B10643F1E7B00701D526F0FB
:100450000406C4F81CA00027C4F818A02A2D09D04F
:10046000284602F07BFE38B304EB8708303DC8F81D
:10047000185019E059F8041B204604EB87029161DB
:10048000E1688847012F054618D1E069002820DA85
:1004900026F020061DE0D8F8180000EB800005EBE0
:1004A00040003038C8F818002046E1688847054603
:1004B00002F054FE0028EED1012F0AD02E2D08D1D3
:1004C0002046E16888477F1C0546022F46F020063B
:1004D000C4DBA069002803DA404246F00106A061AF
:1004E000F00701D026F010066C2D0BD0682D09D036
:1004F0004C2D39D06A2D35D0742D35D07A2D33D08E
:1005000016E038E0E1682F4620468847B8420546A5
:1005100009D16C2F26D04FF48060E1680643204655
:100520008847054604E06C2F1AD04FF480700643CC
:100530000DB3A5F14100192802D8203546F4006614
:100540004A462946204626604E46FFF74BFE80B1BC
:1005500001280BD0F61D26F0070000F1080956E728
:100560004020E4E78020D8E70020D6E706F1040920
:100570004DE7284652E7206ABDE8F09F1C81000045
:100580004FF0000200B5134694469646203922BF2C
:10059000A0E80C50A0E80C50B1F12001BFF4F7AF77
:1005A000090728BFA0E80C5048BF0CC05DF804EB59
:1005B000890028BF40F8042B08BF704748BF20F8C7
:1005C000022B11F0804F18BF00F8012B70477047C5
:1005D0007047704770472DE9F0470D46994692469F
:1005E000044600F124080168880604D5E06921F07A
:1005F0001001216000E00120A84201DD471B00E05E
:100600000027A1697A1902EB0900081AA061207875
:10061000C00602D42046FFF737FE002608E0D4E9E2
:1006200001211AF806009047206A401C761C2062BF
:100630004E45F4DB2078C0060AD52046FFF724FE9D
:1006400006E0D4E9012130209047206A401C206256
:10065000381EA7F10107F4DC07E0D4E9012118F8FE
:1006600005009047206A401C2062281EA5F1010564
:10067000F3DC2046FFF71EFE2078000602D502209C
:10068000BDE8F0870120FBE710B5436913B1AFF374
:10069000008001E0FFF71FFE012010BD127800F17D
:1006A00024010A7000224A700122EDE711684FF020
:1006B000FF32E9E7074B70B50D467B4400F011F8B7
:1006C0000446284600F020F810B14FF0FF3070BD0E
:1006D000204670BD5F2B000001694A1C026108784A
:1006E000704700B58FB0CDE9013100210591054972
:1006F0007944CDE9031011466846FFF77DFE0FB03F
:1007000000BD0000E5FFFFFF007B00F080007047A8
:10071000754600F02BF8AE4605006946534620F0BA
:100720000700854618B020B5FFF78EFDBDE82040D4
:100730004FF000064FF000074FF000084FF0000B9D
:1007400021F00701AC46ACE8C009ACE8C009ACE850
:10075000C009ACE8C0098D46704710B50446AFF338
:1007600000802046BDE81040FFF75ABD00487047A2
:10077000C0AF002000BFFEE77047000070B5044620
:10078000B3F5804F13D1D1E9000540EA05108D681B
:1007900040EA05208D6928438D8940EA054054F8D8
:1007A0002250064E3540284344F8220003E06FF003
:1007B000704044F82200002070BD00000000F0CF1F
:1007C00070B50246086852F8200020F001000E685B
:1007D00042F826008868082801D1402300E0002361
:1007E000486818438E683043CE6830430E69304302
:1007F0004E693043CE6930430E6A30434E6A30430F
:100800008E6A3043CE6A30430E6B40EA0604886934
:100810000443486B0443074D45F4806545F4E025E7
:10082000086852F82000A84320430E6842F82600CA
:10083000002070BD7FFB080010B50346D1E900041D
:1008400040EA04108C6840EA04208C8940EA0444A1
:10085000088A401E44EA0054087D801E44EA006075
:100860008C692043541C53F8244004F04044204336
:10087000541C43F82400002010BD000070B504464D
:10088000002594F82100022803D00420A06301254C
:10089000C1E02068006820F00E0021680860206830
:1008A000006820F00100216808605C4920688842E7
:1008B00052D95A4978392068884201D1012047E04D
:1008C000564964392068884201D1102040E05349DC
:1008D00050392068884201D1801539E04F493C39B0
:1008E0002068884201D1801432E04C4928392068C0
:1008F000884202D14FF480302AE0484914392068F8
:10090000884202D14FF4801022E044492068884296
:1009100001D140041CE042492068884201D10120F5
:1009200016E03F4914312068884201D110200FE0C1
:100930003B4928312068884201D1801508E03849B8
:100940003C312068884201D1801401E04FF48030AE
:100950003349091F086051E03049783920688842DE
:1009600001D1012047E02D4964392068884201D136
:10097000102040E0294950392068884201D1801573
:1009800039E026493C392068884201D1801432E0A0
:10099000224928392068884202D14FF480302AE069
:1009A0001E4914392068884202D14FF4801022E099
:1009B0001A492068884201D140041CE01849206887
:1009C000884201D1012016E015491431206888427F
:1009D00001D110200FE0124928312068884201D14E
:1009E000801508E00E493C312068884201D180140E
:1009F00001E04FF48030094980394860012084F8D3
:100A0000210000BF002084F8200000BF606B10B1FF
:100A10002046616B8847284670BD00008000024078
:100A20000804024010B50446A0B202F0B5FB10BDA8
:100A30002DE9F847024600239C467BE14FF0010870
:100A400008FA03F4D1F8008008EA0400A0427DD13E
:100A5000DFF8F4A2D1F80480A8EB0A09D0453AD017
:100A600014DCB8F1030F50D009DCB8F1000F31D01D
:100A7000B8F1010F1CD0B8F1020F49D120E0B8F154
:100A8000110F18D0B8F1120F42D11EE0B9F5881F2E
:100A900025D006DCB9F5803F20D0B9F5801F37D1CD
:100AA0001AE0B9F5001F18D0B9F5041F30D117E0CE
:100AB000D1F80CC02DE0D1F80C8008F1040C28E02E
:100AC000D1F80C8008F1080C23E0D1F80C8008F173
:100AD0000C0C1EE000BF00BF00BF00BF00BF00BF86
:100AE000D1F80880B8F1000F02D14FF0040C0BE0F0
:100AF000D1F80880B8F1010F03D14FF0080C146150
:100B000002E04FF0080C546103E04FF0000C00E0ED
:100B100000BF00BFFF2801D8904601E002F10408A1
:100B20004646FF2802D84FEA830803E0A3F10808ED
:100B30004FEA88084746D6F800804FF00F0909FAB7
:100B400007F928EA09080CFA07F900E07AE048EA10
:100B50000908C6F80080D1F8048008F08058B8F180
:100B6000805F6FD100BFDFF8E481D8F8188048F0CB
:100B70000108DFF8D891C9F81880C846D8F818805D
:100B800008F00108CDF8008000BF00BF4FEAB93877
:100B90004FEA930958F829504FEA83784FEA1879B9
:100BA0004FF00F0808FA09F825EA0805DFF8A081D8
:100BB000424502D14FF0000824E0DFF89881424519
:100BC00002D14FF001081DE0DFF88C81424502D1CF
:100BD0004FF0020816E0DFF88481424502D14FF061
:100BE00003080FE0DFF87881424502D14FF0040896
:100BF00008E0DFF87081424502D14FF0050801E0BE
:100C00004FF006084FEA83794FEA197908FA09F894
:100C100048EA0505DFF850814FEA930948F8295062
:100C2000D1F8048008F48038B8F5803F0BD1DFF8A4
:100C30003C81D8F8008048EA0008DFF83091C9F814
:100C400000800AE075E0DFF82481D8F8008028EA07
:100C50000008DFF81891C9F80080D1F8048008F482
:100C60000038B8F5003F0ED1DFF8008108F1040824
:100C7000D8F8008048EA0008DFF8F09009F104098C
:100C8000C9F800800DE0DFF8E48008F10408D8F826
:100C9000008028EA0008DFF8D49009F10409C9F8B7
:100CA0000080D1F8048008F48018B8F5801F0ED1B8
:100CB000DFF8B88008F10808D8F8008048EA000892
:100CC000DFF8A89009F10809C9F800800DE0DFF805
:100CD0009C8008F10808D8F8008028EA0008DFF8AE
:100CE0008C9009F10809C9F80080D1F8048008F453
:100CF0000018B8F5001F0ED1DFF8708008F10C085D
:100D0000D8F8008048EA0008DFF8609009F10C0983
:100D1000C9F800800DE0DFF8548008F10C08D8F81D
:100D2000008028EA0008DFF8449009F10C09C9F8AE
:100D300000805B1CD1F8008028FA03F8B8F1000F9E
:100D40007FF47CAEBDE8F88700001110001002406F
:100D500000080140000C0140001001400014014057
:100D600000180140001C014008000140000401403F
:100D7000024693680B400BB1012000E00020704751
:100D800010B5C26821EA020302EA010443EA0443FF
:100D9000036110BD0AB1016101E00B0403617047FA
:100DA00001480068704700001000002003480068F8
:100DB0000349097808440149086070471000002081
:100DC0001800002010B50848006840F010000649DF
:100DD0000860052000F080F80F2000F007F800F010
:100DE0002BF8002010BD00000020024070B5044622
:100DF0000E4800784FF47A71B1FBF0F00C490968A5
:100E0000B1FBF0F5284601F073F808B1012070BD80
:100E1000102C07D200222146501E00F01EF8054873
:100E2000046001E00120F2E70020F0E71800002054
:100E300000000020140000207047014608460028EA
:100E400009DB00F01F0301229A4043099B0003F1D4
:100E5000E023C3F8002100BF70472DE9F05F804612
:100E60000D461646002702F05DF9074639462A4628
:100E7000334601F00700C0F1070ABAF1040F02D9A6
:100E80004FF0040A01E0C0F1070AD14600F1040A5C
:100E9000BAF1070F02D24FF0000A01E0A0F1030AF5
:100EA000D4464FF0010A0AFA09FAAAF1010A0AEA3D
:100EB000020A0AFA0CFA4FF0010B0BFA0CFBABF129
:100EC000010B0BEA030B4AEA0B042146404602F0F1
:100ED00031F9BDE8F09F000000BF00F00702064BAB
:100EE00019684FF6FF031940044B0B4343EA0221F4
:100EF000014B196000BF70470CED00E00000FA05DF
:100F000070B504460D460CB9012070BD5A48006802
:100F100000F00700A8420ED25748006820F00700F2
:100F20002843554908600846006800F00700A842B9
:100F300001D00120E9E7207800F0020002281DD14D
:100F4000207800F00400042805D14C48406840F4A3
:100F5000E0604A494860207800F00800082805D180
:100F60004648406840F460504449486043484068FF
:100F700020F0F000A168084340494860207800F064
:100F8000010078B36068012806D13C48006800F48D
:100F9000003090B90120B8E76068022806D13748D0
:100FA000006800F0007040B90120AEE733480068E7
:100FB00000F0020008B90120A7E73048406820F09F
:100FC0000300616808432D494860FFF7E9FE0646C3
:100FD00009E0FFF7E5FE801B41F28831884202D923
:100FE000032092E707E02548406800F00C006168A4
:100FF000B0EB810FEDD12048006800F00700A84257
:101000000ED91D48006820F0070028431A490860DF
:101010000846006800F00700A84201D0012074E7EC
:10102000207800F00400042807D11448406820F418
:10103000E060E168084311494860207800F008004A
:10104000082808D10D48406820F46050216940EA22
:10105000C1000A49486000F03FF808494968C1F3F7
:101060000311074A515CC8400649086006480068F9
:10107000FFF7BCFE002048E70020024000100240BD
:1010800050550008000000201400002001480068AE
:10109000704700000000002000B5FFF7F7FF04498B
:1010A0004968C1F30221034A515CC84000BD0000F9
:1010B000001002406055000800B5FFF7E7FF044943
:1010C0004968C1F3C221034A515CC84000BD000019
:1010D0000010024060550008F0B585B00FF26C0CAE
:1010E0009CE8E01001A8A0E8E0101CA52D68009580
:1010F00000210022002300240020194D696801F01E
:101100000C05F5B1042D02D0082D19D101E01548C8
:1011100019E001ADC1F38346AC5D01F4803555B1F2
:101120000F4D6D68C5F340451DF805200D4D654315
:10113000B5FBF2F302E00C4D04FB05F3184602E0A8
:1011400000BF084800BF00BF05B0F0BD02030405A2
:10115000060708090A0B0C0D0E0F10100102000003
:101160000010024000127A0000093D00F8B5044664
:101170000CB90120F8BD207800F00100002878D0DB
:10118000F848406800F00C0004280CD0F54840688E
:1011900000F00C00082811D1F248406800F48030BB
:1011A000B0F5803F0AD1EF48006800F40030002815
:1011B0005FD0606800285CD10120DBE700BF606879
:1011C000B0F5803F06D1E748006840F48030E5493B
:1011D000086028E0606858B9E248006820F4803070
:1011E000E04908600846006820F4802008601AE0A2
:1011F0006068B0F5A02F0BD1DA48006840F4802079
:10120000D84908600846006840F4803008600AE069
:10121000D448006820F48030D2490860084600684D
:1012200020F48020086000BF606888B1FFF7B8FD37
:10123000054606E0FFF7B4FD401B642801D90320F2
:1012400098E7C848006800F400300028F2D010E0A9
:10125000FFF7A6FD054606E0FFF7A2FD401B642848
:1012600001D9032086E7BF48006800F40030002859
:10127000F2D1207800F00200022857D1B948406826
:1012800000F00C0050B1B748406800F00C0008288E
:1012900018D1B448406800F4803098B9B14800686B
:1012A00000F0020020B12069012801D0012061E78F
:1012B000AC48006820F0F800616940EAC100A94923
:1012C000086033E02069E8B10120A7490860FFF712
:1012D00067FD054606E0FFF763FD401B022801D9C4
:1012E000032047E79F48006800F002000028F2D082
:1012F0009C48006820F0F800616940EAC100994903
:10130000086013E0002098490860FFF749FD054692
:1013100006E0FFF745FD401B022801D9032029E71D
:101320009048006800F002000028F2D1207800F018
:10133000080008282DD1A069B8B101208B490860A8
:10134000FFF72EFD054606E0FFF72AFD401B0228A9
:1013500001D903200EE78348406A00F0020000280C
:10136000F2D0012001F06EF813E000207F49086000
:10137000FFF716FD054606E0FFF712FD401B0228A9
:1013800001D90320F6E67748406A00F00200002801
:10139000F2D1207800F00400042873D100277148AE
:1013A000C06900F0805070B900BF6E48C06940F05D
:1013B00080506C49C8610846C06900F080500090B8
:1013C00000BF00BF01276A48006800F48070B0B910
:1013D0006748006840F4807065490860FFF7E0FCEA
:1013E000054606E0FFF7DCFC401B642801D903201A
:1013F000C0E65F48006800F480700028F2D000BFAB
:10140000E068012806D15748006A40F001005549BC
:10141000086227E0E06858B95248006A20F00100ED
:10142000504908620846006A20F00400086219E08A
:10143000E06805280BD14B48006A40F00400494998
:1014400008620846006A40F0010008620AE0454868
:10145000006A20F00100434908620846006A20F053
:101460000400086200BFE068A0B1FFF799FC0546E0
:1014700009E0FFF795FC401B41F28831884202D910
:10148000032077E622E03748006A00F002000028D7
:10149000EFD012E0FFF784FC054608E0FFF780FC80
:1014A000401B41F28831884201D9032062E62D4871
:1014B000006A00F002000028F0D1012F05D1294870
:1014C000C06920F080502749C86100BFE069C8B3F7
:1014D0002448406800F00C00082860D0E069022829
:1014E00048D1002020490866FFF75AFC054606E06F
:1014F000FFF756FC401B022801D903203AE61948A1
:10150000006800F000700028F2D1206AB0F5803F3A
:1015100007D11448406820F40030A16808431149FD
:101520004860D4E9080108430E49496821F4741160
:1015300008430C49486001200B490866FFF730FC5E
:10154000054607E03DE0FFF72BFC401B022801D9D0
:1015500003200FE60348006800F000700028F2D076
:101560002FE000000010024000004242800442428E
:1015700000700040002014490866FFF711FC054682
:1015800006E0FFF70DFC401B022801D90320F1E51E
:101590000E48006800F000700028F2D111E0E06908
:1015A000012800D1E6E50948466806F48031206A42
:1015B000814204D106F47011606A814201D0012099
:1015C000D8E50020D6E500000000424200100240AD
:1015D0000246506F000E0870506FC0F30F20488015
:1015E00092F874000306906F43EA10204860782058
:1015F000805C0872D06F000E4872D06F03028020AA
:10160000805843EA1060C86080208058C0F30350BF
:10161000087480208058C0F30B2048828020805CB2
:10162000C0F346000875012048750020704700008F
:1016300010B50246506E800F0870506EC0F3836084
:101640004870506EC0F301608870506E000CC87016
:10165000B2F86400000A087192F864004871906E54
:10166000000DC880906EC0F3034008726820805A55
:10167000C0F3C03048726820805AC0F3803088724E
:101680006820805AC0F34030C8726820805AC0F386
:101690000030087300204873506C002836D1682051
:1016A000805A8005030DD06E43EA90700861D06EB9
:1016B000C0F3C2600875D06EC0F302604875D06E8A
:1016C000C0F342508875D06EC0F38240C875D06EAA
:1016D000C0F3C23008760869401C50650B7E506D1F
:1016E00003F007039B1C01249C4060435065087A6B
:1016F00000F00F03012098409065D2E915035B0AC2
:101700005843D0654FF40073136621E0506C0128F4
:1017100013D16820805C8006830AD06E43EA1040B3
:1017200008610869401C83025365536DD3654FF40B
:1017300000739365936D13660AE02E4813689863EF
:10174000906B40F080509063012082F8340010BD0F
:101750006C20805AC0F3803001F8190F6C20805A39
:10176000C0F3C61048706C20805C00F07F00887069
:10177000106FC00FC870106FC0F341700871106F08
:10178000C0F382604871106FC0F383508871106F8E
:10179000C0F34050C87100200872106FC0F30040C1
:1017A00048727020805AC0F3C03088727020805A0E
:1017B000C0F38030C8727020805AC0F34030087384
:1017C0007020805AC0F3003048737020805AC0F3F4
:1017D000812088737020805AC0F30120C873702064
:1017E000805CC0F346000874012048741939002059
:1017F000ADE70000FF0540000246506C0860906CA9
:101800004860D06C8860106DC860506D0861906D44
:101810004861D06D8861106EC86100207047F8B5CE
:101820000446002000906946204601F0B1FA0546C2
:1018300015B1A06B2843A0630098C0F3432630463F
:10184000F8BD10B504460CB9012010BD94F8340061
:1018500020B900202077204600F054F8032084F8B7
:101860003400204600F00CF808B10120EDE700201C
:10187000A0632063012084F834000020E5E7000025
:1018800070B58AB004460020049005900690079039
:1018900008907620099007A807C88DE807002068FF
:1018A00004A90EC900F007FE064616B101200AB0D1
:1018B00070BD002012490860206800F016FE01206B
:1018C0000F49A039C1F8A000204601F0FBF90546F8
:1018D0003DB1012084F83400A06B2843A0630120AF
:1018E000E5E7204601F06CF905463DB1012084F89A
:1018F0003400A06B2843A0630120D8E70020D6E77E
:10190000A000304210B586B004464F492068884296
:101910007ED100BF4D48406940F480604B4948612A
:101920000846406900F48060019000BF00BF00BF1E
:1019300000BF0846806940F0100088610846806951
:1019400000F01000019000BF00BF00BF00BF00BF4B
:101950000846806940F0100088610846806900F000
:101960001000019000BF00BF00BF00BF00BF0846CD
:10197000806940F0100088610846806900F010001E
:10198000019000BF00BF00BF00BF00BF08468069D4
:1019900040F0100088610846806900F01000019056
:1019A00000BF00BF00BF00BF00BF0846806940F015
:1019B000100088610846806900F01000019000BFA7
:1019C00000BF00BF00BF00BF0846806940F0200094
:1019D00088610846806900F02000019000BF00BFC8
:1019E00000BF88150290022003900120049003207C
:1019F000059002A91648FFF71BF84FF400700290FB
:101A000002A91348FFF714F84FF48060029000E039
:101A100018E002A90E48FFF70BF84FF4006002909F
:101A200002A90B48FFF704F84FF48050029002A976
:101A30000748FEF7FDFF0420029002A90548FEF7C3
:101A4000F7FF00BF06B010BD00800140001002404B
:101A500000100140001401402DE9FF4F89B00446F9
:101A60008B469946DDF858A0FFF79AF902900B983B
:101A700000905D46BBF1000F07D1A06B40F0006005
:101A8000A06301200DB0BDE8F08F94F83400012868
:101A90007ED10020A063009800EB0901E06D814237
:101AA00005D9A06B40F00070A0630120EAE7032095
:101AB00084F8340000202168C862606C012802D0DC
:101AC0000098400200904FF40071206800F068FD1B
:101AD0008046B8F1000F0AD08E4821688863A06B59
:101AE00040EA0800A063012084F83400CAE74FF000
:101AF000FF3003904FEA4920049090200590022087
:101B00000690002007900120089003A9206800F0AB
:101B1000ADFCB9F1010F07D90220206320680099BC
:101B200000F08AFD804606E00120206320680099CD
:101B300000F09EFD8046B8F1000F0DD07548216879
:101B40008863A06B40EA0800A063012084F8340099
:101B500000202063012095E7049E3AE02068406B56
:101B600000F40040F0B1EEB10020019017E02068D1
:101B700000F0C4FC07462F706D1C761E380A2870D2
:101B80006D1C761E380C28706D1C761E380E00E019
:101B9000BAE028706D1C761E0198401C01900198D7
:101BA0000828E4D3FFF7FCF80299401A504502D206
:101BB000BAF1000F0DD1574821688863A06B40F03F
:101BC0000040A063012084F834000020206303203B
:101BD00058E72068406B40F22A3108400028BDD009
:101BE0002068406B00F48070D0B1B9F1010F17D9B3
:101BF000606C032814D0206800F0DEFD8046B8F148
:101C0000000F0DD0434821688863A06B40EA0800AC
:101C1000A063012084F8340000202063012031E714
:101C20002068406B00F0080068B13A48216888637A
:101C3000A06B40F00800A063012084F8340000206D
:101C4000206301201EE72068406B00F0020068B1AD
:101C5000304821688863A06B40F00200A063012037
:101C600084F834000020206301200BE72068406BDB
:101C700000F0200068B1274821688863A06B40F01D
:101C80002000A063012084F834000020206301209C
:101C9000F8E629E0206800F031FC07462F706D1C43
:101CA000761E380A28706D1C761E380C28706D1C44
:101CB000761E380E28706D1C761EFFF771F802999B
:101CC000401A504502D2BAF1000F0DD111482168D7
:101CD0008863A06B40F00040A063012084F83400CA
:101CE000002020630120CDE62068406B00F4001046
:101CF00008B1002ECED140F23A502168886301200D
:101D000084F834000020BDE6A06B40F00050A063D2
:101D10000120B7E6FF05400070B504460E461546A3
:101D20001CB1A069B0F5807F01D1012070BD94F88D
:101D3000410028B9002084F84000204600F020F837
:101D400004F108012068FEF73BFD3146A2682068D7
:101D5000FEF772FD2946236BD4E90102FEF70EFD62
:101D6000A168206850F8210040F00100A2682168B5
:101D700041F82200012084F841000020D6E700004D
:101D800010B586B0044600BF4B48406940F48070EF
:101D9000494948610846406900F48070019000BFDD
:101DA00000BF00BF0846806940F0200088610846F7
:101DB000806900F02000019000BF00BF00BF08460E
:101DC000806940F0400088610846806900F040006A
:101DD000019000BF00BF00BF00BF0846806940F00F
:101DE000200088610846806900F02000019000BF53
:101DF00000BF00BF00BF00BF0846806940F0200060
:101E000088610846806900F02000019000BF00BF93
:101E100000BF00BF00BF0846806940F48070886141
:101E20000846806900F48070019000BF00BF00BFC9
:101E300000BF00BF0846806940F480708861084692
:101E4000806900F48070019000BF00BF00BF88145B
:101E5000029002200390012004900320059002A923
:101E60001648FEF7E5FD2020029002A91448FEF76F
:101E7000DFFD1020029002A91148FEF7D9FD0120D4
:101E8000029002A90D48FEF7D3FD4CF203700290B8
:101E900002200390012004900320059002A9084825
:101EA000FEF7C6FD4FF68070029002A90548FEF7C6
:101EB000BFFD06B010BD0000001002400020014030
:101EC0000014014000180140042808D14FF0E0211F
:101ED000096941F004014FF0E022116107E04FF081
:101EE000E021096921F004014FF0E02211617047FF
:101EF00070B504462546681EB0F1807F01D30120ED
:101F00000FE0681E4FF0E02148610F214FF0FF30D5
:101F100001F010F900204FF0E021886107200861EE
:101F2000002070BD10B504460CB9012010BD94F816
:101F30003D0028B9002084F83C00204600F025F838
:101F4000022084F83D00211D206800F061FF01207F
:101F500084F8460000BF84F83E0001213F2001556F
:101F6000402001554120015500BF00BF012084F8E9
:101F7000420043200155442001554520015500BF32
:101F8000012084F83D000020D0E77047014691F819
:101F90003D00012801D001207047022081F83D005A
:101FA0000868C06840F001000B68D860164B0868EC
:101FB000984213D0154B086898420FD00868B0F1CA
:101FC000804F0BD0124B0868984207D0114B08681D
:101FD000984203D0104B086898420CD1086880687A
:101FE00000F00702062A0CD00868006840F00100E3
:101FF0000B68186005E00868006840F001000B6895
:1020000018600020C8E70000002C014000340140A7
:102010000004004000080040000C00407047000031
:102020002DE9F0470446206805682068C6682068E6
:1020300047694FF00008C14605F00F08B8F1000FDE
:102040000AD105F0200038B106F0200020B120466A
:1020500000F056FFBDE8F087B8F1000F71D007F02F
:10206000010018B906F4907000286AD005F001004C
:1020700030B106F4807018B1E06B40F00100E0630D
:1020800005F0040030B107F0010018B1E06B40F03A
:102090000200E06305F0020030B107F0010018B162
:1020A000E06B40F00400E06305F0080048B106F082
:1020B000200010B907F0010018B1E06B40F00800F3
:1020C000E063E06B68B305F0200028B106F0200063
:1020D00010B1204600F014FF20684069C0F3801959
:1020E000E06B00F0080010B9B9F1000F22D02046D3
:1020F00000F0E6FE2068406900F04000B0B12068C2
:10210000406920F0400021684861606B50B1184878
:10211000616B4863606BFEF7B1FB10B1606B416BA4
:1021200088470CE02046FFF779FF08E02046FFF7DC
:1021300075FF04E02046FFF771FF0020E06389E7A8
:10214000FFE705F0800030B106F0800018B12046AE
:1021500000F0A4FF7EE705F0400030B106F040003B
:1021600018B1204600F0BCFE74E700BF72E7000023
:10217000AD2E000810B504460CB9012010BDA069B1
:1021800000B100E000BF94F8390028B9002084F8BD
:102190003800204600F028F8242084F83900206810
:1021A000C06820F400502168C860204600F0F8FEA6
:1021B0002068006920F49040216808612068406927
:1021C00020F02A00216848612068C06840F400506F
:1021D0002168C8600020E063202084F8390084F87A
:1021E0003A000020CAE7000010B586B0044628492E
:1021F000206888424AD100BF00BF2648806940F06D
:102200000400244988610846806900F004000190B8
:1022100000BF00BF00BF00BF00BF0846806940F09C
:10222000040088610846806900F00400019000BF46
:1022300000BF00BF00BF00BF0846806940F4804077
:1022400088610846806900F48040019000BF00BFAB
:1022500000BF481502900220039001200490032043
:10226000059002A90C48FEF7E3FB4FF48060029052
:102270000020039002A90848FEF7DAFB2520FEF7AC
:10228000DCFD032211462520FEF7E7FD06B010BD58
:1022900000380140001002400008014010B503461C
:1022A00093F83A0020282FD101B10AB9012010BDBE
:1022B00000BF93F83800012801D10220F7E7012080
:1022C00083F8380000BF99629A85DA850020D863C8
:1022D000222083F83A0000BF002083F8380000BFB6
:1022E0001868C06840F480701C68E0601868406935
:1022F00040F001001C6860611868C06840F0200070
:102300001C68E0600020D2E70220D0E71D4A016887
:10231000914236D11C49098801F4004189BB1A4910
:10232000098801F4804171B1184909780A2903D05C
:102330000021154A118024E01349098841F4004125
:10234000114A11801DE0114909780D2906D10E4965
:10235000098841F480410C4A118012E00B49097848
:10236000094A1288C2F30D02094B9954064909889B
:10237000491C054A118011460988C72901DD002141
:1023800011807047003801400C0000200E00002032
:102390007C010020704700BFFEE7000000B5024648
:1023A000A2B9012001F0F6FB4FF4807001F0E2FBCE
:1023B000032001F0EFFB41F2300001F0DBFB4FF4B2
:1023C000C8700E494880F020088015E0012001F017
:1023D000E1FB4FF4807001F0CDFB032001F0DAFB4C
:1023E00041F2380001F0C6FBF020044948804FF468
:1023F000C87008800120887100BD00002400002002
:1024000010B501460023CA0AC1F3451401F01F03A9
:10241000500340EA841040EA430010BD30B5054641
:1024200000242846FFF7ECFF0446C4F34F2002497E
:1024300008800C8030BD00000008006C00BFFEE783
:102440007047704708B508490968C9084FF47A729F
:10245000B1FBF2F14143009100BF00BF00994A1E59
:1024600000920029F9D108BD0000002010B50246F5
:1024700000230868506248689062D1E90204204352
:102480000C6920434C6920430343D06A20F0F700D5
:102490001843D062002010BD01460869C0B27047E1
:1024A0000146086800F003007047024602F114007C
:1024B0004318186870470FB410B504460021DDE9D1
:1024C00003021043059A1043069A1043079A1043DB
:1024D000089A10430143606847F6FF62904308433F
:1024E0006060002010BC5DF814FB10B504460320AA
:1024F00020600220FEF796FA002010BD0146D1F8B8
:102500008000704710B50246002308689060D1E94A
:1025100001042043CC6820430C6920430343D06866
:102520006FF30B001843D060002010BD70B586B06B
:1025300005460C460194372002904020039000206D
:1025400004904FF48060059001A92846FFF7DAFF58
:1025500041F288323721284600F06CF906463046B1
:1025600006B070BD70B586B005460C460B482043DA
:1025700001902920029040200390002004904FF405
:102580008060059001A92846FFF7BCFF284600F0AF
:1025900059FA0646304606B070BD000000001080B3
:1025A00070B586B005460C4601941020029040207C
:1025B0000390002004904FF48060059001A9284604
:1025C000FFF7A0FF41F288321021284600F032F9CF
:1025D0000646304606B070BD30B585B004460020D2
:1025E00000900190029003904FF48060049069463F
:1025F0002046FFF787FF204600F0FCF805462846F6
:1026000005B030BD30B585B004464FF4D5700090AC
:102610000820019040200290002003904FF4806039
:10262000049069462046FFF76DFF204600F092FABD
:102630000546284605B030BD70B586B005460C4647
:1026400001941220029040200390002004904FF447
:102650008060059001A92846FFF754FF41F28832B7
:102660001221284600F0E6F80646304606B070BD56
:1026700070B586B005460C460194112002904020AA
:102680000390002004904FF48060059001A9284633
:10269000FFF738FF41F288321121284600F0CAF8CE
:1026A0000646304606B070BDF0B585B00646144605
:1026B0001D460094072001904020029000200390C6
:1026C0004FF48060049069463046FFF71BFF41F2EB
:1026D00088320721304600F0ADF80746384605B08D
:1026E000F0BD30B585B00446002000900220019076
:1026F000C0200290002003904FF48060049069464F
:102700002046FFF7FFFE204600F06AF905462846FE
:1027100005B030BD70B586B005460C460194092061
:102720000290C0200390002004904FF48060059038
:1027300001A92846FFF7E6FE284600F051F90646B3
:10274000304606B070BD70B586B005460C460194A3
:102750000D20029040200390002004904FF48060F0
:10276000059001A92846FFF7CDFE41F288320D21E0
:10277000284600F05FF80646304606B070BD70B5DA
:1027800086B005460C4600200190032002904020B0
:102790000390002004904FF48060059001A9284622
:1027A000FFF7B0FE22460321284600F077F90646DF
:1027B000304606B070BD000030B585B0044600203C
:1027C00000900C20019040200290002003904FF4D4
:1027D0008060049069462046FFF794FE044A0C216D
:1027E000204600F027F80546284605B030BD000019
:1027F00000E1F50501460E480068C0084FF47A7301
:10280000B0FBF3F041F2883300FB03F200BF101E6F
:10281000A2F1010202D14FF000407047486B00F076
:1028200080000028F3D0C52088630020F5E7000071
:10283000000000202DE9F04305460F46904666480B
:102840000068C0084FF47A71B0FBF1F000FB08F9A2
:1028500000BFB9F10000A9F1010903D14FF0004018
:10286000BDE8F0836E6B06F045000028F1D006F459
:1028700000600028EDD1686B00F0040010B1042066
:10288000A863EDE7686B00F0010010B10120A863B8
:10289000E6E7C520A8632846FFF7FEFDB84201D051
:1028A0000120DDE700212846FFF7FFFD04464B48E5
:1028B000204008B90020D3E704F00040B0F1004FF9
:1028C00002D14FF00070CBE704F08040B0F1804FB0
:1028D00001D14020C4E704F00050B0F1005F01D105
:1028E0008020BDE704F08050B0F1805F02D14FF44A
:1028F0008070B5E704F00060B0F1006F02D14FF4D2
:102900000070ADE704F08060B0F1806F02D14FF449
:102910008060A5E704F08070B0F1807F02D14FF4B1
:1029200000609DE704F40000B0F5000F02D14FF401
:10293000805095E704F48000B0F5800F02D14FF489
:1029400000508DE704F40010B0F5001F02D14FF4E1
:10295000804085E704F48010B0F5801F02D14FF469
:1029600000407DE704F48020B0F5802F02D14FF4C1
:10297000003075E704F40030B0F5003F02D14FF4A9
:1029800080206DE704F48030B0F5803F02D14FF431
:10299000002065E704F40040B0F5004F02D14FF489
:1029A00080105DE704F48040B0F5804F02D14FF411
:1029B000001055E704F40050B0F5005F02D14FF469
:1029C00080004DE704F00800082801D1000547E722
:1029D0004FF4803044E700000000002008E0FFFDD5
:1029E00010B5014616480068C0084FF47A74B0FB71
:1029F000F4F041F2883400FB04F300BF181EA3F189
:102A0000010302D14FF0004010BD4A6B02F04500B7
:102A10000028F3D002F400600028EFD1486B00F0EA
:102A2000040010B104208863EEE7486B00F0010059
:102A300010B101208863E7E7C52088630020E3E741
:102A40000000002010B5014613480068C0084FF48C
:102A50007A74B0FBF4F041F2883400FB04F300BF59
:102A6000181EA3F1010302D14FF0004010BD4A6BC4
:102A700002F045000028F3D002F400600028EFD1F6
:102A8000486B00F0040010B104208863EEE7C52015
:102A900088630020EAE70000000000202DE9F043F1
:102AA00004460F4690462A480068C0084FF47A71E1
:102AB000B0FBF1F041F2883100FB01F900BFB9F140
:102AC0000000A9F1010903D14FF00040BDE8F083F7
:102AD000666B06F045000028F1D006F4006000287F
:102AE000EDD1606B00F0040010B10420A063EDE7AD
:102AF000606B00F0010010B10120A063E6E7204602
:102B0000FFF7CAFCB84201D00120DFE7C520A0636F
:102B100000212046FFF7C9FC054605F4604020B9B6
:102B2000280CA8F800000020D0E705F48040B0F59C
:102B3000804F02D14FF40050C8E705F40040B0F5D3
:102B4000004F02D14FF48050C0E74FF48030BDE712
:102B50000000002010B5014618480068C0084FF476
:102B60007A74B0FBF4F041F2883400FB04F300BF48
:102B7000181EA3F1010302D14FF0004010BD4A6BB3
:102B800002F045000028F3D002F400600028EFD1E5
:102B9000486B00F0040010B104208863EEE7486B36
:102BA00000F0010010B101208863E7E7486B00F0F6
:102BB000400008B1402088630020DFE700000020CB
:102BC00030B58FB00446012003902068FFF768FC01
:102BD00018B94FF080600FB030BD606C03281BD077
:102BE0002068FFF77EFD05460DB12846F3E700217A
:102BF0002068FFF75AFC606704212068FFF755FC46
:102C0000A06708212068FFF750FCE0670C212068CE
:102C1000FFF74BFC80210851606C032807D003A903
:102C20002068FFF7ACFD05460DB12846D3E7606C80
:102C3000032820D0BDF80C1021655022125B11042E
:102C40002068FFF767FD05460DB12846C3E7002160
:102C50002068FFF72AFC606604212068FFF725FC46
:102C6000A06608212068FFF720FCE0660C212068A0
:102C7000FFF71BFC206704212068FFF716FC010DFD
:102C8000E16404A92046FEF7D3FC10B14FF0805058
:102C9000A1E75020005B01040A4600232068FFF7EB
:102CA00003FD05460DB1284695E7D4E90412A06955
:102CB000CDE90012029094E80F00FFF7FCFB002022
:102CC00089E70000F8B504460020009000260027A0
:102CD0002068FFF781FC05460DB12846F8BD206845
:102CE000FFF790FC054645B10021A1642068FFF77D
:102CF00073FC05461DB12846F0E70121A164A06CD4
:102D0000012808D100212068FFF710FC054615B105
:102D10004FF08050E2E71DE000212068FFF706FC3D
:102D200005460DB12846D9E718492068FFF71AFC77
:102D3000054615B14FF08050D0E700212068FFF71D
:102D4000B4FB0646012080EAD67080F001070098A7
:102D5000401C00904FF6FF710098884201D2002F6E
:102D6000DAD04FF6FF710098884202D34FF080709E
:102D7000B4E706F08040B0F1804F02D101206064DA
:102D800001E0002060640020A8E70000000010C1FE
:102D900070B504460D4615B94FF0006070BD502265
:102DA000125B11042068FFF7CEFC06460EB13046D8
:102DB000F4E700212068FFF778FB28600020EDE7AA
:102DC000704710B5FDF7F2FF10BD704710B50E4803
:102DD0000068C06800F0010078B10C4908698047BC
:102DE000002009490968486200BF64200649096853
:102DF000C86264210448C16000BF6FF0010002494D
:102E00000968086110BD0000700500206C000020FA
:102E100010B50268204B98420ED0204B98420BD040
:102E2000B0F1804F08D01E4B984205D01D4B984200
:102E300002D01D4B984203D122F070024B681A4316
:102E4000154B98420ED0154B98420BD0B0F1804FE5
:102E500008D0134B984205D0124B984202D0124B27
:102E6000984203D122F44072CB681A4322F08003C7
:102E70004C6943EA040202608B68C3620B68836298
:102E8000054B984202D0054B984201D10B69036370
:102E90000123436110BD0000002C014000340140BB
:102EA0000004004000080040000C004070B50546DA
:102EB0006C6A0020E085E0842046FFF7AFF870BD23
:102EC0000168C96821F490710268D160016849699C
:102ED00021F0010102685161202180F83A10704709
:102EE00010B504462068C06820F040002168C86022
:102EF000202084F839002046FFF74CFA002010BD4E
:102F000070B5044694F83A00222847D1A068B0F57D
:102F1000805F0CD1206950B90025A66A20684068FE
:102F2000C0F308003080A06A801CA06215E0A56A8A
:102F30000026A068B0F5805F03D0A06828B920699A
:102F400018B920684068287004E02068406800F0E4
:102F50007F002870A06A401CA062E08D401E80B2F5
:102F6000E085C8B92068C06820F020002168C860EA
:102F70002068C06820F480702168C86020684069BB
:102F800020F0010021684861202084F83A002046A2
:102F9000FFF7BCF9002070BD0020FCE70220FAE733
:102FA00070B504462168096921F44051E268114373
:102FB000226811612269A1681143626941EA020530
:102FC0002168C96841F20C62914329432268D160AB
:102FD0002168496921F44071A26911432268516155
:102FE0002D4A2168914202D1FEF766F801E0FEF712
:102FF00053F800EBC00101EB001162689200B1FBD5
:10300000F2F100EBC00202EB001263689B00B2FB1E
:10301000F3F26423B2FBF3F202EBC20303EB0212FE
:10302000A1EB8201322202EB01116422B1FBF2F129
:1030300001F0F00100EBC00202EB001263689B009C
:10304000B2FBF3F26423B2FBF3F201EB021200EBEA
:10305000C00101EB001163689B00B1FBF3F100EBD1
:10306000C00303EB00136668B600B3FBF6F36426F7
:10307000B3FBF6F303EBC30606EB0313A1EB8301EB
:10308000322303EB01116423B1FBF3F101F00F01D3
:1030900011442268916070BD00380140014691F8EA
:1030A0003900212828D18868B0F5805F0BD10869E4
:1030B00048B90A6A1088C0F308000B685860086AAB
:1030C000801C086205E00B6A581C086218780B68BF
:1030D0005860C88C401E80B2C88458B90868C0685F
:1030E00020F080000B68D8600868C06840F040009D
:1030F0000B68D860002070470220FCE710B5064836
:10310000FEF78EFF00BF012204490348FFF7C6F80F
:103110000028F8D110BD0000440200200E0000205D
:1031200000BFFEE702480068C0F3022070470000BD
:103130000CED00E010B5002804DB0A07130E054A69
:10314000135406E00A07140E034A00F00F031B1F76
:10315000D45410BD00E400E018ED00E030380A2837
:1031600001D2012070470020704700BF7047000067
:1031700010B5044600204FF0E0210861FEF7A4FEE0
:103180002046E11704EB5171C1F3CF01014A1180D0
:1031900010BD00000400002070B504464FF47A70A2
:1031A00094FBF0F594FBF0F100FB114603E00748B7
:1031B00000F00EF86D1E002DF9D12EB14FF47A718A
:1031C00006FB01F000F004F870BD000040420F0063
:1031D0000146114A12884A434FF0E0235A61002207
:1031E0009A611A46126942F001021A6100BF4FF05B
:1031F000E022106900F001021AB100F48032002AC6
:10320000F5D04FF0E022126922F001024FF0E023E6
:103210001A6100229A6170470400002000BF054A2D
:10322000126802F04002002AF9D0C2B2014B1B1D05
:103230001A6070470038014070B5044621460348C3
:10324000FEF7DAFA0546284670BD0000CC020020E1
:1032500010B50448FEF7E3FA042801D0012010BDA0
:103260000020FCE7CC02002000B585B000BF00BF05
:103270003648806940F00400344988610846806916
:1032800000F00400009000BF00BF00BF00BF00BFFF
:103290000846806940F0400088610846806900F077
:1032A0004000009000BF00BF00BF00BF00BF084645
:1032B000806940F0400088610846806900F0400065
:1032C000009000BF00BF00BF00BF00BF084680697C
:1032D00040F0400088610846806900F0400000909E
:1032E00000BF00BF00BF012001900020029002201B
:1032F00003900320049001A91548FDF799FB0420D1
:10330000019000200290012003900320049001A965
:103310001048FDF78DFB082001900020029001204D
:1033200003900320049001A90A48FDF781FB1020B7
:10333000019000200290012003900320049001A935
:103340000448FDF775FB05B000BD00000010024009
:10335000000801400018014070B50446002514B172
:1033600001202B4908702A480078002834D0012118
:103370002848FDF7FDFC01280ED004212648FDF762
:10338000F7FC48B108212448FDF7F2FC20B11021D8
:103390002148FDF7EDFCF8B90A20FFF7FDFE0020FB
:1033A0001B49087001211B48FDF7E2FC012800D1F0
:1033B000012504211848FDF7DBFC00B9022508218E
:1033C0001548FDF7D5FC00B9032510211248FDF77B
:1033D000CFFCD0B9042518E001210E48FDF7C8FC48
:1033E00098B904210C48FDF7C3FC01280DD1082130
:1033F0000948FDF7BDFC012807D110210648FDF75B
:10340000B7FC012801D102490870284670BD0000B0
:103410002C000020000801400018014070B506464D
:103420000F484088401E83B20D480088401E82B27B
:103430000021084600F018FA00240CE0002504E002
:103440003046FEF7EBFF681C85B205484088A8426D
:10345000F6DC601C84B202480088A042EEDC70BD3D
:103460002400002070B504460D4616462B46224621
:103470002946204600F0F8F9B0B2FEF7CFFF70BD44
:1034800000B58FB04FF02040E2490860E248486044
:10349000062088600021DF48C16001611021416180
:1034A00000218161C16141624FF48051816200213C
:1034B000C1624FF4804101630021416381630020B8
:1034C0000E9001200890002009900F200A90002003
:1034D00007900F20019002900520039001AA08A9EF
:1034E000CC48FEF719FC3220FFF756FE002000F012
:1034F00051FB00F0ABF9C949888008468188C8A013
:10350000FCF7B6FE002000F045FB002000F042FB77
:103510000A20FFF741FE002000F03CFB002000F0F5
:1035200039FB002000F036FB002000F033FBA42024
:1035300000F030FB012000F01DFB0A20FFF72CFEFD
:10354000602000F027FB4FF41C5000F013FB082014
:1035500000F020FB40F6080000F00CFB4FF4407038
:1035600000F018FB40F2091000F004FB40F20130BB
:1035700000F010FB47F60A6000F0FCFA40F202305F
:1035800000F008FB40F2047000F0F4FA40F203305F
:1035900000F000FB40F6111000F0ECFA4FF441701F
:1035A00000F0F8FA4FF4045000F0E4FA40F205306D
:1035B00000F0F0FA41F2091000F0DCFA40F20630B7
:1035C00000F0E8FA47F2074000F0D4FA40F2073082
:1035D00000F0E0FA40F60E2000F0CCFA4FF4427012
:1035E00000F0D8FA40F6011000F0C4FA40F20930B9
:1035F00000F0D0FA212000F0BDFA102000F0CAFA45
:10360000102000F0B7FA112000F0C4FA40F20220B6
:1036100000F0B0FA122000F0BDFA4FF4407000F054
:10362000A9FA132000F0B6FA072000F0A3FA0A2046
:10363000FFF7B2FD4FF4807000F0ACFA002000F00C
:1036400099FA40F2011000F0A5FA072000F092FA72
:103650004FF4817000F09EFA002000F08BFA40F2E7
:10366000031000F097FA002000F084FA4FF4207065
:1036700000F090FA002000F07DFAC820FFF78CFDE2
:103680004FF4807000F086FA4FF44C7000F072FA3C
:1036900040F2011000F07EFA40F2472000F06AFA92
:1036A0003220FFF779FD4FF4817000F073FA4DF28C
:1036B000B01000F05FFA3220FFF76EFD40F2031009
:1036C00000F068FA4FF4805000F054FA4FF4207084
:1036D00000F060FA4FF4464000F04CFAC820FFF7C3
:1036E0005BFD012000F056FA4FF4807000F042FAC2
:1036F000022000F04FFA4FF4007000F03BFA032074
:1037000000F048FA41F2300000F034FA092000F0ED
:1037100041FA012000F02EFA0A2000F03BFA0820BE
:1037200000F028FA0C2000F035FA002000F022FA10
:103730000D2000F02FFA002000F01CFA0E2000F0FF
:1037400029FA302000F016FA202000F023FA002099
:1037500000F010FA212000F01DFA002000F00AFA13
:10376000292000F017FA522000F004FA502000F04F
:1037700011FA002000F0FEF9512000F00BFAEF20C2
:1037800000F0F8F9522000F005FA002000F0F2F9FC
:10379000532000F0FFF940F23F1000F0EBF96120F8
:1037A00000F0F8F9002000F0E5F96A2000F0F2F9E5
:1037B000002000F0DFF9802000F0ECF9002000F09C
:1037C000D9F9812000F0E6F9002000F0D3F9822039
:1037D00000F0E0F95F2000F0CDF9932000F0DAF975
:1037E00040F2075000F0C6F9072000F0D3F94FF47B
:1037F000807000F0BFF93220FFF7CEFC222000F0ED
:10380000C9F90020FEF7CAFD4FF6FF70FFF706FE6C
:103810000FB000BD84020020040100A0240000209D
:103820006C63646465765F6964313A252378200DA2
:103830000A00000010B50246012000E050430B1EB4
:10384000A1F10104E1B2F9D110BD000005490988D8
:1038500048104FF6FF7101EA00200249098840EA4A
:10386000610070470008006C70B506460C461D46A6
:103870002E48807950BB4FF4047000F08BF930462D
:1038800000F078F940F2112000F084F9104600F0C1
:1038900071F940F2122000F07DF9204600F06AF93B
:1038A00040F2132000F076F9284600F063F94FF457
:1038B000007000F06FF9304600F05CF940F2012032
:1038C00000F068F9204600F055F929E040F2122096
:1038D00000F060F9304600F04DF940F2132000F09E
:1038E00059F9104600F046F94FF4047000F052F90F
:1038F000204600F03FF940F2112000F04BF9284635
:1039000000F038F940F2012000F044F9304600F0B0
:1039100031F94FF4007000F03DF9204600F02AF92B
:1039200040F2022000F036F970BD000024000020B3
:103930002DE9FC4F80460E4615461C46B346002036
:10394000019000902046E31704EB5373DB102146EF
:103950004FEAE47C04EB5C7C4FEAEC0CA4EBCC0C6F
:10396000BCF1000F02D04FF0010C01E04FF0000C51
:103970006344224604EBD27C4FEA6C0C03FB0CF34D
:10398000DBB20193A5F12000C5B20C2C06D0102C9F
:103990000BD0182C0ED0202C18D112E005EB4500CE
:1039A0002D4901EB8000009012E02C4800EB05103F
:1039B00000900DE005EBC500294901EB8000009067
:1039C00006E0284800EB8510009001E0BDE8FC8F80
:1039D00000BF00273AE0009810F807904FF0000A67
:1039E0002EE009F0800028B1314640460C9AFFF7DE
:1039F00039FD07E00B9828B91B483146026840465C
:103A0000FFF730FD4FEA49604FEA1069701C86B23B
:103A100016484088B04200DCD8E7A6EB0B00A04275
:103A20000AD15E4608F101001FFA80F80F480088AD
:103A3000404500DCCAE706E00AF1010000F0FF0A99
:103A4000BAF1080FCDDB00BF781CC7B201988742DE
:103A5000C1DB00BFBAE7000068550008DC59000868
:103A6000CC5F0008286D0008200000202400002002
:103A70002DE9FF4F83B0074691461E46DDE9105AF7
:103A80000020029000243AE0301B401EC1B20A2000
:103A9000FFF7D0FEB9FBF0F00A21B0FBF1F201FB19
:103AA00012080298B8B9701EA04214DDB8F1000FD8
:103AB0000FD10020AB4605EBDB71491001FB04710F
:103AC000CDE9000A88B22B4620220499FFF730FF87
:103AD00013E0012002900020AB4605EBDB7149109A
:103AE00001FB0471CDE9000A88B208F13001CAB2C5
:103AF0002B460499FFF71CFF00BF601CC4B2B44200
:103B0000C2DB07B0BDE8F08F2DE9FC4F04460D463F
:103B100090469946DDE90C7A0B9E04F0FF0B08EB0A
:103B200004001FFA80F809EB05001FFA80F917E07E
:103B3000444502DB5C46A81985B24D4500DB15E023
:103B40000020CDE9000A3A78334629462046FFF79F
:103B5000EFFE304606EBD07104EB61018CB27F1CA6
:103B600038787E2802DC38782028E1DA00BFBDE80A
:103B7000FC8F000001B5BDF80000001240000449B0
:103B80000880BDF800000006C00D088008BD0000D8
:103B90000008006C01B5BDF80000001240000449A7
:103BA0000880BDF800000006C00D088008BD0000B8
:103BB000FE07006C00B585B000BF00BF16488069E5
:103BC00040F01000144988610846806900F0100038
:103BD000009000BF00BF00BF012001900290039041
:103BE0000320049001A90D48FCF722FF0220019058
:103BF00001A90A48FCF71CFF00BF01221146074833
:103C0000FDF7C8F800BF00BF012202210348FDF7FD
:103C1000C1F800BF05B000BD001002400010014017
:103C20000EB50025FDF7CEF84FF4E01000F05CFB78
:103C30004820FFF79DFA4FF4E13000F089FB594826
:103C4000416848208847FFF7B5FFFFF719FCFFF7E9
:103C50000BFB002000F020F94FF4784052A1102215
:103C60001346CDE900210290C82232211E20FFF721
:103C70004BFF4FF478404EA110221346CDE90021AE
:103C80000290C82246211E20FFF73EFF4FF47840E5
:103C900049A110221346CDE900210290C8225A21E1
:103CA0001E20FFF731FF4FF4784047A11022134642
:103CB000CDE900210290C8226E211E20FFF724FFCB
:103CC00027E04FF4784045A110221346CDE90021AA
:103CD0000290C82282211E20FFF716FF4FF4FA70CF
:103CE000FFF75AFA4FF4784040A110221346CDE96D
:103CF00000210290C82282211E20FFF705FF4FF409
:103D0000FA70FFF749FA00BF01213C48FDF738F887
:103D100000BF00F081F90028D3D100F053FA1F2032
:103D200037A110221346CDE900210290C82282213A
:103D30001E20FFF7E9FE1F2035A110221346CDE912
:103D400000210290C82296211E20FFF7DDFE1F20D1
:103D50001021CDE900103448C16D006EA1FB0010A8
:103D6000030343EA1152052396218620FFF780FEC4
:103D700017E00020FFF7F0FA0446022C03D10121DE
:103D8000002000F08DF9681CC5B20A20FFF704FA84
:103D9000142D06D100BF01211848FCF7F1FF00BF28
:103DA0000025E6E76C00002053544D33320000003C
:103DB000534420544553540041544F4D40414C49C5
:103DC000454E54454B0000004B4559303A52656111
:103DD0006420536563746F722030000053442043A5
:103DE000617264204572726F72210000506C6561CF
:103DF000736520436865636B21200000001001405B
:103E000053442043617264204F4B20202020000047
:103E1000534420436172642053697A653A2020201C
:103E200020204D4200000000CC0200202DE9F0418E
:103E300004460E461548005D38B914481838016824
:103E4000204688470120BDE8F081114850F8240041
:103E5000B04219D90F4850F82400B6FBF0F10B48D6
:103E6000083850F8240030F81120002508E000231D
:103E70000648083850F824004F1920F817306D1CF8
:103E80009542F4DB0020DEE70220DCE77801002029
:103E9000F8840008F084000830B50446022508497B
:103EA00051F8241001FB05F2064951F824000021C5
:103EB00000F07EF8012103480830015530BD0000B4
:103EC000E8840008700100202DE9F04704460F4601
:103ED0000025A9462348005D20B92248183801680A
:103EE000204688471FB94FF0FF30BDE8F0871E48D5
:103EF00050F82400B7FBF0F61B4850F82400B7FB3D
:103F0000F0F100FB117000B1761C184850F8240045
:103F1000451E22E01348083850F8240030F81500F8
:103F200010B909F1010901E04FF00009B14513D1C1
:103F30004FF0000809E00B48083850F8240005EB62
:103F4000080220F8126008F10108B045F3D30648D2
:103F500050F824006843C8E76D1E002DDADA4FF0F0
:103F6000FF30C2E778010020F0840008E8840008F0
:103F700010B501460023002207E00B4850F821004D
:103F800030F8120000B15B1C521C084850F82100A8
:103F90009042F2D84FF47A705843044C54F82140C0
:103FA000B0FBF4F080B210BD70010020E88400087E
:103FB00030B5034601E003F8011B141EA2F1010213
:103FC000F9D130BD70B505460C4604B970BD054841
:103FD00050F82500261A31462846FFF727FF00BF74
:103FE000F4E700006801002070B504460E46314633
:103FF0002046FFF769FF0546681C08B9002070BD20
:10400000024850F824002844F9E700006801002025
:10401000014608687047000010B50B480B4908605E
:1040200000204860002109488160C16001614FF4AF
:104030008041416104218161FDF703FC04460CB11C
:10404000012010BD0020FCE700800140CC020020D0
:104050002DE9F84605460C4616464FF00009DFF8F4
:1040600038A0274672B60C4833463A462946009097
:104070000A48FDF7F1FC814606E0BAF10000AAF11A
:10408000010A01D14FF00109FFF7E2F80028F4D14D
:1040900062B64846BDE8F88600E1F505CC0200208E
:1040A0002DE9FE4307460C464FF000086102002050
:1040B000FFF79AFF0646224639463046FFF7C8FF0B
:1040C0008046B8F1000F29D11F201FA110221346EE
:1040D000CDE900210290C822AA211E20FFF714FD7D
:1040E00039461FA0FCF7C4F8002504E0715D21A04B
:1040F000FCF7BEF86D1CB5EB442FF7D31EA0FCF700
:10410000B7F81F2020A110221346CDE9002102900C
:10411000C822AA211E20FFF7F7FC0FE0414620A08D
:10412000FCF7A6F81F2021A110221346CDE900219B
:104130000290C822AA211E20FFF7E6FC314600208B
:10414000FFF740FFBDE8FE835553415254312053E1
:10415000656E64696E6720446174612E2E2E0000C6
:10416000534543544F5220256420444154413A0D55
:104170000A000000257820000D0A444154412045E2
:104180004E4445440D0A00005553415254312053CA
:10419000656E642044617461204F76657221000071
:1041A0006572723A25640D0A0000000053442072C3
:1041B000656164204661696C75726521202020204C
:1041C0002020000000B587B001A91F48FDF700FAC4
:1041D0001E48FFF731F81D48006810B1012813D1BF
:1041E0000EE01A48406818B919A0FCF741F806E03B
:1041F00016484068012802D11AA0FCF739F804E0FB
:104200001DA0FCF735F800E000BF00BF00BF9DF81F
:1042100004101EA0FCF72CF80C48C16822A0FCF783
:1042200027F80948C26D006EA2FB0020030343EA91
:10423000125121A0FCF71CF80448416924A0FCF7A6
:1042400017F807B000BD0000CC020020500300208A
:104250004361726420547970653A53445343205645
:10426000310D0A004361726420547970653A5344F9
:1042700053432056320D0A00436172642054797012
:10428000653A534448430D0A0000000043617264DC
:10429000204D616E75666163747572657249443A4A
:1042A00025640D0A000000004361726420524341FE
:1042B0003A25640D0A000000436172642043617076
:1042C00061636974793A2564204D420D0A0000004B
:1042D0004361726420426C6F636B53697A653A255F
:1042E000640D0A0D0A00000030B58FB005460124A8
:1042F000282105A8FCF744F914216846FCF740F989
:1043000001200590000406900020079002200C90E8
:10431000C1030D910E9505A8FCF728FF04460CB1CA
:1043200000BFFEE70F2000900220019000200290C5
:104330004FF4806003900020049002216846FCF74F
:10434000DFFD04460CB100BFFEE70FB030BD00003A
:1043500010B5044609480A4908600846446000212F
:104360008160C160016181610C214161FDF702FF43
:10437000012204490248FDF791FF10BD00380140B9
:10438000440200200E00002030B595B0054613AB66
:1043900012AA09A9284600F03FFA044614B12046A3
:1043A00015B030BD0020149026E0224909689DF820
:1043B000502001EBC20113AB11AA486801A900F01B
:1043C0002BFA04460CB12046EAE709A901A800F03F
:1043D000AFFC60B99DF844009DF84810884201DDAB
:1043E0000220DDE79DF85000124988750AE09DF82B
:1043F0005000401CC0B214900E48007D9DF8501033
:104400008842D2DC00BF0B48007D9DF850108842E6
:1044100001D10420C4E714A9284600F0DDFA0446BF
:104420000CB12046BCE79DF85000024948750020B9
:10443000B6E700006C0000202DE9F0419AB09C48DE
:10444000847D007DA04202DC1AB0BDE8F08198496D
:10445000096801EBC40106AB07AA486808A900F087
:10446000DBF908A993A0FBF703FF002644E090487E
:10447000008B0121B1400840D8B122218FA0FBF769
:10448000F7FE304600F042FB89492431471839468F
:104490008BA0FBF7EDFE222188A0FBF7E9FE30465A
:1044A00000F034FB82492431084410A941F8260069
:1044B00018E0304600F02AFB7D492431085810A945
:1044C00041F826007A48C07D30B910A850F826106F
:1044D0007CA0FBF7CDFE05E010A850F826107AA0CE
:1044E000FBF7C6FE9DF81C00401EB04202D078A02B
:1044F000FBF7BEFE701CC6B29DF81C008642B6DB00
:1045000074A0FBF7B5FE01F007F86948407D0B2861
:104510000DD2DFE800F0060D151E27323F4E5F7208
:1045200087006349096851F834008047054690E0E8
:104530005F4A126852F8341010988847054688E0A0
:104540005B4B1B6853F83420DDE9100190470546AA
:104550007FE0574F3F6857F8343010A807C8984796
:10456000054676E0DFF848C1DCF800C05CF834703E
:1045700010A80FC8B84705466BE01498DFF830C1A3
:104580000090DCF800C05CF8347010A80FC8B84781
:1045900005465EE0DDE91401DFF814C1CDE9000154
:1045A000DCF800C05CF8347010A80FC8B8470546A6
:1045B0004FE0DDE914121698DFF8F4C0CDE90012DF
:1045C0000290DCF800C05CF8347010A80FC8B8473F
:1045D00005463EE0DDE91423DDE91610DFF8D0C022
:1045E000CDE90023CDE90210DCF800C05CF834709E
:1045F00010A80FC8B84705462BE0DDE91523DDE913
:104600001710CDE90123CDE903101498DFF8A0C0FD
:104610000090DCF800C05CF8347010A80FC8B847F0
:10462000054616E0DDE91623DDE91810CDE9022381
:10463000CDE90410DDE91401DFF874C0CDE9000113
:10464000DCF800C05CF8347010A80FC8B847054605
:1046500000BF00BF00F00EFF9DF8180001280CD12C
:104660001348C07D20B929461BA0FBF701FE07E0D7
:1046700029461BA0FBF7FCFD02E018A0FBF7F8FDA4
:104680000B4890F8EC0088B10948D0F8F0000A21F6
:10469000B0FBF1F201FB12070548D0F8F000B0FBC7
:1046A000F1F83A46414611A0FBF7E2FD00BFCBE628
:1046B0006C0000200D0A257328000000256300000F
:1046C00025730000256C6400305825580000000058
:1046D0002C000000290000003D256C753B0D0A00F0
:1046E0003D305825583B0D0A0000000046756E63AA
:1046F00074696F6E2052756E2054696D653A256439
:104700002E2531646D730D0A00000000F0B50346DC
:10471000154600200022002600245BE01F782C2F85
:1047200001D104B901221F78292F01D01F780FB9B8
:1047300004B950E0002E3AD11F78302F02DB1F78E9
:10474000392F17DD1F782D2F14D01F782B2F11D064
:104750001F78612F02DB1F78662F0BDD1F78412F3A
:1047600002DB1F78462F05DD1F78582F02D01F78F7
:10477000782F0CD102B12EE01F78612F03DB1F7858
:10478000203F0F7001E01F780F70491C1FE01F7859
:10479000222F04D102B11EE00126012417E01F7868
:1047A000202F14D01F782C2F11D0FF2613E01F7854
:1047B000222F00D1002402B10DE044B11F785C2FFC
:1047C00002D15B1C471CF8B21F780F70491C471CB4
:1047D000F8B25B1CA2E700BF00270F702E70F0BD7F
:1047E00010B50446002010700BE020780870641C9F
:1047F000491C1078401C10701078984201DB012091
:1048000010BD2078202802D020780028EDD100208B
:10481000087000BFF4E700002DE9FF4F85B0804627
:1048200089460027002004900390012002904FF059
:10483000000B002544461DE02078202816D005F006
:104840007F00052812DA0DB945F0800505F07F00DC
:10485000042803D120782A2800D00EE0207805F023
:104860007F010DF80100681CC5B202E0852D00D162
:1048700003E0641C20780028DED100BF8DB1002049
:1048800005F07F010DF8010051A1684600F050FAD3
:1048900018B900210898017002E001210898017000
:1048A00000254FF0000A444614E0641C0AF10100A0
:1048B00000F0FF0A2078202802D020782A2809D189
:1048C000204600F0A7F90646282E03D02A2E01D054
:1048D000CDF810A02078282802D020780028E4D134
:1048E0004446049810B10498401C04444FF0000A58
:1048F000002654E0207810B94FF0010A50E02078EB
:10490000282803D116B9781CC7B213E020782928CB
:1049100008D13EB917B1781EC7B201E04FF0010AC5
:1049200047B93DE02078222804D10EB9012000E0EB
:104930000020064647B9207820282FD0207889F813
:10494000000009F1010929E020782C2804D1012078
:104950000290681CC5B214E02078202811D020787D
:1049600028280ED04DB9BBF1050F06DA20780DF8D6
:104970000B000BF1010000F0FF0B0298401CC0B2CD
:104980000290012F0AD10298022807D10298401CF8
:10499000C0B202900398401CC0B20390641CA9E707
:1049A00000BF0398012809D100200DF80B0008A1D1
:1049B000684600F0BDF908B90020039007990398F4
:1049C0000870002089F80000504609B0BDE8F08F5B
:1049D000766F6964000000002DE9F043B5B005462C
:1049E0000F460024002604E000213D488155701C3C
:1049F000C6B20A2EF8DB06E06D1C287818B9012033
:104A000035B0BDE8F08328782828F5D16D1C61E029
:104A100034AA69462846FFF779FE064635449DF8D4
:104A2000D00020B1012827D0FF284CD149E09DF8C3
:104A3000000000B333A9684600F0F7F806460EB14F
:104A40000220DDE7204600F061F825490A31339A5B
:104A50000A50A1F12400008B0121A1408843204984
:104A60001A39088304211E480155601CC4B20A2C5F
:104A700001DD0320C4E726E0684600F075F9401C1C
:104A800000F0FF08204600F041F815490A3100EB1C
:104A900001094946684600F05CF911481A38018B53
:104AA0000120A040014388B20D491A3908830C48FF
:104AB00000F80480601CC4B20A2C01DD03209FE7CB
:104AC00001E002209CE700BF2878292801D028783F
:104AD00000B900E09CE700BF3C70002090E70000B8
:104AE000860000200020074A128802F400423AB1F2
:104AF000044A11780022044B5A541846014B1A807C
:104B0000704700000C0000207C01002002460020BD
:104B1000002105E0044B5B5C0344D8B24B1CD9B2C6
:104B20009142F7DB704700008600002010B5044674
:104B300004EBC40000EB04100122C2EB800081B240
:104B40004FF47A7000F0B8FC01200149C87510BD1F
:104B50006C00002010B50246012000E050430B1EFF
:104B6000A1F10104E1B2F9D110BD000070B5002639
:104B7000FFF7B8FF064606B970BD17488168304692
:104B8000884704461CB91449C868804721E030466C
:104B900000F0F6F80546012D00D02C46CCB1012CD2
:104BA00006D0022C08D0032C0AD0042C10D10BE024
:104BB0000AA0FBF75DFB0BE00BA0FBF759FB07E03E
:104BC0000CA0FBF755FB03E00DA0FBF751FB00BF6A
:104BD00000BF00BFD0E700006C000020BAAFCAFDE4
:104BE000B4EDCEF3210D0A00B2CECAFDB4EDCEF382
:104BF000210D0A00B2CECAFDCCABB6E0210D0A00F1
:104C0000CEB4D5D2B5BDC6A5C5E4B5C4BAAFCAFD4C
:104C1000210D0A000146491C00E0491C08782028A3
:104C200001D10029F9D1087870472DE9F04F0546E8
:104C30000F4600264FF00A09B3462C460020386084
:104C400034E02078392802DC2078302811DA2878FE
:104C50002D2802D028782B2800D156B1207846285C
:104C600002DC2078412804DA2078582817D1012E58
:104C700015D12078412801DB4FF0100928782D2824
:104C800003D14FF0020B6D1C0FE028782B2803D1C5
:104C90004FF0010B6D1C08E0701CC6B205E02078D7
:104CA00000B904E00120BDE8F08F641CC9E700BF33
:104CB0002C46B9F1100F0FD1032E01DA0220F2E7D2
:104CC0002078302806D16078582803D1A41CB01E63
:104CD000C6B204E00320E6E70EB90420E3E71BE0D8
:104CE0000EB1701EC6B22078392806DC2078302834
:104CF00003DB2078A0F1300A02E02078A0F1370A27
:104D000031464846FFF726FF39680AFB0010386035
:104D1000641C207800B900E0E2E700BFBBF1020F9D
:104D200004D13868C0F10008C7F800800020BAE755
:104D300002460AE010780B78984201D001207047B3
:104D4000107800B902E0521C491CF3E700BF0020B4
:104D5000F5E706E002780A70027802B902E0401C2A
:104D6000491CF7E700BF70470146002005E00A78BC
:104D700002B903E0421CD0B2491CF8E700BF7047FB
:104D800010B58CB004461E230BAA03A92046FFF7DA
:104D900027FD0090009810B101200CB010BD9DF8C7
:104DA0002C00044400200B900EE040489DF82C207D
:104DB00050F8221003A8FFF7BBFF00B908E09DF8E8
:104DC0002C00401CC0B20B909DF82C000728ECD39F
:104DD00000BF9DF82C00072863D2DFE800F004052F
:104DE0003C5E6564630000BF31A0FBF741FA31A06F
:104DF000FBF73EFA3FA0FBF73BFA4EA0FBF738FA71
:104E00005CA0FBF735FA6BA0FBF732FA79A0FBF751
:104E10002FFA87A0FBF72CFA8CA0FBF729FA94A0B5
:104E2000FBF726FA98A0FBF723FA9DA0FBF720FAE0
:104E3000A2A0FBF71DFAA8A0FBF71AFAB4A0FBF793
:104E400017FAC1A0FBF714FACCA0FBF711FAD8A00F
:104E5000FBF70EFAA2E216A0FBF70AFAE4A0FBF7B2
:104E600007FA00200B900EE0F14800689DF82C2016
:104E700000EBC2004168EFA0FBF7FAF99DF82C00A7
:104E8000401CC0B20B90EA48007D9DF82C1088426F
:104E9000EADC07A0FBF7ECF980E205A0FBF7E8F9F4
:104EA000CCE179E24DE221E2F4E1000030000020A3
:104EB0000D0A00002D2D2D2D2D2D2D2D2D2D2D2DBF
:104EC0002D2D2D2D2D2D2D2D2D2D2D2D55534D4190
:104ED00052542056332E352D2D2D2D2D2D2D2D2D8B
:104EE0002D2D2D2D2D2D2D2D2D2D2D2D2D2D2D20FF
:104EF0000D0A00002020202055534D415254CAC7AE
:104F0000D3C9414C49454E54454BBFAAB7A2B5C47D
:104F1000D2BBB8F6C1E9C7C9B5C4B4AEBFDAB5F7FC
:104F2000CAD4BBA5BDBBD7E9BCFE2CCDA8B9FD201A
:104F30000D0A0000CBFC2CC4E3BFC9D2D4CDA8B964
:104F4000FDB4AEBFDAD6FACAD6B5F7D3C3B3CCD068
:104F5000F2C0EFC3E6B5C4C8CEBACEBAAFCAFD2C14
:104F6000B2A2D6B4D0D02ED2F2B4CB2CC4E3BFC9F7
:104F70000D0A0000D2D4CBE6D2E2B8FCB8C4BAAF76
:104F8000CAFDB5C4CAE4C8EBB2CECAFD28D6A7B3E1
:104F9000D6CAFDD7D62831302F3136BDF8D6C62C2B
:104FA000D6A7B3D6B8BACAFD29A1A2D7D6B7FBB443
:104FB000AE0D0A00A1A2BAAFCAFDC8EBBFDAB5D8E0
:104FC000D6B7B5C8D7F7CEAAB2CECAFD292CB5A59B
:104FD000B8F6BAAFCAFDD7EEB6E0D6A7B3D6313031
:104FE000B8F6CAE4C8EBB2CECAFD2CB2A2D6A7B3BB
:104FF000D60D0A00BAAFCAFDB7B5BBD8D6B5CFD467
:10500000CABE2ED6A7B3D6B2CECAFDCFD4CABEBDB5
:10501000F8D6C6C9E8D6C3B9A6C4DC2CD6A7B3D681
:10502000BDF8D6C6D7AABBBBB9A6C4DC2E0D0A00F4
:10503000BCBCCAF5D6A7B3D63A7777772E6F706522
:105040006E6564762E636F6D0D0A000055534D41F9
:105050005254D3D037B8F6CFB5CDB3C3FCC1EE2888
:10506000B1D8D0EBD0A1D0B4293A0D0A000000008D
:105070003F3A202020202020BBF1C8A1B0EFD6FA73
:10508000D0C5CFA20D0A000068656C703A202020C0
:10509000BBF1C8A1B0EFD6FAD0C5CFA20D0A00006F
:1050A0006C6973743A202020BFC9D3C3B5C4BAAFAA
:1050B000CAFDC1D0B1ED0D0A0A00000069643A20B2
:1050C00020202020BFC9D3C3BAAFCAFDB5C449440C
:1050D000C1D0B1ED0D0A0A006865783A2020202081
:1050E000B2CECAFD3136BDF8D6C6CFD4CABE2CBAB0
:1050F000F3B8FABFD5B8F12BCAFDD7D6BCB4D6B435
:10510000D0D0BDF8D6C6D7AABBBB0D0A0A00000096
:105110006465633A20202020B2CECAFD3130BDF84C
:10512000D6C6CFD4CABE2CBAF3B8FABFD5B8F12BC5
:10513000CAFDD7D6BCB4D6B4D0D0BDF8D6C6D7AA8F
:10514000BBBB0D0A0A00000072756E74696D653A8A
:10515000312CBFAAC6F4BAAFCAFDD4CBD0D0BCC6DE
:10516000CAB13B302CB9D8B1D5BAAFCAFDD4CBD077
:10517000D0BCC6CAB13B0D0A0A000000C7EBB0B4F0
:10518000D5D5B3CCD0F2B1E0D0B4B8F1CABDCAE441
:10519000C8EBBAAFCAFDC3FBBCB0B2CECAFDB2A267
:1051A000D2D4BBD8B3B5BCFCBDE1CAF82E0D0A0001
:1051B0002D2D2D2D2D2D2D2D2D2D2D2D2D2D2D2D1F
:1051C0002D2D2D2D2D2D2D2D2D2DD5FDB5E3D4AD32
:1051D000D7D32D2D2D2D2D2D2D2D2D2D2D2D2D2DAF
:1051E0002D2D2D2D2D2D2D2D2D2D2D200D0A000099
:1051F0002D2D2D2D2D2D2D2D2D2D2D2D2D2D2D2DDF
:105200002D2D2D2D2D2D2D2D2DBAAFCAFDC7E5B578
:10521000A52D2D2D2D2D2D2D2D2D2D2D2D2D2D2D46
:105220002D2D2D2D2D2D2D2D2D2D2D2D200D0A002B
:105230006C00002025730D0A0000000059A0FBF748
:1052400017F800200B901AE0664909689DF82C2099
:1052500001EBC20101AB02AA486803A9FFF7DCFA1F
:10526000604800689DF82C1050F8312003A95EA01A
:10527000FAF7FEFF9DF82C00401CC0B20B90594875
:10528000007D9DF82C108842DEDCAFF2DC30FAF7AE
:10529000EFFF83E0AFF2E830FAF7EAFF0BAA03A9C9
:1052A0002046FFF733FA9DF82C00C8B9694603A8D9
:1052B000FFF7BBFC0B909DF82C0020B94FA0009984
:1052C000FAF7D6FF0EE09DF82C00042801D002204A
:1052D00063E54DA0FAF7CCFF01204249C87501E013
:1052E00002205AE547A0FAF7C3FF57E045A0FAF7B6
:1052F000BFFF0BAA03A92046FFF708FA9DF82C0070
:10530000C8B9694603A8FFF790FC0B909DF82C00E4
:1053100020B942A00099FAF7ABFF0EE09DF82C00EF
:10532000042801D0022038E53FA0FAF7A1FF0020B1
:105330002C49C87501E002202FE532A0FAF798FF4A
:105340002CE030A0FAF794FF0BAA03A92046FFF740
:10535000DDF99DF82C00C8B9694603A8FFF765FC84
:105360000B909DF82C0078B91E49009881F8EC004C
:10537000084690F8EC0018B130A0FAF779FF07E082
:1053800035A0FAF775FF03E0022006E5022004E5E8
:105390001CA0FAF76DFF01E00120FEE400BF002031
:1053A000FBE400002D2D2D2D2D2D2D2D2D2D2D2D02
:1053B0002D2D2D2D2D2D2D2D2D2D2D2D2DBAAFCA71
:1053C000FD204944202D2D2D2D2D2D2D2D2D2D2D24
:1053D0002D2D2D2D2D2D2D2D2D2D2D2D2D2D2D2DFD
:1053E000200D0A006C000020257320696420697379
:1053F0003A0D0A3058253038580D0A004845583AB9
:10540000305825580D0A00003136BDF8D6C6B2CE48
:10541000CAFDCFD4CABE210D0A0000004445433A5C
:10542000256C750D0A0000003130BDF8D6C6B2CE2D
:10543000CAFDCFD4CABE210D0A00000052756E20ED
:1054400054696D652043616C63756C6174696F6E3E
:10545000204F4E0D0A00000052756E2054696D6594
:105460002043616C63756C6174696F6E204F4646B2
:105470000D0A00000E480068006900F0010040B10C
:105480000C48D0F8F0004FF6FF7108440949C1F804
:10549000F0000848D0F8F00005490968496A084456
:1054A0000449C1F8F0000846D0F8F0007047000049
:1054B000700500206C00002038B504460D4600BF82
:1054C00000BF1248C06940F004001049C861084696
:1054D000C06900F00400009000BF00BF00BF0C488E
:1054E0000C4908600846456000218160C460016184
:1054F000FCF718FD0748FCF749FD032211461E2062
:10550000FBF7ABFC1E20FBF798FC38BD00100240F7
:1055100000080040700500206FF00100094909688B
:10552000086100BF000C07490968C86201460548C8
:10553000C16000BF00200349096848620249C1F800
:10554000F0007047700500206C000020016070477B
:105550000000000000000000010203040607080923
:105560000000000001020304000000000000000031
:1055700000000000000000003F40000000000000AC
:1055800000003000400030004000000009000BC067
:105590003D000BC03D00090018C024407FE02240C0
:1055A00031800000180024C01B000D8032400180B3
:1055B00003801C4027401C80074000401000600012
:1055C00000000000000000000000000000001F803C
:1055D000204040200000402020401F8000000000AC
:1055E000090006001F8006000900000004000400F6
:1055F0003F80040004000000001000600000000074
:105600000000000004000400040004000400000086
:10561000000000400000000000000000002001C069
:1056200006003800400000001F802040204020403D
:105630001F800000000010403FC00040000000003C
:1056400018C0214022402440184000001080204013
:10565000244024401B80000002000D0011003FC0C8
:10566000014000003C80244024402440238000006E
:105670001F8024402440344003800000300020007C
:1056800027C03800200000001B8024402440244014
:105690001B8000001C0022C0224022401F8000000E
:1056A00000000000084000000000000000000000B2
:1056B0000460000000000000000004000A00110067
:1056C000208040400900090009000900090000008D
:1056D00000004040208011000A0004001800200053
:1056E00023402400180000001F802040274029404C
:1056F0001F400000004007C039000F0001C00040FB
:1057000020403FC0244024401B8000001F802040D8
:10571000204020403080000020403FC020402040FA
:105720001F80000020403FC024402E4030C00000B9
:1057300020403FC024402E00300000000F001080A9
:10574000204022403380020020403FC0040004007B
:105750003FC02040204020403FC02040204000006B
:105760000060202020203FC02000200020403FC0BB
:1057700024400B0030C0204020403FC0204000406B
:10578000004000C03FC03C0003C03C003FC00000E0
:1057900020403FC00C4023003FC020001F8020401D
:1057A000204020401F80000020403FC024402400B3
:1057B000180000001F802140214020E01FA00000B1
:1057C00020403FC02440260019C0004018C024409B
:1057D0002440224031800000300020403FC0204063
:1057E0003000000020003F80004000403F8020004B
:1057F00020003E0001C0070038002000380007C02C
:105800003C0007C038000000204039C0060039C005
:10581000204000002000384007C038402000000031
:10582000304021C02640384020C000000000000069
:105830007FE0402040200000000070000C0003804A
:10584000004000000000402040207FE000000000F9
:1058500000002000400020000000000000100010A8
:1058600000100010001000100000000040000000B8
:1058700000000000000002800540054003C0004019
:1058800020003FC00440044003800000000003806B
:10589000044004400640000000000380044024400F
:1058A0003FC0004000000380054005400340000069
:1058B000000004401FC0244024402000000002E0FB
:1058C000055005500650042020403FC0044004000D
:1058D00003C000400000044027C00040000000005A
:1058E00000100010041027E00000000020403FC01E
:1058F0000140070004C00440204020403FC0004059
:105900000040000007C0040007C0040003C00000FE
:10591000044007C00440040003C0004000000380AE
:105920000440044003800000041007F004500440C9
:1059300003800000000003800440045007F00010C2
:10594000044007C0024004000400000000000640BC
:105950000540054004C00000000004001F80044012
:1059600000400000040007800040044007C00040E1
:105970000400070004C0018006000400060001C006
:10598000070001C006000000044006C0010006C078
:10599000044000000410071004E001800600040029
:1059A0000000044005C00640044000000000000064
:1059B00004007BE040200000000000000000FFF039
:1059C00000000000000040207BE004000000000018
:1059D0004000800040002000200040000000000047
:1059E00000000000000000000000000000000000B7
:1059F00000001FCC000C00000000000000000800A8
:105A0000300060000800300060000000022003FC4D
:105A10001E20022003FC1E200220000000000E18A1
:105A200011043FFF10840C78000000000F00108468
:105A30000F3800C0077818840078000000780F84C1
:105A400010C411240E9800E40084000808006800C7
:105A500070000000000000000000000000000000D6
:105A6000000007E018182004400200000000400277
:105A70002004181807E00000000000000240024067
:105A800001800FF001800240024000000080008091
:105A900000800FF800800080008000000001000DF1
:105AA000000E000000000000000000000000008068
:105AB0000080008000800080008000800000000CDA
:105AC000000C0000000000000000000000000006C4
:105AD000001800600180060018002000000007F098
