:020000040800F2
:10000000E0C800203D020008652E0008BB2D000856
:10001000612E00086D0B0008C93C000800000000BC
:100020000000000000000000000000006939000826
:10003000710B000800000000672E00086B390008F3
:10004000570200085702000857020008570200082C
:10005000570200085702000857020008570200081C
:10006000570200085702000857020008570200080C
:1000700057020008570200085702000857020008FC
:1000800057020008570200085702000857020008EC
:1000900057020008570200085702000857020008DC
:1000A00057020008570200085702000857020008CC
:1000B0005702000857020008753900085702000867
:1000C00057020008570200085702000857020008AC
:1000D00057020008A53C0008570200085702000814
:1000E000570200085702000857020008570200088C
:1000F000570200085702000857020008570200087C
:10010000570200085702000857020008570200086B
:10011000570200085702000857020008570200085B
:10012000570200085702000857020008570200084B
:1001300000F002F800F073F80AA090E8000C824486
:100140008344AAF10107DA4501D100F068F8AFF263
:10015000090EBAE80F0013F0010F18BFFB1A43F0A5
:10016000010318474C9E03006C9E03000A444FF0A5
:10017000000C10F8013B13F0070408BF10F8014B06
:100180001D1108BF10F8015B641E05D010F8016B4B
:10019000641E01F8016BF9D113F0080F1EBF10F8AF
:1001A000014BAD1C0C1B09D16D1E58BF01F801CBD2
:1001B000FAD505E014F8016B01F8016B6D1EF9D555
:1001C0009142D6D37047000000230024002500266A
:1001D000103A28BF78C1FBD8520728BF30C148BFAA
:1001E0000B60704703681B0A28BF41F08001642937
:1001F00000F03C81752900F03981782900F0B08148
:10020000E42900F06F81632900F04484732900F031
:100210004984002070471FB51FBD10B510BD00F008
:1002200073FC1146FFF7F7FF08F0B8FD00F091FCF2
:1002300003B4FFF7F2FF03BC03F06BFD09488047EE
:1002400009480047FEE7FEE7FEE7FEE7FEE7FEE7B8
:10025000FEE7FEE7FEE7FEE704480549054A064BD0
:10026000704700007339000831010008E0C2002027
:10027000E0C80020E0C40020E0C40020704753EA3A
:10028000020C00F069802DE9F04B4FF00006002BC6
:100290001FBFB3FA83F503FA05F424FA05F65E40AE
:1002A00012BF1643B2FA82F502FA05F4C5F1200531
:1002B0001EBF22FA05FC44EA0C04203556EA044C21
:1002C0004FEA144418BF641C4FF000084FF00009B7
:1002D000904271EB030C39D3002919BFB1FA81F7B1
:1002E00001FA07F6B0FA80F700FA07F6C7F120071F
:1002F0001EBF20FA07FC46EA0C062037B6FBF4FCCA
:10030000A7EB0507103F07F01F0BCBF120060CFAF7
:100310000BFB2CFA06F644BFB3460026202FA4BFE1
:100320005E464FF0000B5BEA060C08BF4FF0010B76
:1003300019EB0B09ABFB027C48EB0608C01B06FB64
:1003400002CC0BFB03CC71EB0C01C1E70B46024660
:1003500041464846BDE8F08B13B54FF000004FF022
:100360000001AFF30080BDE81C40704710B54C1091
:1003700084EA530404D54042C1F1000138BF491E4C
:100380001B4204D55242C3F1000338BF5B1EFFF786
:1003900076FF14F0804F04D04042C1F1000138BF15
:1003A000491E14F0004F04D05242C3F1000338BF7D
:1003B0005B1E10BD0FB4044910B503AA029800F0EB
:1003C00075FB10BC5DF814FB0800002070B50446F6
:1003D00085690068C10601D5302600E02026C007E7
:1003E00007D070BDD4E9012130469047206A401CF7
:1003F00020626D1EF6D570BD70B504468569007823
:10040000C00707D170BDD4E9012120209047206AA0
:10041000401C20626D1EF6D570BD70B50C460546B9
:10042000012A05D02878800600D5EA69002302E079
:10043000012305E05B1C934202D2E05C0028F9D165
:10044000A869E618C01AA861286A184428622846D4
:10045000FFF7BCFF04E0D5E9012114F8010B904738
:10046000B442F8D32846FFF7C7FF70BD2DE9F0412D
:100470000646002410687529314616A510D0AFF342
:100480000080002802DA404213A507E031688A079D
:1004900001D512A502E0490704D511A5012401E008
:1004A000AFF3008000210A2206F1240709E0B0FB27
:1004B000F2FCB0FBF2F302FB1C003030785418461B
:1004C000491C0028F3D123462A463046BDE8F041B6
:1004D00000F07DBA000000002D0000002B0000009D
:1004E000200000002DE9F0418046D21D22F00702D5
:1004F0000025D2E90002F52915A614D0011E72F1DB
:10050000000106DA0023D0EB030063EB020211A620
:1005100008E0D8F800108B0701D50FA602E04907C4
:1005200001D50EA601251146002408F1240704E098
:1005300000F008FA30323A55641C50EA0102F7D153
:100540002B46324621464046BDE8F04100F03FBA16
:10055000000000002D0000002B0000002000000023
:1005600070B504460D4621461068AFF3008021881F
:10057000090502D50F4A7A4402E00E4A7A440E3247
:10058000002104F1240305E000F00F060009965D48
:100590005E54491C0028F7D120780023000704D5B9
:1005A000702D02D009B1022311322046BDE87040FF
:1005B00000F00DBA489603002DE9F05F8946044625
:1005C0004FF0000ADFF874B1FB44C0F820A02046C9
:1005D000E1688847002874D0252806D0D4E9012195
:1005E0009047206A401C2062F1E700265F462046C3
:1005F000E16888472028054607DB312D05D27819A8
:1006000010F8200C08B10643F1E7B00701D526F039
:100610000406C4F81CA00027C4F818A02A2D09D08D
:10062000284603F06FFB38B304EB8708303DC8F869
:10063000185019E059F8041B204604EB8702916119
:10064000E1688847012F054618D1E069002820DAC3
:1006500026F020061DE0D8F8180000EB800005EB1E
:1006600040003038C8F818002046E1688847054641
:1006700003F048FB0028EED1012F0AD02E2D08D11F
:100680002046E16888477F1C0546022F46F0200679
:10069000C4DBA069002803DA404246F00106A061ED
:1006A000F00701D026F010066C2D0BD0682D09D074
:1006B0004C2D39D06A2D35D0742D35D07A2D33D0CC
:1006C00016E038E0E1682F4620468847B8420546E4
:1006D00009D16C2F26D04FF48060E1680643204694
:1006E0008847054604E06C2F1AD04FF4807006430B
:1006F0000DB3A5F14100192802D8203546F4006653
:100700004A462946204626604E46FFF76BFD80B1DB
:1007100001280BD0F61D26F0070000F1080956E766
:100720004020E4E78020D8E70020D6E706F104095E
:100730004DE7284652E7206ABDE8F09F1E96030069
:10074000401ECAB210F8011F8A4202D00029F9D116
:100750000020704740EA010310B59B070FD1042A1F
:100760000DD310C808C9121F9C42F8D020BA19BA7C
:10077000884201D9012010BD4FF0FF3010BD1AB1E1
:10078000D30703D0521C07E0002010BD10F8013B36
:1007900011F8014B1B1B07D110F8013B11F8014B5D
:1007A0001B1B01D1921EF1D1184610BD032A40F245
:1007B000308010F0030C00F0158011F8013BBCF103
:1007C000020F624498BF11F801CB00F8013B38BF1B
:1007D00011F8013BA2F1040298BF00F801CB38BF29
:1007E00000F8013B11F0030300F02580083AC0F047
:1007F000088051F8043B083A51F804CBA0E80810EF
:10080000F5E7121D5CBF51F8043B40F8043BAFF321
:100810000080D20724BF11F8013B11F801CB48BF7B
:1008200011F8012B24BF00F8013B00F801CB48BFB1
:1008300000F8012B704710B5203AC0F00B80B1E8EA
:100840001850203AA0E81850B1E81850A0E8185005
:10085000BFF4F5AF5FEA027C24BFB1E81850A0E80E
:10086000185044BF18C918C0BDE810405FEA827C28
:1008700024BF51F8043B40F8043B08BF7047D2073F
:1008800028BF31F8023B48BF11F8012B28BF20F8E0
:10089000023B48BF00F8012B704702F0FF0343EA18
:1008A000032242EA024200F002B84FF0000204299B
:1008B000C0F0128010F0030C00F01B80CCF1040C8F
:1008C000BCF1020F18BF00F8012BA8BF20F8022BC3
:1008D000A1EB0C0100F00DB85FEAC17C24BF00F869
:1008E000012B00F8012B48BF00F8012B70474FF097
:1008F000000200B5134694469646203922BFA0E870
:100900000C50A0E80C50B1F12001BFF4F7AF09077B
:1009100028BFA0E80C5048BF0CC05DF804EB89006C
:1009200028BF40F8042B08BF704748BF20F8022BAF
:1009300011F0804F18BF00F8012B704770477047C7
:100940007047704730B5B0F10A024FEA900E71F16E
:1009500000034EEA817EB0EB0E0061EB91014FEA9D
:10096000101E4EEA017E10EB0E0041EB11114FEA12
:10097000102E4EEA016E10EB0E0041EB11214FEAF2
:10098000104E4EEA014E10EB0E0041EB11414018A3
:1009900041F100014FEAD00040EA41704FEAD10135
:1009A00010EB80054FEA810444EA907444EB0104A3
:1009B0006D1944EB0404521BA3414FF0000348BFE0
:1009C0000A3200D530BD401C41F1000130BD2DE997
:1009D000F0470D4699469246044600F12408016806
:1009E000880604D5E06921F01001216000E00120B3
:1009F000A84201DD471B00E00027A1697A1902EB3C
:100A00000900081AA0612078C00602D42046FFF72A
:100A1000DDFC002608E0D4E901211AF80600904721
:100A2000206A401C761C20624E45F4DB2078C0060C
:100A30000AD52046FFF7CAFC06E0D4E901213020A0
:100A40009047206A401C2062381EA7F10107F4DCA1
:100A500007E0D4E9012118F805009047206A401CFE
:100A60002062281EA5F10105F3DC2046FFF7C4FC37
:100A70002078000602D50220BDE8F0870120FBE7C0
:100A800010B5436913B1AFF3008001E0FFF7C5FC77
:100A9000012010BD127800F124010A7000224A7072
:100AA0000122EDE711684FF0FF32E9E7074B70B51F
:100AB0000D467B4400F011F80446284600F020F86B
:100AC00010B14FF0FF3070BD204670BDFB710000CB
:100AD00001694A1C02610878704700B58FB0CDE902
:100AE00001310021059105497944CDE903101146F2
:100AF0006846FFF761FD0FB000BD0000E5FFFFFF96
:100B0000007B00F080007047754600F02BF8AE4681
:100B100005006946534620F00700854618B020B509
:100B2000FFF79AFBBDE820404FF000064FF00007AA
:100B30004FF000084FF0000B21F00701AC46ACE885
:100B4000C009ACE8C009ACE8C009ACE8C0098D46F2
:100B5000704710B50446AFF300802046BDE8104052
:100B6000FFF766BB0048704780C2002000BFFEE769
:100B70007047000070B50446B3F5804F13D1D1E93A
:100B8000000540EA05108D6840EA05208D6928437C
:100B90008D8940EA054054F82250064E35402843DE
:100BA00044F8220003E06FF0704044F82200002077
:100BB00070BD00000000F0CF70B50246086852F822
:100BC000200020F001000E6842F8260088680828FE
:100BD00001D1402300E00023486818438E68304369
:100BE000CE6830430E6930434E693043CE6930439E
:100BF0000E6A30434E6A30438E6A3043CE6A3043C9
:100C00000E6B40EA060488690443486B0443074DB1
:100C100045F4806545F4E025086852F82000A843B3
:100C200020430E6842F82600002070BD7FFB0800BC
:100C300010B50346D1E9000440EA04108C6840EA8C
:100C400004208C8940EA0444088A401E44EA005487
:100C5000087D801E44EA00608C692043541C53F8D0
:100C6000244004F040442043541C43F82400002056
:100C700010BD000070B50446002594F8210002283C
:100C800003D00420A0630125C1E02068006820F0A3
:100C90000E00216808602068006820F001002168CB
:100CA00008605C492068884252D95A4978392068DE
:100CB000884201D1012047E05649643920688842C2
:100CC00001D1102040E0534950392068884201D1B9
:100CD000801539E04F493C392068884201D18014A1
:100CE00032E04C4928392068884202D14FF48030E4
:100CF0002AE0484914392068884202D14FF4801014
:100D000022E044492068884201D140041CE0424965
:100D10002068884201D1012016E03F491431206843
:100D2000884201D110200FE03B49283120688842D9
:100D300001D1801508E038493C312068884201D152
:100D4000801401E04FF480303349091F086051E0FE
:100D5000304978392068884201D1012047E02D4987
:100D600064392068884201D1102040E02949503977
:100D70002068884201D1801539E026493C39206835
:100D8000884201D1801432E0224928392068884203
:100D900002D14FF480302AE01E491439206888427D
:100DA00002D14FF4801022E01A492068884201D114
:100DB00040041CE018492068884201D1012016E057
:100DC000154914312068884201D110200FE01249E2
:100DD00028312068884201D1801508E00E493C3155
:100DE0002068884201D1801401E04FF48030094925
:100DF00080394860012084F8210000BF002084F879
:100E0000200000BF606B10B12046616B8847284608
:100E100070BD0000800002400804024010B5044686
:100E2000A0B203F025FC10BD2DE9F84702460023CF
:100E30009C467BE14FF0010808FA03F4D1F80080EA
:100E400008EA0400A0427DD1DFF8F4A2D1F80480C2
:100E5000A8EB0A09D0453AD014DCB8F1030F50D002
:100E600009DCB8F1000F31D0B8F1010F1CD0B8F196
:100E7000020F49D120E0B8F1110F18D0B8F1120FCC
:100E800042D11EE0B9F5881F25D006DCB9F5803FB8
:100E900020D0B9F5801F37D11AE0B9F5001F18D05E
:100EA000B9F5041F30D117E0D1F80CC02DE0D1F80E
:100EB0000C8008F1040C28E0D1F80C8008F1080C33
:100EC00023E0D1F80C8008F10C0C1EE000BF00BF3D
:100ED00000BF00BF00BF00BFD1F80880B8F1000F0D
:100EE00002D14FF0040C0BE0D1F80880B8F1010FEB
:100EF00003D14FF0080C146102E04FF0080C54616C
:100F000003E04FF0000C00E000BF00BFFF2801D855
:100F1000904601E002F104084646FF2802D84FEA55
:100F2000830803E0A3F108084FEA88084746D6F88B
:100F300000804FF00F0909FA07F928EA09080CFAAE
:100F400007F900E07AE048EA0908C6F80080D1F81D
:100F5000048008F08058B8F1805F6FD100BFDFF8DF
:100F6000E481D8F8188048F00108DFF8D891C9F872
:100F70001880C846D8F8188008F00108CDF800801D
:100F800000BF00BF4FEAB9384FEA930958F829501B
:100F90004FEA83784FEA18794FF00F0808FA09F8FA
:100FA00025EA0805DFF8A081424502D14FF000088C
:100FB00024E0DFF89881424502D14FF001081DE09E
:100FC000DFF88C81424502D14FF0020816E0DFF8CD
:100FD0008481424502D14FF003080FE0DFF87881A9
:100FE000424502D14FF0040808E0DFF87081424525
:100FF00002D14FF0050801E04FF006084FEA83796F
:101000004FEA197908FA09F848EA0505DFF850812E
:101010004FEA930948F82950D1F8048008F4803841
:10102000B8F5803F0BD1DFF83C81D8F8008048EA62
:101030000008DFF83091C9F800800AE075E0DFF8B9
:101040002481D8F8008028EA0008DFF81891C9F850
:101050000080D1F8048008F40038B8F5003F0ED1C4
:10106000DFF8008108F10408D8F8008048EA000899
:10107000DFF8F09009F10409C9F800800DE0DFF80D
:10108000E48008F10408D8F8008028EA0008DFF8B6
:10109000D49009F10409C9F80080D1F8048008F45B
:1010A0008018B8F5801F0ED1DFF8B88008F1080865
:1010B000D8F8008048EA0008DFF8A89009F108098C
:1010C000C9F800800DE0DFF89C8008F10808D8F826
:1010D000008028EA0008DFF88C9009F10809C9F8B7
:1010E0000080D1F8048008F40018B8F5001F0ED174
:1010F000DFF8708008F10C08D8F8008048EA000892
:10110000DFF8609009F10C09C9F800800DE0DFF804
:10111000548008F10C08D8F8008028EA0008DFF8AD
:10112000449009F10C09C9F800805B1CD1F80080DB
:1011300028FA03F8B8F1000F7FF47CAEBDE8F88719
:10114000000011100010024000080140000C014096
:10115000001001400014014000180140001C014033
:10116000080001400004014010B5C26821EA0203F2
:1011700002EA010443EA0443036110BD0AB10161BC
:1011800001E00B04036170470148006870470000EC
:101190001000002003480068034909780844014909
:1011A00008607047100000201800002010B50848A3
:1011B000006840F0100006490860052000F080F843
:1011C0000F2000F007F800F02BF8002010BD000001
:1011D0000020024070B504460E4800784FF47A7142
:1011E000B1FBF0F00C490968B1FBF0F5284601F0BD
:1011F00091FB08B1012070BD102C07D200222146BE
:10120000501E00F01EF80548046001E00120F2E7DE
:101210000020F0E71800002000000020140000204B
:10122000704701460846002809DB00F01F03012231
:101230009A4043099B0003F1E023C3F8002100BF5B
:1012400070472DE9F05F80460D461646002702F0F4
:101250003DFD074639462A46334601F00700C0F1F6
:10126000070ABAF1040F02D94FF0040A01E0C0F1F5
:10127000070AD14600F1040ABAF1070F02D24FF073
:10128000000A01E0A0F1030AD4464FF0010A0AFA6D
:1012900009FAAAF1010A0AEA020A0AFA0CFA4FF05C
:1012A000010B0BFA0CFBABF1010B0BEA030B4AEA47
:1012B0000B042146404602F011FDBDE8F09F0000FE
:1012C00000BF00F00702064B19684FF6FF031940F4
:1012D000044B0B4343EA0221014B196000BF7047E6
:1012E0000CED00E00000FA0570B504460D460CB99F
:1012F000012070BD5A48006800F00700A8420ED2D5
:101300005748006820F00700284355490860084600
:10131000006800F00700A84201D00120E9E720782A
:1013200000F0020002281DD1207800F004000428FB
:1013300005D14C48406840F4E0604A494860207854
:1013400000F00800082805D14648406840F4605085
:10135000444948604348406820F0F000A1680843D1
:1013600040494860207800F0010078B360680128A7
:1013700006D13C48006800F4003090B90120B8E77D
:101380006068022806D13748006800F0007040B954
:101390000120AEE73348006800F0020008B90120E0
:1013A000A7E73048406820F00300616808432D49F2
:1013B0004860FFF7E9FE064609E0FFF7E5FE801BFF
:1013C00041F28831884202D9032092E707E025489C
:1013D000406800F00C006168B0EB810FEDD120484F
:1013E000006800F00700A8420ED91D48006820F0F0
:1013F000070028431A4908600846006800F0070003
:10140000A84201D0012074E7207800F004000428ED
:1014100007D11448406820F4E060E16808431149AE
:101420004860207800F00800082808D10D4840687E
:1014300020F46050216940EAC1000A49486000F088
:101440003FF808494968C1F30311074A515CC84095
:101450000649086006480068FFF7BCFE002048E720
:101460000020024000100240F4BF000800000020ED
:1014700014000020014800687047000000000020B0
:1014800000B5FFF7F7FF04494968C1F30221034A99
:10149000515CC84000BD00000010024004C00008BC
:1014A00000B5FFF7E7FF04494968C1F3C221034AC9
:1014B000515CC84000BD00000010024004C000089C
:1014C000F0B585B00FF26C0C9CE8E01001A8A0E824
:1014D000E0101CA52D6800950021002200230024A7
:1014E0000020194D696801F00C05F5B1042D02D0FA
:1014F000082D19D101E0154819E001ADC1F383466B
:10150000AC5D01F4803555B10F4D6D68C5F34045B4
:101510001DF805200D4D6543B5FBF2F302E00C4DBF
:1015200004FB05F3184602E000BF084800BF00BFF7
:1015300005B0F0BD02030405060708090A0B0C0DEF
:101540000E0F1010010200000010024000127A007D
:1015500000093D00F8B504460CB90120F8BD20781B
:1015600000F00100002878D0F848406800F00C0036
:1015700004280CD0F548406800F00C00082811D170
:10158000F248406800F48030B0F5803F0AD1EF485F
:10159000006800F4003000285FD0606800285CD14B
:1015A0000120DBE700BF6068B0F5803F06D1E74867
:1015B000006840F48030E549086028E0606858B968
:1015C000E248006820F48030E0490860084600687E
:1015D00020F4802008601AE06068B0F5A02F0BD1DD
:1015E000DA48006840F48020D8490860084600685E
:1015F00040F4803008600AE0D448006820F480306D
:10160000D24908600846006820F48020086000BFC6
:10161000606888B1FFF7B8FD054606E0FFF7B4FD46
:10162000401B642801D9032098E7C848006800F4EB
:1016300000300028F2D010E0FFF7A6FD054606E0D6
:10164000FFF7A2FD401B642801D9032086E7BF48AD
:10165000006800F400300028F2D1207800F0020089
:10166000022857D1B948406800F00C0050B1B74883
:10167000406800F00C00082818D1B448406800F415
:10168000803098B9B148006800F0020020B12069AC
:10169000012801D0012061E7AC48006820F0F80083
:1016A000616940EAC100A949086033E02069E8B1F6
:1016B0000120A7490860FFF767FD054606E0FFF730
:1016C00063FD401B022801D9032047E79F480068BB
:1016D00000F002000028F2D09C48006820F0F800DA
:1016E000616940EAC1009949086013E00020984907
:1016F0000860FFF749FD054606E0FFF745FD401B82
:10170000022801D9032029E79048006800F0020070
:101710000028F2D1207800F0080008282DD1A06917
:10172000B8B101208B490860FFF72EFD054606E0A1
:10173000FFF72AFD401B022801D903200EE783484A
:10174000406A00F002000028F2D0012001F08CFB7A
:1017500013E000207F490860FFF716FD054606E00C
:10176000FFF712FD401B022801D90320F6E6774857
:10177000406A00F002000028F2D1207800F0040056
:10178000042873D100277148C06900F0805070B9F7
:1017900000BF6E48C06940F080506C49C86108467F
:1017A000C06900F08050009000BF00BF01276A4868
:1017B000006800F48070B0B96748006840F4807039
:1017C00065490860FFF7E0FC054606E0FFF7DCFC32
:1017D000401B642801D90320C0E65F48006800F47C
:1017E00080700028F2D000BFE068012806D1574879
:1017F000006A40F001005549086227E0E06858B9E6
:101800005248006A20F00100504908620846006A08
:1018100020F00400086219E0E06805280BD14B486D
:10182000006A40F00400494908620846006A40F036
:10183000010008620AE04548006A20F001004349BF
:1018400008620846006A20F00400086200BFE068F1
:10185000A0B1FFF799FC054609E0FFF795FC401B96
:1018600041F28831884202D9032077E622E03748E6
:10187000006A00F002000028EFD012E0FFF784FCBD
:10188000054608E0FFF780FC401B41F288318842A2
:1018900001D9032062E62D48006A00F0020000280A
:1018A000F0D1012F05D12948C06920F08050274987
:1018B000C86100BFE069C8B32448406800F00C006C
:1018C000082860D0E069022848D100202049086635
:1018D000FFF75AFC054606E0FFF756FC401B0228BE
:1018E00001D903203AE61948006800F0007000288A
:1018F000F2D1206AB0F5803F07D11448406820F447
:101900000030A168084311494860D4E90801084340
:101910000E49496821F4741108430C4948600120BC
:101920000B490866FFF730FC054607E03DE0FFF78E
:101930002BFC401B022801D903200FE60348006856
:1019400000F000700028F2D02FE0000000100240EC
:1019500000004242800442420070004000201449CE
:101960000866FFF711FC054606E0FFF70DFC401B7B
:10197000022801D90320F1E50E48006800F000704C
:101980000028F2D111E0E069012800D1E6E509481C
:10199000466806F48031206A814204D106F4701151
:1019A000606A814201D00120D8E50020D6E5000020
:1019B000000042420010024010B50246506E800FF7
:1019C0000870506EC0F383604870506EC0F30160C1
:1019D0008870506E000CC870B2F86400000A08717C
:1019E00092F864004871906E000DC880906EC0F34C
:1019F000034008726820805AC0F3C03048726820E3
:101A0000805AC0F3803088726820805AC0F340301A
:101A1000C8726820805AC0F30030087300204873F1
:101A2000506C002836D16820805A8005030DD06E96
:101A300043EA90700861D06EC0F3C2600875D06E42
:101A4000C0F302604875D06EC0F342508875D06E06
:101A5000C0F38240C875D06EC0F3C2300876086902
:101A6000401C50650B7E506D03F007039B1C012446
:101A70009C4060435065087A00F00F0301209840B5
:101A80009065D2E915035B0A5843D0654FF40073A3
:101A9000136621E0506C012813D16820805C800619
:101AA000830AD06E43EA104008610869401C830233
:101AB0005365536DD3654FF400739365936D13664F
:101AC0000AE02E4813689863906B40F08050906352
:101AD000012082F8340010BD6C20805AC0F38030A1
:101AE00001F8190F6C20805AC0F3C61048706C20A2
:101AF000805C00F07F008870106FC00FC870106F9E
:101B0000C0F341700871106FC0F382604871106FAC
:101B1000C0F383508871106FC0F34050C87100202B
:101B20000872106FC0F3004048727020805AC0F3F2
:101B3000C03088727020805AC0F38030C872702024
:101B4000805AC0F3403008737020805AC0F30030D0
:101B500048737020805AC0F3812088737020805AA7
:101B6000C0F30120C8737020805CC0F34600087485
:101B70000120487419390020ADE70000FF0540003E
:101B8000F8B50446002000906946204601F050FE5A
:101B9000054615B1A06B2843A0630098C0F3432607
:101BA0003046F8BD10B504460CB9012010BD94F8BC
:101BB000340020B900202077204600F053F803209D
:101BC00084F83400204600F00BF808B10120EDE75E
:101BD0000020A0632063012084F834000020E5E7A2
:101BE00070B58AB0044600200490059006900790D6
:101BF00008907620099007A807C88DE8070020689C
:101C000004A90EC901F069F9064616B101200AB00F
:101C100070BD002012490860206801F078F90120A9
:101C20000F49A039C1F8A000204601F09BFD0546F0
:101C30003DB1012084F83400A06B2843A06301204B
:101C4000E5E7204601F00CFD05463DB1012084F892
:101C50003400A06B2843A0630120D8E70020D6E71A
:101C6000A000304210B586B004464F492068884233
:101C70007ED100BF4D48406940F480604B494861C7
:101C80000846406900F48060019000BF00BF00BFBB
:101C900000BF0846806940F01000886108468069EE
:101CA00000F01000019000BF00BF00BF00BF00BFE8
:101CB0000846806940F0100088610846806900F09D
:101CC0001000019000BF00BF00BF00BF00BF08466A
:101CD000806940F0100088610846806900F01000BB
:101CE000019000BF00BF00BF00BF00BF0846806971
:101CF00040F0100088610846806900F010000190F3
:101D000000BF00BF00BF00BF00BF0846806940F0B1
:101D1000100088610846806900F01000019000BF43
:101D200000BF00BF00BF00BF0846806940F0200030
:101D300088610846806900F02000019000BF00BF64
:101D400000BF881502900220039001200490032018
:101D5000059002A91648FFF767F84FF4007002904B
:101D600002A91348FFF760F84FF48060029000E08A
:101D700018E002A90E48FFF757F84FF400600290F0
:101D800002A90B48FFF750F84FF48050029002A9C7
:101D90000748FFF749F80420029002A90548FFF719
:101DA00043F800BF06B010BD0080014000100240A3
:101DB00000100140001401402DE9FF4F89B0044696
:101DC0008B469946DDF858A0FFF7DEF902900B9894
:101DD00000905D46BBF1000F07D1A06B40F00060A2
:101DE000A06301200DB0BDE8F08F94F83400012805
:101DF0007ED10020A063009800EB0901E06D8142D4
:101E000005D9A06B40F00070A0630120EAE7032031
:101E100084F8340000202168C862606C012802D078
:101E20000098400200904FF40071206801F0D0F853
:101E30008046B8F1000F0AD08E4821688863A06BF5
:101E400040EA0800A063012084F83400CAE74FF09C
:101E5000FF3003904FEA4920049090200590022023
:101E60000690002007900120089003A9206801F047
:101E70000FF8B9F1010F07D90220206320680099FB
:101E800001F0F2F8804606E0012020632068009906
:101E900001F006F98046B8F1000F0DD075482168B1
:101EA0008863A06B40EA0800A063012084F8340036
:101EB00000202063012095E7049E3AE02068406BF3
:101EC00000F40040F0B1EEB10020019017E020686E
:101ED00001F026F807462F706D1C761E380A287010
:101EE0006D1C761E380C28706D1C761E380E00E0B6
:101EF000BAE028706D1C761E0198401C0190019874
:101F00000828E4D3FFF740F90299401A504502D25D
:101F1000BAF1000F0DD1574821688863A06B40F0DB
:101F20000040A063012084F83400002020630320D7
:101F300058E72068406B40F22A3108400028BDD0A5
:101F40002068406B00F48070D0B1B9F1010F17D94F
:101F5000606C032814D0206801F046F98046B8F17F
:101F6000000F0DD0434821688863A06B40EA080049
:101F7000A063012084F8340000202063012031E7B1
:101F80002068406B00F0080068B13A482168886317
:101F9000A06B40F00800A063012084F8340000200A
:101FA000206301201EE72068406B00F0020068B14A
:101FB000304821688863A06B40F00200A0630120D4
:101FC00084F834000020206301200BE72068406B78
:101FD00000F0200068B1274821688863A06B40F0BA
:101FE0002000A063012084F8340000202063012039
:101FF000F8E629E0206800F093FF07462F706D1C7B
:10200000761E380A28706D1C761E380C28706D1CE0
:10201000761E380E28706D1C761EFFF7B5F80299F3
:10202000401A504502D2BAF1000F0DD11148216873
:102030008863A06B40F00040A063012084F8340066
:10204000002020630120CDE62068406B00F40010E2
:1020500008B1002ECED140F23A50216888630120A9
:1020600084F834000020BDE6A06B40F00050A0636F
:102070000120B7E6FF0540002DE9F04F89B0044686
:10208000894693469846FFF77FF80290DA464E4617
:10209000B9F1000F07D1A06B40F00060A0630120F0
:1020A00009B0BDE8F08F94F8340001287ED10020FB
:1020B000A0630AEB0801E06D814205D9A06B40F0F6
:1020C0000070A0630120EBE7032084F834000020B7
:1020D0002168C862606C012801D04FEA4A2A4FF497
:1020E0000071206800F074FF05464DB17648216804
:1020F0008863A06B2843A063012084F83400CFE7F5
:102100004FF0FF3003904FEA482004909020059054
:102110000020069007900120089003A9206800F095
:10212000B7FEB8F1010F07D920202063514620687F
:1021300001F078F8054606E010202063514620683B
:1021400001F08CF8054665B15F4821688863A06B93
:102150002843A063012084F834000020206301207C
:102160009EE7049F43E02068406B00F4804040B34A
:102170003FB30020019021E030780090761C7F1E54
:102180003078009941EA00200090761C7F1E30785C
:10219000009941EA00400090761C7F1E307800993B
:1021A00041EA00600090761C7F1E00E085E06946F1
:1021B000206800F0CDFE0198401C0190019808288D
:1021C000DAD3FEF7E1FF0299411A1298814201D257
:1021D000129860B93C4821688863A06B2843A063CB
:1021E000012084F8340000202063032058E7206891
:1021F000406B40F21A3108400028B4D02068406B90
:1022000000F48070B8B1B8F1010F14D9606C0328E4
:1022100011D0206800F0E8FF054665B12A48216822
:102220008863A06B2843A063012084F83400002059
:102230002063012034E72068406B00F0080068B19B
:10224000214821688863A06B40F00800A06301204A
:1022500084F8340000202063012021E72068406BCF
:1022600000F0020068B1184821688863A06B40F054
:102270000200A063012084F83400002020630120C4
:102280000EE72068406B00F0100068B10E4821682E
:102290008863A06B40F01000A063012084F8340034
:1022A000002020630120FBE640F23A502168886359
:1022B000012084F834000020F2E6A06B40F00050CA
:1022C000A0630120ECE60000FF05400010B50446C5
:1022D0000CB9012010BD606A38B96068B0F5827F22
:1022E00000D105E00021E16102E00021216161618E
:1022F000A06AB0F5005F00D100BF94F8510028B982
:10230000002084F85000204600F04AF8022084F8AB
:1023100051002068006820F0400021680860A08813
:1023200000F48270218901F404410843A18901F479
:1023300000610843217C01F002010843217D01F086
:1023400001010843218B01F400710843217F01F052
:10235000380108432021095D01F080010843218DE7
:1023600001F400510843216808600421A06901EAD2
:10237000104021684860A06AB0F5005F03D1A08DCD
:1023800080B2216808612068C06920F4006021687B
:10239000C86100206065012084F85100002099E7A1
:1023A00010B586B0044627492068884248D100BF4E
:1023B00000BF2548806940F008002349886108462D
:1023C000806900F00800019000BF00BF00BF00BF9F
:1023D00000BF0846806940F00800886108468069AF
:1023E00000F00800019000BF00BF00BF00BF00BFA9
:1023F0000846806940F0080088610846806900F05E
:102400000800019000BF00BF00BF4FF400500290D1
:1024100002200390012004900320059002A90B489C
:10242000FEF702FD4FF48040029002A90748FEF734
:10243000FBFC4FF40040029002A90448FEF7F4FCB4
:1024400006B010BD0038004000100240000C0140F2
:102450002DE9FF5F0446884691461D460E9E0120E9
:1024600002900020019000BF94F85000012803D191
:10247000022004B0BDE8F09F012084F8500000BFA6
:10248000FEF782FE074694F851B060680390AA46B2
:10249000BBF1010F0BD00398B0F5827F04D1A06887
:1024A00010B9BBF1040F02D0022001903DE1B8F158
:1024B000000F03D0B9F1000F00D015B90120019031
:1024C00033E194F85100042802D0052084F851002B
:1024D00000206065C4F83890E587A587C4F830808F
:1024E000E586A58620646064A06AB0F5005F0DD122
:1024F00000BF2068006820F4005021680860206850
:10250000006840F400502168086000BF206800683F
:1025100000F04000402805D02068006840F04000EE
:1025200021680860E068B0F5006F56D1606810B1AE
:10253000BAF1010F09D1206B00882168C860206BB7
:10254000801C2063E08E401EE0863FE020688068AB
:1025500000F0020002281CD1E08ED0B102980128C0
:1025600017D1206B00882168C860206B801C206315
:10257000E08E401EE08600200290E08E48B9A06AFE
:10258000B0F5005F05D12068006840F480502168F4
:1025900008602068806800F0010068B1E08F58B1E1
:1025A0002068C068A16B0880A06B801CA063E08FCE
:1025B000401EE08701200290FEF7E6FDC01BB042FE
:1025C00004D3701C10B103200190AEE0E08E00280F
:1025D000BCD1E08F0028B9D156E0606810B1BAF1E3
:1025E000010F09D1206B007821680873206B401C13
:1025F0002063E08E401EE08640E02068806800F0A6
:10260000020002281CD1E08ED0B10298012817D117
:10261000206B007821680873206B401C2063E08EDB
:10262000401EE08600200290E08E48B9A06AB0F516
:10263000005F05D12068006840F480502168086080
:102640002068806800F0010068B1E08F58B1206810
:10265000C068A16B0870A06B401CA063E08F401E97
:10266000E08701200290FEF78FFDC01BB04201D32E
:10267000701C00B916B90320019056E0E08E0028C6
:10268000BBD1E08F0028B8D1A06AB0F5005F10D1AF
:102690003346012211462046009701F0F9F830B187
:1026A000606D40F002006065032001903DE020680D
:1026B000C06820688068C0F30010E8B1204601F0CF
:1026C000E3F8012814D1606D40F00200606500BF9E
:1026D0002068006820F400502168086020680068C5
:1026E00040F400502168086000BF0120019003E021
:1026F0004FF6EF70216888603A463146204601F077
:10270000AFF820B101200190202060650DE0A068A5
:1027100050B900BF002000902068C0680090206879
:102720008068009000BF00BF00BF012084F8510006
:1027300000BF002084F8500000BF019899E670B5F2
:1027400004460E4615461CB1A069B0F5807F01D144
:10275000012070BD94F8410028B9002084F84000A1
:10276000204600F01FF804F108012068FEF724FA63
:102770003146A2682068FEF75BFA2946236BD4E94C
:102780000102FEF7F7F9A168206850F8210040F037
:102790000100A268216841F82200012084F841006C
:1027A0000020D6E710B586B0044600BF4B4840690C
:1027B00040F48070494948610846406900F48070DF
:1027C000019000BF00BF00BF0846806940F02000B4
:1027D00088610846806900F02000019000BF00BFBA
:1027E00000BF0846806940F0400088610846806963
:1027F00000F04000019000BF00BF00BF00BF0846CE
:10280000806940F0200088610846806900F020005F
:10281000019000BF00BF00BF00BF00BF0846806935
:1028200040F0200088610846806900F02000019097
:1028300000BF00BF00BF00BF00BF0846806940F472
:10284000807088610846806900F48070019000BF44
:1028500000BF00BF00BF00BF0846806940F4807021
:1028600088610846806900F48070019000BF00BF55
:1028700000BF8814029002200390012004900320DE
:10288000059002A91648FEF7CFFA2020029002A96F
:102890001448FEF7C9FA1020029002A91148FEF769
:1028A000C3FA0120029002A90D48FEF7BDFA4CF2CE
:1028B00003700290022003900120049003200590F1
:1028C00002A90848FEF7B0FA4FF68070029002A9FC
:1028D0000548FEF7A9FA06B010BD0000001002403E
:1028E000002001400014014000180140042808D1D4
:1028F0004FF0E021096941F004014FF0E02211613D
:1029000007E04FF0E021096921F004014FF0E022D7
:102910001161704770B504462546681EB0F1807F8E
:1029200001D301200FE0681E4FF0E02148610F2124
:102930004FF0FF3001F0D2F900204FF0E021886124
:1029400007200861002070BD10B504460CB90120B5
:1029500010BD94F83D0028B9002084F83C002046C2
:1029600000F025F8022084F83D00211D206801F0C8
:1029700023F8012084F8460000BF84F83E000121BE
:102980003F200155402001554120015500BF00BFA7
:10299000012084F842004320015544200155452080
:1029A000015500BF012084F83D000020D0E77047AA
:1029B000014691F83D00012801D001207047022016
:1029C00081F83D000868C06840F001000B68D860DD
:1029D000164B0868984213D0154B086898420FD0E0
:1029E0000868B0F1804F0BD0124B0868984207D0AE
:1029F000114B0868984203D0104B086898420CD1DC
:102A00000868806800F00702062A0CD00868006891
:102A100040F001000B68186005E00868006840F0AD
:102A200001000B6818600020C8E70000002C01407E
:102A3000003401400004004000080040000C004049
:102A4000704700002DE9F0470446206805682068BB
:102A5000C668206847694FF00008C14605F00F08B6
:102A6000B8F1000F0AD105F0200038B106F02000BF
:102A700020B1204601F018F8BDE8F087B8F1000F4A
:102A800071D007F0010018B906F4907000286AD0E0
:102A900005F0010030B106F4807018B1E06B40F031
:102AA0000100E06305F0040030B107F0010018B147
:102AB000E06B40F00200E06305F0020030B107F087
:102AC000010018B1E06B40F00400E06305F008007D
:102AD00048B106F0200010B907F0010018B1E06B12
:102AE00040F00800E063E06B68B305F0200028B117
:102AF00006F0200010B1204600F0D6FF20684069A3
:102B0000C0F38019E06B00F0080010B9B9F1000FB4
:102B100022D0204600F0A8FF2068406900F0400065
:102B2000B0B12068406920F0400021684861606BC6
:102B300050B11848616B4863606BFEF79BF810B1A9
:102B4000606B416B88470CE02046FFF779FF08E097
:102B50002046FFF775FF04E02046FFF771FF0020D5
:102B6000E06389E7FFE705F0800030B106F0800000
:102B700018B1204601F066F87EE705F0400030B15C
:102B800006F0400018B1204600F07EFF74E700BF59
:102B900072E70000553A000810B504460CB9012050
:102BA00010BDA06900B100E000BF94F8390028B959
:102BB000002084F83800204600F028F8242084F80B
:102BC00039002068C06820F400502168C8602046A1
:102BD00000F0BAFF2068006920F490402168086185
:102BE0002068406920F02A00216848612068C06898
:102BF00040F400502168C8600020E063202084F881
:102C0000390084F83A000020CAE7000010B586B009
:102C100004462849206888424AD100BF00BF2648A0
:102C2000806940F00400244988610846806900F00A
:102C30000400019000BF00BF00BF00BF00BF0846F6
:102C4000806940F0040088610846806900F0040053
:102C5000019000BF00BF00BF00BF00BF08468069F1
:102C600040F4804088610846806900F4804001900B
:102C700000BF00BF00BF4815029002200390012052
:102C800004900320059002A90C48FEF7CDF84FF4FC
:102C9000806002900020039002A90848FEF7C4F863
:102CA0002520FEF7BEFA032211462520FEF7C9FAB9
:102CB00006B010BD0038014000100240000801407D
:102CC00010B5034693F83A0020282FD101B10AB974
:102CD000012010BD00BF93F83800012801D1022067
:102CE000F7E7012083F8380000BF99629A85DA85FA
:102CF0000020D863222083F83A0000BF002083F828
:102D0000380000BF1868C06840F480701C68E0603C
:102D10001868406940F001001C6860611868C0686C
:102D200040F020001C68E0600020D2E70220D0E7DD
:102D30001D4A0168914236D11C49098801F40041BD
:102D400089BB1A49098801F4804171B11849097891
:102D50000A2903D00021154A118024E0134909886B
:102D600041F40041114A11801DE0114909780D29F3
:102D700006D10E49098841F480410C4A118012E0C5
:102D80000B490978094A1288C2F30D02094B99547C
:102D900006490988491C054A118011460988C72936
:102DA00001DD002111807047003801400C00002037
:102DB0000E00002040020020704700BFFEE7000028
:102DC00000B50246A2B9012005F0A4FE4FF48070C0
:102DD00005F090FE032005F09DFE41F2300005F065
:102DE00089FE4FF4C8700E494880F020088015E035
:102DF000012005F08FFE4FF4807005F07BFE03206C
:102E000005F088FE41F2380005F074FEF020044918
:102E100048804FF4C87008800120887100BD000010
:102E20002400002010B501460023CA0AC1F345144E
:102E300001F01F03500340EA841040EA430010BD34
:102E400030B5054600242846FFF7ECFF0446C4F3DE
:102E50004F20024908800C8030BD00000008006C43
:102E600000BFFEE77047704708B508490968C90800
:102E70004FF47A72B1FBF2F14143009100BF00BF01
:102E800000994A1E00920029F9D108BD00000020D7
:102E900010B5024600230868506248689062D1E984
:102EA000020420430C6920434C6920430343D06A49
:102EB00020F0F7001843D062002010BD01460869D9
:102EC000C0B270470146086800F003007047024630
:102ED00002F114004318186870470FB410B5044687
:102EE0000021DDE903021043059A1043069A1043BE
:102EF000079A1043089A10430143606847F6FF623F
:102F0000904308436060002010BC5DF814FB10B5CE
:102F10000446032020600220FDF780FF002010BD42
:102F20000146D1F88000704710B5024600230868BA
:102F30009060D1E901042043CC6820430C69204310
:102F40000343D0686FF30B001843D060002010BD1E
:102F500002460868C2F880000020704770B586B04D
:102F600005460C4601943720029040200390002033
:102F700004904FF48060059001A92846FFF7D4FF24
:102F800041F288323721284600F0A4F9064630463F
:102F900006B070BD70B586B005460C460B482043A0
:102FA00001902920029040200390002004904FF4CB
:102FB0008060059001A92846FFF7B6FF284600F07B
:102FC00091FA0646304606B070BD00000000108041
:102FD00070B586B005460C46019410200290402042
:102FE0000390002004904FF48060059001A92846CA
:102FF000FFF79AFF41F288321021284600F06AF963
:103000000646304606B070BD30B585B00446002097
:1030100000900190029003904FF480600490694604
:103020002046FFF781FF204600F034F90546284688
:1030300005B030BD30B585B004464FF4D570009072
:103040000820019040200290002003904FF48060FF
:10305000049069462046FFF767FF204600F0CAFA51
:103060000546284605B030BD70B586B005460C460D
:1030700001941220029040200390002004904FF40D
:103080008060059001A92846FFF74EFF41F2883283
:103090001221284600F01EF90646304606B070BDE3
:1030A00070B586B005460C46019411200290402070
:1030B0000390002004904FF48060059001A92846F9
:1030C000FFF732FF41F288321121284600F002F961
:1030D0000646304606B070BDF0B585B006461446CB
:1030E0001D4600940720019040200290002003908C
:1030F0004FF48060049069463046FFF715FF41F2B7
:1031000088320721304600F0E5F80746384605B01A
:10311000F0BD30B585B0044600200090022001903B
:10312000C0200290002003904FF480600490694614
:103130002046FFF7F9FE204600F0A2F90546284692
:1031400005B030BD70B586B005460C460194092027
:103150000290C0200390002004904FF480600590FE
:1031600001A92846FFF7E0FE284600F089F9064647
:10317000304606B070BD70B586B005460C46019469
:103180000D20029040200390002004904FF48060B6
:10319000059001A92846FFF7C7FE41F288320D21AC
:1031A000284600F097F80646304606B070BD70B568
:1031B00086B005460C460020019003200290402076
:1031C0000390002004904FF48060059001A92846E8
:1031D000FFF7AAFE22460321284600F0AFF9064673
:1031E000304606B070BD000030B585B00446002002
:1031F00000900C20019040200290002003904FF49A
:103200008060049069462046FFF78EFE044A0C2138
:10321000204600F05FF80546284605B030BD0000A6
:1032200000E1F50570B586B005460C4601941920FD
:10323000029040200390002004904FF4806005909D
:1032400001A92846FFF770FE41F28832192128466D
:1032500000F040F80646304606B070BD70B586B046
:1032600005460C460194182002904020039000204F
:1032700004904FF48060059001A92846FFF754FEA2
:1032800041F288321821284600F024F806463046DC
:1032900006B070BD01460E480068C0084FF47A734E
:1032A000B0FBF3F041F2883300FB03F200BF101EC5
:1032B000A2F1010202D14FF000407047486B00F0CC
:1032C00080000028F3D0C52088630020F5E70000C7
:1032D000000000202DE9F04305460F469046664861
:1032E0000068C0084FF47A71B0FBF1F000FB08F9F8
:1032F00000BFB9F10000A9F1010903D14FF000406E
:10330000BDE8F0836E6B06F045000028F1D006F4AE
:1033100000600028EDD1686B00F0040010B10420BB
:10332000A863EDE7686B00F0010010B10120A8630D
:10333000E6E7C520A8632846FFF7C0FDB84201D0E4
:103340000120DDE700212846FFF7C1FD04464B4878
:10335000204008B90020D3E704F00040B0F1004F4E
:1033600002D14FF00070CBE704F08040B0F1804F05
:1033700001D14020C4E704F00050B0F1005F01D15A
:103380008020BDE704F08050B0F1805F02D14FF49F
:103390008070B5E704F00060B0F1006F02D14FF427
:1033A0000070ADE704F08060B0F1806F02D14FF49F
:1033B0008060A5E704F08070B0F1807F02D14FF407
:1033C00000609DE704F40000B0F5000F02D14FF457
:1033D000805095E704F48000B0F5800F02D14FF4DF
:1033E00000508DE704F40010B0F5001F02D14FF437
:1033F000804085E704F48010B0F5801F02D14FF4BF
:1034000000407DE704F48020B0F5802F02D14FF416
:10341000003075E704F40030B0F5003F02D14FF4FE
:1034200080206DE704F48030B0F5803F02D14FF486
:10343000002065E704F40040B0F5004F02D14FF4DE
:1034400080105DE704F48040B0F5804F02D14FF466
:10345000001055E704F40050B0F5005F02D14FF4BE
:1034600080004DE704F00800082801D1000547E777
:103470004FF4803044E700000000002008E0FFFD2A
:1034800010B5014616480068C0084FF47A74B0FBC6
:10349000F4F041F2883400FB04F300BF181EA3F1DE
:1034A000010302D14FF0004010BD4A6B02F045000D
:1034B0000028F3D002F400600028EFD1486B00F040
:1034C000040010B104208863EEE7486B00F00100AF
:1034D00010B101208863E7E7C52088630020E3E797
:1034E0000000002010B5014613480068C0084FF4E2
:1034F0007A74B0FBF4F041F2883400FB04F300BFAF
:10350000181EA3F1010302D14FF0004010BD4A6B19
:1035100002F045000028F3D002F400600028EFD14B
:10352000486B00F0040010B104208863EEE7C5206A
:1035300088630020EAE70000000000202DE9F04346
:1035400004460F4690462A480068C0084FF47A7136
:10355000B0FBF1F041F2883100FB01F900BFB9F195
:103560000000A9F1010903D14FF00040BDE8F0834C
:10357000666B06F045000028F1D006F400600028D4
:10358000EDD1606B00F0040010B10420A063EDE702
:10359000606B00F0010010B10120A063E6E7204657
:1035A000FFF78CFCB84201D00120DFE7C520A06303
:1035B00000212046FFF78BFC054605F4604020B94A
:1035C000280CA8F800000020D0E705F48040B0F5F2
:1035D000804F02D14FF40050C8E705F40040B0F529
:1035E000004F02D14FF48050C0E74FF48030BDE768
:1035F0000000002010B5014618480068C0084FF4CC
:103600007A74B0FBF4F041F2883400FB04F300BF9D
:10361000181EA3F1010302D14FF0004010BD4A6B08
:1036200002F045000028F3D002F400600028EFD13A
:10363000486B00F0040010B104208863EEE7486B8B
:1036400000F0010010B101208863E7E7486B00F04B
:10365000400008B1402088630020DFE70000002020
:1036600030B58FB00446012003902068FFF72AFC94
:1036700018B94FF080600FB030BD606C03281BD0CC
:103680002068FFF746FD05460DB12846F3E7002107
:103690002068FFF71CFC606704212068FFF717FC17
:1036A000A06708212068FFF712FCE0670C21206862
:1036B000FFF70DFC80210851606C032807D003A997
:1036C0002068FFF774FD05460DB12846D3E7606C0E
:1036D000032820D0BDF80C1021655022125B110484
:1036E0002068FFF72FFD05460DB12846C3E70021EE
:1036F0002068FFF7ECFB606604212068FFF7E7FB1A
:10370000A06608212068FFF7E2FBE0660C21206834
:10371000FFF7DDFB206704212068FFF7D8FB010DD0
:10372000E16404A92046FEF747F910B14FF080503C
:10373000A1E75020005B01040A4600232068FFF740
:10374000CBFC05460DB1284695E7D4E90412A069E3
:10375000CDE90012029094E80F00FFF7BEFB0020B5
:1037600089E70000F8B504460020009000260027F5
:103770002068FFF749FC05460DB12846F8BD2068D2
:10378000FFF758FC054645B10021A1642068FFF70A
:103790003BFC05461DB12846F0E70121A164A06C61
:1037A000012808D100212068FFF7D8FB054615B194
:1037B0004FF08050E2E71DE000212068FFF7CEFBCC
:1037C00005460DB12846D9E718492068FFF7E2FB06
:1037D000054615B14FF08050D0E700212068FFF773
:1037E00076FB0646012080EAD67080F0010700983B
:1037F000401C00904FF6FF710098884201D2002FC4
:10380000DAD04FF6FF710098884202D34FF08070F3
:10381000B4E706F08040B0F1804F02D1012060642F
:1038200001E0002060640020A8E70000000010C153
:1038300070B504460D4615B94FF0006070BD5022BA
:10384000125B11042068FFF796FC06460EB1304665
:10385000F4E700212068FFF73AFB28600020EDE73D
:10386000F8B504460D4616462B4600228021204618
:10387000009600F00DF828B1606D40F02000606502
:103880000320F8BD0020FCE701460120704700003E
:103890002DE9F84F04460D4690461E46DDF8289067
:1038A000FDF772FCA0EB0900371AFDF76DFC8246AC
:1038B0002C480068C0F3CB307843009045E0701C82
:1038C000002842D0FDF760FCA0EB0A00B84200D20D
:1038D000A7BB2068406820F0E0002168486060686D
:1038E000B0F5827F0DD1A068B0F5004F03D0A0687D
:1038F000B0F5806F05D12068006820F04000216895
:103900000860A06AB0F5005F0DD100BF20680068B4
:1039100020F40050216808602068006840F40050DE
:103920002168086000BF012084F8510000BF00201A
:1039300084F8500000BF0320BDE8F88FFFE700982F
:1039400000B900270098401E009020688068284039
:10395000A84201D1012000E000204045AFD1002065
:10396000EAE7000000000020704710B5FDF712FCE8
:1039700010BD704710B50E480068C06800F0010027
:1039800078B10C49086980470020094909684862F4
:1039900000BF642006490968C86264210448C16008
:1039A00000BF6FF0010002490968086110BD000006
:1039B0008C1600201C01002010B50268204B984294
:1039C0000ED0204B98420BD0B0F1804F08D01E4B48
:1039D000984205D01D4B984202D01D4B984203D10E
:1039E00022F070024B681A43154B98420ED0154BCB
:1039F00098420BD0B0F1804F08D0134B984205D0BD
:103A0000124B984202D0124B984203D122F44072DA
:103A1000CB681A4322F080034C6943EA0402026037
:103A20008B68C3620B688362054B984202D0054BDA
:103A3000984201D10B6903630123436110BD00006B
:103A4000002C014000340140000400400008004008
:103A5000000C004070B505466C6A0020E085E084EB
:103A60002046FEF7EDFF70BD0168C96821F4907132
:103A70000268D1600168496921F001010268516161
:103A8000202180F83A10704710B504462068C068BD
:103A900020F040002168C860202084F839002046CA
:103AA000FFF78AF9002010BD70B5044694F83A007B
:103AB000222847D1A068B0F5805F0CD1206950B9A9
:103AC0000025A66A20684068C0F308003080A06A1C
:103AD000801CA06215E0A56A0026A068B0F5805F92
:103AE00003D0A06828B9206918B9206840682870F8
:103AF00004E02068406800F07F002870A06A401C45
:103B0000A062E08D401E80B2E085C8B92068C06820
:103B100020F020002168C8602068C06820F4807010
:103B20002168C8602068406920F001002168486170
:103B3000202084F83A002046FFF7FAF8002070BDF4
:103B40000020FCE70220FAE770B504462168096905
:103B500021F44051E2681143226811612269A16891
:103B60001143626941EA02052168C96841F20C62A9
:103B7000914329432268D1602168496921F4407149
:103B8000A2691143226851612D4A2168914202D1F4
:103B9000FDF786FC01E0FDF773FC00EBC00101EBD3
:103BA000001162689200B1FBF2F100EBC00202EB7F
:103BB000001263689B00B2FBF3F26423B2FBF3F2E2
:103BC00002EBC20303EB0212A1EB8201322202EBF1
:103BD00001116422B1FBF2F101F0F00100EBC0022F
:103BE00002EB001263689B00B2FBF3F26423B2FBAA
:103BF000F3F201EB021200EBC00101EB001163686C
:103C00009B00B1FBF3F100EBC00303EB001366680C
:103C1000B600B3FBF6F36426B3FBF6F303EBC3067F
:103C200006EB0313A1EB8301322303EB01116423A1
:103C3000B1FBF3F101F00F0111442268916070BDF6
:103C400000380140014691F83900212828D18868C0
:103C5000B0F5805F0BD1086948B90A6A1088C0F3D3
:103C600008000B685860086A801C086205E00B6A4F
:103C7000581C086218780B685860C88C401E80B2C7
:103C8000C88458B90868C06820F080000B68D86004
:103C90000868C06840F040000B68D860002070479A
:103CA0000220FCE710B50648FEF7CCFE00BF01225B
:103CB00004490348FFF704F80028F8D110BD0000BC
:103CC000080300200E00002000BFFEE70248006845
:103CD000C0F30220704700000CED00E010B5002892
:103CE00004DB0A07130E054A135406E00A07140EF4
:103CF000034A00F00F031B1FD45410BD00E400E082
:103D000018ED00E030380A2801D201207047002069
:103D1000704700BF70472DE9F04704460D469046B6
:103D20009946AD1E606B00EB153AC5F3C80605F069
:103D3000070101208840C7B200BF51460AF1010ABD
:103D4000204606F05DF810B10120BDE8F08700BF05
:103D500000BF04F13C00805D384008B1012000E064
:103D60000020484501D10220EFE704F13C00805DCE
:103D7000784004F13C0188550120E070A8F1010071
:103D8000B0F1000800D1E0E77806000E071EE0D190
:103D90000127701C0646B0F5007FD9D30026CCE77A
:103DA0002DE9F041044688460020E070401EA063E3
:103DB0004146204606F024F810B10420BDE8F08109
:103DC00004F23A2004F006FF07464AF655208742DF
:103DD00008D10B222DA104F13C00FCF7BBFC08B973
:103DE0000120EBE794F83C50EB2D03D0E92D01D0F6
:103DF000E82D43D14AF65520874208D1082226A152
:103E000004F18E00FCF7A6FC08B90020D6E704F107
:103E1000470004F0DFFE06464920055D701E304075
:103E200060BBB6F5007F29DBB6F5007F26DC2DB33D
:103E3000681E284010BB04F14A0004F0CBFEE8B134
:103E40004C20005D401E012818D804F14D0004F0FC
:103E5000C1FE98B104F14F0004F0BCFE802806DAE0
:103E600004F15C0004F079FEB0F5803F06D304F164
:103E7000520004F0AFFE08B100209FE74AF655203B
:103E8000874201D1022099E7032097E7EB7690451E
:103E900058464154202020004641543332202020EF
:103EA000000000002DE9F84F824615461E46DAF85C
:103EB00000000090DAF8500000F104094FF400729D
:103EC000002328463146FCF7DAF907460098B0F897
:103ED0000AC0624600233846FCF7D1F9834600BF8A
:103EE00059F8044B14B90020BDE8F88FA34500D25F
:103EF00004E0ABEB040B09F10409F1E700BFD9F8CA
:103F000000005844F0E70246891ED069801E8842AE
:103F100001D8002070475389106B03FB0100F9E7BB
:103F20002DE9F04780460C4604F11A0004F052FED9
:103F300010B10020BDE8F087207800F03F00401E5F
:103F400000EB800101EBC0054FF00109002621E0E4
:103F50001849895D081904F03DFE0746B9F1000FC4
:103F600011D0FF2D0BD8384603F01CFD82462946A0
:103F70006D1C38F8110003F015FD824501D00020BA
:103F8000D8E7B94605E04FF6FF70874201D0002020
:103F9000D0E7761C0D2EDBD3207800F0400038B13E
:103FA000B9F1000F04D038F8150008B10020C1E7BE
:103FB0000120BFE7B4EF00082DE9F04706468A4626
:103FC0003468BAF1000F0AD1D4F81480B8F1000FA8
:103FD00002D0E069404516D84FF0010813E0514681
:103FE000304603F0DDFE0746022F02D20120BDE875
:103FF000F087781C08B93846F9E7E069B84201D97A
:104000003846F4E7D046A06908B90020EFE72078E9
:1040100004284ED101224146204603F058FD0546B2
:104020000DB1681C08B92846E1E701231A46294664
:104030002046FFF770FE8146B9F1020F01D1012041
:10404000D5E7B9F1010F02D14FF0FF30CFE7BAF158
:10405000000F02D10220F0710CE0F079022809D1A2
:1040600008F10100854205D0B068A8EB0000B061FE
:104070000320F071F079022869D00AF1010085422D
:1040800007D1F06910B1F069401C00E00220F06136
:104090005DE0F06908B90120F0612A4651463046DA
:1040A00003F0F3FC8146B9F1000F50D10120F0611B
:1040B0004DE00025D04519D108F10105E069A8427D
:1040C00000D802252946304603F06AFE0746012F34
:1040D00001D0781C08B9384689E73FB16769022FDB
:1040E00003D3E069B84200D9B8460025E5B9454692
:1040F00000BF6D1CE069A84204D80225454501D9DE
:10410000002074E72946304603F04AFE074607B907
:1041100009E0012F01D0781C08B9384667E745450A
:10412000E7D1002063E700BF4FF0FF322946204669
:1041300006F0C8F98146B9F1000F08D1BAF1000FB5
:1041400005D02A465146204606F0BCF98146B9F111
:10415000000F0DD16561D4E90610801E814202D89E
:10416000A069401EA061207940F00100207107E0A5
:10417000B9F1010F02D14FF0FF3000E001200546F8
:10418000284634E72DE9F34F85B08146069800684C
:104190000290D9F80000D0F80CA0002500BF02A8BA
:1041A00006F094FD83460BF1010018B9062007B014
:1041B000BDE8F08FBBF5803F05D34FEA1B42284690
:1041C0006D1C2AF810201FFA8BF4202C03DB2F2CF7
:1041D00001D05C2C00D111E0802C06DA21467BA0B6
:1041E000FCF7AEFA08B10620E1E7FF2D01D3062067
:1041F000DDE728466D1C2AF81040D0E700BF202CD0
:1042000001DA042611E002E00298401C02900298B4
:1042100000782F28F8D0029800785C28F4D0002687
:1042200002980078202800D204260299069801609E
:1042300008E0681E3AF81040202C02D02E2C00D046
:1042400002E06D1E002DF4D100BF00202AF81500F9
:104250000DB90620ABE7002700E07F1C3AF81700F5
:104260002028FAD01FB93AF817002E2801D146F0BD
:10427000030600E06D1E25B1681E3AF810002E28D6
:10428000F8D120220B2109F14000FCF706FB4FF08A
:104290000008CDF810800820039000BF38467F1C2E
:1042A0003AF8104004B966E0202C03D02E2C04D13B
:1042B000AF4202D046F00306F0E7DDE90310884282
:1042C00001D2AF4216D103980B2802D146F0030663
:1042D00051E0AF4201D046F00306AF4200D94AE0B8
:1042E0002F46082004900B2003904FEA88604FEA85
:1042F0001068D3E7802C0ADB46F00206204603F064
:1043000051FB4FF46A71019003F012FB0446FF2C3D
:1043100011DD0398401E0499884204D846F0030634
:1043200003980490BAE722120498411C049109F101
:1043300040010A5418E024B1214627A0FCF700FAF6
:1043400018B15F2446F003060EE0412C03DB5A2C23
:1043500001DC48F00208612C06DB7A2C04DC48F012
:104360000108A4F1200084B20498411C049109F1D1
:1043700040010C5492E700BF99F84000E52802D1B3
:10438000052089F840000398082803D14FEA886087
:104390004FEA106808F00C000C2803D008F0030066
:1043A000032801D146F0020606F0020048B908F0E1
:1043B000010008B146F0100608F0040008B146F00C
:1043C00008064B2000F809600020F0E62A3A3C3E3F
:1043D0007C223F7F000000002B2C3B3D5B5D0000FA
:1043E0002DE9FF4F85B09A4603AA0121059800F0F8
:1043F0009FFD18B1012009B0BDE8F08FDDF80C90E9
:104400004FF03F08082701E07806070E37B1B9FBE7
:10441000F7F0B0FBF8F0B0F5806FF5D807B9FF27DB
:104420004FF400715046FCF740FA0AF5DF764FF082
:10443000000B444669E0069850F82B50642D07D8CD
:1044400001D1484603E06420B9FBF0F0684305461B
:104450006019484501D8601901D3A9EB040505B9D5
:1044600059E0214606F1080006F008FB294606F14E
:104470000C0006F003FB07983071B4FBF8F0B0FBBA
:10448000F7F00490B4FBF8F0B0FBF7F107FB110074
:10449000C0B20290B4FBF8F008FB1040401CC0B260
:1044A000019002987070C021049801EA900001996F
:1044B0000843B0700498F0706019401EB0FBF8F02B
:1044C000B0FBF7F004906019401EB0FBF8F0B0FBB1
:1044D000F7F107FB1100C0B202906019401EB0FB5B
:1044E000F8F108FB1100401CC0B2019002987071F5
:1044F000C021049801EA900001990843B071049822
:10450000F07110360BF1010B2C44BBF1040F02D2F9
:104510000CB14C458FD300BF4AF655210AF5FF7008
:1045200006F0E6FA012300225146059800F09CFDB2
:1045300008B101205FE700205DE72DE9F047044660
:104540000E4640212046FCF7B0F985202070C0209F
:1045500084F8200040250020804607464FF00109DE
:1045600000BFC12228466D1C2254002228466D1C23
:10457000225400BFB9F1000F06D036F81700B0F191
:10458000000901D0781CC7B26019494606F0B0FA9C
:10459000AD1C05F01F000028ECD108F1010000F06F
:1045A000FF0836F817000028DBD184F8237008F1E3
:1045B00001006070304607F0EAFC8246514604F183
:1045C000240006F095FABDE8F087000001460B488C
:1045D000007888420FDC09484078884201DB0120DE
:1045E000704706488078884205DC0448C0788842D5
:1045F00001DB0120F4E70020F2E70000C1EF000832
:10460000014610480079884219DC0E4840798842FA
:1046100001DB012070470B488079884205DC09489E
:10462000C079884201DB0120F4E70648007A88421D
:1046300005DC0448407A884201DB0120EAE70020DB
:10464000E8E70000C1EF000810B5044600204FF075
:10465000E0210861FEF74AF92046E11704EB5171A9
:10466000C1F3CF01014A118010BD000004000020F9
:1046700070B504464FF47A7094FBF0F594FBF0F1BA
:1046800000FB114603E0074800F00EF86D1E002DF8
:10469000F9D12EB14FF47A7106FB01F000F004F865
:1046A00070BD000040420F000146114A12884A4383
:1046B0004FF0E0235A6100229A611A46126942F0D3
:1046C00001021A6100BF4FF0E022106900F0010200
:1046D0001AB100F48032002AF5D04FF0E0221269BE
:1046E00022F001024FF0E0231A6100229A61704724
:1046F000040000202DE9F04104460E46D4F8008065
:104700000021204600F0A8FB05465DBB002700BF46
:104710004046A16B05F074FB054605B121E098F811
:104720000000042805D1E06B0078012121EAD010B7
:1047300009E0E06B0078E52802D0E06B007808B96A
:10474000012000E0002020B1781C0746B04201D1D2
:1047500007E000270121204600F03FF90546002D23
:10476000D6D000BF042D00D107252846BDE8F08132
:104770002DE9F04704468946204606F04FFA10B16D
:104780000120BDE8F08749462046FFF7BCFB0746FD
:10479000A7634FF4007104F13C00FCF7A8F86089AE
:1047A0004FF40041B1EB402F01D8084601E0608989
:1047B000400206464FF0000800E07608B6F5007F9C
:1047C00005D9304603F072F8B0F10008F5D0B6F51F
:1047D000007F16D931464046FCF767F8760A002577
:1047E00000E035446089A84207D97A1960783346D9
:1047F000414600F039FC0028F3D0404603F05DF854
:1048000010E004F13C080126002500E035446089F1
:10481000A84207D97A1960783346414600F024FC53
:104820000028F3D06089A84201D00120A9E7002028
:10483000A7E72DE9F04F85B0044625680021204602
:1048400000F00AFB07461FB1384605B0BDE8F08FFF
:10485000287804284CD1E86807F099FB01903EE0E5
:10486000296901F1240004F0B5F90199884200D0CA
:1048700035E0286990F8230003904FF0400A0020AB
:1048800002901FE00AF01F0008B90AF1020A296924
:1048900001EB0A0004F09EF9009003F083F88346D0
:1048A000EA68029932F8110003F07CF8834500D0E1
:1048B0000BE00398401EC0B203900AF1020A02986E
:1048C000401C029003980028DCD100BF039828B94F
:1048D000E968029831F8100000B906E000BF002135
:1048E000204600F0EAF8071EBAD000BF3846ACE711
:1048F0004FF0FF09CDF810904FF0FF30E06400BF9B
:104900002846A16B05F07CFA074607B162E0E06B30
:1049100006780EB904275DE0E06BC07A00F03F082E
:1049200084F80680E52E05D008F0080040B1B8F103
:104930000F0F05D04FF0FF094FF0FF30E06442E069
:10494000B8F10F0F22D14B20005D00F04000A0BB5A
:1049500006F0400038B1E06B407B049006F0BF06E3
:10496000B146206BE0644E450CD1E06B417B04986E
:10497000814207D1E16BE868FFF7D2FA10B1A9F1E3
:10498000010000E0FF2000F0FF091CE0B9F1000F7A
:1049900006D1E06B06F0EBF80499884200D119E0EB
:1049A0004B20005D00F0010040B90B2204F14001F2
:1049B000E06BFBF7CFFE08B90CE004E04FF0FF0915
:1049C0004FF0FF30E0640021204600F006F8074673
:1049D000002F95D000BF384637E72DE9F041044657
:1049E00088462768206B00F120063878042801D11A
:1049F000800601E04FF40010B04201D80020A0630F
:104A0000A06B10B90420BDE8F081C6F308000028AF
:104A10004AD1A06B401CA063606B38B93889B0EBF9
:104A2000561F41D80020A0630420ECE77889401E7F
:104A300000EA5620002837D12046616B03F0B0F918
:104A40000546012D01D80220DDE7681C08B90120C8
:104A5000D9E7F869A84221D8B8F1000F03D10020A6
:104A6000A0630420CFE72046616BFFF7A5FA054657
:104A70000DB90720C7E7012D01D10220C3E7681C4B
:104A800008B90120BFE729463846FFF771FE08B193
:104A90000120B8E7E07940F00400E0716563294641
:104AA0003846FFF730FAA0632663C6F3080107F122
:104AB0003C000844E0630020A5E72DE9F05F0446D0
:104AC0008846042627684FF0FF0AD3466CE0384634
:104AD000A16B05F095F9064606B168E0E06B057834
:104AE0000DB9042663E03878042814D1B8F1000F1A
:104AF00002D0832D51D15AE0852D4ED1206BE06438
:104B0000204604F0C3F8064626B93869007900F05B
:104B10003F00A0714BE0E06BC07A00F03F0984F8E1
:104B20000690E52D0AD02E2D08D029F02000082867
:104B300001D1012000E00020404502D04FF0FF0AE3
:104B40002BE0B9F10F0F1CD105F0400038B1E06B3C
:104B500090F80DB005F0BF05AA46206BE0645545FE
:104B60000BD1E06B407B584507D1E16BF86805F04D
:104B700063FC10B1AAF1010000E0FF2000F0FF0A81
:104B80000BE0BAF1000F04D1E06B05F0F0FF5845DF
:104B900002D04FF0FF30E06409E000212046FFF72B
:104BA0001CFF064606B102E0A06B00288FD100BFB3
:104BB0000EB10020A0633046BDE8F09F2DE9F04F14
:104BC00099B0044626684B20005D00F0A00018B1A3
:104BD000062019B0BDE8F08F4FF0000B01E00BF19B
:104BE000010BF06830F81B000028F8D13078042859
:104BF00066D10BF10E000F21B0FBF1F000F10209BC
:104C000049462046FFF776FD05460DB12846E0E708
:104C1000A9F101002022216B02FB1010E064E07971
:104C200000F00400002845D0E07920F00400E07195
:104C3000204602F00FFF05460DB12846C9E74FF0A8
:104C4000FF322046616B02F020FF05460DB1284679
:104C5000BFE7A06870B32146684603F0F7FF05463A
:104C60000DB12846B5E770894002D4E9043118181F
:104C700041F10001C4E90401D4E90473316901F18F
:104C800038003A4605F006FFD4E90473316901F1B2
:104C900028003A4605F0FEFEE07940F00100316957
:104CA00081F82100684605F029FF05460DB1284628
:104CB0008FE700BFD6E90310FFF73FFC002088E72D
:104CC000D4E91112206C15AB07C39DF85F0000F00A
:104CD000010028B340214B2001554FF0010A0EE09E
:104CE000534615A904F14000F26802F0EFFF204698
:104CF000FFF79FFD054605B104E00AF1010ABAF18C
:104D0000640FEDD300BFBAF1640F01D1072060E753
:104D1000042D01D028465CE79DF85F104B2001551B
:104D20009DF85F0000F0020030B10BF10C000D2186
:104D3000B0FBF1F0401C00E00120814649462046CE
:104D4000FFF7D8FC054675BBA9F10100B0F10009D9
:104D500029D0206BA0EB4911204600F07DF80546D4
:104D60000DBB04F1400005F002FF149000BF304677
:104D7000A16B05F045F8054605B113E009F0FF0207
:104D8000E16BF068149B05F03FFC0120F0700021FE
:104D90002046FFF722FE054625B9A9F10100B0F132
:104DA0000009E4D100BFE5B93046A16B05F028F851
:104DB0000546B5B92021E06BFBF777FDE06B216C70
:104DC0000160616C4160B4F84810018194F84A10A8
:104DD00081724B20005D00F01800E16B0873012028
:104DE000F0702846F5E62DE9F04104462668276B69
:104DF000E06C401C08B9002003E02046E16C00F0A4
:104E00002BF805462DBB00BF3046A16B04F0F8FF20
:104E1000054605B119E03078042806D1E06B00782A
:104E200000F07F00E16B087002E0E520E16B0870A4
:104E30000120F070206BB84200D306E0002120462C
:104E4000FFF7CBFD0546002DDED000BF042D00D1BD
:104E500002252846BDE8F0812DE9F04104460D46C3
:104E600026683078042801D1800601E04FF4001054
:104E7000A84202D905F01F0010B10220BDE8F08160
:104E80002563A7682FB93078032802DBF76A002072
:104E9000E07147B93089B0EB551F01D80220EDE72A
:104EA000F06AA0631CE070894FEA402811E039469F
:104EB000204602F075FF0746781C08B90120DDE79F
:104EC000022F02D3F069B84201D80220D6E7A5EB41
:104ED00008054545EBD239463046FFF714F8A06384
:104EE0006763A06B08B90220C8E7A06B00EB5520F0
:104EF000A063C5F3080106F13C000844E06300200C
:104F0000BCE770B50446002514B1012C07D103E0BD
:104F100005F0C4FC054604E005F0A0F801E0012519
:104F200000BF00BF0DB1012070BD0020FCE70000F4
:104F30002DE9F0470646894615465EBBB9F1000FDC
:104F400009D0B9F1010F13D0B9F1020F05D0B9F1B1
:104F5000030F1CD106E000241BE04FF40070286012
:104F6000002416E01E48B0F858002880002410E005
:104F70001B48416D806DA1FB007001464FF400722B
:104F800000233846FBF7F2F92860002401E00424EE
:104F900000BF22E0012E1FD1B9F1000F09D0B9F1F5
:104FA000010F11D0B9F1020F05D0B9F1030F10D1E3
:104FB00006E000240FE04FF40070288000240AE08F
:104FC00008202880002406E04FF4C0402860002418
:104FD00001E0042400BF00E001242046BDE8F08782
:104FE000900300202DE9F04180460E4614461D46F0
:104FF000002715B90420BDE8F081B8F1000F03D0F7
:10500000B8F1010F25D113E02A462146304605F0BC
:1050100061FC074609E0022F01D005F03FFC2A465B
:105020002146304605F056FC0746002FF3D112E02A
:105030000BE0002000EB44214FF40072304605F0F5
:105040006BF8641C06F500766D1E002DF1D100276B
:1050500001E0012700BF00BF0FB90020CBE701200E
:10506000C9E70146002070472DE9F04107460E468A
:1050700014461D464FF0000815B90420BDE8F08124
:1050800017B1012F24D112E02A462146304605F0FF
:1050900049FC804607E005F001FC2A4621463046DF
:1050A00005F040FC8046B8F1000FF4D113E00BE0AE
:1050B000002000EB44214FF40072304605F0CEF89A
:1050C000641C06F500766D1E002DF1D1A84602E0A5
:1050D0004FF0010800BF00BFB8F1000F01D1002060
:1050E000CCE70120CAE72DE9FC4707460C461546E8
:1050F000002000908046814601AA6946384600F0AB
:1051000058F806468EB90198C069801E01994989F0
:1051100000FB01F901984089009900FB01F84FEA72
:10512000590020604FEA580028603046BDE8FC87EF
:1051300070B5002500240EE04FF40F71002004F03C
:1051400057FF0B4941F82400084650F8240000B9E5
:1051500003E0601CC4B2022CEEDB00BF04F090F848
:105160000546022C02D10DB9002070BD0120FCE7DC
:105170002C02002038B50546284602F003F9044603
:105180004CB96946284606F0C5FE04461CB9002005
:105190002860204638BD2046FCE738B504466946FD
:1051A000204606F0B7FE05460DB9002020602846CF
:1051B00038BD2DE9F74F90B08A4600220EA910A8FD
:1051C00004F0E4FB0746002F0CD10E991298016001
:1051D0000E98D0E90610801E814204D80E9880698E
:1051E000CAF800008FE000260E98007801281DD133
:1051F00002250E98029000BF294602A802F0D0FDB9
:10520000804608F1010008B901270EE0B8F1010F4E
:1052100001D1022709E0B8F1000F00D1761C681C0B
:1052200005460E99C9698842E6D361E00E98007878
:1052300004282FD10E98C069851E0E98D0F834909E
:10524000002400BF44B9494609F101090E9804F051
:10525000D7FD074607B11BE04FF0080B0E983C3016
:10526000005D01900AE0019800F0010000B9761C91
:10527000019840100190ABF1010B6D1EBBF1000FC6
:1052800001D0002DEFD1601CC0F30804002DD9D14E
:1052900000BF2DE00E98C5690E98D0F82890002424
:1052A00000BF44B9494609F101090E9804F0A8FD70
:1052B000074607B11BE00E980078022808D10E9926
:1052C0003C31081903F086FC00B9761CA41C09E0E7
:1052D0000E993C31081903F040FC20F0704000B9F1
:1052E000761C241DC4F30804681E051ED9D100BF16
:1052F0004FB9CAF800600E9886610E98007940F0A8
:1053000001000E990871384613B0BDE8F08F2DE901
:10531000F74F96B00E469246002201A916A804F057
:1053200035FB8046B8F1000F69D1002E67D0019897
:10533000029000200490002102A8FFF78DFD804616
:10534000B8F1000F55D1012102A8FFF7B6FB804646
:10535000B8F1000F4DD101980078042832D1002413
:10536000A346274622E01199891C01EB470003F070
:1053700031FC0546BBF1000F07D1B5F5584F04DBF2
:10538000B5F5604F01DAAB460FE0311945EA0B4045
:10539000042205F079F98146B9F1000F01D100240A
:1053A00008E04C444FF0000B00BF7F1C1198407880
:1053B000B842D8D800BFBBF1000F00D000240020B5
:1053C000305516E00024274606E038467F1C119A27
:1053D000155C2046641C35540B2FF6D300BF00200B
:1053E000305504B904E0601E0446305C2028F6D035
:1053F00000BFB8F1040F02D1002030708046B8F130
:10540000000F1ED1BAF1000F1BD00198416A04F0C1
:10541000F7FC8046B8F1000F13D1019800780328FB
:1054200003D0042803D1642403E0432401E02724AB
:1054300000BF00BF01993C31081903F08EFBCAF888
:105440000000404619B0BDE8F08F2DE9FC478046CA
:105450000C46914600254646641E13E06B46012229
:1054600001A9484601F04AFC0098012800D00BE051
:105470009DF8047000BF06F8017B6D1C0A2F00D157
:1054800002E000BFA542E9DB00BF0020307015B18B
:105490004046BDE8FC870020FBE72DE9F04F8FB0C8
:1054A000044615461E460DA9204606F033FD0E9013
:1054B0000E9810B994F831000E900E9848B90D98D6
:1054C0000078042805D1421F2046216C02F0DDFA45
:1054D0000E900E9818B10E980FB0BDE8F08F206DA9
:1054E00000287ED04FF0FF3185EA0100714008436B
:1054F00055D1206D04900498006806900498001D12
:10550000049002200590D4F808B0BBF1000F38D009
:1055100000BFCDF81CB0002008900598801C0590B5
:1055200000BFCDF824B00898401C0890594620468A
:1055300002F036FC8346BBF1010F03D8022084F849
:105540003100C9E70BF1010018B9012084F83100DE
:10555000C2E70998401C8345E3D0DDE90501884294
:105560000BD80499089808600498001D04900499C9
:10557000079808600498001D04900D98C06958456C
:10558000C7D80598216D0860DDE90501884203D878
:10559000002104980160A9E111200E90A6E1D4E950
:1055A0000410491BB04101D2D4E90456C4E90E5697
:1055B000002185EA010071400843ECD06F1E66F1BE
:1055C00000033A462046FEF76DFC2064216C0D98DE
:1055D000FEF799FC0390039820B9022084F831006B
:1055E0007AE748E06F1E66F100014FF40072002375
:1055F0003846FAF744FE0D994989491E0840039937
:10560000084403904FF400720023D4E90E71384629
:10561000FAF735FE00214A404B401A43BBD0616C7B
:1056200003988142B7D094F8300000F0800090B128
:10563000626C0D994878012304F15401FFF714FDC1
:1056400018B1012084F8310046E794F8300000F0EA
:105650007F0084F830000D994878012304F154014B
:10566000039AFFF7BFFC18B1012084F8310033E73B
:10567000039860643AE10D980078042806D0291E4A
:1056800076F1010002D34FF0FF350026D4E9041073
:10569000491BB04106D294F8300000F0020008B96E
:1056A000D4E90456D4E90E01CDE90A0100200C909A
:1056B000A063E063002185EA0100714008437ED0C9
:1056C0000D9840894FEA40290023DDE90A0158403E
:1056D000594008432CD06F1E66F100014A463846F7
:1056E000FAF7CDFD07468846DDE90A10491E60F14C
:1056F00000004A460023CDE9001008460199FAF758
:10570000BEFD381A78EB010812D3DDE90A104A1EF3
:1057100060F10001A9F1010022EA0000C4E90E01D4
:10572000D4E90E21AD1A66EB0106D4F840A01BE0C7
:10573000D4F808A0BAF1000F14D100212046FEF7DA
:105740003BFC8246BAF1010F03D1022084F83100FC
:10575000C2E60AF1010018B9012084F83100BBE665
:10576000C4F808A0C4F840A0BAF1000F75D047E013
:10577000B5EB090566F10006D4E90E2012EB09022B
:1057800040F10000C4E90E2094F8300000F002005F
:10579000E8B1D4E90E32D4E90410C91A904109D213
:1057A000D4E90E01C4E9040194F8300040F040004F
:1057B00084F8300051462046FEF7FEFB00E04CE046
:1057C0008246BAF1000F07D100252E461DE0514652
:1057D000204602F0E5FA82460AF1010018B90120DC
:1057E00084F8310078E6BAF1010F03D90D98C06949
:1057F000504503D8022084F831006DE6C4F840A07B
:105800000020B9EB0501B041B2D300BFD4E90E10BE
:1058100049197041C4E90E104FF400720023284664
:105820003146FAF72CFD00214A404B401A4314D070
:1058300051460D98FEF767FB0C900C9818B90220A2
:1058400084F8310048E64FF40072002328463146C0
:10585000FAF715FD0C9908440C90D4E90430D4E90A
:105860000E12591A904109D2D4E90E01C4E904017B
:1058700094F8300040F0400084F830004FF400729B
:105880000023D4E90E713846FAF7F9FC00214A40AA
:105890004B401A432AD0616C0C98814226D094F870
:1058A000300000F0800090B1626C0D9948780123BF
:1058B00004F15401FFF7D8FB18B1012084F831003E
:1058C0000AE694F8300000F07F0084F830000D996B
:1058D0004878012304F154010C9AFFF783FB18B1B7
:1058E000012084F83100F7E50C9860640E98F3E528
:1058F0002DE9F141A3B0022201A923A804F046F842
:105900000446002C7ED101980E904FF48C6001F07B
:10591000CDFF06461EB9112024B0BDE8F0810198E4
:10592000C66006F50070019908610EA8239902F07F
:105930005CF9044604B9082400BF042C7ED1019808
:105940000290002102A8FEF737FB0546002405B9A6
:105950000724012D00D10224681C00B9012402F0A3
:10596000E9FA8046002C3BD129460198FEF700FF5A
:105970000446ACBB0198007804282DD020220B21CE
:1059800001983C30FAF789FF2E20019981F83C00FC
:105990001021019880F8471041460198523005F0D7
:1059A0006DF82A4601993C31019805F055F82022FE
:1059B00001993C3101985C30FAF73DFF2E210198A6
:1059C00080F85D10109F3A4601995C31019805F00E
:1059D00043F801200199C8700EA8FFF7EFF80446BC
:1059E000002C4CD101980078042831D10199096923
:1059F00001F10C00414605F041F80199096901F1F6
:105A0000340000E043E0294605F038F8019A528955
:105A10005102019A126902F1380005F02FF8019A3B
:105A200052895102019A126902F1280005F026F804
:105A300003200199096981F8210000E024E0102089
:105A40000199096908710EA805F058F8044610E09C
:105A50001D9901F11600414605F010F82A461D99DE
:105A6000019804F0F9FF10201D99C87201200199D6
:105A7000C8704CB9019805F08BF8044604E0002288
:105A8000294602A804F065FE304601F016FF2046C4
:105A900042E700002DE9FF4FA5B0174625A802F008
:105AA00088FB0F900F98002803DA0B2029B0BDE87F
:105AB000F08FFE490F9851F8200028B10021FB4AD1
:105AC0000F9852F8200001700F98C0B22290002069
:105AD0002190269808B9F64826902298FFF711FAE7
