:020000040800F2
:1000000030080020F901000881290008D7280008DD
:100010007D290008011500082D2C000800000000B3
:10002000000000000000000000000000AD290008F2
:10003000051500080000000083290008AF2900080A
:10004000130200081302000813020008130200083C
:10005000130200081302000813020008130200082C
:10006000130200081302000813020008130200081C
:10007000130200081302000813020008130200080C
:1000800013020008130200081302000813020008FC
:1000900013020008130200081302000813020008EC
:1000A00013020008130200081302000813020008DC
:1000B00013020008130200081302000813020008CC
:1000C00013020008130200081302000813020008BC
:1000D00013020008092C000813020008130200088C
:1000E000130200081302000813020008130200089C
:1000F000130200081302000813020008130200088C
:10010000130200081302000813020008130200087B
:10011000130200081302000813020008130200086B
:10012000130200081302000813020008130200085B
:1001300000F002F800F050F80AA090E8000C8244A9
:100140008344AAF10107DA4501D100F045F8AFF286
:10015000090EBAE80F0013F0010F18BFFB1A43F0A5
:10016000010318474C9100006C910000103A24BF25
:1001700078C878C1FAD8520724BF30C830C144BF0C
:1001800004680C607047000000230024002500264E
:10019000103A28BF78C1FBD8520728BF30C148BFEA
:1001A0000B607047662905F0F487642900F09080A1
:1001B000782900F0C980732900F0918400207047ED
:1001C0001FB500F0A3FC04000020002105F06CFB2B
:1001D000E0601FBD10B510BD00F09CFD1146FFF79B
:1001E000EFFF04F041FC00F0BAFD03B4FFF7F2FFAB
:1001F00003BC02F054FD000009488047094800474D
:10020000FEE7FEE7FEE7FEE7FEE7FEE7FEE7FEE7C6
:10021000FEE7FEE704480549054A064B7047000023
:10022000B729000831010008300200203008002002
:100230003004002030040020704700000FB404494F
:1002400010B503AA029800F04FFC10BC5DF814FB37
:10025000080000200FB41CB5074B06AA7B44694672
:100260000090059800F011FC0020694600F020FC89
:100270001CBC5DF814FB00005108000070B50C4672
:100280000546012A05D02878800600D5EA690023B2
:1002900002E0012305E05B1C934202D2E05C0028EF
:1002A000F9D1A869E618C01AA861286A184428621A
:1002B0002846AFF3008004E0D5E9012114F8010BD2
:1002C0009047B442F8D32846AFF3008070BD0000D9
:1002D0002DE9F0410646002410687529314616A51F
:1002E00010D0AFF30080002802DA404213A507E0E7
:1002F00031688A0701D512A502E0490704D511A586
:10030000012401E0AFF3008000210A2206F1240756
:1003100009E0B0FBF2FCB0FBF2F302FB1C00303052
:1003200078541846491C0028F3D123462A46304603
:10033000BDE8F04100F03CB9000000002D000000D5
:100340002B0000002000000070B504460D46214639
:100350001068AFF300802188090502D50F4A7A445E
:1003600002E00E4A7A440E32002104F1240305E033
:1003700000F00F060009965D5E54491C0028F7D175
:1003800020780023000704D5702D02D009B1022384
:1003900011322046BDE8704000F00AB9028E00001C
:1003A0002DE9F05F894604464FF0000ADFF824B1DA
:1003B000FB44C0F820A02046E168884700287DD093
:1003C000252806D0D4E901219047206A401C2062EC
:1003D000F1E700255F462046E16888472028064669
:1003E00007DB312E05D2B81910F8200C08B10543EF
:1003F000F1E7A80701D525F00405C4F81CA00027E3
:10040000C4F818A02A2E09D0304602F041FC38B3B7
:1004100004EB8708303EC8F8186019E059F8041B4F
:10042000204604EB87029161E1688847012F064668
:1004300018D1E069002820DA25F020051DE0D8F861
:10044000180000EB800006EB40003038C8F81800B8
:100450002046E1688847064602F01AFC0028EED1E3
:10046000012F0AD02E2E08D12046E16888477F1C34
:100470000646022F45F02005C4DBA069002803DAF8
:10048000404245F00105A061E80701D025F01005C4
:10049000A6B1A6F14100192802D8203645F400651E
:1004A0004A463146204625604D46FFF77BFE60B147
:1004B000012807D0ED1D25F0070000E007E000F15E
:1004C000080978E705F1040975E730467AE7206AFC
:1004D000BDE8F09FD88D00004FF0000200B5134634
:1004E00094469646203922BFA0E80C50A0E80C5054
:1004F000B1F12001BFF4F7AF090728BFA0E80C5005
:1005000048BF0CC05DF804EB890028BF40F8042BFD
:1005100008BF704748BF20F8022B11F0804F18BF6A
:1005200000F8012B704700004FF0013C50F8042BFD
:1005300051F8043B9A4221D1A2EB0C03934313EAF6
:10054000CC1317D150F8042B51F8043B9A4215D123
:10055000A2EB0C03934313EACC130BD150F8042BFA
:1005600051F8043B9A4209D1A2EB0C03934313EADE
:10057000CC13DBD04FF00000704700BFD01A01BA97
:10058000B1FA81F101F0180122FA01F0CB40C1F17A
:100590002001DBB2C0B2C01A2CFA01F3D11A914388
:1005A00011EAC311E6D17047704770477047704732
:1005B0002DE9F0470D4699469246044600F124087D
:1005C0000168880604D5E06921F01001216000E08F
:1005D0000120A84201DD471B00E00027A1697A192C
:1005E00002EB0900081AA0612078C00602D4204658
:1005F000AFF30080002608E0D4E901211AF80600D4
:100600009047206A401C761C20624E45F4DB20781F
:10061000C0060AD52046AFF3008006E0D4E90121E8
:1006200030209047206A401C2062381EA7F1010745
:10063000F4DC07E0D4E9012118F805009047206AAE
:10064000401C2062281EA5F10105F3DC2046AFF313
:1006500000802078000602D50220BDE8F087012046
:10066000FBE770472DE9FF4F0C461E464FF0FF3762
:100670008BB0D2E90001DDF860800A908A46C1F3B0
:100680000A5505B93D46002108464FF00000BAF171
:10069000000F00F4400005DA00EB80004FF4400149
:1006A00001EA50004FEA9059B9F1010F00DDB94657
:1006B0000A9850EA4A000ED044F61050A5F2FF35D1
:1006C00045432F14B8F1000F1ED07542291E1EDDC0
:1006D000C9F100021CE0B8F1010F4FF0000001D099
:1006E000302103E0F24305E02154401CB042FBDB23
:1006F00030460022002121540B99C1F80880C1E93D
:1007000000200FB0BDE8F08FBD1B6D1CDEE74A4630
:1007100000DA694206A800F083FA06AB93E8070006
:1007200003AB83E8070050460A9900F021FB8DE8EF
:100730000700A0F500501F3800900398002D0ADD37
:1007400042F21F014A460844002303A90390684669
:1007500000F08AFD09E0A0F500504A461F3800234A
:1007600003A90390684600F094FD8DE8070000049B
:10077000000C03D04FF0FF30410800E01046B8F104
:10078000000F03D00022009215461EE0751E05D40E
:1007900000F0C0F9303262556D1EF9D5B346012222
:1007A000084302D000227F1C04E02078302801D1C9
:1007B00000227F1E002A099784D01DE0112D07DA40
:1007C00000F0A8F9303262556D1C50EA0102F5D1F3
:1007D000084302D00098C8B10EE00021681E05E071
:1007E000235C625C63542254401E491C8142F7DB47
:1007F000AB46A81B401E0990002004F80B000B9884
:10080000099AC0F80880C0E9002B7AE711264FF05A
:10081000000857E72DE9F04F88460446D21D22F024
:10082000070191B0D1E90001CDE90A0102F000FA17
:1008300002460B98C00F01D02D2007E020688107E9
:1008400001D52B2002E0202101EAC000032A0990F3
:1008500001D0072A05DB03464146204600F0A0F9F7
:100860000BE12078800601D5E06900E00620B8F1B0
:10087000650F814606D0B8F1660F18D0B8F1670F42
:1008800070D131E00020B9F1110F009001DB11238C
:1008900001E009F101030AAA01A90CA8FFF7E2FE91
:1008A000DDE90C70002609F10105834647E00120CF
:1008B0004B4600904FF000470AAA01A90CA8FFF789
:1008C000D1FEDDE90DB00C995D46002610B909F1A5
:1008D00001000D18B9EB050003D4C0F1FF3609F192
:1008E0000105A5EB09002BE0B9F1010F01DA4FF08A
:1008F00001090020B9F1110F0090484601DD1123D4
:1009000000E003460AAA01A90CA8FFF7ABFEDDE947
:100910000C704D4600268346207800070AD4AB456C
:1009200000DA5D4601A8012D04DD411911F8011C12
:10093000302907D04F4502DA17F1040F04DA0120FD
:1009400082460FE06D1EEEE7002F02DCED1B3E44F9
:1009500003E0781CA84200DD7D1CB81B00F1010AF1
:100960004FF000472078000703D4AA4501DB4FF081
:10097000FF3A0021B7F1004F0DF143088DF8431005
:1009800024D002202B23002F01DA7F422D230A21BD
:10099000021EA0F1010000DC5FB197FBF1FC97FBA8
:1009A000F1F201FB1C7C17460CF1300C08F801CD6C
:1009B000EEE7A8F1010003702188090501D5452162
:1009C00000E06521A0F1010800F8011C09980FA9B9
:1009D000A1EB0807FF1D00B10120411901EBEA70EE
:1009E000A1693844081A401EA0612078C00602D4CC
:1009F0002046AFF30080099828B1D4E9012190473F
:100A0000206A401C20622078C00622D52046AFF321
:100A100000801EE0002E04DBB34502DD01A8805DEE
:100A200000E03020D4E901219047206A401C206278
:100A3000761CAAF101005FEA000A0AD100F066F80C
:100A4000C0680168405CD4E901219047206A401CDD
:100A50002062281EA5F10105DCDC07E0D4E90121B4
:100A600018F8010B9047206A401C2062381EA7F13D
:100A70000107F3DC2046AFF30080032011B041E60C
:100A800001694A1C02610878704700B58FB0CDE952
:100A900001310021059105497944CDE90310114642
:100AA0006846FFF77DFC0FB000BD0000E5FFFFFFCB
:100AB0000A6802F8010B0A60704710B5436913B168
:100AC000AFF3008001E0FFF7D9FB012010BD1278E1
:100AD00000F124010A7000224A700122EDE711683A
:100AE0004FF0FF32E9E70000074B70B50D467B443D
:100AF000FFF7CBFF0446284600F004F910B14FF091
:100B0000FF3070BD204670BD7F2700000048704751
:100B1000EC01002030B5B0F10A024FEA900E71F1FD
:100B200000034EEA817EB0EB0E0061EB91014FEACB
:100B3000101E4EEA017E10EB0E0041EB11114FEA40
:100B4000102E4EEA016E10EB0E0041EB11214FEA20
:100B5000104E4EEA014E10EB0E0041EB11414018D1
:100B600041F100014FEAD00040EA41704FEAD10163
:100B700010EB80054FEA810444EA907444EB0104D1
:100B80006D1944EB0404521BA3414FF0000348BF0E
:100B90000A3200D530BD401C41F1000130BD0000DB
:100BA0002DE9F0411F46044603260168072A01F497
:100BB000006004DB08B116A505E016A503E008B146
:100BC00015A500E015A521F010002060A069C01E49
:100BD000A0610FB1401EA0612046AFF300804FB16D
:100BE000D4E9012138469047206A401C2062C01C8D
:100BF000206206E0206AFAE7D4E9012115F8010B2A
:100C00009047761EF8D22046AFF30080BDE8F08111
:100C10004E414E006E616E00494E4600696E6600A0
:100C20002DE9F047814616468AB0354878440DC80C
:100C30008DE80D0032487844801C03AC0DC884E870
:100C40000D0041F69B300844372190FBF1F290FBF8
:100C5000F1F5A5F1800501FB12041B3C02D56442AD
:100C6000012000E00020DFF898A080460027FA4429
:100C7000AAF1BE0A0EE0E0070AD03246684607EB4A
:100C8000470101230AEB810100F003FB8DE8070017
:100C900064107F1C002CEED1194F7F44AE3F19E049
:100CA000E80715D007EB04100DF1180A90E80E00C4
:100CB0008AE80E00C068F04201D1981908903246C7
:100CC000012306A903A800F0E4FA03AB83E80700B8
:100CD0006D10641C002DE3D14FF0010332466946CC
:100CE000B8F1000F03A802D000F0BEFA01E000F056
:100CF000D0FAC9E90001C9F808200AB0BDE8F087B8
:100D0000EC850000007B00F08000704700487047D1
:100D1000CC0100207546FFF7F9FFAE460500694695
:100D2000534620F00700854618B020B5FFF772FA49
:100D3000BDE820404FF000064FF000074FF00008DC
:100D40004FF0000B21F00701AC46ACE8C009ACE85D
:100D5000C009ACE8C009ACE8C0098D46704710B5C1
:100D60000446AFF300802046BDE81040FFF73DBACF
:100D70005FEA400C08BF91F0000F4FEA8C234FEA66
:100D8000C12243EA51514FEA1C5018BF00F5F04010
:100D90004FEA300018BF41F000415FEA6C5C00F0A0
:100DA0002980BCF1FF3F08BF40F080407047130C22
:100DB00006BF12044FF0100C4FF0000C130E04BFCE
:100DC00012020CF1080C130F04BF12010CF1040CF9
:100DD000930F04BF92000CF1020CD30F04BF52001A
:100DE0000CF1010C11464FF00002A0F11F00A0EB26
:100DF0000C00704711F0004F08BF704731F0004100
:100E00003FF4D5AF0B0C06BF09044FF0100C4FF0A8
:100E1000000C0B0E04BF09020CF1080C0B0F04BFF1
:100E200009010CF1040C8B0F04BF89000CF1020CBA
:100E3000CB0F04BF49000CF1010CCCF12003A0EB57
:100E40000C0022FA03F302FA0CF241EA030100F16A
:100E50000100704720F07F4C80EA030023F07F47B9
:100E6000ACEB070303F57C5300F0004003F1FF03F4
:100E70002DE980494FEA154B09B44FEA144325EA9E
:100E80000B4E24EA03480FF2042606EB1327490809
:100E90003E785FEA320203FB0667C7F5000707FBEF
:100EA00006F64FEA54374FEAD64606F1020607FB2C
:100EB000066CCCF1005C4FEA1C472CEA074C07FBA0
:100EC00006F40CFB06F504EB15464FEA961634BF04
:100ED00000204FF000404FEAD13706FB07FC4FEAF5
:100EE0001C4C0CFB0BF7D21B03FB0CF761EB07014F
:100EF0000CFB0EF7B0EB074072EB17420CFB08F748
:100F000034BFA2EB0742B2EB074261EB17414FEA55
:100F10000C444FEA910706FB07FC4FEA1C4C0CFB04
:100F20000BF7B0EBC74072EB573203FB0CF734BF43
:100F3000A2EBC742B2EBC74261EB57310CFB0EF795
:100F4000B0EBC70072EB57720CFB08F734BFA2EB93
:100F5000C702B2EBC70261EB5771039F4FEA816191
:100F600041EA921104EBCC044FEAD1374FEA826296
:100F700006FB07FC42EA90124FEA80604FEA1C4CE5
:100F80000CFB0BF7D21B03FB0CF761EB07010CFB0F
:100F90000EF7B0EB074072EB17420CFB08F734BFBB
:100FA000A2EB0742B2EB074261EB17414FEA8C55C7
:100FB0004FEA910704EB9C2406FB07FC4FEA1C4C0C
:100FC0000CFB0BF7B0EBC74072EB573203FB0CF78F
:100FD00034BFA2EBC742B2EBC74261EB57310CFB07
:100FE0000EF7B0EBC70072EB57720CFB08F734BF7B
:100FF000A2EBC702B2EBC70261EB577115EB4C25B0
:101000004FEA816141EA92114FEA82624FEAD13799
:1010100042EA901206FB07FC44F100044FEA8060AC
:101020004FEA1C4C0CFB0BF7D21B03FB0CF761EBDC
:1010300007010CFB0EF7B0EB074072EB17420CFBFD
:1010400008F734BFA2EB0742B2EB074261EB17414E
:1010500015EB1C154FEA813141EA92414FEA823289
:1010600042EA90424FEA80304FEA0C7644F10004A5
:1010700048EA03434EEA0B484FF0000EB2EB080C6F
:1010800071EB030724BF624639464EEB0E0E4FF05C
:10109000000B0018524149414BEB0B0BB2EB080C13
:1010A00071EB03077BF1000B24BF624639464EEB20
:1010B0000E0E4FF0000B0018524149414BEB0B0B49
:1010C000B2EB080C71EB03077BF1000B24BF624607
:1010D00039464EEB0E0E51EA020718BF46F00106E4
:1010E00016EB0E7655F1000254F1000103D5BDE870
:1010F0008901BDE80088BDE88901BDE80048B6194E
:10110000524141EB0101A3F10103704780807F7ED2
:101110007D7C7B7A7978777676757473727171706D
:101120006F6E6E6D6C6C6B6A6A696868676666651F
:101130006464636362616160605F5F5E5E5D5D5CAD
:101140005C5B5B5A5A59595858575756565555551E
:101150005454535352525251515050504F4F4F4E7E
:101160004E4D4D4D4C4C4C4B4B4B4A4A4A494949CC
:10117000484848474747474646464545454444440E
:10118000444343434342424242414141002B9C4637
:1011900030D477002BD01CB54FEA370703B44FF09B
:1011A00010004FF01001BAF1000F06D0BCF1000F93
:1011B000DCBF40F0080040F008014FF000000FBC19
:1011C000BDE810400BF1010BBBF1010F08BF5FEA56
:1011D000170722BF12F1010211F101014FF0004186
:1011E00043F1000300F0004043EA00007047F9D3E8
:1011F0005708D0E746EA064613F1400F4FEA164675
:101200001FDD13F1200FDFBF16430A4600212033F4
:101210005B42BED0C3F1200746EA064602FA07F752
:101220004FEA164646EA0706C3F1200722FA03F200
:1012300001FA07F721FA03F14FF0000342EA07022F
:10124000A7E746EA020646EA06464FEA164646EA97
:101250000106BCBF46EA0646360C4FF000034FF0CD
:1012600000024FF0000194E72DE9804C9A46934626
:1012700070B491E8380007C831EA400C48BF34EA3E
:10128000430C03D5FFF7E6FDFFF780FFF0BCBDE898
:10129000008C2DE9804C9A46934670B491E8380052
:1012A00007C810F0804F08BF13F0804F03D100F043
:1012B00005F8FFF76BFFF0BCBDE8008C20F07F471E
:1012C00080EA030023F07F4C07EB0C03A3F57C536B
:1012D00000F00040A3F1FE0392F0000F00F0B38095
:1012E00095F0000F00F077802DE901494FEA114099
:1012F0004FEA144621EA004800FB06FC24EA0647B0
:1013000008FB06F607FB08F800FB07F718EB064892
:101310004CEB164C4FEA124B18EB07484FEA1546B8
:101320004CEB174022EA0B4E0BFB06FC25EA064766
:101330000EFB06F607FB0EFE0BFB07F71EEB064E39
:101340004CEB164C4FF000061EEB074E4CEB174BC8
:1013500018EB0B0840F1000018EB0E0B58EB0008DF
:1013600040F100008F1A4FF000013CBFC943661BDB
:1013700014BFB5EB040C00213CBFC943F61B4FEA78
:1013800017444EEA8E0E27EA04454FEA1C4704FB39
:1013900007622CEA074C05FB07F70CFB05F604FB7C
:1013A0000CFC16EB074642EB174216EB0C4642EBE1
:1013B0001C421BEB060658EB0202414146EA9E0620
:1013C00001D5BDE80189B619524141EB0101A3F1F4
:1013D0000103BDE801894FEA14454FEA114724EAA9
:1013E000054621EA074C05FB07F406FB07F70CFB53
:1013F00006F105FB0CFC11EB074144EB17444FEAE7
:10140000124711EB0C4144EB1C4422EA074C05FB4C
:1014100007F206FB07F70CFB06F605FB0CFC16EBC8
:10142000074642EB174216EB0C4642EB1C456A1886
:1014300054F1000148BF7047B619524141EB010118
:10144000A3F10103704795F0000F37D04FEA114226
:101450004FEA144721EA024624EA074C02FB07F14F
:1014600006FB07F70CFB06F402FB0CFC14EB07442D
:1014700041EB17414FEA154714EB0C4441EB1C417B
:1014800025EA074C02FB07F506FB07F70CFB06F6FF
:1014900002FB0CFC16EB074645EB174516EB0C461A
:1014A00045EB1C42121951F1000148BF7047B619B3
:1014B000524141EB0101A3F1010370474FEA14458A
:1014C0004FEA114724EA054621EA074C05FB07F1DC
:1014D00006FB07F70CFB06F24FF0000605FB0CFCC1
:1014E00012EB074241EB174112EB0C4251EB1C414E
:1014F00048BF7047921841EB0101A3F10103704707
:1015000000BFFEE77047000070B50446B3F5804F9A
:1015100013D1D1E9000540EA05108D6840EA0520A5
:101520008D6928438D8940EA054054F82250064EC3
:101530003540284344F8220003E06FF0704044F83F
:101540002200002070BD00000000F0CF70B5024600
:10155000086852F8200020F001000E6842F82600CA
:101560008868082801D1402300E000234868184318
:101570008E683043CE6830430E6930434E69304345
:10158000CE6930430E6A30434E6A30438E6A304330
:10159000CE6A30430E6B40EA060488690443486B08
:1015A0000443074D45F4806545F4E025086852F88A
:1015B0002000A84320430E6842F82600002070BD9A
:1015C0007FFB080010B50346D1E9000440EA04108F
:1015D0008C6840EA04208C8940EA0444088A401E52
:1015E00044EA0054087D801E44EA00608C69204370
:1015F000541C53F8244004F040442043541C43F846
:101600002400002010BD000070B50446002594F8A9
:101610002100022803D00420A0630125C1E0206836
:10162000006820F00E00216808602068006820F043
:101630000100216808605C492068884252D95A49F3
:1016400078392068884201D1012047E05649643941
:101650002068884201D1102040E053495039206869
:10166000884201D1801539E04F493C3920688842D1
:1016700001D1801432E04C4928392068884202D1D7
:101680004FF480302AE0484914392068884202D15A
:101690004FF4801022E044492068884201D1400480
:1016A0001CE042492068884201D1012016E03F49F0
:1016B00014312068884201D110200FE03B492831C5
:1016C0002068884201D1801508E038493C31206803
:1016D000884201D1801401E04FF480303349091F62
:1016E000086051E0304978392068884201D10120F2
:1016F00047E02D4964392068884201D1102040E03C
:10170000294950392068884201D1801539E026499D
:101710003C392068884201D1801432E022492839BE
:101720002068884202D14FF480302AE01E491439E3
:101730002068884202D14FF4801022E01A492068C4
:10174000884201D140041CE018492068884201D138
:10175000012016E0154914312068884201D110207B
:101760000FE0124928312068884201D1801508E035
:101770000E493C312068884201D1801401E04FF4C9
:101780008030094980394860012084F8210000BF79
:10179000002084F8200000BF606B10B12046616B10
:1017A0008847284670BD00008000024008040240BF
:1017B0002DE9F847024600239C467BE14FF00108E3
:1017C00008FA03F4D1F8008008EA0400A0427DD1B1
:1017D000DFF8F4A2D1F80480A8EB0A09D0453AD08A
:1017E00014DCB8F1030F50D009DCB8F1000F31D090
:1017F000B8F1010F1CD0B8F1020F49D120E0B8F1C7
:10180000110F18D0B8F1120F42D11EE0B9F5881FA0
:1018100025D006DCB9F5803F20D0B9F5801F37D13F
:101820001AE0B9F5001F18D0B9F5041F30D117E040
:10183000D1F80CC02DE0D1F80C8008F1040C28E0A0
:10184000D1F80C8008F1080C23E0D1F80C8008F1E5
:101850000C0C1EE000BF00BF00BF00BF00BF00BFF8
:10186000D1F80880B8F1000F02D14FF0040C0BE062
:10187000D1F80880B8F1010F03D14FF0080C1461C2
:1018800002E04FF0080C546103E04FF0000C00E060
:1018900000BF00BFFF2801D8904601E002F1040814
:1018A0004646FF2802D84FEA830803E0A3F1080860
:1018B0004FEA88084746D6F800804FF00F0909FA2A
:1018C00007F928EA09080CFA07F900E07AE048EA83
:1018D0000908C6F80080D1F8048008F08058B8F1F3
:1018E000805F6FD100BFDFF8E481D8F8188048F03E
:1018F0000108DFF8D891C9F81880C846D8F81880D0
:1019000008F00108CDF8008000BF00BF4FEAB938E9
:101910004FEA930958F829504FEA83784FEA18792B
:101920004FF00F0808FA09F825EA0805DFF8A0814A
:10193000424502D14FF0000824E0DFF8988142458B
:1019400002D14FF001081DE0DFF88C81424502D141
:101950004FF0020816E0DFF88481424502D14FF0D3
:1019600003080FE0DFF87881424502D14FF0040808
:1019700008E0DFF87081424502D14FF0050801E030
:101980004FF006084FEA83794FEA197908FA09F807
:1019900048EA0505DFF850814FEA930948F82950D5
:1019A000D1F8048008F48038B8F5803F0BD1DFF817
:1019B0003C81D8F8008048EA0008DFF83091C9F887
:1019C00000800AE075E0DFF82481D8F8008028EA7A
:1019D0000008DFF81891C9F80080D1F8048008F4F5
:1019E0000038B8F5003F0ED1DFF8008108F1040897
:1019F000D8F8008048EA0008DFF8F09009F10409FF
:101A0000C9F800800DE0DFF8E48008F10408D8F898
:101A1000008028EA0008DFF8D49009F10409C9F829
:101A20000080D1F8048008F48018B8F5801F0ED12A
:101A3000DFF8B88008F10808D8F8008048EA000804
:101A4000DFF8A89009F10809C9F800800DE0DFF877
:101A50009C8008F10808D8F8008028EA0008DFF820
:101A60008C9009F10809C9F80080D1F8048008F4C5
:101A70000018B8F5001F0ED1DFF8708008F10C08CF
:101A8000D8F8008048EA0008DFF8609009F10C09F6
:101A9000C9F800800DE0DFF8548008F10C08D8F890
:101AA000008028EA0008DFF8449009F10C09C9F821
:101AB00000805B1CD1F8008028FA03F8B8F1000F11
:101AC0007FF47CAEBDE8F8870000111000100240E2
:101AD00000080140000C01400010014000140140CA
:101AE00000180140001C01400800014000040140B2
:101AF000024693680B400BB1012000E000207047C4
:101B000010B5C26821EA020302EA010443EA044371
:101B1000036110BD0AB1016101E00B04036170476C
:101B2000014800687047000010000020034800686A
:101B300003490978084401490860704710000020F3
:101B40001800002010B50848006840F01000064951
:101B50000860052000F080F80F2000F007F800F082
:101B60002BF8002010BD00000020024070B5044694
:101B70000E4800784FF47A71B1FBF0F00C49096817
:101B8000B1FBF0F5284600F0CFFC08B1012070BD94
:101B9000102C07D200222146501E00F01EF80548E6
:101BA000046001E00120F2E70020F0E718000020C7
:101BB000000000201400002070470146084600285D
:101BC00009DB00F01F0301229A4043099B0003F147
:101BD000E023C3F8002100BF70472DE9F05F804685
:101BE0000D461646002701F037F8074639462A46C3
:101BF000334601F00700C0F1070ABAF1040F02D919
:101C00004FF0040A01E0C0F1070AD14600F1040ACE
:101C1000BAF1070F02D24FF0000A01E0A0F1030A67
:101C2000D4464FF0010A0AFA09FAAAF1010A0AEAAF
:101C3000020A0AFA0CFA4FF0010B0BFA0CFBABF19B
:101C4000010B0BEA030B4AEA0B042146404601F064
:101C50000BF8BDE8F09F000000BF00F00702064B44
:101C600019684FF6FF031940044B0B4343EA022166
:101C7000014B196000BF70470CED00E00000FA0551
:101C800070B504460D460CB9012070BD5A48006875
:101C900000F00700A8420ED25748006820F0070065
:101CA0002843554908600846006800F00700A8422C
:101CB00001D00120E9E7207800F0020002281DD1C0
:101CC000207800F00400042805D14C48406840F416
:101CD000E0604A494860207800F00800082805D1F3
:101CE0004648406840F46050444948604348406872
:101CF00020F0F000A168084340494860207800F0D7
:101D0000010078B36068012806D13C48006800F4FF
:101D1000003090B90120B8E76068022806D1374842
:101D2000006800F0007040B90120AEE73348006859
:101D300000F0020008B90120A7E73048406820F011
:101D40000300616808432D494860FFF7E9FE064635
:101D500009E0FFF7E5FE801B41F28831884202D995
:101D6000032092E707E02548406800F00C00616816
:101D7000B0EB810FEDD12048006800F00700A842C9
:101D80000ED91D48006820F0070028431A49086052
:101D90000846006800F00700A84201D0012074E75F
:101DA000207800F00400042807D11448406820F48B
:101DB000E060E168084311494860207800F00800BD
:101DC000082808D10D48406820F46050216940EA95
:101DD000C1000A49486000F03FF808494968C1F36A
:101DE0000311074A515CC84006490860064800686C
:101DF000FFF7BCFE002048E7002002400010024030
:101E0000AA610008000000201400002001480068BA
:101E1000704700000000002000B5FFF7F7FF0449FD
:101E20004968C1F30221034A515CC84000BD00006B
:101E300000100240BA61000800B5FFF7E7FF04494F
:101E40004968C1F3C221034A515CC84000BD00008B
:101E500000100240BA610008F0B585B00FF26C0CBA
:101E60009CE8E01001A8A0E8E0101CA52D680095F2
:101E700000210022002300240020194D696801F090
:101E80000C05F5B1042D02D0082D19D101E015483B
:101E900019E001ADC1F38346AC5D01F4803555B165
:101EA0000F4D6D68C5F340451DF805200D4D654388
:101EB000B5FBF2F302E00C4D04FB05F3184602E01B
:101EC00000BF084800BF00BF05B0F0BD0203040515
:101ED000060708090A0B0C0D0E0F10100102000076
:101EE0000010024000127A0000093D00F8B50446D7
:101EF0000CB90120F8BD207800F00100002878D04E
:101F0000F848406800F00C0004280CD0F548406800
:101F100000F00C00082811D1F248406800F480302D
:101F2000B0F5803F0AD1EF48006800F40030002887
:101F30005FD0606800285CD10120DBE700BF6068EB
:101F4000B0F5803F06D1E748006840F48030E549AD
:101F5000086028E0606858B9E248006820F48030E2
:101F6000E04908600846006820F4802008601AE014
:101F70006068B0F5A02F0BD1DA48006840F48020EB
:101F8000D84908600846006840F4803008600AE0DC
:101F9000D448006820F48030D249086008460068C0
:101FA00020F48020086000BF606888B1FFF7B8FDAA
:101FB000054606E0FFF7B4FD401B642801D9032065
:101FC00098E7C848006800F400300028F2D010E01C
:101FD000FFF7A6FD054606E0FFF7A2FD401B6428BB
:101FE00001D9032086E7BF48006800F400300028CC
:101FF000F2D1207800F00200022857D1B948406899
:1020000000F00C0050B1B748406800F00C00082800
:1020100018D1B448406800F4803098B9B1480068DD
:1020200000F0020020B12069012801D0012061E701
:10203000AC48006820F0F800616940EAC100A94995
:10204000086033E02069E8B10120A7490860FFF784
:1020500067FD054606E0FFF763FD401B022801D936
:10206000032047E79F48006800F002000028F2D0F4
:102070009C48006820F0F800616940EAC100994975
:10208000086013E0002098490860FFF749FD054605
:1020900006E0FFF745FD401B022801D9032029E790
:1020A0009048006800F002000028F2D1207800F08B
:1020B000080008282DD1A069B8B101208B4908601B
:1020C000FFF72EFD054606E0FFF72AFD401B02281C
:1020D00001D903200EE78348406A00F0020000287F
:1020E000F2D0012000F04EFC13E000207F49086090
:1020F000FFF716FD054606E0FFF712FD401B02281C
:1021000001D90320F6E67748406A00F00200002873
:10211000F2D1207800F00400042873D10027714820
:10212000C06900F0805070B900BF6E48C06940F0CF
:1021300080506C49C8610846C06900F0805000902A
:1021400000BF00BF01276A48006800F48070B0B982
:102150006748006840F4807065490860FFF7E0FC5C
:10216000054606E0FFF7DCFC401B642801D903208C
:10217000C0E65F48006800F480700028F2D000BF1D
:10218000E068012806D15748006A40F0010055492F
:10219000086227E0E06858B95248006A20F0010060
:1021A000504908620846006A20F00400086219E0FD
:1021B000E06805280BD14B48006A40F0040049490B
:1021C00008620846006A40F0010008620AE04548DB
:1021D000006A20F00100434908620846006A20F0C6
:1021E0000400086200BFE068A0B1FFF799FC054653
:1021F00009E0FFF795FC401B41F28831884202D983
:10220000032077E622E03748006A00F00200002849
:10221000EFD012E0FFF784FC054608E0FFF780FCF2
:10222000401B41F28831884201D9032062E62D48E3
:10223000006A00F002000028F0D1012F05D12948E2
:10224000C06920F080502749C86100BFE069C8B369
:102250002448406800F00C00082860D0E06902289B
:1022600048D1002020490866FFF75AFC054606E0E1
:10227000FFF756FC401B022801D903203AE6194813
:10228000006800F000700028F2D1206AB0F5803FAD
:1022900007D11448406820F40030A1680843114970
:1022A0004860D4E9080108430E49496821F47411D3
:1022B00008430C49486001200B490866FFF730FCD1
:1022C000054607E03DE0FFF72BFC401B022801D943
:1022D00003200FE60348006800F000700028F2D0E9
:1022E0002FE0000000100240000042428004424201
:1022F00000700040002014490866FFF711FC0546F5
:1023000006E0FFF70DFC401B022801D90320F1E590
:102310000E48006800F000700028F2D111E0E0697A
:10232000012800D1E6E50948466806F48031206AB4
:10233000814204D106F47011606A814201D001200B
:10234000D8E50020D6E5000000004242001002401F
:1023500070B504460E4615461CB1A069B0F5807FE5
:1023600001D1012070BD94F8410028B9002084F803
:102370004000204600F020F804F108012068FFF733
:10238000E5F83146A2682068FFF71CF92946236B5F
:10239000D4E90102FFF7B8F8A168206850F82100DD
:1023A00040F00100A268216841F82200012084F871
:1023B00041000020D6E7000010B586B0044600BFFB
:1023C0004B48406940F4807049494861084640697B
:1023D00000F48070019000BF00BF00BF0846806914
:1023E00040F0200088610846806900F020000190DC
:1023F00000BF00BF00BF0846806940F04000886110
:102400000846806900F04000019000BF00BF00BF97
:1024100000BF0846806940F0200088610846806956
:1024200000F02000019000BF00BF00BF00BF00BF50
:102430000846806940F0200088610846806900F005
:102440002000019000BF00BF00BF00BF00BF0846D2
:10245000806940F4807088610846806900F480706B
:10246000019000BF00BF00BF00BF00BF08468069E9
:1024700040F4807088610846806900F480700190A3
:1024800000BF00BF00BF881402900220039001200B
:1024900004900320059002A91648FFF789F920202F
:1024A000029002A91448FFF783F91020029002A9B4
:1024B0001148FFF77DF90120029002A90D48FFF7AE
:1024C00077F94CF2037002900220039001200490EF
:1024D0000320059002A90848FFF76AF94FF68070BB
:1024E000029002A90548FFF763F906B010BD00008D
:1024F000001002400020014000140140001801407B
:10250000042808D14FF0E021096941F004014FF09F
:10251000E022116107E04FF0E021096921F0040198
:102520004FF0E0221161704770B504462546681EE1
:10253000B0F1807F01D301200FE0681E4FF0E02151
:1025400048610F214FF0FF3000F08EFB00204FF06C
:10255000E021886107200861002070BD70470000FD
:102560002DE9F0470446206805682068C6682068A1
:1025700047694FF00008C14605F00F08B8F1000F99
:102580000AD105F0200038B106F0200020B1204625
:1025900000F03CFABDE8F087B8F1000F71D007F009
:1025A000010018B906F4907000286AD005F0010007
:1025B00030B106F4807018B1E06B40F00100E063C8
:1025C00005F0040030B107F0010018B1E06B40F0F5
:1025D0000200E06305F0020030B107F0010018B11D
:1025E000E06B40F00400E06305F0080048B106F03D
:1025F000200010B907F0010018B1E06B40F00800AE
:10260000E063E06B68B305F0200028B106F020001D
:1026100010B1204600F0FAF920684069C0F3801933
:10262000E06B00F0080010B9B9F1000F22D020468D
:1026300000F0CCF92068406900F04000B0B120689B
:10264000406920F0400021684861606B50B1184833
:10265000616B4863606BFEF7D7FF10B1606B416B35
:1026600088470CE02046FFF779FF08E02046FFF797
:1026700075FF04E02046FFF771FF0020E06389E763
:10268000FFE705F0800030B106F0800018B1204669
:1026900000F08AFA7EE705F0400030B106F0400015
:1026A00018B1204600F0A2F974E700BF72E70000FD
:1026B000B929000810B504460CB9012010BDA06965
:1026C00000B100E000BF94F8390028B9002084F878
:1026D0003800204600F028F8242084F839002068CB
:1026E000C06820F400502168C860204600F0DEF980
:1026F0002068006920F490402168086120684069E2
:1027000020F02A00216848612068C06840F4005029
:102710002168C8600020E063202084F8390084F834
:102720003A000020CAE7000010B586B004462849E8
:10273000206888424AD100BF00BF2648806940F027
:102740000400244988610846806900F00400019073
:1027500000BF00BF00BF00BF00BF0846806940F057
:10276000040088610846806900F00400019000BF01
:1027700000BF00BF00BF00BF0846806940F4804032
:1027800088610846806900F48040019000BF00BF66
:1027900000BF4815029002200390012004900320FE
:1027A000059002A90C48FFF703F84FF480600290EF
:1027B0000020039002A90848FEF7FAFF2520FFF742
:1027C000FCF9032211462520FFF707FA06B010BDD9
:1027D00000380140001002400008014010B50346D7
:1027E00093F83A0020282FD101B10AB9012010BD79
:1027F00000BF93F83800012801D10220F7E701203B
:1028000083F8380000BF99629A85DA850020D86382
:10281000222083F83A0000BF002083F8380000BF70
:102820001868C06840F480701C68E06018684069EF
:1028300040F001001C6860611868C06840F020002A
:102840001C68E0600020D2E70220D0E71D4A016842
:10285000914236D11C49098801F4004189BB1A49CB
:10286000098801F4804171B1184909780A2903D017
:102870000021154A118024E01349098841F40041E0
:10288000114A11801DE0114909780D2906D10E4920
:10289000098841F480410C4A118012E00B49097803
:1028A000094A1288C2F30D02094B99540649098856
:1028B000491C054A118011460988C72901DD0021FC
:1028C00011807047003801400C0000200E000020ED
:1028D0007C000020704700BFFEE7000000B5024604
:1028E000A2B9012002F060F84FF4807002F04CF8B9
:1028F000032002F059F841F2300002F045F84FF49D
:10290000C8700E494880F020088015E0012002F0D0
:102910004BF84FF4807002F037F8032002F044F8CF
:1029200041F2380002F030F8F020044948804FF4BA
:10293000C87008800120887100BD000024000020BC
:1029400010B501460023CA0AC1F3451401F01F0364
:10295000500340EA841040EA430010BD30B50546FC
:1029600000242846FFF7ECFF0446C4F34F20024939
:1029700008800C8030BD00000008006C00BFFEE73E
:102980007047704708B508490968C9084FF47A725A
:10299000B1FBF2F14143009100BF00BF00994A1E14
:1029A00000920029F9D108BD00000020704710B541
:1029B000FFF7BCF810BD704770B505466C6A002083
:1029C000E085E0842046FFF7C9FD70BD0168C96855
:1029D00021F490710268D1600168496921F0010118
:1029E00002685161202180F83A10704710B5044602
:1029F0002068C06820F040002168C860202084F86A
:102A000039002046FFF766FF002010BD70B5044670
:102A100094F83A00222847D1A068B0F5805F0CD125
:102A2000206950B90025A66A20684068C0F30800F4
:102A30003080A06A801CA06215E0A56A0026A0680C
:102A4000B0F5805F03D0A06828B9206918B9206864
:102A50004068287004E02068406800F07F0028701B
:102A6000A06A401CA062E08D401E80B2E085C8B91B
:102A70002068C06820F020002168C8602068C06815
:102A800020F480702168C8602068406920F001004F
:102A900021684861202084F83A002046FFF7D6FEDE
:102AA000002070BD0020FCE70220FAE770B5044664
:102AB0002168096921F44051E268114322681161DB
:102AC0002269A1681143626941EA02052168C96867
:102AD00041F20C62914329432268D160216849691F
:102AE00021F44071A2691143226851612D4A216885
:102AF000914202D1FFF7A0F901E0FFF78DF900EB59
:102B0000C00101EB001162689200B1FBF2F100EB31
:102B1000C00202EB001263689B00B2FBF3F2642375
:102B2000B2FBF3F202EBC20303EB0212A1EB820150
:102B3000322202EB01116422B1FBF2F101F0F0014B
:102B400000EBC00202EB001263689B00B2FBF3F2E1
:102B50006423B2FBF3F201EB021200EBC00101EBC4
:102B6000001163689B00B1FBF3F100EBC00303EBC2
:102B700000136668B600B3FBF6F36426B3FBF6F306
:102B800003EBC30606EB0313A1EB8301322303EB34
:102B900001116423B1FBF3F101F00F01114422682C
:102BA000916070BD00380140014691F8390021283C
:102BB00028D18868B0F5805F0BD1086948B90A6AE6
:102BC0001088C0F308000B685860086A801C08620F
:102BD00005E00B6A581C086218780B685860C88CAE
:102BE000401E80B2C88458B90868C06820F08000D0
:102BF0000B68D8600868C06840F040000B68D86077
:102C0000002070470220FCE710B50648FFF7A8FC3B
:102C100000BF012204490348FFF7E0FD0028F8D176
:102C200010BD0000440100200E00002000BFFEE7A0
:102C3000490050EAC12018BF04204A0D18BF40F0D7
:102C4000010040F2FF72B2EB515F08BF40F002009A
:102C5000012808BF0520704702480068C0F3022021
:102C6000704700000CED00E010B5002804DB0A07F7
:102C7000130E054A135406E00A07140E034A00F027
:102C80000F031B1FD45410BD00E400E018ED00E05A
:102C900030380A2801D2012070470020704700BF59
:102CA000704710B500F050FF10BD70B505460C46DA
:102CB000164606E028466A1C95B200F008F804F8AB
:102CC000010B301EA6F101018EB2F3D170BD70B5BB
:102CD0000446002600F0F8FF2112A02202EB410179
:102CE000C8B200F0BBFF01F035F82546E11704EB50
:102CF00011610912A4EB0121C8B200F0AFFF01F08D
:102D000029F800F0E1FFA12000F0A8FF01F022F86F
:102D1000002000F075FF064600F0FCFF304670BD55
:102D200070B505460C46164606E02178284600F0A8
:102D300009F8681C85B2641C301EA6F101018EB230
:102D4000F3D170BD70B504460E4600F0BDFF2112F0
:102D5000A02202EB4101C8B200F080FF00F0FAFFB0
:102D60002546E11704EB11610912A4EB0121C8B259
:102D700000F074FF00F0EEFF304600F06FFF00F04F
:102D8000E9FF00F0C7FF0A2000F030FA70BD000034
:102D900010B500BF00224FF400711148FEF7BAFED3
:102DA00000BF00F021F800BF012202210D48FEF70C
:102DB000B1FE00BF00F018F800BF00220221094850
:102DC000FEF7A8FE00BF00F00FF800BF012251027D
:102DD0000348FEF79FFE00BF00F006F810BD00009C
:102DE000001C0140000C014010B5022000F01AFA4E
:102DF00010BD000000B585B000BF00BF1A48806953
:102E000040F00800184988610846806900F0080011
:102E1000009000BF00BF00BF00BF00BF0846806930
:102E200040F0800088610846806900F080000090D2
:102E300000BF00BF00BF022001900120029003905C
:102E40000320049001A90948FEF7B2FC4FF400707A
:102E500001901120029001A90548FEF7A9FC00F09D
:102E6000BFF805B000BD000000100240000C01409A
:102E7000001C014010B500BF012251020C48FEF7B2
:102E800049FE00BFFFF7B0FF00BF01220221094841
:102E9000FEF740FE00BFFFF7A7FF00BF00220221A0
:102EA0000448FEF737FE00BFFFF79EFF10BD00008D
:102EB000001C0140000C014070B5054600240026AE
:102EC0001DE06006040E00BF012202211148FEF73A
:102ED00021FE00BFFFF788FF4FF400710E48FEF798
:102EE00007FE08B1601CC4B200BF002202210948DD
:102EF000FEF710FE00BFFFF777FF701CC6B2082E6A
:102F0000DFDB15B9FFF7B6FF01E0FFF741FF204611
:102F100070BD0000000C0140001C014070B504466B
:102F2000002525E000BFE00928B101225102154823
:102F3000FEF7F0FD05E000224FF400711148FEF7A6
:102F4000E9FD00BFFFF750FF00BF012202210E483C
:102F5000FEF7E0FD00BFFFF747FF00BF00220221A0
:102F60000948FEF7D7FD00BF6006040E681CC5B215
:102F7000082DD7DB00BF012251020248FEF7CAFD2F
:102F800000BF70BD001C0140000C014010B500BF27
:102F9000012251021048FEF7BDFD00BF00BF012213
:102FA00002210E48FEF7B6FD00BFFFF71DFF00BF70
:102FB00000224FF400710848FEF7ACFD00BFFFF798
:102FC00013FF00BF002202210448FEF7A3FD00BF4B
:102FD000FFF70AFF10BD0000001C0140000C01407B
:102FE00010B500BF00224FF400710C48FEF792FDAF
:102FF00000BFFFF7F9FE00BF012202210848FEF7DB
:1030000089FD00BFFFF7F0FE00BF01225102034817
:10301000FEF780FD00BFFFF7E7FE10BD001C01407A
:10302000000C014070B50024002500BF01225102B0
:103030001648FEF76FFD00BFFFF7D6FE00BF012266
:1030400002211348FEF766FD00BFFFF7CDFE09E041
:10305000601CC4B2FA2C03DDFFF7C2FF012508E0B3
:10306000FFF7C2FE4FF400710848FEF741FD00284B
:10307000EED100BF00BF002202210548FEF74AFD45
:1030800000BFFFF7B1FE284670BD0000001C0140E4
:10309000000C01408CB0002400250526454880889E
:1030A00041F21801884200D10A2681E04248416875
:1030B00000208847002468E03F48808E0121A1401D
:1030C000084000285AD03C480C3030F814003949E8
:1030D0000988884257DA3848203030F814003549DA
:1030E000498888424FDA02A830F824004FF6FF7171
:1030F00088420DD130480C3030F8140002A921F874
:1031000024002D48203030F8140001EB8401488061
:103110002A4830F814000221274F2037CDE900104B
:1031200037F81430143F37F8142002AF07EB840748
:10313000798802AF37F8240000F03CFF1E480C30BD
:1031400030F8140002A921F824001B48203030F880
:10315000140001EB8401488017480C3030F814103B
:1031600014480088183881420DDD1348203030F8AB
:103170001400142807DA01F05DFC04E04FF6FF703C
:1031800002A921F82400601CC4B2B44294DB0520DB
:1031900000F02CF8681CC5B2142095FBF0F100FB80
:1031A000115028B900BF01210548FEF7A9FC00BF56
:1031B0007CE7000024000020300000209661000819
:1031C0000010014010B5044600204FF0E0210861D6
:1031D000FFF796F92046E11704EB5171C1F3CF01D7
:1031E000014A118010BD00000400002070B50446A3
:1031F0004FF47A7094FBF0F594FBF0F100FB11466C
:1032000003E0074800F00EF86D1E002DF9D12EB135
:103210004FF47A7106FB01F000F004F870BD000075
:1032200040420F000146114A12884A434FF0E02302
:103230005A6100229A611A46126942F001021A612B
:1032400000BF4FF0E022106900F001021AB100F453
:103250008032002AF5D04FF0E022126922F00102FC
:103260004FF0E0231A6100229A61704704000020A9
:1032700000BF054A126802F04002002AF9D0C2B22B
:10328000014B1B1D1A6070470038014000B587B024
:1032900000BF00BF4848806940F08000464988610F
:1032A0000846806900F08000019000BF00BF00BFA9
:1032B00000BF00BF0846806940F080008861084672
:1032C000806900F08000019000BF00BF00BFC814FB
:1032D00003900120049005900320069003A937482D
:1032E000FEF766FA4FF480600390002004900120FE
:1032F00005900320069003A93048FEF759FAFFF71E
:1033000079FD00BF00224FF400612C48FEF702FC5B
:1033100000BF1420FFF76AFF00BF0122D102274837
:10332000FEF7F8FB00BF3220FFF760FF00208DF8AA
:103330000800012202A900F047F9012202A9A420F5
:1033400000F042F916208DF80800012202A9802021
:1033500000F03AF90C208DF80800012202A988201B
:1033600000F032F9022202A9A12000F02FF89DF806
:103370000800302803D19DF8090003280DD09DF8DE
:103380000900012809D09DF80900022805D09DF800
:10339000080070B99DF8090058B99DF809009DF81A
:1033A000082000EB022106A0FCF748FF002007B030
:1033B00000BD0120FBE7000000100240001C01409E
:1033C0004354502049443A25780D0A002DE9F04134
:1033D00006460F461546FFF7D9FD7020FFF79EFD04
:1033E000FFF720FEF0B2FFF799FDFFF71BFEFFF796
:1033F000CDFD7120FFF792FDFFF714FE00240BE0D6
:10340000691EA14201D0012100E000210846FFF71A
:1034100053FD3855601CC4B2AC42F1DBFFF7E0FD50
:10342000BDE8F0812DE9FC41074600200190002411
:10343000002661480078401C5F4908700846007803
:103440000A2190FBF1F201FB120018B15A480078F2
:103450000A2867DA012201A90220FFF7B7FF9DF8C9
:10346000040000F00F0000285CD09DF8040000F07C
:103470000F0006287BDA9DF8040000F00F014FF6DC
:10348000FF70884085B2E84380B240F440404B4929
:1034900088860420FFF7AAFE00245AE04748808E61
:1034A0000121A1400840E0B3454931F8140004224D
:1034B0006946FFF78BFF414890F8440000F0010097
:1034C000C0B19DF801009DF8001001F00F0100EB64
:1034D00001203A49203121F814009DF803009DF89D
:1034E000021001F00F0100EB012134480C3020F8EC
:1034F00014101EE09DF801009DF8001001F00F016E
:1035000000EB01202F490988081A81B22B480C30A2
:1035100020F814109DF803009DF8021001F00F012F
:1035200001E014E023E000EB01202449203121F8E0
:1035300014009DF8000000F0F000802807D0002162
:103540001E48203020F81410143820F81410601C85
:10355000C4B2052CA2DB01261848808920B917487F
:10356000008C08B9002001900020134908709DF8D4
:10357000040000F01F00A8B91048808E00F400403D
:1035800030B10E48808E20F400400C49888609E056
:103590004FF6FF700949888108840846808E00F440
:1035A0006040888604480078F02802DD0A2002493D
:1035B00008703046BDE8FC812C000020300000205F
:1035C00042910008240000202DE9F04105460E46F6
:1035D00017464FF00008FFF7D9FC7020FFF79EFC5C
:1035E000FFF720FDE8B2FFF799FCFFF71BFD002471
:1035F0000BE0305DFFF792FCFFF714FD8046B8F159
:10360000000F00D003E0601CC4B2BC42F1DB00BF7D
:10361000FFF7E6FC4046BDE8F081000000B587B04A
:1036200000BF00BF4348806940F080004149886185
:103630000846806900F08000009000BF00BF00BF16
:1036400000BF00BF0846806940F0800088610846DE
:10365000806900F08000009000BF00BF00BFC81468
:1036600003900120049005900320069003A932489E
:10367000FEF79EF84FF48060039000200490012034
:1036800005900320069003A92B48FEF791F8FFF759
:10369000B1FB00BF00224FF400612748FEF73AFA61
:1036A00000BF0A20FFF7A2FD00BF0122D10222487D
:1036B000FEF730FA00BF0A20FFF798FD4FF4806054
:1036C00003900020049005900320069003A91A4857
:1036D000FEF76EF86420FFF789FD042201A948F285
:1036E000401000F037F800208DF8080001A913A061
:1036F000FCF7A4FD14A101A8FCF716FF10B90A20DD
:103700001349087002208DF80400012201A948F233
:10371000400000F0BDF90A20FFF768FD00208DF899
:103720000400012201A948F2400000F0B1F9002094
:1037300007B000BD00100240001C0140435450205F
:1037400049443A25730D0A00393237310000000030
:103750002D0000202DE9F04105460F461646FFF7E3
:1037600015FC2820FFF7DAFBFFF75CFC2812FFF7B7
:10377000D5FBFFF757FCE8B2FFF7D0FBFFF752FC91
:10378000FFF704FC2920FFF7C9FBFFF74BFC0024DF
:103790000BE0711EA14201D0012100E0002108468A
:1037A000FFF78AFB3855601CC4B2B442F1DBFFF767
:1037B00017FCBDE8F081000071B583B000200190D6
:1037C0000026AE480078401CAC49087008460078D6
:1037D0000A2190FBF1F201FB120018B1A748007812
:1037E0000A287DDA012203A948F24E10FFF7B2FF42
:1037F0009DF80C0000F0800078B19DF80C0000F0FE
:103800000F009F490978884207DC002001900122BF
:1038100001A948F24E1000F03BF99DF80C0000F0B1
:103820000F0000285CD09DF80C0000F00F009449B8
:103830000978884254DC9DF80C0000F00F014FF627
:10384000FF70884084B28F48858EE04380B240F498
:1038500040408C4988860846828989480078401E05
:103860000C3121F810208748028C85480078401ED2
:10387000143121F81020002001909AE08148808EB8
:103880009DF80420012191400840002832D07E4953
:103890009DF8042031F81200042202A9FFF75AFF14
:1038A0007A48808845F2105188423FD1754890F897
:1038B000440000F00100F0B19DF808009DF80910E7
:1038C00000EB012081B26F4820309DF8042020F8E1
:1038D00012109DF80A009DF80B1000EB012000E08B
:1038E000A5E0C0F5487081B266480C309DF8042010
:1038F00020F8121058E09DF808009DF8091000EB20
:10390000012081B25F480C309DF8042020F812108D
:103910009DF80A009DF80B1000EB012081B2594878
:1039200020309DF8042020F812103DE0554890F812
:10393000440000F00100D0B19DF808009DF8091086
:1039400000EB012081B24F480C309DF8042020F894
:1039500012109DF80A009DF80B1000EB012081B2B7
:10396000484820309DF8042020F812101CE09DF8F3
:103970000A009DF80B1000EB012044490988081A41
:1039800081B240480C309DF8042020F812109DF8B8
:1039900008009DF8091000EB012081B23948203061
:1039A0009DF8042020F812109DF80400401CC0B2BD
:1039B00001909DF80400324909788842FFF65EAF15
:1039C00001263048808931490988884205DC2D4824
:1039D000008C2E494988884226DD9DF80C0000F0B5
:1039E0000F0001280ADD2748C0892649888108463A
:1039F000408C088400202149087018E02048007895
:103A0000401E20490C3131F810000C3988811C48C7
:103A10000078401E203131F81000203908848020C1
:103A200003900846858602E00020144908709DF83E
:103A30000C0000F08F00802815D11248808E00F411
:103A4000004030B10F48808E20F400400D49888638
:103A500009E04FF6FF700B49888108840846808E84
:103A600000F46040888605480078F02802DD0A20CE
:103A700002490870304604B070BD00002E000020DE
:103A80002D000020300000204C9100082400002070
:103A90002DE9F04104460E4617464FF00008FFF7A7
:103AA00075FA2820FFF73AFAFFF7BCFA2012FFF761
:103AB00035FAFFF7B7FAE0B2FFF730FAFFF7B2FADC
:103AC00000250BE0705DFFF729FAFFF7ABFA80469F
:103AD000B8F1000F00D003E0681CC5B2BD42F1DBB5
:103AE00000BFFFF77DFA4046BDE8F08110B500BF8A
:103AF000002280211048FEF70DF800BF00F01EF8EC
:103B000000BF012240210C48FEF704F800BF00F07E
:103B100015F800BF002240210748FDF7FBFF00BF5A
:103B200000F00CF800BF012280210348FDF7F2FFEE
:103B300000BF00F003F810BD000C014010B50220DA
:103B4000FFF770FB10BD000000B585B000BF00BFDF
:103B50001948806940F00800174988610846806963
:103B600000F00800009000BF00BF00BF00BF00BF12
:103B70000846806940F0080088610846806900F0C6
:103B80000800009000BF00BF00BF4020019001204E
:103B9000029003900320049001A90848FDF708FE55
:103BA000802001901120029001A90448FDF700FE39
:103BB00000F0B0F805B000BD00100240000C01405C
:103BC00010B500BF012280210C48FDF7A3FF00BF04
:103BD000FFF7B4FF00BF012240210848FDF79AFF1C
:103BE00000BFFFF7ABFF00BF002240210348FDF7F5
:103BF00091FF00BFFFF7A2FF10BD0000000C0140C5
:103C000070B50546002400261CE06006040E00BFC7
:103C1000012240211048FDF77DFF00BFFFF78EFF16
:103C200080210D48FDF764FF08B1601CC4B200BFDD
:103C3000002240210848FDF76DFF00BFFFF77EFF1F
:103C4000701CC6B2082EE0DB15B9FFF7B9FF01E022
:103C5000FFF74CFF204670BD000C014070B50446D4
:103C6000002524E000BFE00928B101228021154889
:103C7000FDF750FF04E0002280211248FDF74AFFC3
:103C800000BFFFF75BFF00BF012240210D48FDF799
:103C900041FF00BFFFF752FF00BF0022402109484B
:103CA000FDF738FF00BF6006040E681CC5B2082D82
:103CB000D8DB00BF012280210248FDF72BFF00BFA7
:103CC00070BD0000000C014010B500BF0122802132
:103CD0000F48FDF71FFF00BF00BF012240210C4825
:103CE000FDF718FF00BFFFF729FF00BF002280216A
:103CF0000748FDF70FFF00BFFFF720FF00BF0022BE
:103D000040210348FDF706FF00BFFFF717FF10BD76
:103D1000000C014010B500BF002280210C48FDF7C7
:103D2000F9FE00BFFFF70AFF00BF0122402108484B
:103D3000FDF7F0FE00BFFFF701FF00BF0122802169
:103D40000348FDF7E7FE00BFFFF7F8FE10BD0000D7
:103D5000000C014070B50024002500BF0122802125
:103D60001448FDF7D7FE00BFFFF7E8FE00BF0122B1
:103D700040211048FDF7CEFE00BFFFF7DFFE07E051
:103D8000601CC4B2FA2C03DDFFF7C4FF012505E077
:103D900080210848FDF7ACFE0028F1D100BF00BF2C
:103DA000002240210348FDF7B5FE00BFFFF7C6FE25
:103DB000284670BD000C014000B585B000BF00BFB3
:103DC0003648806940F004003449886108468069BB
:103DD00000F00400009000BF00BF00BF00BF00BFA4
:103DE0000846806940F0400088610846806900F01C
:103DF0004000009000BF00BF00BF00BF00BF0846EA
:103E0000806940F0400088610846806900F0400009
:103E1000009000BF00BF00BF00BF00BF0846806920
:103E200040F0400088610846806900F04000009042
:103E300000BF00BF00BF01200190002002900220BF
:103E400003900320049001A91548FDF7B1FC04205C
:103E5000019000200290012003900320049001A90A
:103E60001048FDF7A5FC08200190002002900120D9
:103E700003900320049001A90A48FDF799FC102043
:103E8000019000200290012003900320049001A9DA
:103E90000448FDF78DFC05B000BD00000010024095
:103EA000000801400018014070B50446002514B117
:103EB00001202B4908702A480078002834D00121BD
:103EC0002848FDF715FE01280ED004212648FDF7ED
:103ED0000FFE48B108212448FDF70AFE20B1102149
:103EE0002148FDF705FEF8B90A20FFF77FF9002009
:103EF0001B49087001211B48FDF7FAFD012800D17C
:103F0000012504211848FDF7F3FD00B90225082119
:103F10001548FDF7EDFD00B9032510211248FDF706
:103F2000E7FDD0B9042518E001210E48FDF7E0FDBA
:103F300098B904210C48FDF7DBFD01280DD10821BB
:103F40000948FDF7D5FD012807D110210648FDF7E6
:103F5000CFFD012801D102490870284670BD00003C
:103F600078000020000801400018014070B50646A6
:103F70000F484088401E83B20D480088401E82B220
:103F80000021084600F0C6FB00240CE0002504E0F8
:103F90003046FEF7E3FC681C85B205484088A8421D
:103FA000F6DC601C84B202480088A042EEDC70BDE2
:103FB000240000202DE9FF4F85B080468946129FDE
:103FC000002003900290B84507DB0798B84204DB55
:103FD000B94502DB0898B84202DA09B0BDE8F08FB3
:103FE0000798A0EB08040898A0EB0905CDF8048019
:103FF000CDF80090002C02DD4FF0010A06E014B964
:104000004FF0000A02E04FF0FF3A6442002D02DD5B
:104010004FF0010B06E015B94FF0000B02E04FF036
:10402000FF3B6D42AC4201DD264600E02E460020FB
:10403000049023E0009A91B2019A90B23A46139B01
:1040400000F027F903982044039002982844029036
:104050000398B04205DD0398801B039001985044FB
:1040600001900298B04205DD0298801B02900098F2
:10407000584400900498401C80B20490711C04982D
:104080008842D7DD00BFA8E72DE9F04706460F4676
:1040900090469A46002445460320A0EB480944E098
:1040A0007A1B91B2321990B2524600F0B5F83A1B21
:1040B00091B2721990B2524600F0AEF83A1991B22C
:1040C000721990B2524600F0A7F87A1991B23219DB
:1040D00090B2524600F0A0F87A1991B2321B90B219
:1040E000524600F099F83A1991B2721B90B25246BA
:1040F00000F092F87A1B91B2321B90B2524600F057
:104100008BF83A1B91B2721B90B2524600F084F8C1
:10411000641CB9F1000F03DAA000801D814404E0A3
:10412000601B80000A3081446D1EAC42B8DDBDE8E2
:10413000F0870000F8B504460D4616461F463EB10E
:1041400009480088A04203DB07484088A84200DAFB
:10415000F8BDA019401E82B22B4629462046009782
:1041600000F068F800BFF3E7240000202DE9FF4FBE
:1041700084B081468A460020029083460698A0EBD0
:1041800009050798A0EB0A06CDF80490CDF800A029
:10419000002D01DD012705E00DB9002702E04FF0F9
:1041A000FF376D42002E02DD4FF0010806E016B920
:1041B0004FF0000802E04FF0FF387642B54201DDD3
:1041C0002C4600E03446002003901EE0009A91B295
:1041D000019A90B2119A00F01FF8029828440290B8
:1041E000B3440298A04205DD0298001B029001989A
:1041F00038440190A34504DDABEB040B0098404428
:1042000000900398401C80B20390611C0398884280
:10421000DCDD08B0BDE8F08F70B504460D461646EB
:104220002B4622462946204600F074FAB0B2FEF72B
:1042300095FB70BD2DE9F04304460D4616461F461A
:10424000DDF81C80B44201DCBD4201DDBDE8F08335
:104250003B4632462946204600F05CFA301B401CA3
:1042600084B2781B401C85B20CE0A94603E01FFA1B
:1042700088F0FEF773FBB9F10000A9F101011FFA04
:1042800081F9F4D1201EA4F101018CB2EDD100BF5F
:10429000DCE72DE9F04F0746884616469A4640F27D
:1042A000C32070434FF47A71B0FBF1F000F10109C3
:1042B00006FB06F000EB560B344671040A0CB91BE2
:1042C00088B253464146FFF735FF012535E005FB2F
:1042D00005F004FB040058451AD94C4517D96B1E4C
:1042E0005B041A0C08EB040399B27B1B5B1C98B2AD
:1042F0005346FFF71FFF6B1E5B041A0CA8EB040369
:1043000099B27B1B5B1C98B25346FFF713FF641EE8
:1043100063041A0C08EB050399B23B1B98B2534691
:10432000FFF708FF63041A0CA8EB050399B23B1BC7
:1043300098B25346FFF7FEFE6D1C4D45C7D9BDE848
:10434000F08F000000B58FB04FF02040E2490860C8
:10435000E2484860062088600021DF48C1600161B2
:104360001021416100218161C16141624FF480519E
:1043700081620021C1624FF48041016300214163E9
:10438000816300200E9001200890002009900F20EA
:104390000A90002007900F200190029005200390C2
:1043A00001AA08A9CC48FDF7D3FF3220FEF71EFF73
:1043B000002000F0F9FA00F09FF9C949888008460A
:1043C0008188C8A0FBF73AFF002000F0EDFA00203A
:1043D00000F0EAFA0A20FEF709FF002000F0E4FAF4
:1043E000002000F0E1FA002000F0DEFA002000F0EA
:1043F000DBFAA42000F0D8FA012000F0C5FA0A2068
:10440000FEF7F4FE602000F0CFFA4FF41C5000F0ED
:10441000BBFA082000F0C8FA40F6080000F0B4FA31
:104420004FF4407000F0C0FA40F2091000F0ACFA0E
:1044300040F2013000F0B8FA47F60A6000F0A4FA42
:1044400040F2023000F0B0FA40F2047000F09CFA42
:1044500040F2033000F0A8FA40F6111000F094FA90
:104460004FF4417000F0A0FA4FF4045000F08CFAC1
:1044700040F2053000F098FA41F2091000F084FA99
:1044800040F2063000F090FA47F2074000F07CFA64
:1044900040F2073000F088FA40F60E2000F074FA7F
:1044A0004FF4427000F080FA40F6011000F06CFA10
:1044B00040F2093000F078FA212000F065FA10206F
:1044C00000F072FA102000F05FFA112000F06CFA90
:1044D00040F2022000F058FA122000F065FA4FF482
:1044E000407000F051FA132000F05EFA072000F04F
:1044F0004BFA0A20FEF77AFE4FF4807000F054FA6F
:10450000002000F041FA40F2011000F04DFA0720BF
:1045100000F03AFA4FF4817000F046FA002000F003
:1045200033FA40F2031000F03FFA002000F02CFABA
:104530004FF4207000F038FA002000F025FAC8206F
:10454000FEF754FE4FF4807000F02EFA4FF44C70DA
:1045500000F01AFA40F2011000F026FA40F247206B
:1045600000F012FA3220FEF741FE4FF4817000F0A5
:104570001BFA4DF2B01000F007FA3220FEF736FEBB
:1045800040F2031000F010FA4FF4805000F0FCF9F4
:104590004FF4207000F008FA4FF4464000F0F4F9B0
:1045A000C820FEF723FE012000F0FEF94FF48070D2
:1045B00000F0EAF9022000F0F7F94FF4007000F083
:1045C000E3F9032000F0F0F941F2300000F0DCF9EB
:1045D000092000F0E9F9012000F0D6F90A2000F0E6
:1045E000E3F9082000F0D0F90C2000F0DDF90020FC
:1045F00000F0CAF90D2000F0D7F9002000F0C4F94E
:104600000E2000F0D1F9302000F0BEF9202000F09B
:10461000CBF9002000F0B8F9212000F0C5F9002006
:1046200000F0B2F9292000F0BFF9522000F0ACF9F7
:10463000502000F0B9F9002000F0A6F9512000F058
:10464000B3F9EF2000F0A0F9522000F0ADF90020FE
:1046500000F09AF9532000F0A7F940F23F1000F063
:1046600093F9612000F0A0F9002000F08DF96A2094
:1046700000F09AF9002000F087F9802000F094F90A
:10468000002000F081F9812000F08EF9002000F078
:104690007BF9822000F088F95F2000F075F9932003
:1046A00000F082F940F2075000F06EF9072000F0A8
:1046B0007BF94FF4807000F067F93220FEF796FD29
:1046C000222000F071F90020FEF708F94FF6FF7084
:1046D000FFF74CFC0FB000BD84010020040100A0D6
:1046E000240000206C63646465765F6964313A2558
:1046F0002378200D0A0000000549098848104FF66C
:10470000FF7101EA00200249098840EA6100704710
:104710000008006C70B506460C461D462E48807990
:1047200050BB4FF4047000F03FF9304600F02CF914
:1047300040F2112000F038F9104600F025F940F25F
:10474000122000F031F9204600F01EF940F213204B
:1047500000F02AF9284600F017F94FF4007000F035
:1047600023F9304600F010F940F2012000F01CF966
:10477000204600F009F929E040F2122000F014F977
:10478000304600F001F940F2132000F00DF9104618
:1047900000F0FAF84FF4047000F006F9204600F03B
:1047A000F3F840F2112000F0FFF8284600F0ECF892
:1047B00040F2012000F0F8F8304600F0E5F84FF440
:1047C000007000F0F1F8204600F0DEF840F2022020
:1047D00000F0EAF870BD0000240000202DE9FC4F35
:1047E00080460E4615461C46B346002001900090B8
:1047F0002046E31704EB5373DB1021464FEAE47CB9
:1048000004EB5C7C4FEAEC0CA4EBCC0CBCF1000F8D
:1048100002D04FF0010C01E04FF0000C634422463F
:1048200004EBD27C4FEA6C0C03FB0CF3DBB201937C
:10483000A5F12000C5B20C2C06D0102C0BD0182CE2
:104840000ED0202C18D112E005EB45002D4901EBCC
:104850008000009012E02C4800EB051000900DE065
:1048600005EBC500294901EB8000009006E02848CF
:1048700000EB8510009001E0BDE8FC8F00BF002731
:104880003AE0009810F807904FF0000A2EE009F087
:10489000800028B1314640460C9AFFF7BDFC07E086
:1048A0000B9828B91B48314602684046FFF7B4FC14
:1048B0004FEA49604FEA1069701C86B2164840887A
:1048C000B04200DCD8E7A6EB0B00A0420AD15E465E
:1048D00008F101001FFA80F80F480088404500DC0D
:1048E000CAE706E00AF1010000F0FF0ABAF1080F7A
:1048F000CDDB00BF781CC7B201988742C1DB00BF87
:10490000BAE70000C261000836660008266C00089D
:104910008279000820000020240000202DE9FC4FAF
:1049200004460D4690469946DDE90C7A0B9E04F04C
:10493000FF0B08EB04001FFA80F809EB05001FFAD3
:1049400080F917E0444502DB5C46A81985B24D4565
:1049500000DB15E00020CDE9000A3A78334629460D
:104960002046FFF73BFF304606EBD07104EB6101B8
:104970008CB27F1C38787E2802DC38782028E1DA77
:1049800000BFBDE8FC8F000001B5BDF800000012BB
:10499000400004490880BDF800000006C00D0880F2
:1049A00008BD00000008006C01B5BDF80000001251
:1049B000400004490880BDF800000006C00D0880D2
:1049C00008BD0000FE07006C00B585B000BF00BF49
:1049D0001648806940F010001449886108468069D3
:1049E00000F01000009000BF00BF00BF0120019048
:1049F000029003900320049001A90D48FCF7D8FE13
:104A00000220019001A90A48FCF7D2FE00BF012252
:104A100011460748FDF77EF800BF00BF01220221C2
:104A20000348FDF777F800BF05B000BD0010024055
:104A3000001001400EB54FF6FF70FFF797FA1F20E8
:104A400007A11022CDE900210290064909881839F2
:104A500088B21346C8220021FFF760FF0EBD000098
:104A600052535400240000200EB5FDF76BF84FF4AC
:104A7000E01000F0CFF84820FEF7A4FB4FF4E1303F
:104A800000F0F6FEFFF7A0FFFFF75CFCFFF794F9DC
:104A90002549086880474FF4784024A11022134626
:104AA000CDE900210290C82232211E20FFF736FFF7
:104AB0004FF478401FA110221346CDE90021029047
:104AC000C82246211E20FFF729FF4FF478401CA181
:104AD00010221346CDE900210290C8225A211E203F
:104AE000FFF71CFF104890F84400FF280CD04FF44B
:104AF000784017A110221346CDE900210290C82268
:104B00006E211E20FFF70AFF40F2DC50FEF76EFB1D
:104B1000FFF790FF044890F8440000F0800008B1CF
:104B2000FEF7B8FA00F020F83000002053544D335F
:104B300032000000544F5543482054455354000060
:104B400041544F4D40414C49454E54454B000000A7
:104B50005072657373204B45593020746F20416447
:104B60006A7573740000000000254BE00020FFF719
:104B70009BF9044624484168002088472248808EDB
:104B800000F4004008B32048808920490988884201
:104B90001EDA1D48008C1D494988884218DA1A48D7
:104BA00081891A4800881838814206DD1648008C31
:104BB000102802DAFFF73EFF0AE0134A118C9089B1
:104BC0004FF4784200F0F6FA02E00A20FEF70EFBFE
:104BD000022C09D14FF6FF70FFF7C8F900F04EF82C
:104BE00000F070FDFFF726FF681CC5B2142095FB8E
:104BF000F0F100FB115028B900BF01210448FCF777
:104C00007FFF00BFB2E7000030000020240000203A
:104C10000010014030B58FB005460124282105A8B9
:104C2000FBF75AFC14216846FBF756FC012005905F
:104C3000000406900020079002200C90C1030D9103
:104C40000E9505A8FDF752F904460CB100BFFEE72A
:104C50000F20009002200190002002904FF480600D
:104C600003900020049002216846FDF709F80446ED
:104C70000CB100BFFEE70FB030BD00002DE9F04FD2
:104C80008FB000200990089009904FF6FF70FFF751
:104C90006DF94FF47840E949096810226423CDE9A1
:104CA00000210290A02228210846FFF737FE4FF48A
:104CB00078421421084600F09AFA0020E0498886DC
:104CC000B8E1DF48416801208847DD48808E00F464
:104CD0004040B0F5804F7CD100200890D848808EAD
:104CE00020F48040D6498886084681890AAA099816
:104CF00022F82010D248018C099802EB80004180F4
:104D00000998401CC0B209900998062813D2DFE820
:104D100000F0120313263C514FF6FF72142108468F
:104D200000F065FAC7490988143988B24FF478420F
:104D3000142100F05CFA6DE1C2490988143988B287
:104D40004FF6FF72142100F052FABE484088143822
:104D500081B24FF47842142000F049FA5AE1B94880
:104D60004088143881B24FF6FF72142000F03FFAE9
:104D7000B44A5288143A91B2B24A1288143A90B2A4
:104D80004FF4784200F033FA44E14FF6FF70FFF73A
:104D9000EDF8AC4A5288079202EBD2725110A94A40
:104DA0001288069202EBD27250104FF4784200F053
:104DB0001EFA2FE1BDF82C00BDF82810401A0FFA9A
:104DC00080F8BDF83400BDF83010401A0FFA80FAB0
:104DD00000E020E1BDF83610BDF82E00081A0FFAE9
:104DE00080F9BDF83200BDF82A10401A0FFA80FB96
:104DF000504600F0D3FECDE90601404600F0CEFE5D
:104E0000CDE90401DDE9062300F070FD06460F46FA
:104E1000584600F0C3FECDE90601484600F0BEFE4C
:104E2000CDE90401DDE9062300F060FD04460D46EE
:104E3000002213463046394600F0C8FE01D287F002
:104E40000047002213462046294600F0BFFE01D24B
:104E500085F000454FF066327B4B3046394600F016
:104E6000B5FE6DD3794A7A4B3046394600F03EFFA5
:104E700066D34FF06632744B2046294600F0A6FEFA
:104E80005ED3724A724B2046294600F02FFF57D35B
:104E9000CDF80080B8F1000F01DB009801E0009828
:104EA0004042B0F5805F4BDACDF80490B9F1000FC5
:104EB00001DB019801E001984042B0F5805F3FDAE4
:104EC000CDF808A0BAF1000F01DB029801E00298CA
:104ED0004042B0F5805F33DACDF80CB0BBF1000F83
:104EE00001DB039801E003984042B0F5805F27DAC8
:104EF000CDF81080B8F1000F01DB049801E00498B0
:104F00004042E8B1CDF81490B9F1000F01DB0598EB
:104F100001E00598404298B1CDF818A0BAF1000F11
:104F200001DB069801E00698404248B1CDF81CB07C
:104F3000BBF1000F01DB079801E007984042F8B988
:104F4000002009903F4A5288079202EBD27251101A
:104F50003C4A1288069202EBD27250104FF6FF7252
:104F600000F045F94FF478421421084600F03FF96B
:104F700032463B460AA8CDE9004500F077F859E0F3
:104F8000304909882839480001F02AF8079008EBD1
:104F90000A0001F025F80690079900F03FFF284924
:104FA0008863284949882839480001F019F8079092
:104FB00009EB0B0001F014F80690079900F02EFFA2
:104FC0001F49C863BDF8380000B2A1F84000BDF821
:104FD0003A0000B2A1F842004FF6FF70FEF7C6FF9C
:104FE0001F201CA11022CDE9002102901548438802
:104FF00002886E212320FFF791FC4FF47A70FEF7B0
:10500000F5F800F05FFB4FF6FF70FEF7AFFF0FB053
:10501000BDE8F08F00BF0A20FEF7E8F80898401CB2
:1050200080B208900898B0F57A7F02DD00F01AF996
:1050300001E000BF45E600BF00BFE8E7609100085F
:1050400030000020240000206666EE3FCDCCCCCCA2
:10505000CCCCF03F546F7563682053637265656E06
:105060002041646A757374204F4B21002DE9F04391
:1050700089B0814615461E46DDE91078002436E0E9
:1050800039F82430621C40A104A8FBF7E3F84FF480
:10509000784004A91022CDE9002102903C484388C1
:1050A000028804EB84004FF0A00C0CEB8001282058
:1050B000FFF734FC09EB84004388621C35A104A887
:1050C000FBF7C8F84FF4784004A91022CDE900217D
:1050D00002902F484388028804EB84004FF0A00C14
:1050E0000CEB80017820FFF719FC601CC4B2052C82
:1050F000C6DB4FF6FF70009025480088401E82B244
:1051000004EB8400A02303EB800110232820FFF789
:1051100091F82A46334621A104A8FBF79BF800200A
:105120008DF817004FF4784004A91022CDE9002132
:10513000029017484388028804EB84004FF0A00CCB
:105140000CEB80012820FFF7E9FB3A46434616A105
:1051500004A8FBF77FF800208DF817004FF4784083
:1051600004A91022CDE90021029009484388028851
:1051700004EB84004FF0A00C0CEB80017820FFF7CB
:10518000CDFB09B0BDE8F0837825643A25640000C2
:10519000240000207925643A2564000070783A25BF
:1051A000302E32660000000070793A25302E3266CB
:1051B0000000000070B504460D46164632462946EA
:1051C0002046FFF729F8611C88B232462946FFF7CE
:1051D00023F8681C81B232462046FFF71DF86A1C8E
:1051E00091B2621C90B23246FFF716F870BDF8B566
:1051F00004460D46164604F10D018AB2193988B2EB
:105200002B4629460096FEF7B1FF05F10D0083B24B
:10521000193881B2224620460096FEF7A7FF6A1C85
:1052200091B2621C90B23246FEF7F6FF6A1C91B250
:10523000621E90B23246FEF7EFFF6A1E91B2621C08
:1052400090B23246FEF7E8FF6A1E91B2621E90B23B
:105250003246FEF7E1FF3346062229462046FEF796
:1052600013FFF8BD70B5084C00250C2221462820FC
:10527000FDF71BFD3420FDF72AFD05460A2D01D15F
:10528000012070BD0020FCE76800002000B585B05B
:105290000020754981F84400084690F8440073499D
:1052A000897901F0010108436F4981F844006F4892
:1052B000808845F21051884211D06C48808844F2B1
:1052C000423188420BD06948808844F28431884258
:1052D00005D06648808841F2180188420ED1FEF759
:1052E0009DF9634860494860084690F8440040F0E2
:1052F000800081F84400002005B000BD5B48808834
:1053000041F6631188420BD05848808847F28401E7
:10531000884205D05548808847F21601884215D149
:10532000FDF7B4FF18B953484F49486004E0FEF751
:1053300075F94F484C4948604B4890F8440040F09C
:105340008000494981F844000020D5E700BF00BF34
:105350004948806940F020004749886108468069D3
:1053600000F02000009000BF00BF00BF00BF00BFE2
:105370000846806940F0200088610846806900F096
:105380002000009000BF00BF00BF00BF00BF084664
:10539000806940F0040088610846806900F00400DC
:1053A000009000BF00BF00BF00BF00BF084680697B
:1053B00040F0040088610846806900F00400009015
:1053C00000BF00BF00BF00BF00BF0846806940F0BB
:1053D000040088610846806900F00400009000BF66
:1053E00000BF00BF802001900020029001200390A8
:1053F0000320049001A92148FCF7DAF9402001902C
:1054000001A91F48FCF7D4F98020019001200290E7
:1054100003900320049001A91948FCF7C9F9202042
:10542000019001A91648FCF7C3F94020019001A999
:105430001248FCF7BDF90C492031A1F1140000F02D
:10544000C7F8FDF72EFCFFF70DFF08B1002053E76A
:105450004FF6FF70FEF78AFDFFF710FC00F032F9FF
:10546000FFF700FF012047E7300000202400002064
:10547000B93700082534000800100240001401402C
:105480000008014070B506460025002400BF002238
:1054900020212F48FCF73EFB00BF00BF00228021E7
:1054A0002B48FCF737FB00BF00BF002240212948F2
:1054B000FCF730FB00BF304600F0AAF90620FDF7EC
:1054C000B1FE00BF002220212148FCF723FB00BFD2
:1054D0000120FDF7A7FE00BF012220211C48FCF798
:1054E00019FB00BF0120FDF79DFE00BF0022202117
:1054F0001748FCF70FFB00BF00BF1DE04FF6FF7021
:1055000000EA440400BF002220211148FCF702FBFE
:1055100000BF0120FDF786FE00BF012220210C48BC
:10552000FCF7F8FA00BF40210948FCF7E1FA08B19E
:10553000601C84B2681CC5B2102DDFDB241100BFD3
:10554000012240210348FCF7E5FA00BF204670BD68
:1055500000080140001401402DE9FE438046002769
:10556000002406E04046FFF78DFF2DF81400601C74
:1055700084B2052CF6DB002416E0601C85B20FE037
:105580003DF814003DF81510884207DD3DF8146021
:105590003DF815002DF814002DF81560681C85B233
:1055A000052DEDDB601C84B2042CE6DB0027012412
:1055B00005E03DF81400384487B2601C84B2042C26
:1055C000F7DB032097FBF0F086B23046BDE8FE83A0
:1055D0002DE9F04106460F460D4890F8440000F0D2
:1055E000010040B19020FFF7B7FF0546D020FFF73C
:1055F000B3FF044607E0D020FFF7AEFF054690203A
:10560000FFF7AAFF044635803C80BDE8F08100002A
:10561000300000207FB504460D4602A903A8FFF71D
:10562000D7FF694601A8FFF7D3FFBDF80400BDF816
:105630000C10884206DCBDF80C10BDF804003230B6
:1056400081420CDBBDF80C00BDF80410884237DC49
:10565000BDF80410BDF80C003230814230DABDF8DC
:105660000000BDF80810884206DCBDF80810BDF83F
:105670000000323081420CDBBDF80800BDF800109C
:1056800088421DDCBDF80010BDF8080032308142B0
:1056900016DABDF80C10BDF80420881800EBD071A4
:1056A000C1F34F012180BDF80810BDF80020881813
:1056B00000EBD071C1F34F012980012004B070BD0F
:1056C0000020FBE710B5054C0C2221462820FDF7F1
:1056D00027FB0A213420FDF735FB10BD68000020B0
:1056E0002DE9F047044680214648FCF701FA0028DE
:1056F00066D12CB14449A1F11400FFF78BFF4EE0B5
:105700004149A1F11400FFF785FF002847D03F4829
:10571000058805EBD571481000F062FC80463A49D7
:1057200020398989384A203AB2F84020891A08B2CB
:1057300000F056FC814634482038816B484600F022
:105740006DFB0746414600F007FB064600F028FCCB
:105750002D49203988812D48458805EBD5714810A1
:1057600000F03EFC804628492039098C264A203A20
:10577000B2F84220891A08B200F032FC8146224871
:105780002038C16B484600F049FB0746414600F00F
:10579000E3FA064600F004FC1B49203908841A4845
:1057A0002038808E00F4004020BB4FF44040164962
:1057B0002039888608468189C183018C418619E099
:1057C00011482038808E00F4004040B10E48203847
:1057D000808E20F400400C49203988860AE00021A0
:1057E00009482038C18341864FF6FF7006492039A9
:1057F000888108840448203890F834000020BDE8EF
:10580000F087000000140140500000202400002018
:1058100070B50446002500BF25E004F0800030B1DB
:1058200000BF012280211148FCF774F906E000BF97
:10583000002280210D48FCF76DF900BF6006040EC0
:1058400000BF002220210948FCF764F900BF0120B5
:10585000FDF7E8FC00BF012220210448FCF75AF9BB
:1058600000BF681CC5B2082DD7DB70BD0008014021
:1058700010B5044609480A490860084644600021FA
:105880008160C160016181610C214161FCF712FFFF
:10589000012204490248FCF7A1FF10BD0038014075
:1058A000440100200E00002010B500290AD008781D
:1058B000002807D005487844FAF736FE002801D0C2
:1058C000002010BD0248784410BD00001A3A0000C4
:1058D000123A0000491058BFC1F140415B1058BF57
:1058E000C3F140438B42EFF3008070472DE9C04184
:1058F00030B4DFF8A0C23CEA111418BF3CEA13141C
:1059000000F0EC8081EA03051CEA111444EAD57426
:1059100018BF1CEA131500F0C780A4EB05044FF074
:10592000004545EAC12145EAC32341EA505143EA13
:10593000525304F17F74994204F500344FEAC020B9
:105940004FEAC22208BF904200F09C804FEA1365E4
:105950000FF24016765D4FEA134506FB05F7C7F1D7
:10596000807706FB07F74FEAD737A7FB0368764235
:10597000C8F58038A7FB06CE38BFA8F1010807FBA1
:1059800008E64FF0000EA6FB028CE6FB03CEDCF12E
:10599000000CCEF1004E38BFAEF1010EA6FB0C5844
:1059A0004FF000074FF00005E6FB0E87A1FB08C68D
:1059B000A0FB07CE16EB0E0645F10005E1FB0765DF
:1059C00015F1E04E7EBFA4F580345FEA46066D41D6
:1059D00016F1800745F100054FEA17274FEA0666E2
:1059E00047EA0567A6F1DE46B6F1805F4FEA152566
:1059F0001FD9384624F0010C05EBC471BCF1FE6FD1
:105A000001EB0C1102D8F0BCBDE8008124425CBF60
:105A100001F5801E9EEAC47F02D4F0BCBDE800817F
:105A2000244238D4F0BCA1F1C041BDE8004100F0EF
:105A300057B94FEAD22242EA43524FEAD323A7FB97
:105A400002864FEAD02040EA415007FB03661EEA77
:105A50000E0F4FEAD12105FB026658BFA6EB005698
:105A6000B6EB00564FEA520E4EEAC37E18EB0E0E0E
:105A700056EB530EBDD518EB02085E417F1C55F165
:105A80000005B6E74FF480154FF000074FF0000611
:105A90004FF00008ADE7F0BC4FF0000001F1C0414D
:105AA00001F00041BDE8008111EA0C1F0CEA13155A
:105AB00000D00CE013EA0C1F00F025804FF000002E
:105AC000F0BC81EA030101F00041BDE80081F0BCB7
:105AD000BDE8004181EA030100F002B9F0BCBDE875
