:020000040800F2
:1000000090070020CD0100083B15000833150008BB
:1000100037150008C9020008E917000800000000B1
:10002000000000000000000000000000691500084A
:10003000CD020008000000003D1500086B15000807
:10004000E7010008E7010008E7010008E7010008F0
:10005000E7010008E7010008D1020008E7010008F5
:10006000E5020008E7010008F9020008E7010008BE
:10007000E7010008E7010008E7010008E7010008C0
:10008000E7010008E7010008E7010008E7010008B0
:10009000E7010008E7010008E7010008E7010008A0
:1000A000E7010008E7010008E7010008E701000890
:1000B000E7010008E7010008E7010008E701000880
:1000C000E7010008E7010008E7010008E701000870
:1000D000E7010008C5170008E7010008E70100086C
:1000E000E7010008E7010008E7010008E701000850
:1000F000E7010008E7010008E7010008E701000840
:10010000E7010008E7010008E7010008E70100082F
:10011000E7010008E7010008E7010008E70100081F
:10012000E7010008E7010008E7010008E70100080F
:1001300000F002F800F03AF80AA090E8000C8244BF
:100140008344AAF10107DA4501D100F02FF8AFF29C
:10015000090EBAE80F0013F0010F18BFFB1A43F0A5
:1001600001031847D41A0000F41A0000103A24BF03
:1001700078C878C1FAD8520724BF30C830C144BF0C
:1001800004680C607047000000230024002500264E
:10019000103A28BF78C1FBD8520728BF30C148BFEA
:1001A0000B6070471FB51FBD10B510BD00F05AF8A9
:1001B0001146FFF7F7FF01F0B5FC00F078F803B443
:1001C000FFF7F2FF03BC01F02DFB00000948804758
:1001D00009480047FEE7FEE7FEE7FEE7FEE7FEE729
:1001E000FEE7FEE7FEE7FEE704480549054A064B41
:1001F00070470000731500083101000890010020CD
:1002000090070020900300209003002070474FF0DB
:10021000000200B5134694469646203922BFA0E856
:100220000C50A0E80C50B1F12001BFF4F7AF090762
:1002300028BFA0E80C5048BF0CC05DF804EB890053
:1002400028BF40F8042B08BF704748BF20F8022B96
:1002500011F0804F18BF00F8012B704770477047AE
:1002600070477047754600F02BF8AE4605006946AA
:10027000534620F00700854618B020B5FFF7B4FFBD
:10028000BDE820404FF000064FF000074FF0000897
:100290004FF0000B21F00701AC46ACE8C009ACE818
:1002A000C009ACE8C009ACE8C0098D46704710B57C
:1002B0000446AFF300802046BDE81040FFF77FBF43
:1002C000004870473001002000BFFEE77047000083
:1002D00010B5012000F034F901200149086010BD7B
:1002E0001404014010B5042000F02AF9042001494B
:1002F000086010BD1404014010B5102000F020F972
:1003000010200149086010BD1404014070B5044676
:10031000002594F82100022803D00420A0630125C1
:10032000C1E02068006820F00E00216808602068A5
:10033000006820F00100216808605C49206888425C
:1003400052D95A4978392068884201D1012047E0C2
:10035000564964392068884201D1102040E0534951
:1003600050392068884201D1801539E04F493C3925
:100370002068884201D1801432E04C492839206835
:10038000884202D14FF480302AE04849143920686D
:10039000884202D14FF4801022E04449206888420C
:1003A00001D140041CE042492068884201D101206B
:1003B00016E03F4914312068884201D110200FE037
:1003C0003B4928312068884201D1801508E038492E
:1003D0003C312068884201D1801401E04FF4803024
:1003E0003349091F086051E0304978392068884254
:1003F00001D1012047E02D4964392068884201D1AC
:10040000102040E0294950392068884201D18015E8
:1004100039E026493C392068884201D1801432E015
:10042000224928392068884202D14FF480302AE0DE
:100430001E4914392068884202D14FF4801022E00E
:100440001A492068884201D140041CE018492068FC
:10045000884201D1012016E01549143120688842F4
:1004600001D110200FE0124928312068884201D1C3
:10047000801508E00E493C312068884201D1801483
:1004800001E04FF48030094980394860012084F848
:10049000210000BF002084F8200000BF606B10B175
:1004A0002046616B8847284670BD000080000240EE
:1004B0000804024010B50446142001F0C9F9012CCB
:1004C00028D0042C02D0102C31D111E0042119487D
:1004D00000F0E4F958B900BF0121174800F0E6F92F
:1004E00000BF00BF0221144800F0E0F900BF1EE089
:1004F0001021104800F0D2F958B900BF01210E4870
:1005000000F0D4F900BF00BF02210B4800F0CEF983
:1005100000BF0CE00121094800F0C0F9012805D115
:1005200000BF0121044800F0C1F900BF00BF00BFB7
:1005300010BD0000001801400010014000080140FB
:1005400010B5044604480068204020B10248046009
:100550002046FFF7AFFF10BD140401402DE9F84716
:10056000024600239C467BE14FF0010808FA03F4A1
:10057000D1F8008008EA0400A0427DD1DFF8F4A29F
:10058000D1F80480A8EB0A09D0453AD014DCB8F1C0
:10059000030F50D009DCB8F1000F31D0B8F1010FD2
:1005A0001CD0B8F1020F49D120E0B8F1110F18D0DA
:1005B000B8F1120F42D11EE0B9F5881F25D006DC34
:1005C000B9F5803F20D0B9F5801F37D11AE0B9F5D1
:1005D000001F18D0B9F5041F30D117E0D1F80CC0B6
:1005E0002DE0D1F80C8008F1040C28E0D1F80C8043
:1005F00008F1080C23E0D1F80C8008F10C0C1EE087
:1006000000BF00BF00BF00BF00BF00BFD1F808801F
:10061000B8F1000F02D14FF0040C0BE0D1F80880C4
:10062000B8F1010F03D14FF0080C146102E04FF054
:10063000080C546103E04FF0000C00E000BF00BF65
:10064000FF2801D8904601E002F104084646FF2841
:1006500002D84FEA830803E0A3F108084FEA8808AC
:100660004746D6F800804FF00F0909FA07F928EA43
:1006700009080CFA07F900E07AE048EA0908C6F828
:100680000080D1F8048008F08058B8F1805F6FD105
:1006900000BFDFF8E481D8F8188048F00108DFF8DF
:1006A000D891C9F81880C846D8F8188008F0010811
:1006B000CDF8008000BF00BF4FEAB9384FEA930978
:1006C00058F829504FEA83784FEA18794FF00F080D
:1006D00008FA09F825EA0805DFF8A081424502D1A9
:1006E0004FF0000824E0DFF89881424502D14FF036
:1006F00001081DE0DFF88C81424502D14FF002086D
:1007000016E0DFF88481424502D14FF003080FE084
:10071000DFF87881424502D14FF0040808E0DFF8A5
:100720007081424502D14FF0050801E04FF0060804
:100730004FEA83794FEA197908FA09F848EA05057A
:10074000DFF850814FEA930948F82950D1F8048026
:1007500008F48038B8F5803F0BD1DFF83C81D8F839
:10076000008048EA0008DFF83091C9F800800AE00C
:1007700075E0DFF82481D8F8008028EA0008DFF867
:100780001891C9F80080D1F8048008F40038B8F551
:10079000003F0ED1DFF8008108F10408D8F800808E
:1007A00048EA0008DFF8F09009F10409C9F8008070
:1007B0000DE0DFF8E48008F10408D8F8008028EAAA
:1007C0000008DFF8D49009F10409C9F80080D1F8D5
:1007D000048008F48018B8F5801F0ED1DFF8B880C7
:1007E00008F10808D8F8008048EA0008DFF8A89067
:1007F00009F10809C9F800800DE0DFF89C8008F1D4
:100800000808D8F8008028EA0008DFF88C9009F181
:100810000809C9F80080D1F8048008F40018B8F578
:10082000001F0ED1DFF8708008F10C08D8F80080A6
:1008300048EA0008DFF8609009F10C09C9F8008067
:100840000DE0DFF8548008F10C08D8F8008028EAA1
:100850000008DFF8449009F10C09C9F800805B1C1E
:10086000D1F8008028FA03F8B8F1000F7FF47CAECD
:10087000BDE8F88700001110001002400008014098
:10088000000C01400010014000140140001801401C
:10089000001C01400800014000040140024693682A
:1008A0000B400BB1012000E00020704710B5C2687A
:1008B00021EA020302EA010443EA0443036110BD92
:1008C0000AB1016101E00B0403617047014800684F
:1008D000704700001000002070B504460CB90120DC
:1008E00070BD4CF6CC402168086045F25550216837
:1008F0000860D4E9001048602168A0688860FFF7AC
:10090000E5FF054606E0FFF7E1FF401B262801D979
:100910000320E5E72068C0680028F4D14AF6AA2041
:10092000216808600020DBE701464AF6AA200A6831
:1009300010600020704700000348006803490978F0
:10094000084401490860704710000020180000208A
:1009500010B50848006840F01000064908600520FE
:1009600000F080F80F2000F007F800F02BF80020CE
:1009700010BD00000020024070B504460E4800780B
:100980004FF47A71B1FBF0F00C490968B1FBF0F556
:10099000284600F0F7FB08B1012070BD102C07D2EB
:1009A00000222146501E00F01EF80548046001E0B8
:1009B0000120F2E70020F0E71800002000000020EE
:1009C00014000020704701460846002809DB00F0AB
:1009D0001F0301229A4043099B0003F1E023C3F85F
:1009E000002100BF70472DE9F05F80460D46164696
:1009F000002700F0FBFE074639462A46334601F041
:100A00000700C0F1070ABAF1040F02D94FF0040A37
:100A100001E0C0F1070AD14600F1040ABAF1070F5C
:100A200002D24FF0000A01E0A0F1030AD4464FF0D1
:100A3000010A0AFA09FAAAF1010A0AEA020A0AFAFA
:100A40000CFA4FF0010B0BFA0CFBABF1010B0BEAAC
:100A5000030B4AEA0B042146404600F0CFFEBDE8F6
:100A6000F09F000000BF00F00702064B19684FF628
:100A7000FF031940044B0B4343EA0221014B196069
:100A800000BF70470CED00E00000FA0570B50446A9
:100A90000D460CB9012070BD5A48006800F00700EF
:100AA000A8420ED25748006820F007002843554955
:100AB00008600846006800F00700A84201D0012045
:100AC000E9E7207800F0020002281DD1207800F02C
:100AD0000400042805D14C48406840F4E0604A49CD
:100AE0004860207800F00800082805D14648406892
:100AF00040F46050444948604348406820F0F000AA
:100B0000A168084340494860207800F0010078B3AC
:100B10006068012806D13C48006800F4003090B9B4
:100B20000120B8E76068022806D13748006800F065
:100B3000007040B90120AEE73348006800F00200C1
:100B400008B90120A7E73048406820F00300616839
:100B500008432D494860FFF7B9FE064609E0FFF754
:100B6000B5FE801B41F28831884202D9032092E70A
:100B700007E02548406800F00C006168B0EB810F89
:100B8000EDD12048006800F00700A8420ED91D48AA
:100B9000006820F0070028431A49086008460068EA
:100BA00000F00700A84201D0012074E7207800F08F
:100BB0000400042807D11448406820F4E060E1688C
:100BC000084311494860207800F00800082808D13F
:100BD0000D48406820F46050216940EAC1000A498C
:100BE000486000F03FF808494968C1F30311074A1B
:100BF000515CC8400649086006480068FFF7BCFE23
:100C0000002048E70020024000100240201C00089D
:100C10000000002014000020014800687047000018
:100C20000000002000B5FFF7F7FF04494968C1F351
:100C30000221034A515CC84000BD00000010024080
:100C4000301C000800B5FFF7E7FF04494968C1F30D
:100C5000C221034A515CC84000BD000000100240A0
:100C6000301C0008F0B585B00FF26C0C9CE8E01069
:100C700001A8A0E8E0101CA52D6800950021002225
:100C8000002300240020194D696801F00C05F5B11E
:100C9000042D02D0082D19D101E0154819E001AD4D
:100CA000C1F38346AC5D01F4803555B10F4D6D68DD
:100CB000C5F340451DF805200D4D6543B5FBF2F326
:100CC00002E00C4D04FB05F3184602E000BF0848A3
:100CD00000BF00BF05B0F0BD020304050607080908
:100CE0000A0B0C0D0E0F1010010200000010024044
:100CF00000127A0000093D00F8B504460CB9012045
:100D0000F8BD207800F00100002878D0F84840684D
:100D100000F00C0004280CD0F548406800F00C00EE
:100D2000082811D1F248406800F48030B0F5803FC7
:100D30000AD1EF48006800F4003000285FD06068F6
:100D400000285CD10120DBE700BF6068B0F5803F80
:100D500006D1E748006840F48030E549086028E0A3
:100D6000606858B9E248006820F48030E0490860C3
:100D70000846006820F4802008601AE06068B0F53A
:100D8000A02F0BD1DA48006840F48020D8490860D1
:100D90000846006840F4803008600AE0D4480068E3
:100DA00020F48030D24908600846006820F4802092
:100DB000086000BF606888B1FFF788FD054606E05F
:100DC000FFF784FD401B642801D9032098E7C84839
:100DD000006800F400300028F2D010E0FFF776FD44
:100DE000054606E0FFF772FD401B642801D9032089
:100DF00086E7BF48006800F400300028F2D1207870
:100E000000F00200022857D1B948406800F00C00F9
:100E100050B1B748406800F00C00082818D1B44819
:100E2000406800F4803098B9B148006800F00200D2
:100E300020B12069012801D0012061E7AC48006899
:100E400020F0F800616940EAC100A949086033E078
:100E50002069E8B10120A7490860FFF737FD054682
:100E600006E0FFF733FD401B022801D9032047E7C6
:100E70009F48006800F002000028F2D09C480068FB
:100E800020F0F800616940EAC1009949086013E068
:100E9000002098490860FFF719FD054606E0FFF7B6
:100EA00015FD401B022801D9032029E7904800685E
:100EB00000F002000028F2D1207800F00800082895
:100EC0002DD1A069B8B101208B490860FFF7FEFC65
:100ED000054606E0FFF7FAFC401B022801D9032073
:100EE0000EE78348406A00F002000028F2D001209B
:100EF00000F026FB13E000207F490860FFF7E6FCC6
:100F0000054606E0FFF7E2FC401B022801D903205A
:100F1000F6E67748406A00F002000028F2D1207817
:100F200000F00400042873D100277148C06900F064
:100F3000805070B900BF6E48C06940F080506C4965
:100F4000C8610846C06900F08050009000BF00BF33
:100F500001276A48006800F48070B0B967480068EB
:100F600040F4807065490860FFF7B0FC054606E074
:100F7000FFF7ACFC401B642801D90320C0E65F48A2
:100F8000006800F480700028F2D000BFE0680128FB
:100F900006D15748006A40F001005549086227E031
:100FA000E06858B95248006A20F0010050490862D0
:100FB0000846006A20F00400086219E0E06805288D
:100FC0000BD14B48006A40F00400494908620846CA
:100FD000006A40F0010008620AE04548006A20F01B
:100FE0000100434908620846006A20F004000862D4
:100FF00000BFE068A0B1FFF769FC054609E0FFF714
:1010000065FC401B41F28831884202D9032077E613
:1010100022E03748006A00F002000028EFD012E01A
:10102000FFF754FC054608E0FFF750FC401B41F277
:101030008831884201D9032062E62D48006A00F019
:1010400002000028F0D1012F05D12948C06920F005
:1010500080502749C86100BFE069C8B32448406890
:1010600000F00C00082860D0E069022848D1002078
:1010700020490866FFF72AFC054606E0FFF726FC34
:10108000401B022801D903203AE61948006800F005
:1010900000700028F2D1206AB0F5803F07D11448D3
:1010A000406820F40030A168084311494860D4E941
:1010B000080108430E49496821F4741108430C499A
:1010C000486001200B490866FFF700FC054607E071
:1010D0003DE0FFF7FBFB401B022801D903200FE690
:1010E0000348006800F000700028F2D02FE00000F4
:1010F0000010024000004242800442420070004062
:10110000002014490866FFF7E1FB054606E0FFF7FB
:10111000DDFB401B022801D90320F1E50E480068E1
:1011200000F000700028F2D111E0E069012800D140
:10113000E6E50948466806F48031206A814204D118
:1011400006F47011606A814201D00120D8E50020C8
:10115000D6E500000000424200100240042808D1F9
:101160004FF0E021096941F004014FF0E0221161E4
:1011700007E04FF0E021096921F004014FF0E0227F
:101180001161704770B504462546681EB0F1807F36
:1011900001D301200FE0681E4FF0E02148610F21CC
:1011A0004FF0FF3000F02AFB00204FF0E021886173
:1011B00007200861002070BD704700002DE9F0474E
:1011C0000446206805682068C668206847694FF0B3
:1011D0000008C14605F00F08B8F1000F0AD105F06C
:1011E000200038B106F0200020B1204600F0ECF9D4
:1011F000BDE8F087B8F1000F71D007F0010018B911
:1012000006F4907000286AD005F0010030B106F4B1
:10121000807018B1E06B40F00100E06305F004005D
:1012200030B107F0010018B1E06B40F00200E0635C
:1012300005F0020030B107F0010018B1E06B40F09A
:101240000400E06305F0080048B106F0200010B982
:1012500007F0010018B1E06B40F00800E063E06BBC
:1012600068B305F0200028B106F0200010B1204638
:1012700000F0AAF920684069C0F38019E06B00F023
:10128000080010B9B9F1000F22D0204600F07CF917
:101290002068406900F04000B0B12068406920F04B
:1012A000400021684861606B50B11848616B486329
:1012B000606BFFF72BF810B1606B416B88470CE057
:1012C0002046FFF779FF08E02046FFF775FF04E0AE
:1012D0002046FFF771FF0020E06389E7FFE705F094
:1012E000800030B106F0800018B1204600F03AFAD4
:1012F0007EE705F0400030B106F0400018B120460E
:1013000000F052F974E700BF72E70000751500089D
:1013100010B504460CB9012010BDA06900B100E071
:1013200000BF94F8390028B9002084F8380020461E
:1013300000F028F8242084F839002068C06820F4E0
:1013400000502168C860204600F08EF920680069CE
:1013500020F49040216808612068406920F02A004C
:10136000216848612068C06840F400502168C86066
:101370000020E063202084F8390084F83A0000203F
:10138000CAE7000010B586B00446284920688842A4
:101390004AD100BF00BF2648806940F004002449BC
:1013A00088610846806900F00400019000BF00BF1A
:1013B00000BF00BF00BF0846806940F0040088619C
:1013C0000846806900F00400019000BF00BF00BF24
:1013D00000BF00BF0846806940F48040886108462D
:1013E000806900F48040019000BF00BF00BF481535
:1013F000029002200390012004900320059002A98E
:101400000C48FFF7ABF84FF4806002900020039087
:1014100002A90848FFF7A2F82520FFF7D4FA032213
:1014200011462520FFF7DFFA06B010BD0038014055
:10143000001002400008014010B5034693F83A003E
:1014400020282FD101B10AB9012010BD00BF93F8A7
:101450003800012801D10220F7E7012083F8380085
:1014600000BF99629A85DA850020D863222083F82C
:101470003A0000BF002083F8380000BF1868C06839
:1014800040F480701C68E0601868406940F001001A
:101490001C6860611868C06840F020001C68E0604B
:1014A0000020D2E70220D0E71D4A0168914236D1E0
:1014B0001C49098801F4004189BB1A49098801F4D3
:1014C000804171B1184909780A2903D00021154AD1
:1014D000118024E01349098841F40041114A118028
:1014E0001DE0114909780D2906D10E49098841F4FA
:1014F00080410C4A118012E00B490978094A128890
:10150000C2F30D02094B995406490988491C054A42
:10151000118011460988C72901DD0021118070471B
:10152000003801400C0000200E0000201C000020AC
:10153000704700BFFEE700BFFEE77047704700003E
:1015400008B508490968C9084FF47A72B1FBF2F18D
:101550004143009100BF00BF00994A1E009200293C
:10156000F9D108BD00000020704710B5FFF7E4F97D
:1015700010BD704770B505466C6A0020E085E084B8
:101580002046FFF719FE70BD0168C96821F490710B
:101590000268D1600168496921F001010268516166
:1015A000202180F83A10704710B504462068C068C2
:1015B00020F040002168C860202084F839002046CF
:1015C000FFF7B6FF002010BD70B5044694F83A004E
:1015D000222847D1A068B0F5805F0CD1206950B9AE
:1015E0000025A66A20684068C0F308003080A06A21
:1015F000801CA06215E0A56A0026A068B0F5805F97
:1016000003D0A06828B9206918B9206840682870FC
:1016100004E02068406800F07F002870A06A401C49
:10162000A062E08D401E80B2E085C8B92068C06825
:1016300020F020002168C8602068C06820F4807015
:101640002168C8602068406920F001002168486175
:10165000202084F83A002046FFF726FF002070BDC6
:101660000020FCE70220FAE770B50446216809690A
:1016700021F44051E2681143226811612269A16896
:101680001143626941EA02052168C96841F20C62AE
:10169000914329432268D1602168496921F440714E
:1016A000A2691143226851612D4A2168914202D1F9
:1016B000FFF7C8FA01E0FFF7B5FA00EBC00101EB54
:1016C000001162689200B1FBF2F100EBC00202EB84
:1016D000001263689B00B2FBF3F26423B2FBF3F2E7
:1016E00002EBC20303EB0212A1EB8201322202EBF6
:1016F00001116422B1FBF2F101F0F00100EBC00234
:1017000002EB001263689B00B2FBF3F26423B2FBAE
:10171000F3F201EB021200EBC00101EB0011636870
:101720009B00B1FBF3F100EBC00303EB0013666811
:10173000B600B3FBF6F36426B3FBF6F303EBC30684
:1017400006EB0313A1EB8301322303EB01116423A6
:10175000B1FBF3F101F00F0111442268916070BDFB
:1017600000380140014691F83900212828D18868C5
:10177000B0F5805F0BD1086948B90A6A1088C0F3D8
:1017800008000B685860086A801C086205E00B6A54
:10179000581C086218780B685860C88C401E80B2CC
:1017A000C88458B90868C06820F080000B68D86009
:1017B0000868C06840F040000B68D860002070479F
:1017C0000220FCE710B50648FFF7F8FC00BF012235
:1017D00004490348FFF730FE0028F8D110BD00008F
:1017E000E40000200E00002000BFFEE70248006871
:1017F000C0F30220704700000CED00E010B5002897
:1018000004DB0A07130E054A135406E00A07140EF8
:10181000034A00F00F031B1FD45410BD00E400E086
:1018200018ED00E000BF704710B5044600204FF0EF
:10183000E0210861FFF792FC2046E11704EB5171AB
:10184000C1F3CF01014A118010BD00000400002047
:1018500070B504464FF47A7094FBF0F594FBF0F108
:1018600000FB114603E0074800F00EF86D1E002D46
:10187000F9D12EB14FF47A7106FB01F000F004F8B3
:1018800070BD000040420F000146114A12884A43D1
:101890004FF0E0235A6100229A611A46126942F021
:1018A00001021A6100BF4FF0E022106900F001024E
:1018B0001AB100F48032002AF5D04FF0E02212690C
:1018C00022F001024FF0E0231A6100229A61704772
:1018D0000400002010B50248FFF726F810BD0000F4
:1018E0002401002070B504460D46044804490860F0
:1018F000084644608560FEF7EFFF70BD0030004091
:101900002401002000B585B000BF00BF36488069C3
:1019100040F00400344988610846806900F0040002
:10192000009000BF00BF00BF00BF00BF0846806935
:1019300040F0400088610846806900F04000009057
:1019400000BF00BF00BF00BF00BF0846806940F075
:10195000400088610846806900F04000009000BFA8
:1019600000BF00BF00BF00BF0846806940F04000D4
:1019700088610846806900F04000009000BF00BF09
:1019800000BF01200190002002900220039003205C
:10199000049001A91548FEF7E1FD04200190002004
:1019A0000290012003900320049001A91048FEF743
:1019B000D5FD082001900020029001200390032013
:1019C000049001A90A48FEF7C9FD102001900020EB
:1019D0000290012003900320049001A90448FEF71F
:1019E000BDFD05B000BD0000001002400008014030
:1019F0000018014070B50446002514B101202B49A0
:101A000008702A480078002834D001212848FEF7C1
:101A100045FF01280ED004212648FEF73FFF48B1BC
:101A200008212448FEF73AFF20B110212148FEF793
:101A300035FFF8B90A20FFF70BFF00201B4908709B
:101A400001211B48FEF72AFF012800D101250421AE
:101A50001848FEF723FF00B9022508211548FEF7B4
:101A60001DFF00B9032510211248FEF717FFD0B95A
:101A7000042518E001210E48FEF710FF98B9042153
:101A80000C48FEF70BFF01280DD108210948FEF78D
:101A900005FF012807D110210648FEF7FFFE0128A7
:101AA00001D102490870284670BD000019000020CD
:101AB000000801400018014000B585B000BF00BF1C
:101AC0001648806940F01000144988610846806912
:101AD00000F01000009000BF00BF00BF0120019087
:101AE000029003900320049001A90D48FEF736FDF3
:101AF0000220019001A90A48FEF730FD00BF012233
:101B000011460748FEF7DCFE00BF00BF012202219C
:101B10000348FEF7D5FE00BF05B000BD001002402F
:101B200000100140FEF714FF4FF4E01000F028F819
:101B30004820FFF779FE4FF4E13000F055F8FFF749
:101B4000BBFFFFF7DFFE6420FFF782FE40F271214A
:101B50000420FFF7C7FE00BF002201210748FEF75F
:101B6000AFFE00BF09E00120FFF744FF012801D1CB
:101B7000FFF7B0FE0A20FFF76BFEF4E7001001400C
:101B800030B58FB005460124282105A8FEF73FFB9C
:101B900014216846FEF73BFB0120059000040690E7
:101BA0000020079002200C90C1030D910E9505A80E
:101BB000FFF7A2F804460CB100BFFEE70F2000902B
:101BC00002200190002002904FF4806003900020DA
:101BD000049002216846FEF759FF04460CB100BF8D
:101BE000FEE70FB030BD000010B5044609480A49B1
:101BF00008600846446000218160C1600161816124
:101C00000C214161FFF784FB012204490248FFF7E0
:101C100013FC10BD00380140E40000200E0000203D
:101C2000000000000000000001020304060708098C
:101C30000000000001020304581C000800000020FE
:101C40001C0000006C010008741C00081C0000202F
:101C500074070000880100080024F4000000000060
:101C60000000000000000000000000001000000064
:041C7000010100006E
:0400000508000131BD
:00000001FF
