:020000040800F2
:10000000A0B300202D020008211D0008771C000865
:100010001D1D0008A9070008AD2000080000000011
:100020000000000000000000000000004D1D00085E
:10003000AD07000800000000231D00084F1D000848
:10004000470200084702000847020008470200086C
:10005000470200084702000847020008470200085C
:10006000470200084702000847020008470200084C
:10007000470200084702000847020008470200083C
:10008000470200084702000847020008470200082C
:10009000470200084702000847020008470200081C
:1000A000470200084702000847020008470200080C
:1000B0004702000847020008591D000847020008CF
:1000C00047020008470200084702000847020008EC
:1000D000470200088920000847020008470200087C
:1000E00047020008470200084702000847020008CC
:1000F00047020008470200084702000847020008BC
:1001000047020008470200084702000847020008AB
:10011000470200084702000847020008470200089B
:10012000470200084702000847020008470200088B
:1001300000F002F800F06BF80AA090E8000C82448E
:100140008344AAF10107DA4501D100F060F8AFF26B
:10015000090EBAE80F0013F0010F18BFFB1A43F0A5
:100160000103184780710000A07100000A444FF09D
:10017000000C10F8013B13F0070408BF10F8014B06
:100180001D1108BF10F8015B641E05D010F8016B4B
:10019000641E01F8016BF9D113F0080F1EBF10F8AF
:1001A000014BAD1C0C1B09D16D1E58BF01F801CBD2
:1001B000FAD505E014F8016B01F8016B6D1EF9D555
:1001C0009142D6D37047000000230024002500266A
:1001D000103A28BF78C1FBD8520728BF30C148BFAA
:1001E0000B607047642900F0B380752900F0B0807F
:1001F000782900F0E980632900F08182732900F0FA
:100200008682002070471FB51FBD10B510BD00F0DD
:1002100099FA1146FFF7F7FF02F088FC00F0B7FAF1
:1002200003B4FFF7F2FF03BC01F065FF0948804704
:1002300009480047FEE7FEE7FEE7FEE7FEE7FEE7C8
:10024000FEE7FEE7FEE7FEE704480549054A064BE0
:1002500070470000571D000831010008A0AD0020C4
:10026000A0B30020A0AF0020A0AF00207047000086
:100270000FB4044910B503AA029800F04DFA10BC5F
:100280005DF814FB080000200FB41CB5074B06AA4C
:100290007B4469460090059800F00FFA00206946FB
:1002A00000F01EFA1CBC5DF814FB00004D040000B9
:1002B00070B5044685690068C10601D5302600E0A6
:1002C0002026C00707D070BDD4E9012130469047F1
:1002D000206A401C20626D1EF6D570BD70B50446C4
:1002E00085690078C00707D170BDD4E901212020BD
:1002F0009047206A401C20626D1EF6D570BD70B517
:100300000C460546012A05D02878800600D5EA6902
:10031000002302E0012305E05B1C934202D2E05C73
:100320000028F9D1A869E618C01AA861286A1844FB
:1003300028622846FFF7BCFF04E0D5E9012114F844
:10034000010B9047B442F8D32846FFF7C7FF70BDB2
:100350002DE9F0410646002410687529314616A59E
:1003600010D0AFF30080002802DA404213A507E066
:1003700031688A0701D512A502E0490704D511A505
:10038000012401E0AFF3008000210A2206F12407D6
:1003900009E0B0FBF2FCB0FBF2F302FB1C003030D2
:1003A00078541846491C0028F3D123462A46304683
:1003B000BDE8F04100F023B9000000002D0000006E
:1003C0002B0000002000000070B504460D462146B9
:1003D0001068AFF300802188090502D50F4A7A44DE
:1003E00002E00E4A7A440E32002104F1240305E0B3
:1003F00000F00F060009965D5E54491C0028F7D1F5
:1004000020780023000704D5702D02D009B1022303
:1004100011322046BDE8704000F0F1B8166E0000C1
:100420002DE9F05F894604464FF0000ADFF874B109
:10043000FB44C0F820A02046E1688847002874D01B
:10044000252806D0D4E901219047206A401C20626B
:10045000F1E700265F462046E168884720280546E8
:1004600007DB312D05D2781910F8200C08B10643AE
:10047000F1E7B00701D526F00406C4F81CA0002758
:10048000C4F818A02A2D09D0284601F02DFE38B353
:1004900004EB8708303DC8F8185019E059F8041BE0
:1004A000204604EB87029161E1688847012F0546E9
:1004B00018D1E069002820DA26F020061DE0D8F8DF
:1004C000180000EB800005EB40003038C8F8180039
:1004D0002046E1688847054601F006FE0028EED177
:1004E000012F0AD02E2D08D12046E16888477F1CB5
:1004F0000546022F46F02006C4DBA069002803DA77
:10050000404246F00106A061F00701D026F0100637
:100510006C2D0BD0682D09D04C2D39D06A2D35D0DB
:10052000742D35D07A2D33D016E038E0E1682F46AF
:1005300020468847B842054609D16C2F26D04FF493
:100540008060E168064320468847054604E06C2F3A
:100550001AD04FF4807006430DB3A5F1410019285D
:1005600002D8203546F400664A46294620462660D1
:100570004E46FFF737FE80B101280BD0F61D26F05E
:10058000070000F1080956E74020E4E78020D8E79B
:100590000020D6E706F104094DE7284652E7206A15
:1005A000BDE8F09FEC6D00004FF0000200B513466F
:1005B00094469646203922BFA0E80C50A0E80C5083
:1005C000B1F12001BFF4F7AF090728BFA0E80C5034
:1005D00048BF0CC05DF804EB890028BF40F8042B2D
:1005E00008BF704748BF20F8022B11F0804F18BF9A
:1005F00000F8012B704770477047704770472DE92E
:10060000F0470D4699469246044600F124080168D9
:10061000880604D5E06921F01001216000E0012086
:10062000A84201DD471B00E00027A1697A1902EB0F
:100630000900081AA0612078C00602D42046FFF7FE
:1006400037FE002608E0D4E901211AF80600904799
:10065000206A401C761C20624E45F4DB2078C006E0
:100660000AD52046FFF724FE06E0D4E90121302018
:100670009047206A401C2062381EA7F10107F4DC75
:1006800007E0D4E9012118F805009047206A401CD2
:100690002062281EA5F10105F3DC2046FFF71EFEAF
:1006A0002078000602D50220BDE8F0870120FBE794
:1006B00001694A1C02610878704700B58FB0CDE926
:1006C00001310021059105497944CDE90310114616
:1006D0006846FFF7A5FE0FB000BD0000E5FFFFFF75
:1006E0000A6802F8010B0A60704710B5436913B13C
:1006F000AFF3008001E0FFF702FE012010BD127889
:1007000000F124010A7000224A700122EDE711680D
:100710004FF0FF32E9E70000074B70B50D467B4410
:10072000FFF7CBFF0446284600F008F810B14FF061
:10073000FF3070BD204670BD871A0000007B00F0BE
:1007400080007047754600F02BF8AE4605006946FC
:10075000534620F00700854618B020B5FFF774FD1A
:10076000BDE820404FF000064FF000074FF00008B2
:100770004FF0000B21F00701AC46ACE8C009ACE833
:10078000C009ACE8C009ACE8C0098D46704710B597
:100790000446AFF300802046BDE81040FFF740BD9F
:1007A0000048704740AD002000BFFEE770470000E2
:1007B00070B50446B3F5804F13D1D1E9000540EA86
:1007C00005108D6840EA05208D6928438D8940EA2F
:1007D000054054F82250064E3540284344F8220084
:1007E00003E06FF0704044F82200002070BD00006C
:1007F0000000F0CF70B50246086852F8200020F0E3
:1008000001000E6842F826008868082801D14023BC
:1008100000E00023486818438E683043CE683043B8
:100820000E6930434E693043CE6930430E6A30431F
:100830004E6A30438E6A3043CE6A30430E6B40EAD4
:10084000060488690443486B0443074D45F48065FA
:1008500045F4E025086852F82000A84320430E68BC
:1008600042F82600002070BD7FFB080010B503464B
:10087000D1E9000440EA04108C6840EA04208C8925
:1008800040EA0444088A401E44EA0054087D801E61
:1008900044EA00608C692043541C53F8244004F05F
:1008A00040442043541C43F82400002010BD0000A5
:1008B00070B50446002594F82100022803D00420D6
:1008C000A0630125C1E02068006820F00E002168C7
:1008D00008602068006820F00100216808605C4919
:1008E0002068884252D95A4978392068884201D113
:1008F000012047E0564964392068884201D1102020
:1009000040E0534950392068884201D1801539E0D0
:100910004F493C392068884201D1801432E04C496B
:1009200028392068884202D14FF480302AE04849B3
:1009300014392068884202D14FF4801022E04449E3
:100940002068884201D140041CE042492068884266
:1009500001D1012016E03F4914312068884201D1BD
:1009600010200FE03B4928312068884201D18015D2
:1009700008E038493C312068884201D1801401E008
:100980004FF480303349091F086051E0304978390D
:100990002068884201D1012047E02D496439206850
:1009A000884201D1102040E029495039206888420E
:1009B00001D1801539E026493C392068884201D1AF
:1009C000801432E0224928392068884202D14FF44D
:1009D00080302AE01E4914392068884202D14FF441
:1009E000801022E01A492068884201D140041CE0AE
:1009F00018492068884201D1012016E015491431B8
:100A00002068884201D110200FE012492831206867
:100A1000884201D1801508E00E493C3120688842A7
:100A200001D1801401E04FF48030094980394860D9
:100A3000012084F8210000BF002084F8200000BFBE
:100A4000606B10B12046616B8847284670BD00007E
:100A500080000240080402402DE9F84702460023C6
:100A60009C467BE14FF0010808FA03F4D1F80080BE
:100A700008EA0400A0427DD1DFF8F4A2D1F8048096
:100A8000A8EB0A09D0453AD014DCB8F1030F50D0D6
:100A900009DCB8F1000F31D0B8F1010F1CD0B8F16A
:100AA000020F49D120E0B8F1110F18D0B8F1120FA0
:100AB00042D11EE0B9F5881F25D006DCB9F5803F8C
:100AC00020D0B9F5801F37D11AE0B9F5001F18D032
:100AD000B9F5041F30D117E0D1F80CC02DE0D1F8E2
:100AE0000C8008F1040C28E0D1F80C8008F1080C07
:100AF00023E0D1F80C8008F10C0C1EE000BF00BF11
:100B000000BF00BF00BF00BFD1F80880B8F1000FE0
:100B100002D14FF0040C0BE0D1F80880B8F1010FBE
:100B200003D14FF0080C146102E04FF0080C54613F
:100B300003E04FF0000C00E000BF00BFFF2801D829
:100B4000904601E002F104084646FF2802D84FEA29
:100B5000830803E0A3F108084FEA88084746D6F85F
:100B600000804FF00F0909FA07F928EA09080CFA82
:100B700007F900E07AE048EA0908C6F80080D1F8F1
:100B8000048008F08058B8F1805F6FD100BFDFF8B3
:100B9000E481D8F8188048F00108DFF8D891C9F846
:100BA0001880C846D8F8188008F00108CDF80080F1
:100BB00000BF00BF4FEAB9384FEA930958F82950EF
:100BC0004FEA83784FEA18794FF00F0808FA09F8CE
:100BD00025EA0805DFF8A081424502D14FF0000860
:100BE00024E0DFF89881424502D14FF001081DE072
:100BF000DFF88C81424502D14FF0020816E0DFF8A1
:100C00008481424502D14FF003080FE0DFF878817C
:100C1000424502D14FF0040808E0DFF870814245F8
:100C200002D14FF0050801E04FF006084FEA837942
:100C30004FEA197908FA09F848EA0505DFF8508102
:100C40004FEA930948F82950D1F8048008F4803815
:100C5000B8F5803F0BD1DFF83C81D8F8008048EA36
:100C60000008DFF83091C9F800800AE075E0DFF88D
:100C70002481D8F8008028EA0008DFF81891C9F824
:100C80000080D1F8048008F40038B8F5003F0ED198
:100C9000DFF8008108F10408D8F8008048EA00086D
:100CA000DFF8F09009F10409C9F800800DE0DFF8E1
:100CB000E48008F10408D8F8008028EA0008DFF88A
:100CC000D49009F10409C9F80080D1F8048008F42F
:100CD0008018B8F5801F0ED1DFF8B88008F1080839
:100CE000D8F8008048EA0008DFF8A89009F1080960
:100CF000C9F800800DE0DFF89C8008F10808D8F8FA
:100D0000008028EA0008DFF88C9009F10809C9F88A
:100D10000080D1F8048008F40018B8F5001F0ED147
:100D2000DFF8708008F10C08D8F8008048EA000865
:100D3000DFF8609009F10C09C9F800800DE0DFF8D8
:100D4000548008F10C08D8F8008028EA0008DFF881
:100D5000449009F10C09C9F800805B1CD1F80080AF
:100D600028FA03F8B8F1000F7FF47CAEBDE8F887ED
:100D7000000011100010024000080140000C01406A
:100D8000001001400014014000180140001C014007
:100D90000800014000040140024693680B400BB17B
:100DA000012000E00020704710B5C26821EA02036C
:100DB00002EA010443EA0443036110BD0AB1016180
:100DC00001E00B04036170470148006870470000B0
:100DD00010000020034800680349097808440149CD
:100DE00008607047100000201800002010B5084867
:100DF000006840F0100006490860052000F080F807
:100E00000F2000F007F800F02BF8002010BD0000C4
:100E10000020024070B504460E4800784FF47A7105
:100E2000B1FBF0F00C490968B1FBF0F5284600F081
:100E3000CFFC08B1012070BD102C07D20022214642
:100E4000501E00F01EF80548046001E00120F2E7A2
:100E50000020F0E71800002000000020140000200F
:100E6000704701460846002809DB00F01F030122F5
:100E70009A4043099B0003F1E023C3F8002100BF1F
:100E800070472DE9F05F80460D461646002701F0B9
:100E90000FF9074639462A46334601F00700C0F1EC
:100EA000070ABAF1040F02D94FF0040A01E0C0F1B9
:100EB000070AD14600F1040ABAF1070F02D24FF037
:100EC000000A01E0A0F1030AD4464FF0010A0AFA31
:100ED00009FAAAF1010A0AEA020A0AFA0CFA4FF020
:100EE000010B0BFA0CFBABF1010B0BEA030B4AEA0B
:100EF0000B042146404601F0E3F8BDE8F09F0000F6
:100F000000BF00F00702064B19684FF6FF031940B7
:100F1000044B0B4343EA0221014B196000BF7047A9
:100F20000CED00E00000FA0570B504460D460CB962
:100F3000012070BD5A48006800F00700A8420ED298
:100F40005748006820F007002843554908600846C4
:100F5000006800F00700A84201D00120E9E72078EE
:100F600000F0020002281DD1207800F004000428BF
:100F700005D14C48406840F4E0604A494860207818
:100F800000F00800082805D14648406840F4605049
:100F9000444948604348406820F0F000A168084395
:100FA00040494860207800F0010078B3606801286B
:100FB00006D13C48006800F4003090B90120B8E741
:100FC0006068022806D13748006800F0007040B918
:100FD0000120AEE73348006800F0020008B90120A4
:100FE000A7E73048406820F00300616808432D49B6
:100FF0004860FFF7E9FE064609E0FFF7E5FE801BC3
:1010000041F28831884202D9032092E707E025485F
:10101000406800F00C006168B0EB810FEDD1204812
:10102000006800F00700A8420ED91D48006820F0B3
:10103000070028431A4908600846006800F00700C6
:10104000A84201D0012074E7207800F004000428B1
:1010500007D11448406820F4E060E1680843114972
:101060004860207800F00800082808D10D48406842
:1010700020F46050216940EAC1000A49486000F04C
:101080003FF808494968C1F30311074A515CC84059
:101090000649086006480068FFF7BCFE002048E7E4
:1010A00000200240001002404842000800000020DA
:1010B0001400002001480068704700000000002074
:1010C00000B5FFF7F7FF04494968C1F30221034A5D
:1010D000515CC84000BD00000010024058420008AA
:1010E00000B5FFF7E7FF04494968C1F3C221034A8D
:1010F000515CC84000BD000000100240584200088A
:10110000F0B585B00FF26C0C9CE8E01001A8A0E8E7
:10111000E0101CA52D68009500210022002300246A
:101120000020194D696801F00C05F5B1042D02D0BD
:10113000082D19D101E0154819E001ADC1F383462E
:10114000AC5D01F4803555B10F4D6D68C5F3404578
:101150001DF805200D4D6543B5FBF2F302E00C4D83
:1011600004FB05F3184602E000BF084800BF00BFBB
:1011700005B0F0BD02030405060708090A0B0C0DB3
:101180000E0F1010010200000010024000127A0041
:1011900000093D00F8B504460CB90120F8BD2078DF
:1011A00000F00100002878D0F848406800F00C00FA
:1011B00004280CD0F548406800F00C00082811D134
:1011C000F248406800F48030B0F5803F0AD1EF4823
:1011D000006800F4003000285FD0606800285CD10F
:1011E0000120DBE700BF6068B0F5803F06D1E7482B
:1011F000006840F48030E549086028E0606858B92C
:10120000E248006820F48030E04908600846006841
:1012100020F4802008601AE06068B0F5A02F0BD1A0
:10122000DA48006840F48020D84908600846006821
:1012300040F4803008600AE0D448006820F4803030
:10124000D24908600846006820F48020086000BF8A
:10125000606888B1FFF7B8FD054606E0FFF7B4FD0A
:10126000401B642801D9032098E7C848006800F4AF
:1012700000300028F2D010E0FFF7A6FD054606E09A
:10128000FFF7A2FD401B642801D9032086E7BF4871
:10129000006800F400300028F2D1207800F002004D
:1012A000022857D1B948406800F00C0050B1B74847
:1012B000406800F00C00082818D1B448406800F4D9
:1012C000803098B9B148006800F0020020B1206970
:1012D000012801D0012061E7AC48006820F0F80047
:1012E000616940EAC100A949086033E02069E8B1BA
:1012F0000120A7490860FFF767FD054606E0FFF7F4
:1013000063FD401B022801D9032047E79F4800687E
:1013100000F002000028F2D09C48006820F0F8009D
:10132000616940EAC1009949086013E000209849CA
:101330000860FFF749FD054606E0FFF745FD401B45
:10134000022801D9032029E79048006800F0020034
:101350000028F2D1207800F0080008282DD1A069DB
:10136000B8B101208B490860FFF72EFD054606E065
:10137000FFF72AFD401B022801D903200EE783480E
:10138000406A00F002000028F2D0012000F0CAFC00
:1013900013E000207F490860FFF716FD054606E0D0
:1013A000FFF712FD401B022801D90320F6E677481B
:1013B000406A00F002000028F2D1207800F004001A
:1013C000042873D100277148C06900F0805070B9BB
:1013D00000BF6E48C06940F080506C49C861084643
:1013E000C06900F08050009000BF00BF01276A482C
:1013F000006800F48070B0B96748006840F48070FD
:1014000065490860FFF7E0FC054606E0FFF7DCFCF5
:10141000401B642801D90320C0E65F48006800F43F
:1014200080700028F2D000BFE068012806D157483C
:10143000006A40F001005549086227E0E06858B9A9
:101440005248006A20F00100504908620846006ACC
:1014500020F00400086219E0E06805280BD14B4831
:10146000006A40F00400494908620846006A40F0FA
:10147000010008620AE04548006A20F00100434983
:1014800008620846006A20F00400086200BFE068B5
:10149000A0B1FFF799FC054609E0FFF795FC401B5A
:1014A00041F28831884202D9032077E622E03748AA
:1014B000006A00F002000028EFD012E0FFF784FC81
:1014C000054608E0FFF780FC401B41F28831884266
:1014D00001D9032062E62D48006A00F002000028CE
:1014E000F0D1012F05D12948C06920F0805027494B
:1014F000C86100BFE069C8B32448406800F00C0030
:10150000082860D0E069022848D1002020490866F8
:10151000FFF75AFC054606E0FFF756FC401B022881
:1015200001D903203AE61948006800F0007000284D
:10153000F2D1206AB0F5803F07D11448406820F40A
:101540000030A168084311494860D4E90801084304
:101550000E49496821F4741108430C494860012080
:101560000B490866FFF730FC054607E03DE0FFF752
:101570002BFC401B022801D903200FE6034800681A
:1015800000F000700028F2D02FE0000000100240B0
:101590000000424280044242007000400020144992
:1015A0000866FFF711FC054606E0FFF70DFC401B3F
:1015B000022801D90320F1E50E48006800F0007010
:1015C0000028F2D111E0E069012800D1E6E50948E0
:1015D000466806F48031206A814204D106F4701115
:1015E000606A814201D00120D8E50020D6E50000E4
:1015F000000042420010024070B504460E461546F7
:101600001CB1A069B0F5807F01D1012070BD94F8B4
:10161000410028B9002084F84000204600F020F85E
:1016200004F108012068FFF7E5F83146A268206858
:10163000FFF71CF92946236BD4E90102FFF7B8F83C
:10164000A168206850F8210040F00100A2682168DC
:1016500041F82200012084F841000020D6E7000074
:1016600010B586B0044600BF4B48406940F4807016
:10167000494948610846406900F48070019000BF04
:1016800000BF00BF0846806940F02000886108461E
:10169000806900F02000019000BF00BF00BF084635
:1016A000806940F0400088610846806900F0400091
:1016B000019000BF00BF00BF00BF0846806940F036
:1016C000200088610846806900F02000019000BF7A
:1016D00000BF00BF00BF00BF0846806940F0200087
:1016E00088610846806900F02000019000BF00BFBB
:1016F00000BF00BF00BF0846806940F48070886169
:101700000846806900F48070019000BF00BF00BFF0
:1017100000BF00BF0846806940F4807088610846B9
:10172000806900F48070019000BF00BF00BF881482
:10173000029002200390012004900320059002A94A
:101740001648FFF789F92020029002A91448FFF7F4
:1017500083F91020029002A91148FFF77DF90120BA
:10176000029002A90D48FFF777F94CF2037002903E
:1017700002200390012004900320059002A908484C
:10178000FFF76AF94FF68070029002A90548FFF74B
:1017900063F906B010BD00000010024000200140B7
:1017A0000014014000180140042808D14FF0E02146
:1017B000096941F004014FF0E022116107E04FF0A8
:1017C000E021096921F004014FF0E0221161704726
:1017D00070B504462546681EB0F1807F01D3012014
:1017E0000FE0681E4FF0E02148610F214FF0FF30FD
:1017F00000F066FC00204FF0E021886107200861BE
:10180000002070BD10B504460CB9012010BD94F83D
:101810003D0028B9002084F83C00204600F025F85F
:10182000022084F83D00211D206800F0B7FA012055
:1018300084F8460000BF84F83E0001213F20015596
:10184000402001554120015500BF00BF012084F810
:10185000420043200155442001554520015500BF59
:10186000012084F83D000020D0E77047014691F840
:101870003D00012801D001207047022081F83D0081
:101880000868C06840F001000B68D860164B086813
:10189000984213D0154B086898420FD00868B0F1F1
:1018A000804F0BD0124B0868984207D0114B086844
:1018B000984203D0104B086898420CD108688068A1
:1018C00000F00702062A0CD00868006840F001000A
:1018D0000B68186005E00868006840F001000B68BC
:1018E00018600020C8E70000002C014000340140CF
:1018F0000004004000080040000C00407047000059
:101900002DE9F0470446206805682068C66820680D
:1019100047694FF00008C14605F00F08B8F1000F05
:101920000AD105F0200038B106F0200020B1204691
:1019300000F0ACFABDE8F087B8F1000F71D007F005
:10194000010018B906F4907000286AD005F0010073
:1019500030B106F4807018B1E06B40F00100E06334
:1019600005F0040030B107F0010018B1E06B40F061
:101970000200E06305F0020030B107F0010018B189
:10198000E06B40F00400E06305F0080048B106F0A9
:10199000200010B907F0010018B1E06B40F008001A
:1019A000E063E06B68B305F0200028B106F020008A
:1019B00010B1204600F06AFA20684069C0F380192F
:1019C000E06B00F0080010B9B9F1000F22D02046FA
:1019D00000F03CFA2068406900F04000B0B1206897
:1019E000406920F0400021684861606B50B11848A0
:1019F000616B4863606BFEF75BFF10B1606B416B1E
:101A000088470CE02046FFF779FF08E02046FFF703
:101A100075FF04E02046FFF771FF0020E06389E7CF
:101A2000FFE705F0800030B106F0800018B12046D5
:101A300000F0FAFA7EE705F0400030B106F0400011
:101A400018B1204600F012FA74E700BF72E70000F8
:101A5000391E000810B504460CB9012010BDA0695C
:101A600000B100E000BF94F8390028B9002084F8E4
:101A70003800204600F028F8242084F83900206837
:101A8000C06820F400502168C860204600F04EFA7B
:101A90002068006920F4904021680861206840694E
:101AA00020F02A00216848612068C06840F4005096
:101AB0002168C8600020E063202084F8390084F8A1
:101AC0003A000020CAE7000010B586B00446284955
:101AD000206888424AD100BF00BF2648806940F094
:101AE0000400244988610846806900F004000190E0
:101AF00000BF00BF00BF00BF00BF0846806940F0C4
:101B0000040088610846806900F00400019000BF6D
:101B100000BF00BF00BF00BF0846806940F480409E
:101B200088610846806900F48040019000BF00BFD2
:101B300000BF48150290022003900120049003206A
:101B4000059002A90C48FEF787FF4FF480600290D1
:101B50000020039002A90848FEF77EFF2520FFF72A
:101B600080F9032211462520FFF78BF906B010BD3E
:101B700000380140001002400008014010B5034643
:101B800093F83A0020282FD101B10AB9012010BDE5
:101B900000BF93F83800012801D10220F7E70120A7
:101BA00083F8380000BF99629A85DA850020D863EF
:101BB000222083F83A0000BF002083F8380000BFDD
:101BC0001868C06840F480701C68E060186840695C
:101BD00040F001001C6860611868C06840F0200097
:101BE0001C68E0600020D2E70220D0E71D4A0168AF
:101BF000914236D11C49098801F4004189BB1A4938
:101C0000098801F4804171B1184909780A2903D083
:101C10000021154A118024E01349098841F400414C
:101C2000114A11801DE0114909780D2906D10E498C
:101C3000098841F480410C4A118012E00B4909786F
:101C4000094A1288C2F30D02094B995406490988C2
:101C5000491C054A118011460988C72901DD002168
:101C600011807047003801400C0000200E00002059
:101C70007C010020704700BFFEE7000000B502466F
:101C8000A2B9012000F00CFF4FF4807000F0F8FEC4
:101C9000032000F005FF41F2300000F0F1FE4FF4A8
:101CA000C8700E494880F020088015E0012000F03F
:101CB000F7FE4FF4807000F0E3FE032000F0F0FE2A
:101CC00041F2380000F0DCFEF020044948804FF477
:101CD000C87008800120887100BD00002400002029
:101CE00010B501460023CA0AC1F3451401F01F03D1
:101CF000500340EA841040EA430010BD30B5054669
:101D000000242846FFF7ECFF0446C4F34F200249A5
:101D100008800C8030BD00000008006C00BFFEE7AA
:101D20007047704708B508490968C9084FF47A72C6
:101D3000B1FBF2F14143009100BF00BF00994A1E80
:101D400000920029F9D108BD00000020704710B5AD
:101D5000FFF740F810BD704710B50E480068C06826
:101D600000F0010078B10C4908698047002009495A
:101D70000968486200BF642006490968C862642196
:101D80000448C16000BF6FF00100024909680861A2
:101D900010BD0000CC0200206C00002010B50268CD
:101DA000204B98420ED0204B98420BD0B0F1804F80
:101DB00008D01E4B984205D01D4B984202D01D4BB7
:101DC000984203D122F070024B681A43154B984297
:101DD0000ED0154B98420BD0B0F1804F08D0134B6A
:101DE000984205D0124B984202D0124B984203D130
:101DF00022F44072CB681A4322F080034C6943EA14
:101E0000040202608B68C3620B688362054B9842D0
:101E100002D0054B984201D10B6903630123436152
:101E200010BD0000002C01400034014000040040BF
:101E300000080040000C004070B505466C6A0020A8
:101E4000E085E0842046FFF759FD70BD0168C96850
:101E500021F490710268D1600168496921F00101A3
:101E600002685161202180F83A10704710B504468D
:101E70002068C06820F040002168C860202084F8F5
:101E800039002046FFF7F6FE002010BD70B504466D
:101E900094F83A00222847D1A068B0F5805F0CD1B1
:101EA000206950B90025A66A20684068C0F3080080
:101EB0003080A06A801CA06215E0A56A0026A06898
:101EC000B0F5805F03D0A06828B9206918B92068F0
:101ED0004068287004E02068406800F07F002870A7
:101EE000A06A401CA062E08D401E80B2E085C8B9A7
:101EF0002068C06820F020002168C8602068C068A1
:101F000020F480702168C8602068406920F00100DA
:101F100021684861202084F83A002046FFF766FED9
:101F2000002070BD0020FCE70220FAE770B50446EF
:101F30002168096921F44051E26811432268116166
:101F40002269A1681143626941EA02052168C968F2
:101F500041F20C62914329432268D16021684969AA
:101F600021F44071A2691143226851612D4A216810
:101F7000914202D1FFF7B4F801E0FFF7A1F800EBBE
:101F8000C00101EB001162689200B1FBF2F100EBBD
:101F9000C00202EB001263689B00B2FBF3F2642301
:101FA000B2FBF3F202EBC20303EB0212A1EB8201DC
:101FB000322202EB01116422B1FBF2F101F0F001D7
:101FC00000EBC00202EB001263689B00B2FBF3F26D
:101FD0006423B2FBF3F201EB021200EBC00101EB50
:101FE000001163689B00B1FBF3F100EBC00303EB4E
:101FF00000136668B600B3FBF6F36426B3FBF6F392
:1020000003EBC30606EB0313A1EB8301322303EBBF
:1020100001116423B1FBF3F101F00F0111442268B7
:10202000916070BD00380140014691F839002128C7
:1020300028D18868B0F5805F0BD1086948B90A6A71
:102040001088C0F308000B685860086A801C08629A
:1020500005E00B6A581C086218780B685860C88C39
:10206000401E80B2C88458B90868C06820F080005B
:102070000B68D8600868C06840F040000B68D86002
:10208000002070470220FCE710B50648FFF738FC37
:1020900000BF012204490348FFF770FD0028F8D172
:1020A00010BD0000440200200E00002000BFFEE72B
:1020B00002480068C0F30220704700000CED00E009
:1020C00010B5002804DB0A07130E054A135406E076
:1020D0000A07140E034A00F00F031B1FD45410BD4F
:1020E00000E400E018ED00E030380A2801D20120B9
:1020F00070470020704700BF7047000010B50446CD
:1021000000204FF0E0210861FFF74EFB2046E11769
:1021100004EB5171C1F3CF01014A118010BD0000E1
:102120000400002070B504464FF47A7094FBF0F57B
:1021300094FBF0F100FB114603E0074800F00EF8B5
:102140006D1E002DF9D12EB14FF47A7106FB01F00E
:1021500000F004F870BD000040420F000146114A33
:1021600012884A434FF0E0235A6100229A611A46CE
:10217000126942F001021A6100BF4FF0E0221069BB
:1021800000F001021AB100F48032002AF5D04FF0BD
:10219000E022126922F001024FF0E0231A610022CE
:1021A0009A6170470400002000BF054A126802F0DF
:1021B0004002002AF9D0C2B2014B1B1D1A607047C1
:1021C0000038014000B585B000BF00BF36488069C7
:1021D00040F00400344988610846806900F004003A
:1021E000009000BF00BF00BF00BF00BF084680696D
:1021F00040F0400088610846806900F0400000908F
:1022000000BF00BF00BF00BF00BF0846806940F0AC
:10221000400088610846806900F04000009000BFDF
:1022200000BF00BF00BF00BF0846806940F040000B
:1022300088610846806900F04000009000BF00BF40
:1022400000BF012001900020029002200390032093
:10225000049001A91548FEF7FFFB0420019000201F
:102260000290012003900320049001A91048FEF77A
:10227000F3FB08200190002002900120039003202E
:10228000049001A90A48FEF7E7FB10200190002006
:102290000290012003900320049001A90448FEF756
:1022A000DBFB05B000BD000000100240000801404B
:1022B0000018014070B50446002514B101202B49D7
:1022C00008702A480078002834D001212848FEF7F9
:1022D00063FD01280ED004212648FEF75DFD48B1BC
:1022E00008212448FEF758FD20B110212148FEF7AF
:1022F00053FDF8B90A20FFF715FF00201B490870AD
:1023000001211B48FEF748FD012800D101250421C9
:102310001848FEF741FD00B9022508211548FEF7CF
:102320003BFD00B9032510211248FEF735FDD0B959
:10233000042518E001210E48FEF72EFD98B904216E
:102340000C48FEF729FD01280DD108210948FEF7A8
:1023500023FD012807D110210648FEF71DFD0128A5
:1023600001D102490870284670BD00002C000020F1
:10237000000801400018014070B506460F4840882B
:10238000401E83B20D480088401E82B200210846DC
:1023900000F03CFA00240CE0002504E03046FFF792
:1023A000ADFC681C85B205484088A842F6DC601C7C
:1023B00084B202480088A042EEDC70BD24000020F8
:1023C00070B504460D4616462B4622462946204641
:1023D00000F01CFAB0B2FFF791FC70BD2DE9F0439C
:1023E00004460D4616461F46DDF81C80B44201DC4B
:1023F000BD4201DDBDE8F0833B463246294620461A
:1024000000F004FA301B401C84B2781B401C85B2DB
:102410000CE0A94603E01FFA88F0FFF76FFCB9F162
:102420000000A9F101011FFA81F9F4D1201EA4F1E5
:1024300001018CB2EDD100BFDCE7000000B58FB028
:102440004FF02040E2490860E2484860062088607A
:102450000021DF48C16001611021416100218161DB
:10246000C16141624FF4805181620021C1624FF429
:102470008041016300214163816300200E900120AF
:102480000890002009900F200A90002007900F204C
:10249000019002900520039001AA08A9CC48FFF7FB
:1024A000ABF83220FFF73EFE002000F0F9FA00F012
:1024B0009FF9C949888008468188C8A0FDF7D8FEE1
:1024C000002000F0EDFA002000F0EAFA0A20FFF701
:1024D00029FE002000F0E4FA002000F0E1FA0020DC
:1024E00000F0DEFA002000F0DBFAA42000F0D8FAB9
:1024F000012000F0C5FA0A20FFF714FE602000F06A
:10250000CFFA4FF41C5000F0BBFA082000F0C8FAD4
:1025100040F6080000F0B4FA4FF4407000F0C0FA42
:1025200040F2091000F0ACFA40F2013000F0B8FAC5
:1025300047F60A6000F0A4FA40F2023000F0B0FA68
:1025400040F2047000F09CFA40F2033000F0A8FA68
:1025500040F6111000F094FA4FF4417000F0A0FA28
:102560004FF4045000F08CFA40F2053000F098FA75
:1025700041F2091000F084FA40F2063000F090FABF
:1025800047F2074000F07CFA40F2073000F088FA8A
:1025900040F60E2000F074FA4FF4427000F080FA1A
:1025A00040F6011000F06CFA40F2093000F078FAC1
:1025B000212000F065FA102000F072FA102000F0DF
:1025C0005FFA112000F06CFA40F2022000F058FA95
:1025D000122000F065FA4FF4407000F051FA132019
:1025E00000F05EFA072000F04BFA0A20FFF79AFD90
:1025F0004FF4807000F054FA002000F041FA40F2ED
:10260000011000F04DFA072000F03AFA4FF4817003
:1026100000F046FA002000F033FA40F2031000F018
:102620003FFA002000F02CFA4FF4207000F038FA46
:10263000002000F025FAC820FFF774FD4FF48070E9
:1026400000F02EFA4FF44C7000F01AFA40F201102C
:1026500000F026FA40F2472000F012FA3220FFF78D
:1026600061FD4FF4817000F01BFA4DF2B01000F0E4
:1026700007FA3220FFF756FD40F2031000F010FA7F
:102680004FF4805000F0FCF94FF4207000F008FA8D
:102690004FF4464000F0F4F9C820FFF743FD012055
:1026A00000F0FEF94FF4807000F0EAF9022000F02B
:1026B000F7F94FF4007000F0E3F9032000F0F0F9AF
:1026C00041F2300000F0DCF9092000F0E9F90120C6
:1026D00000F0D6F90A2000F0E3F9082000F0D0F964
:1026E0000C2000F0DDF9002000F0CAF90D2000F008
:1026F000D7F9002000F0C4F90E2000F0D1F9302005
:1027000000F0BEF9202000F0CBF9002000F0B8F96D
:10271000212000F0C5F9002000F0B2F9292000F0D6
:10272000BFF9522000F0ACF9502000F0B9F90020B8
:1027300000F0A6F9512000F0B3F9EF2000F0A0F965
:10274000522000F0ADF9002000F09AF9532000F07B
:10275000A7F940F23F1000F093F9612000F0A0F9D2
:10276000002000F08DF96A2000F09AF9002000F0B6
:1027700087F9802000F094F9002000F081F9812091
:1027800000F08EF9002000F07BF9822000F088F93B
:102790005F2000F075F9932000F082F940F20750B5
:1027A00000F06EF9072000F07BF94FF4807000F024
:1027B00067F93220FFF7B6FC222000F071F9002003
:1027C000FFF75CFA4FF6FF70FFF7D6FD0FB000BDC4
:1027D00084020020040100A0240000206C636464D3
:1027E00065765F6964313A252378200D0A00000080
:1027F0000549098848104FF6FF7101EA0020024997
:10280000098840EA610070470008006C70B5064610
:102810000C461D462E48807950BB4FF4047000F0E2
:102820003FF9304600F02CF940F2112000F038F961
:10283000104600F025F940F2122000F031F9204650
:1028400000F01EF940F2132000F02AF9284600F0AB
:1028500017F94FF4007000F023F9304600F010F93A
:1028600040F2012000F01CF9204600F009F929E0AF
:1028700040F2122000F014F9304600F001F940F265
:10288000132000F00DF9104600F0FAF84FF4047030
:1028900000F006F9204600F0F3F840F2112000F0B5
:1028A000FFF8284600F0ECF840F2012000F0F8F8BC
:1028B000304600F0E5F84FF4007000F0F1F82046E3
:1028C00000F0DEF840F2022000F0EAF870BD0000EF
:1028D000240000202DE9FC4F80460E4615461C467C
:1028E000B3460020019000902046E31704EB537399
:1028F000DB1021464FEAE47C04EB5C7C4FEAEC0CF5
:10290000A4EBCC0CBCF1000F02D04FF0010C01E0A5
:102910004FF0000C6344224604EBD27C4FEA6C0C6F
:1029200003FB0CF3DBB20193A5F12000C5B20C2C24
:1029300006D0102C0BD0182C0ED0202C18D112E061
:1029400005EB45002D4901EB8000009012E02C487A
:1029500000EB051000900DE005EBC500294901EBE7
:102960008000009006E0284800EB8510009001E010
:10297000BDE8FC8F00BF00273AE0009810F80790F0
:102980004FF0000A2EE009F0800028B131464046A1
:102990000C9AFFF715FD07E00B9828B91B48314644
:1029A00002684046FFF70CFD4FEA49604FEA1069A4
:1029B000701C86B216484088B04200DCD8E7A6EB0F
:1029C0000B00A0420AD15E4608F101001FFA80F810
:1029D0000F480088404500DCCAE706E00AF1010024
:1029E00000F0FF0ABAF1080FCDDB00BF781CC7B2B8
:1029F00001988742C1DB00BFBAE7000060420008CF
:102A0000D4460008C44C0008205A000820000020CA
:102A1000240000202DE9FC4F04460D4690469946BF
:102A2000DDE90C7A0B9E04F0FF0B08EB04001FFAA3
:102A300080F809EB05001FFA80F917E0444502DB36
:102A40005C46A81985B24D4500DB15E00020CDE9B4
:102A5000000A3A78334629462046FFF73BFF3046C6
:102A600006EBD07104EB61018CB27F1C38787E28B4
:102A700002DC38782028E1DA00BFBDE8FC8F0000D6
:102A800001B5BDF800000012400004490880BDF8FF
:102A900000000006C00D088008BD00000008006CA2
:102AA00001B5BDF800000012400004490880BDF8DF
:102AB00000000006C00D088008BD0000FE07006C85
:102AC00000B585B000BF00BF1648806940F0100017
:102AD000144988610846806900F01000009000BF2A
:102AE00000BF00BF012001900290039003200490DA
:102AF00001A90D48FDF7B0FF0220019001A90A4885
:102B0000FDF7AAFF00BF012211460748FEF756F95C
:102B100000BF00BF012202210348FEF74FF900BFAA
:102B200005B000BD001002400010014088B04FF019
:102B30000008002600240027FEF758F94FF4E010A3
:102B400000F04FFA4820FFF7D9FA4FF4E13000F0D7
:102B50007BFA8148416848208847FFF7B1FFFFF7BB
:102B60006DFCFFF72FFB002000F07CF94FF478405C
:102B70007AA110221346CDE900210290C822322109
:102B80001E20FFF747FF4FF4784076A1102213462E
:102B9000CDE900210290C82246211E20FFF73AFF0E
:102BA0004FF4784072A110221346CDE90021029023
:102BB000C8225A211E20FFF72DFF4FF4784070A144
:102BC00010221346CDE900210290C8226E211E205A
:102BD000FFF720FF4FF478406FA110221346CDE994
:102BE00000210290C82282211E20FFF713FF1F2020
:102BF0006DA110221346CDE900210290C822A02128
:102C00001E20FFF707FF1F2069A110221346CDE900
:102C100000210290C822B0211E20FFF7FBFE99E0A0
:102C20000020FFF747FB0546012D23D0022D02D0DF
:102C3000042D32D118E04FF40061002000F0BAF901
:102C4000044684B132465EA12046FDF71DFB1F20DD
:102C500010210B46D122CDE9001402904FF482716D
:102C60001E20FFF7D7FE18E02146002000F090F963
:102C7000002412E084B1324651A12046FDF704FB46
:102C80001F2010210B46D122CDE9001402904FF4F1
:102C900082711E20FFF7BEFE00BF00BFA7422BD0EF
:102CA00027463A464CA103A8FDF7EEFA1F2003A9D8
:102CB00010221346CDE900210290D122F0211E20DE
:102CC000FFF7A8FE6CB11F2010210B464FF48C7249
:102CD000CDE9001402904FF482711E20FFF79AFE96
:102CE0000AE04FF6FF704FF49473D1224FF48271D3
:102CF00000901E20FFF772FB0A20FFF713FA701CEA
:102D0000C6B2142096FBF0F100FB116010BB00204E
:102D100000F014F980460A2098FBF0F100FB1189BD
:102D200098FBF0FA4B4652462FA103A8FDF7ACFAE8
:102D30001F2003A910221346CDE900210290C822CA
:102D4000B0218E20FFF766FE00BF01212948FEF763
:102D50002BF800BF64E700006C00002053544D3393
:102D6000320000004D414C4C4F4320544553540019
:102D700041544F4D40414C49454E54454B00000095
:102D80004B4559303A4D616C6C6F63204B4559315E
:102D90003A467265650000004B45595F55503A57F9
:102DA00072697465200000005352414D494E200065
:102DB0005352414D494E202020555345443A00007E
:102DC0004D656D6F7279204D616C6C6F6320546539
:102DD00073742530336400005020416464723A30CB
:102DE000582530385800000025642E2530316425E0
:102DF00025000000001001402DE9F04104460E4678
:102E00001548005D38B914481838016820468847CD
:102E10000120BDE8F081114850F82400B04219D9D2
:102E20000F4850F82400B6FBF0F10B48083850F872
:102E3000240030F81120002508E000230648083857
:102E400050F824004F1920F817306D1C9542F4DB20
:102E50000020DEE70220DCE778010020F0710008A6
:102E6000E871000830B504460225084951F82410DD
:102E700001FB05F2064951F82400002100F07EF81C
:102E8000012103480830015530BD0000E071000801
:102E9000700100202DE9F04704460F460025A946A1
:102EA0002348005D20B92248183801682046884729
:102EB0001FB94FF0FF30BDE8F0871E4850F82400DE
:102EC000B7FBF0F61B4850F82400B7FBF0F100FB0D
:102ED000117000B1761C184850F82400451E22E0FD
:102EE0001348083850F8240030F8150010B909F1DB
:102EF000010901E04FF00009B14513D14FF000087E
:102F000009E00B48083850F8240005EB080220F8C7
:102F1000126008F10108B045F3D3064850F82400C8
:102F20006843C8E76D1E002DDADA4FF0FF30C2E7C4
:102F300078010020E8710008E071000810B5014632
:102F40000023002207E00B4850F8210030F812005F
:102F500000B15B1C521C084850F821009042F2D886
:102F60004FF47A705843044C54F82140B0FBF4F00D
:102F700080B210BD70010020E071000830B503463A
:102F800001E003F8011B141EA2F10102F9D130BDCA
:102F900070B505460C4604B970BD054850F82500CB
:102FA000261A31462846FFF727FF00BFF4E7000046
:102FB0006801002070B504460E4631462046FFF7F2
:102FC00069FF0546681C08B9002070BD024850F82A
:102FD00024002844F9E70000680100200146086841
:102FE000704730B58FB005460124282105A8FDF7AC
:102FF000DBFA14216846FDF7D7FA0120059000049A
:1030000006900020079002200C90C1030D910E95B0
:1030100005A8FEF7BFF804460CB100BFFEE70F207D
:10302000009002200190002002904FF480600390F5
:103030000020049002216846FDF776FF04460CB19B
:1030400000BFFEE70FB030BD10B5044609480A497D
:1030500008600846446000218160C16001618161AF
:103060000C214161FEF7F6FC012204490248FEF7FB
:1030700085FD10BD00380140440200200E000020F4
:1030800030B595B0054613AB12AA09A9284600F041
:103090003FFA044614B1204615B030BD002014900C
:1030A00026E0224909689DF8502001EBC20113ABCC
:1030B00011AA486801A900F02BFA04460CB1204679
:1030C000EAE709A901A800F0AFFC60B99DF8440047
:1030D0009DF84810884201DD0220DDE79DF8500090
:1030E000124988750AE09DF85000401CC0B2149047
:1030F0000E48007D9DF850108842D2DC00BF0B487E
:10310000007D9DF85010884201D10420C4E714A925
:10311000284600F0DDFA04460CB12046BCE79DF8D5
:103120005000024948750020B6E700006C000020FE
:103130002DE9F0419AB09C48847D007DA04202DCDC
:103140001AB0BDE8F0819849096801EBC40106ABEB
:1031500007AA486808A900F0DBF908A993A0FDF7C1
:1031600087F8002644E09048008B0121B1400840D8
:10317000D8B122218FA0FDF77BF8304600F042FB4A
:1031800089492431471839468BA0FDF771F822216F
:1031900088A0FDF76DF8304600F034FB82492431F9
:1031A000084410A941F8260018E0304600F02AFB38
:1031B0007D492431085810A941F826007A48C07D7D
:1031C00030B910A850F826107CA0FDF751F805E0A2
:1031D00010A850F826107AA0FDF74AF89DF81C00B8
:1031E000401EB04202D078A0FDF742F8701CC6B273
:1031F0009DF81C008642B6DB74A0FDF739F801F09B
:1032000007F86948407D0B280DD2DFE800F0060D75
:10321000151E27323F4E5F7287006349096851F8D7
:1032200034008047054690E05F4A126852F8341037
:1032300010988847054688E05B4B1B6853F834209C
:10324000DDE91001904705467FE0574F3F6857F88A
:10325000343010A807C89847054676E0DFF848C123
:10326000DCF800C05CF8347010A80FC8B8470546F9
:103270006BE01498DFF830C10090DCF800C05CF817
:10328000347010A80FC8B84705465EE0DDE91401A8
:10329000DFF814C1CDE90001DCF800C05CF834703F
:1032A00010A80FC8B84705464FE0DDE9141216987C
:1032B000DFF8F4C0CDE900120290DCF800C05CF841
:1032C000347010A80FC8B84705463EE0DDE9142366
:1032D000DDE91610DFF8D0C0CDE90023CDE90210FA
:1032E000DCF800C05CF8347010A80FC8B847054679
:1032F0002BE0DDE91523DDE91710CDE90123CDE948
:1033000003101498DFF8A0C00090DCF800C05CF84F
:10331000347010A80FC8B847054616E0DDE916233B
:10332000DDE91810CDE90223CDE90410DDE914012F
:10333000DFF874C0CDE90001DCF800C05CF834703F
:1033400010A80FC8B847054600BF00BF00F00EFF29
:103350009DF8180001280CD11348C07D20B92946DA
:103360001BA0FCF785FF07E029461BA0FCF780FFA8
:1033700002E018A0FCF77CFF0B4890F8EC0088B145
:103380000948D0F8F0000A21B0FBF1F201FB120766
:103390000548D0F8F000B0FBF1F83A46414611A0DC
:1033A000FCF766FF00BFCBE66C0000200D0A25731A
:1033B000280000002563000025730000256C6400D0
:1033C00030582558000000002C00000029000000A3
:1033D0003D256C753B0D0A003D305825583B0D0AC4
:1033E0000000000046756E6374696F6E2052756E42
:1033F0002054696D653A25642E2531646D730D0A7C
:1034000000000000F0B5034615460020002200260B
:1034100000245BE01F782C2F01D104B901221F7812
:10342000292F01D01F780FB904B950E0002E3AD1EE
:103430001F78302F02DB1F78392F17DD1F782D2FD3
:1034400014D01F782B2F11D01F78612F02DB1F782B
:10345000662F0BDD1F78412F02DB1F78462F05DD1D
:103460001F78582F02D01F78782F0CD102B12EE090
:103470001F78612F03DB1F78203F0F7001E01F785A
:103480000F70491C1FE01F78222F04D102B11EE0EB
:103490000126012417E01F78202F14D01F782C2F2D
:1034A00011D0FF2613E01F78222F00D1002402B193
:1034B0000DE044B11F785C2F02D15B1C471CF8B2B1
:1034C0001F780F70491C471CF8B25B1CA2E700BFB5
:1034D00000270F702E70F0BD10B50446002010704C
:1034E0000BE020780870641C491C1078401C107098
:1034F0001078984201DB012010BD2078202802D0EE
:1035000020780028EDD10020087000BFF4E700000B
:103510002DE9FF4F85B080468946002700200490A2
:103520000390012002904FF0000B002544461DE05F
:103530002078202816D005F07F00052812DA0DB972
:1035400045F0800505F07F00042803D120782A2863
:1035500000D00EE0207805F07F010DF80100681C16
:10356000C5B202E0852D00D103E0641C207800285C
:10357000DED100BF8DB1002005F07F010DF8010004
:1035800051A1684600F050FA18B90021089801705E
:1035900002E001210898017000254FF0000A44461E
:1035A00014E0641C0AF1010000F0FF0A20782028D2
:1035B00002D020782A2809D1204600F0A7F9064633
:1035C000282E03D02A2E01D0CDF810A0207828284C
:1035D00002D020780028E4D14446049810B1049821
:1035E000401C04444FF0000A002654E0207810B933
:1035F0004FF0010A50E02078282803D116B9781C32
:10360000C7B213E02078292808D13EB917B1781E37
:10361000C7B201E04FF0010A47B93DE02078222807
:1036200004D10EB9012000E00020064647B92078F9
:1036300020282FD0207889F8000009F1010929E01D
:1036400020782C2804D101200290681CC5B214E017
:103650002078202811D0207828280ED04DB9BBF131
:10366000050F06DA20780DF80B000BF1010000F0D1
:10367000FF0B0298401CC0B20290012F0AD10298A1
:10368000022807D10298401CC0B202900398401C47
:10369000C0B20390641CA9E700BF0398012809D1B8
:1036A00000200DF80B0008A1684600F0BDF908B92C
:1036B00000200390079903980870002089F8000003
:1036C000504609B0BDE8F08F766F696400000000D5
:1036D0002DE9F043B5B005460F460024002604E06E
:1036E00000213D488155701CC6B20A2EF8DB06E069
:1036F0006D1C287818B9012035B0BDE8F083287812
:103700002828F5D16D1C61E034AA69462846FFF7E8
:1037100079FE064635449DF8D00020B1012827D017
:10372000FF284CD149E09DF8000000B333A968465A
:1037300000F0F7F806460EB10220DDE7204600F063
:1037400061F825490A31339A0A50A1F12400008B0F
:103750000121A140884320491A39088304211E48C9
:103760000155601CC4B20A2C01DD0320C4E726E029
:10377000684600F075F9401C00F0FF08204600F094
:1037800041F815490A3100EB01094946684600F045
:103790005CF911481A38018B0120A040014388B21E
:1037A0000D491A3908830C4800F80480601CC4B223
:1037B0000A2C01DD03209FE701E002209CE700BF07
:1037C0002878292801D0287800B900E09CE700BFBC
:1037D0003C70002090E70000860000200020074A8F
:1037E000128802F400423AB1044A11780022044BD4
:1037F0005A541846014B1A80704700000C000020F4
:103800007C01002002460020002105E0044B5B5CA7
:103810000344D8B24B1CD9B29142F7DB7047000089
:103820008600002010B5044604EBC40000EB041031
:103830000122C2EB800081B24FF47A7000F0B8FC34
:1038400001200149C87510BD6C00002010B502466A
:10385000012000E050430B1EA1F10104E1B2F9D1B7
:1038600010BD000070B50026FFF7B8FF064606B988
:1038700070BD174881683046884704461CB9144912
:10388000C868804721E0304600F0F6F80546012D73
:1038900000D02C46CCB1012C06D0022C08D0032C31
:1038A0000AD0042C10D10BE00AA0FCF7E1FC0BE0DD
:1038B0000BA0FCF7DDFC07E00CA0FCF7D9FC03E053
:1038C0000DA0FCF7D5FC00BF00BF00BFD0E7000093
:1038D0006C000020BAAFCAFDB4EDCEF3210D0A0092
:1038E000B2CECAFDB4EDCEF3210D0A00B2CECAFDB0
:1038F000CCABB6E0210D0A00CEB4D5D2B5BDC6A57D
:10390000C5E4B5C4BAAFCAFD210D0A000146491C81
:1039100000E0491C0878202801D10029F9D1087855
:1039200070472DE9F04F05460F4600264FF00A0973
:10393000B3462C460020386034E02078392802DC79
:103940002078302811DA28782D2802D028782B28E2
:1039500000D156B12078462802DC2078412804DACC
:103960002078582817D1012E15D12078412801DB65
:103970004FF0100928782D2803D14FF0020B6D1C51
:103980000FE028782B2803D14FF0010B6D1C08E0C5
:10399000701CC6B205E0207800B904E00120BDE843
:1039A000F08F641CC9E700BF2C46B9F1100F0FD18E
:1039B000032E01DA0220F2E72078302806D1607861
:1039C000582803D1A41CB01EC6B204E00320E6E7C9
:1039D0000EB90420E3E71BE00EB1701EC6B22078DA
:1039E000392806DC2078302803DB2078A0F1300A63
:1039F00002E02078A0F1370A31464846FFF726FF5B
:103A000039680AFB00103860641C207800B900E0B7
:103A1000E2E700BFBBF1020F04D13868C0F1000833
:103A2000C7F800800020BAE702460AE010780B7859
:103A3000984201D001207047107800B902E0521C72
:103A4000491CF3E700BF0020F5E706E002780A70A2
:103A5000027802B902E0401C491CF7E700BF70473A
:103A60000146002005E00A7802B903E0421CD0B20A
:103A7000491CF8E700BF704710B58CB004461E2300
:103A80000BAA03A92046FFF727FD0090009810B16C
:103A900001200CB010BD9DF82C00044400200B90B8
:103AA0000EE040489DF82C2050F8221003A8FFF7A4
:103AB000BBFF00B908E09DF82C00401CC0B20B9081
:103AC0009DF82C000728ECD300BF9DF82C00072898
:103AD00063D2DFE800F004053C5E6564630000BF6C
:103AE00031A0FCF7C5FB31A0FCF7C2FB3FA0FCF7FF
:103AF000BFFB4EA0FCF7BCFB5CA0FCF7B9FB6BA0C6
:103B0000FCF7B6FB79A0FCF7B3FB87A0FCF7B0FB92
:103B10008CA0FCF7ADFB94A0FCF7AAFB98A0FCF7E7
:103B2000A7FB9DA0FCF7A4FBA2A0FCF7A1FBA8A00B
:103B3000FCF79EFBB4A0FCF79BFBC1A0FCF798FB35
:103B4000CCA0FCF795FBD8A0FCF792FBA2E216A054
:103B5000FCF78EFBE4A0FCF78BFB00200B900EE043
:103B6000F14800689DF82C2000EBC2004168EFA0EE
:103B7000FCF77EFB9DF82C00401CC0B20B90EA487D
:103B8000007D9DF82C108842EADC07A0FCF770FB52
:103B900080E205A0FCF76CFBCCE179E24DE221E28A
:103BA000F4E10000300000200D0A00002D2D2D2D25
:103BB0002D2D2D2D2D2D2D2D2D2D2D2D2D2D2D2D35
:103BC0002D2D2D2D55534D4152542056332E352D2C
:103BD0002D2D2D2D2D2D2D2D2D2D2D2D2D2D2D2D15
:103BE0002D2D2D2D2D2D2D200D0A000020202020E3
:103BF00055534D415254CAC7D3C9414C49454E54FF
:103C0000454BBFAAB7A2B5C4D2BBB8F6C1E9C7C974
:103C1000B5C4B4AEBFDAB5F7CAD4BBA5BDBBD7E94E
:103C2000BCFE2CCDA8B9FD200D0A0000CBFC2CC495
:103C3000E3BFC9D2D4CDA8B9FDB4AEBFDAD6FACAB3
:103C4000D6B5F7D3C3B3CCD0F2C0EFC3E6B5C4C882
:103C5000CEBACEBAAFCAFD2CB2A2D6B4D0D02ED234
:103C6000F2B4CB2CC4E3BFC90D0A0000D2D4CBE61A
:103C7000D2E2B8FCB8C4BAAFCAFDB5C4CAE4C8EB56
:103C8000B2CECAFD28D6A7B3D6CAFDD7D6283130C2
:103C90002F3136BDF8D6C62CD6A7B3D6B8BACAFDD2
:103CA00029A1A2D7D6B7FBB4AE0D0A00A1A2BAAF24
:103CB000CAFDC8EBBFDAB5D8D6B7B5C8D7F7CEAA14
:103CC000B2CECAFD292CB5A5B8F6BAAFCAFDD7EE5B
:103CD000B6E0D6A7B3D63130B8F6CAE4C8EBB2CE58
:103CE000CAFD2CB2A2D6A7B3D60D0A00BAAFCAFD40
:103CF000B7B5BBD8D6B5CFD4CABE2ED6A7B3D6B229
:103D0000CECAFDCFD4CABEBDF8D6C6C9E8D6C3B99F
:103D1000A6C4DC2CD6A7B3D6BDF8D6C6D7AABBBBE3
:103D2000B9A6C4DC2E0D0A00BCBCCAF5D6A7B3D612
:103D30003A7777772E6F70656E6564762E636F6D58
:103D40000D0A000055534D415254D3D037B8F6CF29
:103D5000B5CDB3C3FCC1EE28B1D8D0EBD0A1D0B45F
:103D6000293A0D0A000000003F3A202020202020A0
:103D7000BBF1C8A1B0EFD6FAD0C5CFA20D0A0000A2
:103D800068656C703A202020BBF1C8A1B0EFD6FA6C
:103D9000D0C5CFA20D0A00006C6973743A202020B0
:103DA000BFC9D3C3B5C4BAAFCAFDC1D0B1ED0D0A06
:103DB0000A00000069643A2020202020BFC9D3C334
:103DC000BAAFCAFDB5C44944C1D0B1ED0D0A0A006D
:103DD0006865783A20202020B2CECAFD3136BDF881
:103DE000D6C6CFD4CABE2CBAF3B8FABFD5B8F12B19
:103DF000CAFDD7D6BCB4D6B4D0D0BDF8D6C6D7AAE3
:103E0000BBBB0D0A0A0000006465633A2020202035
:103E1000B2CECAFD3130BDF8D6C6CFD4CABE2CBA98
:103E2000F3B8FABFD5B8F12BCAFDD7D6BCB4D6B417
:103E3000D0D0BDF8D6C6D7AABBBB0D0A0A00000079
:103E400072756E74696D653A312CBFAAC6F4BAAF4B
:103E5000CAFDD4CBD0D0BCC6CAB13B302CB9D8B186
:103E6000D5BAAFCAFDD4CBD0D0BCC6CAB13B0D0ABF
:103E70000A000000C7EBB0B4D5D5B3CCD0F2B1E0A6
:103E8000D0B4B8F1CABDCAE4C8EBBAAFCAFDC3FB2F
:103E9000BCB0B2CECAFDB2A2D2D4BBD8B3B5BCFCC2
:103EA000BDE1CAF82E0D0A002D2D2D2D2D2D2D2D05
:103EB0002D2D2D2D2D2D2D2D2D2D2D2D2D2D2D2D32
:103EC0002D2DD5FDB5E3D4ADD7D32D2D2D2D2D2DF5
:103ED0002D2D2D2D2D2D2D2D2D2D2D2D2D2D2D2D12
:103EE0002D2D2D200D0A00002D2D2D2D2D2D2D2DAC
:103EF0002D2D2D2D2D2D2D2D2D2D2D2D2D2D2D2DF2
:103F00002DBAAFCAFDC7E5B5A52D2D2D2D2D2D2D13
:103F10002D2D2D2D2D2D2D2D2D2D2D2D2D2D2D2DD1
:103F20002D2D2D2D200D0A006C00002025730D0A6B
:103F30000000000059A0FCF79BF900200B901AE04C
:103F4000664909689DF82C2001EBC20101AB02AA69
:103F5000486803A9FFF7DCFA604800689DF82C1058
:103F600050F8312003A95EA0FCF782F99DF82C00DF
:103F7000401CC0B20B905948007D9DF82C1088421F
:103F8000DEDCAFF2DC30FCF773F983E0AFF2E8304F
:103F9000FCF76EF90BAA03A92046FFF733FA9DF848
:103FA0002C00C8B9694603A8FFF7BBFC0B909DF82D
:103FB0002C0020B94FA00099FCF75AF90EE09DF8AB
:103FC0002C00042801D0022063E54DA0FCF750F935
:103FD00001204249C87501E002205AE547A0FCF7DC
:103FE00047F957E045A0FCF743F90BAA03A920467F
:103FF000FFF708FA9DF82C00C8B9694603A8FFF737
:1040000090FC0B909DF82C0020B942A00099FCF781
:104010002FF90EE09DF82C00042801D0022038E58D
:104020003FA0FCF725F900202C49C87501E00220CB
:104030002FE532A0FCF71CF92CE030A0FCF718F9B2
:104040000BAA03A92046FFF7DDF99DF82C00C8B99B
:10405000694603A8FFF765FC0B909DF82C0078B922
:104060001E49009881F8EC00084690F8EC0018B161
:1040700030A0FCF7FDF807E035A0FCF7F9F803E005
:10408000022006E5022004E51CA0FCF7F1F801E09F
:104090000120FEE400BF0020FBE400002D2D2D2DAB
:1040A0002D2D2D2D2D2D2D2D2D2D2D2D2D2D2D2D40
:1040B0002D2D2D2D2DBAAFCAFD204944202D2D2D9B
:1040C0002D2D2D2D2D2D2D2D2D2D2D2D2D2D2D2D20
:1040D0002D2D2D2D2D2D2D2D200D0A006C000020B5
:1040E00025732069642069733A0D0A3058253038E9
:1040F000580D0A004845583A305825580D0A000016
:104100003136BDF8D6C6B2CECAFDCFD4CABE210D57
:104110000A0000004445433A256C750D0A00000072
:104120003130BDF8D6C6B2CECAFDCFD4CABE210D3D
:104130000A00000052756E2054696D652043616C61
:1041400063756C6174696F6E204F4E0D0A0000003C
:1041500052756E2054696D652043616C63756C61A6
:1041600074696F6E204F46460D0A00000E480068C5
:10417000006900F0010040B10C48D0F8F0004FF6A3
:10418000FF7108440949C1F8F0000848D0F8F00070
:1041900005490968496A08440449C1F8F00008461D
:1041A000D0F8F00070470000CC0200206C00002026
:1041B00038B504460D4600BF00BF1248C06940F044
:1041C00004001049C8610846C06900F0040000906E
:1041D00000BF00BF00BF0C480C490860084645609E
:1041E00000218160C4600161FDF70CFB0748FDF709
:1041F0003DFB032211461E20FCF743FE1E20FCF768
:1042000030FE38BD0010024000080040CC02002003
:104210006FF0010009490968086100BF000C0749F7
:104220000968C86201460548C16000BF0020034913
:10423000096848620249C1F8F0007047CC020020CA
:104240006C000020016070470000000000000000CA
:10425000010203040607080900000000010203042C
:10426000000000000000000000000000000000004E
:104270003F4000000000000000003000400030001F
:104280004000000009000BC03D000BC03D000900CC
:1042900018C024407FE0224031800000180024C074
:1042A0001B000D803240018003801C4027401C8091
:1042B0000740004010006000000000000000000007
:1042C0000000000000001F8020404020000040202F
:1042D00020401F8000000000090006001F8006002B
:1042E00009000000040004003F80040004000000F6
:1042F0000010006000000000000000000400040046
:104300000400040004000000000000400000000061
:1043100000000000002001C006003800400000003E
:104320001F802040204020401F80000000001040DF
:104330003FC000400000000018C02140224024403F
:104340001840000010802040244024401B800000C2
:1043500002000D0011003FC0014000003C802440DD
:1043600024402440238000001F8024402440344007
:10437000038000003000200027C03800200000002B
:104380001B802440244024401B8000001C0022C0CD
:10439000224022401F800000000000000840000072
:1043A00000000000000000000460000000000000A9
:1043B000000004000A0011002080404009000900AC
:1043C00009000900090000000000404020801100A1
:1043D0000A000400180020002340240018000000F8
:1043E0001F802040274029401F400000004007C098
:1043F00039000F0001C0004020403FC0244024404D
:104400001B8000001F8020402040204030800000A2
:1044100020403FC0204020401F80000020403FC07F
:1044200024402E4030C0000020403FC024402E00D9
:10443000300000000F001080204022403380020036
:1044400020403FC0040004003FC0204020402040E6
:104450003FC02040204000000060202020203FC0BE
:104460002000200020403FC024400B0030C02040EE
:1044700020403FC020400040004000C03FC03C0002
:1044800003C03C003FC0000020403FC00C40230060
:104490003FC020001F802040204020401F8000009F
:1044A00020403FC024402400180000001F8021400D
:1044B000214020E01FA0000020403FC024402600F3
:1044C00019C0004018C02440244022403180000020
:1044D000300020403FC020403000000020003F80DE
:1044E000004000403F80200020003E0001C0070047
:1044F00038002000380007C03C0007C0380000002A
:10450000204039C0060039C020400000200038405B
:1045100007C0384020000000304021C0264038400D
:1045200020C00000000000007FE04020402000008C
:10453000000070000C0003800040000000004020DC
:1045400040207FE00000000000002000400020002C
:1045500000000000001000100010001000100010FB
:104560000000000040000000000000000000028089
:104570000540054003C0004020003FC00440044007
:104580000380000000000380044004400640000057
:1045900000000380044024403FC00040000003802E
:1045A0000540054003400000000004401FC02440B7
:1045B00024402000000002E0055005500650042071
:1045C00020403FC00440040003C0004000000440FD
:1045D00027C000400000000000100010041027E079
:1045E0000000000020403FC00140070004C004401C
:1045F000204020403FC000400040000007C00400B1
:1046000007C0040003C00000044007C004400400C9
:1046100003C0004000000380044004400380000009
:10462000041007F0045004400380000000000380E1
:104630000440045007F00010044007C0024004008A
:1046400004000000000006400540054004C00000D2
:10465000000004001F8004400040000004000780A8
:104660000040044007C000400400070004C001806F
:1046700006000400060001C0070001C0060000009B
:10468000044006C0010006C00440000004100710EA
:1046900004E00180060004000000044005C006405C
:1046A000044000000000000004007BE04020000007
:1046B000000000000000FFF00000000000004020AB
:1046C0007BE004000000000040008000400020006B
:1046D000200040000000000000000000000000007A
:1046E000000000000000000000001FCC000C0000D3
:1046F00000000000000008003000600008003000EA
:1047000060000000022003FC1E20022003FC1E208B
:104710000220000000000E1811043FFF10840C78E6
:10472000000000000F0010840F3800C007781884C4
:104730000078000000780F8410C411240E9800E463
:1047400000840008080068007000000000000000FD
:104750000000000000000000000007E0181820041E
:1047600040020000000040022004181807E000008A
:10477000000000000240024001800FF00180024072
:10478000024000000080008000800FF80080008060
:10479000008000000001000D000E0000000000007D
:1047A0000000000000000080008000800080008089
:1047B000008000800000000C000C000000000000E1
:1047C00000000000000000060018006001800600E4
:1047D00018002000000007F0080810041004080862
:1047E00007F000000000080408041FFC0004000497
:1047F0000000000000000E0C10141024104411845E
:104800000E0C000000000C18100411041104128892
:104810000C700000000000E00320042408241FFCAA
:104820000024000000001F98108411041104108857
:1048300010700000000007F00888110411041888A7
:104840000070000000001C00100010FC13001C0091
:104850001000000000000E38114410841084114430
:104860000E38000000000700088C1044104408882F
:1048700007F00000000000000000030C030C000023
:104880000000000000000000000101060000000020
:104890000000000000000080014002200410080811
:1048A0001004000002200220022002200220022028
:1048B000022000000000100408080410022001403B
:1048C0000080000000000E001200100C106C108020
:1048D0000F00000003E00C1813E4142417C4082888
:1048E00007D000000004003C03C41C40074000E463
:1048F000001C000410041FFC1104110411040E8894
:104900000070000003E00C181004100410041008DC
:104910001C10000010041FFC1004100410040808F0
:1049200007F0000010041FFC1104110417C4100448
:104930000818000010041FFC1104110017C010001B
:104940000800000003E00C181004100410441C7848
:104950000040000010041FFC1084008000801084C0
:104960001FFC10040000100410041FFC10041004AD
:104970000000000000030001100110011FFE1000E4
:104980001000000010041FFC110403801464181CA4
:104990001004000010041FFC1004000400040004B4
:1049A000000C000010041FFC1F0000FC1F001FFC77
:1049B0001004000010041FFC0C04030000E0101899
:1049C0001FFC100007F00808100410041004080869
:1049D00007F0000010041FFC10841080108010806D
:1049E0000F00000007F0081810241024101C080AFB
:1049F00007F2000010041FFC1104110011C0113057
:104A00000E0C000400000E1C1104108410841044CD
:104A10001C3800001800100010041FFC10041000C7
:104A20001800000010001FF8100400040004100417
:104A30001FF8100010001E0011E0001C0070138011
:104A40001C0010001FC0103C00E01F0000E0103CE4
:104A50001FC000001004180C163401C001C0163429
:104A6000180C100410001C00130400FC13041C009C
:104A7000100000000804101C1064108413041C04AF
:104A8000101800000000000000007FFE40024002FD
:104A900040020000000030000C0003800060001C99
:104AA0000003000000004002400240027FFE0000C0
:104AB0000000000000000000200040004000400016
:104AC00020000000000100010001000100010001C0
:104AD0000001000100004000400020000000000034
:104AE000000000000000009801240144014401443A
:104AF00000FC000410001FFC008801040104008871
:104B0000007000000000007000880104010401042E
:104B100000880000000000700088010401041108F2
:104B20001FFC0004000000F801440144014401445A
:104B300000C800000000010401040FFC110411046E
:104B400011001800000000D601290129012901C91E
:104B50000106000010041FFC008401000100010494
:104B600000FC000400000104190419FC0004000406
:104B7000000000000000000300010101190119FEFE
:104B80000000000010041FFC0024004001B4010CD0
:104B9000010400000000100410041FFC00040004C5
:104BA00000000000010401FC0104010001FC0104FB
:104BB000010000FC010401FC00840100010001046B
:104BC00000FC0004000000F80104010401040104D9
:104BD00000F80000010101FF0085010401040088C4
:104BE000007000000000007000880104010401054D
:104BF00001FF00010104010401FC00840104010023
:104C000001800000000000CC0124012401240124C3
:104C10000198000000000100010007F801040104F0
:104C200000000000010001F8000400040004010875
:104C300001FC0004010001800170000C0010016003
:104C40000180010001F0010C003001C00030010CB6
:104C500001F0010000000104018C00740170018C5E
:104C600001040000010101810171000E00180160C2
:104C70000180010000000184010C01340144018421
:104C8000010C0000000000000000000001003EFCDC
:104C9000400240020000000000000000FFFF000092
:104CA000000000000000400240023EFC0100000045
:104CB0000000000000006000800080004000400014
:104CC00020002000000000000000000000000000A4
:104CD00000000000000000000000000000000000D4
:104CE00000000000000000000000000000000000C4
:104CF000000000000000000F80380FFE380F8038E1
:104D000000000000000000000000000000000000A3
:104D100000000100000600000C0000380000310017
:104D2000000600000C000038000030000000000009
:104D30000000000061800067F807F98000618000D2
:104D400061800061800061800067F807F980006180
:104D50008000000000000000000001C0E003E0F05F
:104D60000630080418081FFFFE040E080787F0032A
:104D700081E000000000000001F000060C000404C7
:104D800008060C7001F9C0000E00003BE000EC18B2
:104D9000070808040C180003E00000000001E00010
:104DA00007F003F818041C0804170807E1D003C033
:104DB000E00023B0003C08002008000010000000C4
:104DC0000000000100003100003200001C00000063
:104DD00000000000000000000000000000000000D3
:104DE00000000000000000000000000000000000C3
:104DF000000000007F0001FFC00780F00C001810C9
:104E0000000420000200000000000020000210004A
:104E1000040C00180780F001FFC0007F00000000B4
:104E20000000000000000000000000000000000082
:104E30004200006600006600003C0000180003FF0E
:104E4000C0001800003C0000660000660000420040
:104E50000000000008000008000008000008000032
:104E6000080001FFC000080000080000080000085A
:104E700000000800000000000001000031000032C6
:104E800000001C0000000000000000000000000006
:104E90000000000000000000000000000800000802
:104EA00000000800000800000800000800000800DA
:104EB00000080000080000080000000000000000DA
:104EC000000000003800003800003800000000003A
:104ED00000000000000000000000000000000000D2
:104EE00000000000000600001C00007000018000AF
:104EF0000E0000380000C0000700001C0000300059
:104F000000000000000000007F8001FFE0038070CF
:104F10000600180400080400080600180380700149
:104F2000FFE0007F800000000000000000000100A2
:104F30000801000801000803FFF807FFF800000857
:104F40000000080000080000000000000000000150
:104F5000C03802C058040098040118040218040460
:104F600018061C1803F81801E0F800000000000003
:104F700000000001C0E003C0F004000804080804B9
:104F8000080806180803F41801E7F00001E0000023
:104F900000000000000000000300000D00001100F0
:104FA00000610000810803010807FFF80FFFF80007
:104FB00001080001080000000000000000E007FCFC
:104FC000D00608080610080610080610080618384B
:104FD000060FF00607C000000000000000000000FF
:104FE0003F8001FFE0038430020818041008041019
:104FF00008041008071810030FF00007C000000095
:1050000000000000000003C00007000006000006CA
:1050100000F80607F806180006E000070000060082
:105020000000000000000001E1E003F7F00634108A
:10503000041808041808040C08040C0806161803C1
:10504000F3F001C1E000000000000000F80003FCE4
:10505000300306380402080402080402080404109D
:105060000308F001FFC0007F000000000000000006
:105070000000000000000000000000007038007018
:105080003800703800000000000000000000000040
:105090000000000000000000000000000000000010
:1050A000301A00301C00000000000000000000006A
:1050B00000000000000000000000000800001400D4
:1050C0000022000041000080800100400200200416
:1050D000001008000800000000000000210000216E
:1050E000000021000021000021000021000021001B
:1050F000002100002100002100000000000000004D
:105100000000080008040010020020010040008098
:105110008000410000220000140000080000000090
:1051200000000003C00004C00004000008003808AC
:105130000F380808380810000C300007E00003C0E2
:1051400000000000000000003F8000FFE0038070CE
:10515000020F1006708804C088048308047F880248
:10516000C09003012000FE4000000800001800016C
:10517000F8003E0801C20007020007E20000FE003E
:10518000001FC80001F800003800000804000807EC
:10519000FFF807FFF80408080408080408080408D2
:1051A0000806180803F41801E7F00001E000000009
:1051B000000000003F8001FFE0038070020018043F
:1051C00000080400080400080400100600200780FE
:1051D000C000000004000807FFF807FFF8040008FB
:1051E0000400080400080400180200100380700185
:1051F000FFE0007F8000000004000807FFF807FFC1
:10520000F8040808040808040808040808043E080C
:1052100004000806001801006000000004000807F0
:10522000FFF807FFF8040808040800040800040851
:1052300000043E000600000600000180000000009F
:10524000000000003F8001FFE003807006001804AA
:1052500000080402080402080203F00783F00002B9
:105260000000020004000807FFF807FFF804080820
:1052700000080000080000080000080004080807F3
:10528000FFF807FFF8040008000000000000040019
:105290000804000804000807FFF807FFF8040008E6
:1052A00004000804000800000000000000000000E6
:1052B00000060000070000010400010400010400D2
:1052C0000307FFFE07FFFC040000040000040000C9
:1052D00004000807FFF807FFF8040C080018000096
:1052E0003E0004C7800503C80600F8040038040027
:1052F0001800000804000807FFF807FFF80400087A
:105300000000080000080000080000080000080075
:10531000001800006000000004000807FFF8078084
:105320000807FC00007FC00003F80007C0007800F9
:1053300007800807FFF807FFF804000804000807C3
:10534000FFF807000803C00000E000003800001E5E
:10535000000007000001C00400F007FFF80400008F
:10536000000000007F8001FFE00380700600180449
:10537000000804000806001803003001FFE0007F69
:105380008000000004000807FFF807FFF804040885
:10539000040400040400040400040400060C0003D8
:1053A000F80001F000000000000000007F8001FF15
:1053B000E00380700600880400880400C806003CF2
:1053C00003003E01FFE6007F8400000004000807A0
:1053D000FFF807FFF8040808040800040C00040F95
:1053E00000040BC00610F003F03801E008000008CC
:1053F00000000001E0F803F0300630100418080443
:105400001808040C08040C080206180207F00781AB
:10541000E00000000180000600000400000400001D
:1054200004000807FFF807FFF80400080400000460
:10543000000006000001800004000007FFE007FFF5
:10544000F004001800000800000800000800000830
:1054500000000804001007FFE0040000040000063C
:10546000000007E00007FE00041FE00001F8000054
:10547000380001E0043E0007C00006000004000000
:1054800004000007E00007FFC0041FF80007C00782
:10549000F80007FF80043FF80007C004F800070089
:1054A0000004000000000004000806001807C0788F
:1054B00005F1C8003E00001F800463E80780F8067D
:1054C0000018040008000000040000060000078027
:1054D0000007E008047C08001FF80007F80018081F
:1054E00004E00807000006000004000000000001BE
:1054F00000080600380400F80403E8040F08047CE0
:105500000805F00807C00807001804006000000044
:105510000000000000000000000000000000003F4C
:10552000FFFE2000022000022000022000022000D6
:10553000020000000000000000000800000700005A
:1055400000C0000038000006000001C0000030006C
:10555000000E00000100000000000000000020001C
:10556000022000022000022000022000023FFFFE75
:10557000000000000000000000000000000000002B
:1055800000000000000800001000003000002000B3
:1055900000300000100000080000000000000000C3
:1055A00000000100000100000100000100000100F6
:1055B00000010000010000010000010000010000E6
:1055C00001000001000000000000000000200000B9
:1055D000200000100000100000000000000000008B
:1055E00000000000000000000000000000F00019B2
:1055F000F8001B18002208002608002408002410C8
:10560000003FF8001FF80000080000180000000428
:10561000000007FFF80FFFF0001818001008002026
:1056200008002008003018001FF0000FC000000024
:105630000000000007C0001FF00018300020080024
:105640002008002008003C08001C1000006000003A
:10565000000000000000000007C0001FF000381824
:1056600000200800200800200804101007FFF80F91
:10567000FFF0000010000000000000000000000724
:10568000C0001FF00012300022180022080022087B
:10569000003208001E10000E200000000000000074
:1056A000200000200800200801FFF803FFF8062072
:1056B0000804200804200807200003000000000060
:1056C00000000000000E000E6E001FF30031B1005C
:1056D00020B10020B1003191001F13002E1E0020C8
:1056E0000E00300000000004000807FFF80FFFF86C
:1056F000001008002000002000002008003FF800F3
:105700001FF800000800000000000000000000205A
:1057100008002008002008063FF8063FF8000008AF
:105720000000080000080000000000000000000069
:105730000000000003000003002001002001002001
:1057400003063FFE063FFC000000000000000000D2
:1057500000000004000807FFF80FFFF800018800B0
:105760000300002FC00038F8002038002008000097
:105770000800000000000000000004000804000809
:1057800004000807FFF80FFFF800000800000800F9
:105790000008000000000000002008003FF8003F63
:1057A000F8001008002000003FF8003FF800100843
:1057B000002000003FF8003FF80000080000000053
:1057C0002008003FF8003FF80010080010000020FB
:1057D00000002008003FF8001FF80000080000004B
:1057E0000000000007C0000FF00018300030080073
:1057F0002008002008003008001830000FF00007D3
:10580000C0000000000000002001003FFF003FFF3B
:105810000010110020090020080020080030380086
:105820001FF0000FC00000000000000007C0001FB4
:10583000F00038180020080020080020090010118E
:10584000001FFF003FFF00000100000000200800D3
:105850002008002008003FF8003FF800080800106A
:105860000800200800200000300000300000000088
:10587000000000000000000C78001E180033080033
:1058800023080021080021880021980030F000380A
:105890006000000000000000200000200000200048
:1058A00000FFF003FFF80020080020080020080097
:1058B0000030000000000000000000002000003F59
:1058C000F0007FF800001800000800000800201019
:1058D000003FF8007FF00000100000000000000012
:1058E0002000003000003C00003F800023F000005A
:1058F00078000070002380003C0000300000200091
:10590000002000003C00003FE00023F80000E00021
:105910002700003E00003FE00021F80001E0003ECB
:105920000000200000000000200800200800383897
:10593000003E680027800003C8002CF800383800BB
:1059400020180020080000000000000020000030A7
:1059500003003C01003F830023EC00007000238023
:10596000003C0000200000200000000000000000BB
:1059700000000038080020380020F80023E8002F3D
:1059800088003E0800380800201800007000000061
:105990000000000000000000000000000000000007
:1059A00008000014001FF7FC300006200002000071
:1059B00000000000000000000000000000000000E7
:1059C000000000000000FFFFFF00000000000000DA
:1059D00000000000000000000000000000002000A7
:1059E000023000061FF7FC00140000080000000051
:1059F000000000000000000000000000000000188F
:105A00000000600000400000400000200000100086
:105A1000000800000400000400000C00001000005A
:105A20000000000000000000000000000000000076
:105A30000000000000000000000000000000000066
:105A40000000000000000000000000000000000056
:105A50000000000000000000000000000000000046
:105A60000000000000000000000000000000000036
:105A7000000000000000000007F000C007FFE1E0A8
:105A800007F001E0000000C000000000000000007E
:105A90000000000000000000000000000000000006
:105AA00000000000000000000020000001C0000015
:105AB000078000001F0000001E0000001C200000E6
:105AC00001C00000078000001F0000001E00000051
:105AD0001C000000000000000000000000000000AA
